:100000000C946C000C94740B0C94740B0C94740B87
:100010000C94740B0C94740B0C94740B0C94740B64
:100020000C94740B0C94740B0C94740B0C94740B54
:100030000C94740B0C94740B0C94740B0C94740B44
:100040000C94740B0C94740B0C94740B0C94740B34
:100050000C94740B0C94740B0C94740B0C94740B24
:100060000C94740B0C94740B0C94740B0C94740B14
:100070000C94740B0C94740B0C94740B0C94740B04
:100080000C94740B0C94740B0C94740B0C94740BF4
:100090000C94740B0C94740B0C94740B0C94740BE4
:1000A0000C94740B0C94740B0C94740B0C94740BD4
:1000B0000C94740B0C94740B0C94740B0C94740BC4
:1000C0000C94740B0C94740B0C94740B01000102CF
:1000D000800102012D0016FA11241FBECFEFD8E0D7
:1000E000DEBFCDBFECECF0E040E017C0B591A591CC
:1000F00035912591059107FD0CC095918591EF01F2
:10010000F92FE82F05900D92A217B307D9F7FE013A
:1001100004C01D92A217B307E1F7E83DF40731F7D9
:0C0120000E94E0090C94220BF894FFCF21
:10012C00A2E2B0E0ECE9F0E00C94520A29833A83A5
:10013C004B835C8329013A01E89477F8411451040C
:10014C006104710409F4FFC569877A878B879C87E2
:10015C004B015C016115710500E880070FE3900706
:10016C0009F4F1C56B017C01E894F7F811E0C116B4
:10017C00D10410E8E1061FE7F1060CF0DFC5A1E0A1
:10018C004A165104A0E86A06AFE77A060CF0D6C509
:10019C0097FF42C041145104B0E86B06BBE47B06E8
:1001AC00ECF541145104E0E86E06EFE37E060CF426
:1001BC0059C05301420117E1B594A79497948794C1
:1001CC001A95D1F7FFE78F1A9108A108B108E7E15A
:1001DC00F0E0E819F909530142010E2E04C0B59460
:1001EC00A794979487940A94D2F78D829E82AF82BB
:1001FC00B88604C0880C991CAA1CBB1CEA95D2F7C3
:10020C00481459046A047B0469F5ED81E170B2E08D
:10021C009B2E9E1A9D8227C01D8202C002E00D8378
:10022C004114510410E861061FE77106E1F4C11492
:10023C00D10480E8E8068FE3F80609F484C54CF095
:10024C0089809A80AB80BC80B7FC82C5CA01B90199
:10025C0082C5E980FA800B811C8117FF79C5CA0120
:10026C00B9017FC01D822D8B3E8B4F8B588F4B015C
:10027C005C014114510400E860060FE3700679F448
:10028C00E980FA800B811C8117FF65C59B01AC01CD
:10029C0060E070E080E89FE30E94690B5CC5098117
:1002AC001A812B813C8101151105210540E434078D
:1002BC0029F49B01AC010E946D0B4DC589819A817B
:1002CC00AB81BC810097A105BF4359F409851A8500
:1002DC002B853C8537FD05C0C501B4010E94B506D0
:1002EC003AC5C501B4010E94760BC114D104E104D6
:1002FC00F10449F01FE3B1228114910420E8A20615
:10030C002FE3B20681F589809A80AB80BC80B7FE62
:10031C0008C09B01AC0160E070E080E89FE30E94A4
:10032C00690B89849A84AB84BC84B7FE14C500E83D
:10033C00E01A0FE3F00A1D81C12AC114D104E104B3
:10034C00F10459F481E290E0909301018093000153
:10035C006FEF7FEF8FEF9FE7FEC40D81013009F047
:10036C00FAC49058F8C489849A84AB84BC84B7FED0
:10037C0010C09D80992031F3092D013051F4812C4E
:10038C00912CA12CA0E8BA2E89869A86AB86BC86C5
:10039C0004C019861A861B861C8601E0401651047F
:1003AC0061040DE470060CF488C018EFC1161FEF41
:1003BC00D1061FE7E1061FE3F1063CF489809A8021
:1003CC00AB80BC80B7FE41C317C308E0C016D10494
:1003DC0000E8E0060FE3F0065CF089809A80AB80C1
:1003EC00BC80181419041A041B040CF405C32DC387
:1003FC0020E030E040E85FE30E94440B6B017C019D
:10040C0020E03AEA48EB5FE30E946D0B4B015C0184
:10041C0020E735EA4CEE56E3C701B6010E946D0B9E
:10042C0069837A838B839C8320E030E040E85EE331
:10043C00C701B6010E946D0B9B01AC016BEA7AEA15
:10044C008AEA9EE30E94440BA70196010E946D0B61
:10045C009B01AC0160E070E080E09FE30E94440BE4
:10046C002B013C01A7019601C701B6010E946D0B3F
:10047C009B01AC01C301B2010E946D0B2BE33AEA64
:10048C0048EB5FE30E946D0B9B01AC0169817A81A3
:10049C008B819C810E94440B6B017C019B01AC0104
:1004AC00C501B4010E94450B6627707F6D837E8366
:1004BC008F839887A501940120C2C114D10400E850
:1004CC00E006F1046CF420E030E040E85BE40E94CC
:1004DC006D0B6B017C0148EE5FEF6FEF7FEF03C09C
:1004EC0040E050E0BA01D701C601F7E1B595A795F8
:1004FC0097958795FA95D1F78F579109A109B1096D
:10050C004C015D01840E951EA61EB71E898A9A8A1F
:10051C00AB8ABC8AE894E7F8FF244601570168943B
:10052C00A7F80FE3B02A12E7C11614ECD1061CE1B0
:10053C00E106F104B4F027EDC21623EBD2062DE54B
:10054C00E206F1049CF089899A89AB89BC890196F1
:10055C00A11DB11D898B9A8BAB8BBC8B90E8A91A12
:10056C00B1081D821E821F82188608C0E12CF12C56
:10057C008701E394ED82FE820F8318870D811E8123
:10058C00000F111F000F111F1AA309A3F801EB5D37
:10059C00FE4FE080F18002811381ED86FE860F878D
:1005AC00188BA8019701C501B4010E94440B698FF7
:1005BC007A8F8B8F9C8FA8019701C501B4010E9483
:1005CC00450B9B01AC0160E070E080E89FE30E946A
:1005DC00690B6D8F7E8F8F8F98A39B01AC01698DFA
:1005EC007A8D8B8D9C8D0E946D0B69837A838B83A6
:1005FC009C8349805A806B807C80442400EF50227D
:10060C0075016401F594E794D794C794CC2410EF4A
:10061C00D122E894F5F86894F5F8D701C601A05CEE
:10062C00BF4FCD80DE80EF80F88475E1CC0CDD1CF3
:10063C00EE1CFF1C7A95D1F7C80ED91EEA1EFB1EC4
:10064C00A7019601C301B2010E946D0B9B01AC0185
:10065C00698D7A8D8B8D9C8D0E94440B6D837E836E
:10066C008F8398872D853E854F855889C701B601A4
:10067C000E94440B9B01AC01C501B4010E94440BC8
:10068C00A30192010E946D0B9B01AC016D817E81D7
:10069C008F8198850E94440B2D8D3E8D4F8D58A1D6
:1006AC000E946D0B6D837E838F83988729813A819D
:1006BC004B815C81CA01B9010E946D0B6B017C01FD
:1006CC0022E431EF43E55EE30E946D0B25E532E356
:1006DC004CE65EE30E94450BA70196010E946D0B50
:1006EC0025E033EA4BE85EE30E94450BA701960137
:1006FC000E946D0B2BEA3AEA4AEA5EE30E94450B34
:10070C00A70196010E946D0B27EB3DE64BED5EE3D6
:10071C000E94450BA70196010E946D0B2AE939E94D
:10072C0049E15FE30E94450B4B015C01A701960177
:10073C00C701B6010E946D0B9B01AC01C501B40150
:10074C000E946D0B6B017C01A301920169817A817E
:10075C008B819C810E94450B2D813E814F81588558
:10076C000E946D0BA70196010E94450B6B017C0149
:10077C00A3019201C301B2010E946D0B6D877E87AC
:10078C008F87988B20E030E040E450E40E94450BCA
:10079C00A70196010E94450B4B015C01882420EFB8
:1007AC009222A5019401C301B2010E946D0B2B0191
:1007BC003C0120E030E040E450E4C501B4010E946B
:1007CC00440B2D853E854F8558890E94440B9B0117
:1007DC00AC01C701B6010E94440B29813A814B81BF
:1007EC005C810E946D0B6B017C01A50194016D81F4
:1007FC007E818F8198850E946D0B9B01AC01C70196
:10080C00B6010E94450B4B015C019B01AC01C3017D
:10081C00B2010E94450B6B017C01CC2430EFD3223A
:10082C0020E030E446E75FE3C701B6010E946D0BA0
:10083C0069837A838B839C83A3019201C701B601E0
:10084C000E94440B9B01AC01C501B4010E94440BF6
:10085C002FE438E346E75FE30E946D0B4B015C012C
:10086C0026EC33E246EF58EBC701B6010E946D0B44
:10087C009B01AC01C501B4010E94450BE9A1FAA191
:10088C00EB5EFE4F20813181428153810E94450BEA
:10089C006B017C0169897A898B899C890E94760914
:1008AC004B015C0109A11AA1035E1E4FD8014D90AA
:1008BC005D906D907C90A701960169817A818B8106
:1008CC009C810E94450BA30192010E94450BA5013E
:1008DC0094010E94450B6627707F6D837E838F8306
:1008EC009887A50194010E94440BA30192010E94D8
:1008FC00440B29813A814B815C810E94440B9B0102
:10090C00AC01C701B6010E94440B4B015C01CD88C0
:10091C00DE88EF88F88CCC24B0EFDB22A70196019F
:10092C006D897E898F89988D0E94440B2D813E8123
:10093C004F8158850E946D0B2B013C012D893E89FE
:10094C004F89588DC501B4010E946D0B9B01AC0100
:10095C00C301B2010E94450B69837A838B839C830C
:10096C00A70196016D817E818F8198850E946D0B08
:10097C00962EA72EB82E892E6D87798B182F092FBE
:10098C00262F372F482F592F69817A818B819C8193
:10099C000E94450B6B017C016D837E838F8398874E
:1009AC0081E0C816D104E10483E4F8062CF52D810E
:1009BC003E814F815885211531054105534419F568
:1009CC002CE33AEA48E353E369817A818B819C8179
:1009DC000E94450B2B013C01292D3A2D4B2D582DF6
:1009EC00C701B6010E94440B9B01AC01C301B201CB
:1009FC000E94640B181674F589859A85AB85BC85A5
:100A0C00A068BF6798C1D701C601BF770197A641FF
:100A1C00B344DCF42D813E814F815885211531057D
:100A2C004641534CB9F4292D3A2D4B2D582DC70165
:100A3C00B6010E94440B9B01AC0169817A818B81C8
:100A4C009C810E945F0B18162CF069857A858B852A
:100A5C009C8581C1D701C601BF7781309105A10565
:100A6C00EFE3BE070CF46AC037E1B595A7959795EF
:100A7C0087953A95D1F78E5740E050E060E870E0EA
:100A8C008A019B0104C035952795179507958A9582
:100A9C00D2F7C00ED11EE21EF31E26013701E894D8
:100AAC0077F847E175946794579447944A95D1F732
:100ABC001FE7411A5108610871088FEF9FEFAFE7EC
:100ACC00B0E0042C04C0B595A795979587950A942A
:100ADC00D2F780959095A095B0959C01AD012C21F5
:100AEC003D214E215F21E894E7F8FF246894E7F854
:100AFC0087E190E0841995092601370104C07594AB
:100B0C006794579447948A95D2F7ED80FE800F81B5
:100B1C00188517FF08C07094609450944094411C41
:100B2C00511C611C711C692D7A2D8B2D982D0E94E6
:100B3C00440B6D87798B182F092F03C0412C512C36
:100B4C00320129813A814B815C816D857989812FB4
:100B5C00902F0E94450B4B015C01882420E89222C7
:100B6C0020E032E741E35FE3C501B4010E946D0B65
:100B7C006D837E838F8398872D853989412F502FE4
:100B8C00C501B4010E94440B9B01AC0169817A81BF
:100B9C008B819C810E94440B28E132E741E35FE3A7
:100BAC000E946D0B6B017C012CE83EEB4FEB55E387
:100BBC00C501B4010E946D0B9B01AC01C701B601CC
:100BCC000E94450B4B015C019B01AC016D817E8148
:100BDC008F8198850E94450B6B017C012D813E8194
:100BEC004F8158850E94440B9B01AC01C501B40197
:100BFC000E94440B69837A838B839C83A7019601A3
:100C0C00C701B6010E946D0B4B015C012CE43BEB60
:100C1C0041E353E30E946D0B2EE03AEE4DED55E3AC
:100C2C000E94440BA50194010E946D0B25E533EB4A
:100C3C004AE858E30E94450BA50194010E946D0BF4
:100C4C0021E63BE046E35BE30E94440BA5019401E3
:100C5C000E946D0B2BEA3AEA4AE25EE30E94450BD6
:100C6C00A50194010E946D0B9B01AC01C701B6015B
:100C7C000E94440B4B015C019B01AC01C701B60106
:100C8C000E946D0B6D837E838F83988720E030E00C
:100C9C0040E050E4C501B4010E94440B9B01AC013F
:100CAC006D817E818F8198850E94690B4B015C015F
:100CBC0029813A814B815C81C701B6010E946D0B81
:100CCC0029813A814B815C810E94450B9B01AC01CF
:100CDC00C501B4010E94440BA70196010E94440B6C
:100CEC009B01AC0160E070E080E89FE30E94440B44
:100CFC005301420127E1880C991CAA1CBB1C2A95A4
:100D0C00D1F7860E971EA81EB91E8114910430E8E7
:100D1C00A306B10424F4A2010E94CB0802C0C501B1
:100D2C00B40189849A84AB84BC8486269726A82631
:100D3C00B926D501C401BC01CD010DC060E070E045
:100D4C0080EC9FE708C060E070E080E89FE303C0A0
:0E0D5C0060E070E0CB01A296E0E10C946E0A1C
:100D6A00A4E0B0E0EBEBF6E00C94520A8B019C0194
:100D7A00AC0140785F776B017C0140385F4761F4D2
:100D8A00E894E7F8FF24C114D104E104F10409F05E
:100D9A00ACC097FDAAC0AEC0E894F7F8C114D1045C
:100DAA00E104F10409F4A6C097FF07C081E290E0CC
:100DBA00909301018093000198C0DC01CB0167E1A7
:100DCA00B595A795979587956A95D1F70097A10547
:100DDA00B105B9F480E090E0DC0127FD08C0000FFE
:100DEA00111F221F331F0196A11DB11DF6CF0197B6
:100DFA00A109B109B095A095909581959F4FAF4FE4
:100E0A00BF4F8F579109A109B1092F77332720685E
:100E1A0080FF04C0000F111F221F331FAC01BD0148
:100E2A00759567955795479549835A836B837C8354
:100E3A00000F111F221F331F49E150E0812C912C12
:100E4A005401B394C12CD12C760180E090E0DC01EE
:100E5A002C013D01480C591C6A1C7B1C0415150504
:100E6A002605370574F0D301C201880D991DAA1D04
:100E7A00BB1D0419150926093709C80CD91CEA1C17
:100E8A00FB1C000F111F221F331FB694A7949794BF
:100E9A00879441505109E1F60115110521053105E3
:100EAA0051F0970186010170112722273327C00EBE
:100EBA00D11EE21EF31EF594E794D794C79451EC21
:100ECA00F51A89819A81AB81BC8127E1880F991F24
:100EDA00AA1FBB1F2A95D1F78C0D9D1DAE1DBF1DE4
:100EEA00482F392F2A2F5B2F09C040E030E020EC31
:100EFA005FE704C0462F372F282F592F642F732FEF
:0C0F0A00822F952F2496E0E10C946E0AD3
:100F160010C00E94520B58F00E944B0B40F029F46F
:100F26005F3F29F00C94590B51110C943E0B0C9415
:100F3600710B0E942E0A68F39923B1F3552391F39E
:100F4600951B550BBB27AA2762177307840738F032
:100F56009F5F5F4F220F331F441FAA1FA9F335D08F
:100F66000E2E3AF0E0E832D091505040E695001C43
:100F7600CAF72BD0FE2F29D0660F771F881FBB1FFD
:100F8600261737074807AB07B0E809F0BB0B802DDB
:100F9600BF01FF2793585F4F3AF09E3F510578F007
:100FA6000C94590B0C943E0B5F3FE4F3983ED4F33C
:100FB600869577956795B795F7959F5FC9F7880FDB
:100FC600911D9695879597F90895E1E0660F771F2D
:100FD600881FBB1F621773078407BA0720F0621BBE
:0E0FE600730B840BBA0BEE1F88F7E09508958D
:100FF4000FC00E944B0B38F00E94520B20F0952337
:1010040011F00C94590B0C94710B11240C943E0B9D
:101014000E942E0A70F3959FC1F3950F50E0551F5F
:10102400629FF001729FBB27F00DB11D639FAA2739
:10103400F00DB11DAA1F649F6627B00DA11D661F88
:10104400829F2227B00DA11D621F739FB00DA11DA9
:10105400621F839FA00D611D221F749F3327A00D63
:10106400611D231F849F600D211D822F762F6A2FFF
:1010740011249F5750409AF0F1F088234AF0EE0F64
:10108400FF1FBB1F661F771F881F91505040A9F791
:101094009E3F510580F00C94590B0C943E0B5F3F1E
:1010A400E4F3983ED4F3869577956795B795F795CD
:1010B400E7959F5FC1F7FE2B880F911D9695879545
:0410C40097F90895FB
:1010C80011C00E944B0B38F00E94520B20F039F4EB
:1010D8009F3F19F426F40C94710B0EF4E095E7FB8E
:1010E8000C94590BE92F0E942E0A58F3BA1762077D
:1010F80073078407950720F079F4A6F50C943D0B47
:101108000EF4E0950B2EBA2FA02D0B01B90190011A
:101118000C01CA01A0011124FF27591B99F0593F5E
:1011280050F4503E68F11A16F040A22F232F342FA6
:101138004427585FF3CF469537952795A795F040F4
:101148005395C9F77EF41F16BA0B620B730B840B09
:10115800BAF09150A1F0FF0FBB1F661F771F881FC1
:10116800C2F70EC0BA0F621F731F841F48F4879519
:1011780077956795B795F7959E3F08F0B0CF93950B
:0E118800880F08F09927EE0F97958795089528
:101196000F931F93CF93DF93EA0140385105D4F0A4
:1011A60020E030E040E05FE70E946D0B9E012F5784
:1011B6003109203831056CF120E030E040E05FE78E
:1011C6000E946D0BCE5FD109C038D1051CF1CFE767
:1011D600D0E020C042385F4FECF420E030E040E839
:1011E6005CE00E946D0B9E012A593F4F22384FEF5B
:1011F60034077CF420E030E040E85CE00E946D0BB0
:10120600C453DF4FC2382FEFD20724F4C2E8DFEF12
:1012160001C0E9019E0121583F4F8901330F220B7E
:10122600330BA9019801E7E1220F331F441F551F15
:10123600EA95D1F70E946D0BDF91CF911F910F9127
:02124600089509
:10124800FF920F931F93CF93DF9300D0CDB7DEB7F4
:101258008A01F22E0E94F60AFF20D1F16F2D70E06C
:1012680061507109072E000C880B990B0E947609B2
:101278009B01AC0160E070E080E291E40E9496007E
:101288000E94B1097A83698369817A81C8010E94C1
:10129800D10AAB019B01ADECBCEC0E94060B969504
:1012A80087959695879596958795880F991F9C01A0
:1012B800220F331F220F331F820F931F9A01281BFF
:1012C800390BC901805D0E94A00AFA94F110C6CFBB
:1012D8000F900F90DF91CF911F910F91FF9008957C
:1012E800E89409C097FB3EF49095809570956195B8
:1012F8007F4F8F4F9F4F9923A9F0F92F96E9BB276E
:101308009395F695879577956795B795F111F8CFE9
:10131800FAF4BB0F11F460FF1BC06F5F7F4F8F4F54
:101328009F4F16C0882311F096E911C0772321F04A
:101338009EE8872F762F05C0662371F096E8862FE2
:1013480070E060E02AF09A95660F771F881FDAF739
:0A135800880F9695879597F9089580
:101362000E94360A88F09F5798F0B92F9927B751F3
:10137200B0F0E1F0660F771F881F991F1AF0BA9537
:10138200C9F714C0B13091F00E943D0BB1E008954D
:101392000C943D0B672F782F8827B85F39F0B93F3F
:1013A200CCF3869577956795B395D9F73EF49095EA
:0E13B2008095709561957F4F8F4F9F4F0895E6
:1013C0000E94360B0E94150B42E051E061E081E083
:1013D0000E94B90A4DE051E064E082E00E94B90A3F
:1013E00041E151E06CE082E00E94B90A40E267E02E
:1013F00082E00E942D0B23E04EE150E061E082E0AC
:101400000E94240924E048E45DE068E082E00E9454
:041410002409FFCFDD
:10141400990F0008550FAA0BE0E8FEEF1616170601
:10142400E807F907C0F012161306E407F50798F069
:10143400621B730B840B950B39F40A2661F0232B82
:10144400242B252B21F408950A2609F4A140A695FE
:081454008FEF811D811D089539
:10145C0057FD9058440F551F59F05F3F71F0479559
:10146C00880F97FB991F61F09F3F79F0879508953E
:10147C00121613061406551FF2CF4695F1DF08C05D
:10148C00161617061806991FF1CF8695710561057A
:04149C000894089513
:1014A0002F923F924F925F926F927F928F929F9274
:1014B000AF92BF92CF92DF92EF92FF920F931F9362
:1014C000CF93DF93CDB7DEB7CA1BDB0B0FB6F89413
:0814D000DEBF0FBECDBF099481
:1014D8002A88398848885F846E847D848C849B84BC
:1014E800AA84B984C884DF80EE80FD800C811B81CA
:1014F800AA81B981CE0FD11D0FB6F894DEBF0FBEF9
:06150800CDBFED010895C6
:10150E005D985E9895B1892B85B95F9A89EF90E0C9
:10151E000197F1F700C000005F9889EF90E0019706
:10152E00F1F700C0000085B115B88BB18F718BB982
:02153E0008950E
:101540005D9A5E9895B1892B85B95F9A89EF90E095
:101550000197F1F700C000005F9889EF90E00197D4
:10156000F1F700C0000085B115B88BB18F718BB950
:021570000895DC
:101572000F931F93CF938A010E94F60AF80180818C
:10158200882351F0C0E00E94A00ACF5FF801EC0F5F
:10159200F11D80818111F7CFCF911F910F91089595
:1015A200AA1BBB1B51E107C0AA1FBB1FA617B70787
:1015B20010F0A61BB70B881F991F5A95A9F78095A3
:0815C2009095BC01CD010895D4
:1015CA00092E0394000C11F4882352F0BB0F40F447
:1015DA00BF2B11F460FF04C06F5F7F4F8F4F9F4F87
:0215EA00089562
:1015EC00813031F48FEF860F80680E94870A08954E
:1015FC00823029F48FE3860F80680E94870A089551
:10160C00A29FB001B39FC001A39F700D811D112437
:0E161C00911DB29F700D811D1124911D089526
:10162A0088E30E94870A8CE00E94870A86E00E946B
:0A163A00870A81E00E94870A0895E4
:10164400EC010E947B0B0E947A0BCE010E947C0B62
:06165400CE010E94780B9C
:10165A00CF93C42F0E94F60A8C2F0E94A00ACF9122
:02166A000895E1
:0E166C0084B18FEF84B98AB1806E8AB9089577
:0E167A00E894BB2766277727CB0197F90895E0
:0E1688005058BB27AA270E9464080C94E50A5C
:0E16960000240A941616170618060906089571
:0E16A40000240A941216130614060506089573
:0C16B20097F99F6780E870E060E0089501
:0A16BE000E940A0A08F481E0089572
:0A16C8000E940A0A08F48FEF08954B
:0816D2000E948B070C94E50A4D
:0816DA000E94FA070C94E50AD6
:0616E2009FEF80EC08956B
:0416E8000C9400005E
:0416EC009F77089547
:0416F0000E949400C0
:0216F400089557
:0216F600089555
:0216F800089553
:1016FA004672657175656E63793A004D487A004B9A
:03170A00487A001A
:08170D0000000000DCCFD13523
:081715000000000000C0153FB8
:08171D000000803F0000C03F06
:00000001FF
