:100000000C946A000C94C3010C94C3010C94C301BA
:100010000C94C3010C94C3010C94C3010C94C30150
:100020000C94C3010C94C3010C94C3010C94C30140
:100030000C94C3010C94C3010C94C3010C94C30130
:100040000C94C3010C94C3010C94C3010C94C30120
:100050000C94C3010C94C3010C94C3010C94C30110
:100060000C94C3010C94C3010C94C3010C94C30100
:100070000C94C3010C94C3010C94C3010C94C301F0
:100080000C94C3010C94C3010C94C3010C94C301E0
:100090000C94C3010C94C3010C94C3010C94C301D0
:1000A0000C94C3010C94C3010C94C3010C94C301C0
:1000B0000C94C3010C94C3010C94C3010C94C301B0
:1000C0000C94C3010C94C3010C94C30101000113EF
:1000D0000003940011241FBECFEFD8E0DEBFCDBFD8
:1000E000ECECF0E040E017C0B591A5913591259179
:1000F000059107FD0CC095918591EF01F92FE82F2F
:1001000005900D92A217B307D9F7FE0104C01D9206
:10011000A217B307E1F7E33DF40731F70E94F100BE
:080120000C94A801F894FFCF34
:100128008F929F92AF92BF92CF92DF92EF92FF92FF
:100138000F93CF93DF9369017A010E948B0100230B
:1001480009F43FC00F2EFAE08F2E912CA12CB12C70
:10015800F02D015011F180E09E01220F331FE901BB
:10016800CC0FDD1FCC0FDD1FC20FD31F8F5F08130D
:10017800F3CFC701B6019E010D2E000C440B550BA1
:100188000E941F01CA01B901A50194010E941F0123
:1001980080E3860F0E945A01DCCF9E01DD0F440BDD
:1001A800550BC701B6010E941F01CA01B9012AE017
:1001B80030E040E050E00E941F0180E3860F0E947B
:1001C8005A01DF91CF910F91FF90EF90DF90CF9080
:0A01D800BF90AF909F908F900895A4
:1001E2000E94BC010E949B0140E051E061E081E07D
:1001F2000E9473014BE051E064E082E00E947301CF
:100202004FE051E06CE082E00E94730140E267E05F
:1002120082E00E94B30103E02DE030E040E050E0D4
:1002220061E082E00E94940004E028E43DE040E0C6
:0C02320050E068E082E00E949400FFCFE2
:10023E00A1E21A2EAA1BBB1BFD010DC0AA1FBB1FDC
:10024E00EE1FFF1FA217B307E407F50720F0A21B4E
:10025E00B30BE40BF50B661F771F881F991F1A94BB
:10026E0069F760957095809590959B01AC01BD01E5
:04027E00CF0108950F
:100282005D985E9895B1892B85B95F9A89EF90E068
:100292000197F1F700C000005F9889EF90E00197A5
:1002A200F1F700C0000085B115B88BB18F718BB921
:0202B2000895AD
:1002B4005D9A5E9895B1892B85B95F9A89EF90E034
:1002C4000197F1F700C000005F9889EF90E0019773
:1002D400F1F700C0000085B115B88BB18F718BB9EF
:0202E40008957B
:1002E6000F931F93CF938A010E948B01F80180819F
:1002F600882351F0C0E00E945A01CF5FF801EC0F4D
:10030600F11D80818111F7CFCF911F910F91089533
:10031600813031F48FEF860F80680E944101089585
:10032600823029F48FE3860F80680E944101089588
:1003360088E30E9441018CE00E94410186E00E9410
:0A034600410181E00E944101089589
:10035000EC010E94C8010E94C701CE010E94C901A0
:06036000CE010E94C50160
:10036600CF93C42F0E948B018C2F0E945A01CF91EC
:020376000895E8
:0E03780084B18FEF84B98AB1806E8AB908957E
:040386000C940000D3
:04038A000E9492003B
:02038E000895D0
:020390000895CE
:020392000895CC
:100394004672657175656E63793A004D487A004B13
:0303A400487A0094
:00000001FF
