:100000000C9483000C948F1C0C948F1C0C948F1CEC
:100010000C9454140C948F1C0C94AD140C948F1CE1
:100020000C948F1C0C948F1C0C948F1C0C948F1CA4
:100030000C948F1C0C948F1C0C948F1C0C948F1C94
:100040000C948F1C0C948F1C0C948F1C0C948F1C84
:100050000C948F1C0C948F1C0C948F1C0C948F1C74
:100060000C948F1C0C948F1C0C948F1C0C948F1C64
:100070000C948F1C0C948F1C0C948F1C0C948F1C54
:100080000C948F1C0C948F1C0C948F1C0C948F1C44
:100090000C948F1C0C948F1C0C948F1C0C948F1C34
:1000A0000C948F1C0C948F1C0C948F1C0C948F1C24
:1000B0000C948F1C0C948F1C0C948F1C0C948F1C14
:1000C0000C948F1C0C948F1C0C948F1C0A072F0708
:1000D000A107D907FB078108BD08D208010001026A
:1000E00080010202D300393002D3031380031303CB
:1000F00029003B0103290335800335035A003B17D0
:10010000035A036B800011241FBECFEFD8E0DEBF7F
:10011000CDBFECEDF0E041E017C0B591A591359170
:100120002591059107FD0CC095918591EF01F92F5F
:10013000E82F05900D92A217B307D9F7FE0104C06E
:100140001D92A217B307E1F7E530F40731F70E94DB
:0A015000CC060C94D71BF894FFCFE7
:10015A00A2E2B0E0E3EBF0E00C94DD1929833A83E4
:10016A004B835C8329013A01E89477F841145104DE
:10017A006104710409F4FFC569877A878B879C87B4
:10018A004B015C016115710500E880070FE39007D8
:10019A0009F4F1C56B017C01E894F7F811E0C11686
:1001AA00D10410E8E1061FE7F1060CF0DFC5A1E073
:1001BA004A165104A0E86A06AFE77A060CF0D6C5DB
:1001CA0097FF42C041145104B0E86B06BBE47B06BA
:1001DA00ECF541145104E0E86E06EFE37E060CF4F8
:1001EA0059C05301420117E1B594A7949794879493
:1001FA001A95D1F7FFE78F1A9108A108B108E7E12C
:10020A00F0E0E819F909530142010E2E04C0B59431
:10021A00A794979487940A94D2F78D829E82AF828C
:10022A00B88604C0880C991CAA1CBB1CEA95D2F794
:10023A00481459046A047B0469F5ED81E170B2E05F
:10024A009B2E9E1A9D8227C01D8202C002E00D834A
:10025A004114510410E861061FE77106E1F4C11464
:10026A00D10480E8E8068FE3F80609F484C54CF067
:10027A0089809A80AB80BC80B7FC82C5CA01B9016B
:10028A0082C5E980FA800B811C8117FF79C5CA01F2
:10029A00B9017FC01D822D8B3E8B4F8B588F4B012E
:1002AA005C014114510400E860060FE3700679F41A
:1002BA00E980FA800B811C8117FF65C59B01AC019F
:1002CA0060E070E080E89FE30E94841C5CC50981BD
:1002DA001A812B813C8101151105210540E434075F
:1002EA0029F49B01AC010E94881C4DC589819A8121
:1002FA00AB81BC810097A105BF4359F409851A85D2
:10030A002B853C8537FD05C0C501B4010E9431101B
:10031A003AC5C501B4010E94911CC114D104E1047B
:10032A00F10449F01FE3B1228114910420E8A206E6
:10033A002FE3B20681F589809A80AB80BC80B7FE34
:10034A0008C09B01AC0160E070E080E89FE30E9476
:10035A00841C89849A84AB84BC84B7FE14C500E8E3
:10036A00E01A0FE3F00A1D81C12AC114D104E10485
:10037A00F10459F481E290E0909301018093000125
:10038A006FEF7FEF8FEF9FE7FEC40D81013009F019
:10039A00FAC49058F8C489849A84AB84BC84B7FEA2
:1003AA0010C09D80992031F3092D013051F4812C20
:1003BA00912CA12CA0E8BA2E89869A86AB86BC8697
:1003CA0004C019861A861B861C8601E04016510451
:1003DA0061040DE470060CF488C018EFC1161FEF13
:1003EA00D1061FE7E1061FE3F1063CF489809A80F3
:1003FA00AB80BC80B7FE41C317C308E0C016D10466
:10040A0000E8E0060FE3F0065CF089809A80AB8092
:10041A00BC80181419041A041B040CF405C32DC358
:10042A0020E030E040E85FE30E943E1C6B017C0163
:10043A0020E03AEA48EB5FE30E94881C4B015C012A
:10044A0020E735EA4CEE56E3C701B6010E94881C44
:10045A0069837A838B839C8320E030E040E85EE303
:10046A00C701B6010E94881C9B01AC016BEA7AEABB
:10047A008AEA9EE30E943E1CA70196010E94881CFC
:10048A009B01AC0160E070E080E09FE30E943E1CAB
:10049A002B013C01A7019601C701B6010E94881CE5
:1004AA009B01AC01C301B2010E94881C2BE33AEA0A
:1004BA0048EB5FE30E94881C9B01AC0169817A8149
:1004CA008B819C810E943E1C6B017C019B01AC01CB
:1004DA00C501B4010E943F1C6627707F6D837E832D
:1004EA008F839887A501940120C2C114D10400E822
:1004FA00E006F1046CF420E030E040E85BE40E949E
:10050A00881C6B017C0148EE5FEF6FEF7FEF03C041
:10051A0040E050E0BA01D701C601F7E1B595A795C9
:10052A0097958795FA95D1F78F579109A109B1093E
:10053A004C015D01840E951EA61EB71E898A9A8AF1
:10054A00AB8ABC8AE894E7F8FF244601570168940D
:10055A00A7F80FE3B02A12E7C11614ECD1061CE182
:10056A00E106F104B4F027EDC21623EBD2062DE51D
:10057A00E206F1049CF089899A89AB89BC890196C3
:10058A00A11DB11D898B9A8BAB8BBC8B90E8A91AE4
:10059A00B1081D821E821F82188608C0E12CF12C28
:1005AA008701E394ED82FE820F8318870D811E81F5
:1005BA00000F111F000F111F1AA309A3F801EB5B0B
:1005CA00FC4FE080F18002811381ED86FE860F8761
:1005DA00188BA8019701C501B4010E943E1C698FBE
:1005EA007A8F8B8F9C8FA8019701C501B4010E9455
:1005FA003F1C9B01AC0160E070E080E89FE30E9431
:10060A00841C6D8F7E8F8F8F98A39B01AC01698D9F
:10061A007A8D8B8D9C8D0E94881C69837A838B834B
:10062A009C8349805A806B807C80442400EF50224E
:10063A0075016401F594E794D794C794CC2410EF1C
:10064A00D122E894F5F86894F5F8D701C601A05CC0
:10065A00BF4FCD80DE80EF80F88475E1CC0CDD1CC5
:10066A00EE1CFF1C7A95D1F7C80ED91EEA1EFB1E96
:10067A00A7019601C301B2010E94881C9B01AC012B
:10068A00698D7A8D8B8D9C8D0E943E1C6D837E8335
:10069A008F8398872D853E854F855889C701B60176
:1006AA000E943E1C9B01AC01C501B4010E943E1C84
:1006BA00A30192010E94881C9B01AC016D817E817D
:1006CA008F8198850E943E1C2D8D3E8D4F8D58A19D
:1006DA000E94881C6D837E838F83988729813A8143
:1006EA004B815C81CA01B9010E94881C6B017C01A3
:1006FA0022E431EF43E55EE30E94881C25E532E3FC
:10070A004CE65EE30E943F1CA70196010E94881CEA
:10071A0025E033EA4BE85EE30E943F1CA7019601FD
:10072A000E94881C2BEA3AEA4AEA5EE30E943F1CCE
:10073A00A70196010E94881C27EB3DE64BED5EE37C
:10074A000E943F1CA70196010E94881C2AE939E9E8
:10075A0049E15FE30E943F1C4B015C01A70196013E
:10076A00C701B6010E94881C9B01AC01C501B401F6
:10077A000E94881C6B017C01A301920169817A8124
:10078A008B819C810E943F1C2D813E814F8158851F
:10079A000E94881CA70196010E943F1C6B017C01E4
:1007AA00A3019201C301B2010E94881C6D877E8752
:1007BA008F87988B20E030E040E450E40E943F1C91
:1007CA00A70196010E943F1C4B015C01882420EF7F
:1007DA009222A5019401C301B2010E94881C2B0137
:1007EA003C0120E030E040E450E4C501B4010E943D
:1007FA003E1C2D853E854F8558890E943E1C9B01D3
:10080A00AC01C701B6010E943E1C29813A814B8185
:10081A005C810E94881C6B017C01A50194016D8199
:10082A007E818F8198850E94881C9B01AC01C7013B
:10083A00B6010E943F1C4B015C019B01AC01C30144
:10084A00B2010E943F1C6B017C01CC2430EFD32201
:10085A0020E030E446E75FE3C701B6010E94881C46
:10086A0069837A838B839C83A3019201C701B601B2
:10087A000E943E1C9B01AC01C501B4010E943E1CB2
:10088A002FE438E346E75FE30E94881C4B015C01D2
:10089A0026EC33E246EF58EBC701B6010E94881CEA
:1008AA009B01AC01C501B4010E943F1CE9A1FAA158
:1008BA00EB5CFC4F20813181428153810E943F1CB5
:1008CA006B017C0169897A898B899C890E94ED1662
:1008DA004B015C0109A11AA1035C1C4FD8014D9080
:1008EA005D906D907C90A701960169817A818B81D8
:1008FA009C810E943F1CA30192010E943F1CA501FA
:10090A0094010E943F1C6627707F6D837E838F83CC
:10091A009887A50194010E943E1CA30192010E949E
:10092A003E1C29813A814B815C810E943E1C9B01BD
:10093A00AC01C701B6010E943E1C4B015C01CD8887
:10094A00DE88EF88F88CCC24B0EFDB22A701960171
:10095A006D897E898F89988D0E943E1C2D813E81EA
:10096A004F8158850E94881C2B013C012D893E89A4
:10097A004F89588DC501B4010E94881C9B01AC01A6
:10098A00C301B2010E943F1C69837A838B839C83D3
:10099A00A70196016D817E818F8198850E94881CAE
:1009AA00962EA72EB82E892E6D87798B182F092F90
:1009BA00262F372F482F592F69817A818B819C8165
:1009CA000E943F1C6B017C016D837E838F83988715
:1009DA0081E0C816D104E10483E4F8062CF52D81E0
:1009EA003E814F815885211531054105534419F53A
:1009FA002CE33AEA48E353E369817A818B819C814B
:100A0A000E943F1C2B013C01292D3A2D4B2D582DBC
:100A1A00C701B6010E943E1C9B01AC01C301B20191
:100A2A000E94771C181674F589859A85AB85BC8552
:100A3A00A068BF6798C1D701C601BF770197A641D1
:100A4A00B344DCF42D813E814F815885211531054F
:100A5A004641534CB9F4292D3A2D4B2D582DC70137
:100A6A00B6010E943E1C9B01AC0169817A818B818F
:100A7A009C810E94721C18162CF069857A858B85D8
:100A8A009C8581C1D701C601BF7781309105A10537
:100A9A00EFE3BE070CF46AC037E1B595A7959795C1
:100AAA0087953A95D1F78E5740E050E060E870E0BC
:100ABA008A019B0104C035952795179507958A9554
:100ACA00D2F7C00ED11EE21EF31E26013701E894AA
:100ADA0077F847E175946794579447944A95D1F704
:100AEA001FE7411A5108610871088FEF9FEFAFE7BE
:100AFA00B0E0042C04C0B595A795979587950A94FC
:100B0A00D2F780959095A095B0959C01AD012C21C6
:100B1A003D214E215F21E894E7F8FF246894E7F825
:100B2A0087E190E0841995092601370104C075947C
:100B3A006794579447948A95D2F7ED80FE800F8187
:100B4A00188517FF08C07094609450944094411C13
:100B5A00511C611C711C692D7A2D8B2D982D0E94B8
:100B6A003E1C6D87798B182F092F03C0412C512CFD
:100B7A00320129813A814B815C816D857989812F86
:100B8A00902F0E943F1C4B015C01882420E892228E
:100B9A0020E032E741E35FE3C501B4010E94881C0B
:100BAA006D837E838F8398872D853989412F502FB6
:100BBA00C501B4010E943E1C9B01AC0169817A8186
:100BCA008B819C810E943E1C28E132E741E35FE36E
:100BDA000E94881C6B017C012CE83EEB4FEB55E32D
:100BEA00C501B4010E94881C9B01AC01C701B60172
:100BFA000E943F1C4B015C019B01AC016D817E810F
:100C0A008F8198850E943F1C6B017C012D813E815A
:100C1A004F8158850E943E1C9B01AC01C501B4015D
:100C2A000E943E1C69837A838B839C83A701960169
:100C3A00C701B6010E94881C4B015C012CE43BEB06
:100C4A0041E353E30E94881C2EE03AEE4DED55E352
:100C5A000E943E1CA50194010E94881C25E533EBE5
:100C6A004AE858E30E943F1CA50194010E94881C8F
:100C7A0021E63BE046E35BE30E943E1CA5019401AA
:100C8A000E94881C2BEA3AEA4AE25EE30E943F1C71
:100C9A00A50194010E94881C9B01AC01C701B60101
:100CAA000E943E1C4B015C019B01AC01C701B601CD
:100CBA000E94881C6D837E838F83988720E030E0B2
:100CCA0040E050E4C501B4010E943E1C9B01AC0106
:100CDA006D817E818F8198850E94841C4B015C0105
:100CEA0029813A814B815C81C701B6010E94881C27
:100CFA0029813A814B815C810E943F1C9B01AC0196
:100D0A00C501B4010E943E1CA70196010E943E1C27
:100D1A009B01AC0160E070E080E89FE30E943E1C0A
:100D2A005301420127E1880C991CAA1CBB1C2A9575
:100D3A00D1F7860E971EA81EB91E8114910430E8B9
:100D4A00A306B10424F4A2010E94061502C0C5013B
:100D5A00B40189849A84AB84BC8486269726A82603
:100D6A00B926D501C401BC01CD010DC060E070E017
:100D7A0080EC9FE708C060E070E080E89FE303C072
:0E0D8A0060E070E0CB01A296E0E10C94F91954
:100D9800539A5B980E94371C0E94B21B0E945A1BF0
:100DA8000E9447190E9485190E94301C0E94041B4A
:100DB8000E94F9130E946D1CE12CF12C8701E39429
:100DC80020E030E0A90160E280E00E943E0D6AE583
:100DD80070E080E090E00E94BF1989B182FB88270B
:100DE80080F980936703212C312CD0E0812C912C41
:100DF800C6E0E09166038E2F90E08830910508F0F8
:100E080059C2FC01EA59FF4F0C94671C8091670393
:100E1800882319F0C0936603ECCF42E152E061E009
:100E280081E00E94441A42E252E061E082E00E94BE
:100E3800441A0E94B41A811108C00E94C81A81116C
:100E480004C00E94DC1A8823A1F281E08093660323
:100E58000E947C1CCECF80916703882329F0C09321
:100E680066030E947C1CC5CF89EF90E00197F1F7DB
:100E780000C00000A4014F5F5F4F9A013695279587
:100E8800ABE7B4E10E94871B4C019694879422E358
:100E9800289DC001299D900D11244A01881A990A9C
:100EA80061F480916003909161038230910551F162
:100EB8000196909361038093600380916003909101
:100EC8006103009769F44BE252E061E081E00E941F
:100ED800441A46E352E061E082E00E94441A1EC0D0
:100EE8008130910569F44DE352E061E081E00E94B0
:100EF800441A4BE452E061E082E00E94441A0EC0BA
:100F0800029761F442E552E061E081E00E94441AF0
:100F180040E652E061E082E00E94441A0E94C81A4A
:100F2800882309F466CF82E0809366030E947C1CC4
:100F380010926103109260035CCF8091670388234D
:100F480029F0C09366030E947C1C53CF4BE652E005
:100F580061E081E00E94441A4EE652E06BE081E0D5
:100F68000E94441A45E752E06C2F82E00E94441A1E
:100F780041E852E061E082E00E94441A0E94B41AFB
:100F8800882339F083E0809366030E947C1CD1E0BB
:100F980030CF0E94DC1A882309F42BCF83E080939A
:100FA80066030E947C1CD0E024CF809167038823CD
:100FB80029F0C09366030E947C1C1BCF44E852E0D2
:100FC80061E081E00E94441ADD2339F044E952E0EF
:100FD80061E082E00E94961B06C04CE952E061E0A5
:100FE80082E00E94961B84E08093660302CF809182
:100FF8006703882319F0C0936603FBCE44EA52E0E6
:1010080061E081E00E94441A4091640350916503B5
:1010180023E061E082E00E94B8154FEA52E064E004
:1010280082E00E94441A40E267E082E00E94ED1BE1
:10103800409162035091630323E068E082E00E94DC
:10104800B81543EB52E06BE082E00E94441A0E941C
:10105800C81A882309F4CDCE4090640350906503E4
:1010680060906203709063038091640390916503BC
:10107800209162033091630340E452E4849F10019D
:10108800859F300C949F300C112448EE53E0249F28
:10109800C001259F900D349F900D1124280E391EF4
:1010A80047EB52E061E081E00E94441A23E0A2018C
:1010B80061E082E00E94B8154FEA52E064E082E005
:1010C8000E94441A40E267E082E00E94ED1B23E0A0
:1010D800A30168E082E00E94B81543EB52E06BE0A0
:1010E80082E00E94441A47EC52E060E181E00E94ED
:1010F800961B55E0509366037CCE810120E030E0DA
:1011080060E078E08FEA9FE2A90198010E94741AD2
:101118002A5031094109510960E472E48FE090E0F6
:101128000E94741A29013A01662477246301520146
:1011380010E4E12E12E4F12E0FE010E02AE030E096
:1011480040E050E060E080E00E945F0B2AE030E081
:1011580040E050E061E080E00E945F0B81E00E9487
:10116800081CDD2311F05B9A01C05B98109266039E
:1011780040CE809167030E94681849EC52E061E014
:1011880081E00E94441A80916703882321F087E058
:10119800809366032ECE109266032BCE80915A035D
:1011A80090915B03019709F085C044EA52E061E041
:1011B80081E00E94441A40915E0350915F0323E04E
:1011C80061E082E00E94B8154FEA52E064E082E0F4
:1011D8000E94441A40E267E082E00E94ED1B4091C1
:1011E8005C0350915D0323E068E082E00E94B8153B
:1011F80043EB52E06BE082E00E94441A0E94C81A56
:10120800882309F4F6CD80915E0390915F03809165
:101218005C0390915D038091640390916503209134
:1012280062033091630340E452E4849F1001859F78
:10123800300C949F300C112448EE53E0249FC001D9
:10124800259F900D349F900D1124280E391E47EBD1
:1012580052E061E081E00E94441A40915E0350919F
:101268005F0323E061E082E00E94B8154FEA52E094
:1012780064E082E00E94441A40E267E082E00E9453
:10128800ED1B40915C0350915D0323E068E082E030
:101298000E94B81543EB52E06BE082E00E94441ACA
:1012A80047EC52E060E181E00E94961B55E05093C4
:0A12B80066039FCD109266039CCDE3
:1012C200AEE0B0E0E7E6F9E00C94DE194C016B0108
:1012D2001A8219828FEF9FEF9C838B831E821D825D
:1012E20058874F833A872987A12CB12CD6016D905C
:1012F2007C90F301EA0DFB1D808181110FC0D601A4
:10130200ED93FC938081853209F0D3C13F01BFEF99
:101312006B1A7B0AF6017182608219C0853279F3F9
:10132200B401082E000C990B0E9458164FEFA41A14
:10133200B40ADCCF8C32ACF08D32F9F489819A8117
:1013420081609A8389833196D601ED93FC93D6010D
:10135200ED91FC9180818B3269F789819A81846059
:10136200F0CF803221F489819A818860EACF83327A
:1013720051F489819A818061E4CF803321F489819B
:101382009A818260DECFB701C6010E943A189E831D
:101392008D8397FF0BC029813A81B1E02B273A83D5
:1013A20029839195819591099E838D8389819A8163
:1013B20080FF03C08D7F9A838983D601ED91FC91D2
:1013C200119780818E3249F43196ED93FC93B701E7
:1013D200C6010E943A189C838B83C6010E9427197A
:1013E200582ED601ED91FC918081082E000C990BAC
:1013F2000E94281C893609F443C084F4833609F418
:1014020002C134F4853209F427C18136E1F030C1DA
:101412008436B1F188360CF4D9C02AC1803709F478
:101422009AC03CF48E3609F4BCC08F3609F461C010
:101432001FC1853709F440C0883709F476C0833765
:1014420009F016C1F3C0652D70E0A701CE010B961D
:101452000E940000892B09F426C1D601ED91FC916E
:101462001197CF0101968D939C932081AE01455F28
:101472005F4FBE016F5F7F4FC4010E94000010C129
:10148200652D70E0970141E050E0CE010B960E947D
:10149200C512892B09F407C1F60180819181019659
:1014A20091838083AE01455F5F4FBE016F5F7F4FC7
:1014B200C4010E947A11F4C0652D70E0970140E0EA
:1014C20050E0CE010B960E94C512892B09F4EBC0A5
:1014D200D6018D919C91119701968D939C93AE01AB
:1014E200455F5F4FBE016F5F7F4FC4010E94A4162C
:1014F200D7C0652D70E0970140E050E0CE010B9619
:101502000E94C512892B09F4CEC0F6018081918117
:10151200019691838083AE01455F5F4FBE016F5F8D
:101522007F4FC4010E945F15BBC0652D70E097011B
:1015320040E050E0CE010B960E94C512892B09F4BF
:10154200B2C0D601ED91FC911197CF0101968D9316
:101552009C9320811CC0970140E050E060EF70E056
:10156200CE010B960E94C512892B09F49CC0F6018C
:10157200808191810196918380838B859C85892BC3
:1015820029F420E030E044E553E084C028E7AE01CE
:10159200455F5F4FBE016F5F7F4FC4010E945B0ECC
:1015A2007FC0A501400F511F652D70E09701CE014C
:1015B2000B960E940000892B09F475C0D6018D910B
:1015C2009C91119701968D939C9373C0652D70E049
:1015D200A701CE010B960E940000892B09F463C07B
:1015E200D601ED91FC911197CF0101968D939C93B9
:1015F2002081AE01455F5F4FBE016F5F7F4FC40127
:101602000E9400004DC0B0E85B124DC0F60180811F
:101612009181019691838083D701ED91FC9111977D
:10162200CF0102968D939C93808120C0B0E85B121B
:101632003AC0F60180819181019691838083D7011E
:10164200ED91FC911197CF0102968D939C9340816D
:10165200518120E030E01EC0B0E85B1224C0F601E8
:10166200208131812F5F3F4F318320838B870DC0D3
:1016720085E28B87D6016D927C921A8219821E8234
:101682001D828FEF9FEF9C838B8321E030E0AE01C0
:10169200455F5F4FBE016F5F7F4FC4010E94951887
:1016A2008A0D9B1D07C0F60180819181019691836D
:0C16B2008083C5012E96EFE00C94FA191D
:1016BE003F924F925F926F927F928F929F92AF92D4
:1016CE00BF92CF92DF92EF92FF920F931F93CF9321
:1016DE00DF93CDB7DEB764970FB6F894DEBF0FBEBB
:1016EE00CDBF633008F0ABC129013A0194E0491A2D
:1016FE00510861087108EDEF4E16E7E05E066104D1
:10170E00710408F09CC125013601F1E04F1A510811
:10171E00610871089FEF491659069FE0690671042A
:10172E0008F08DC1E114F104E0E10E07110508F097
:10173E0086C1250136014701580169017A01162F2C
:10174E00082F81149104A104B10431F5F4E0CF1AED
:10175E00D108E108FEEFFF0ACC0CDD1CEE1CFF1CCD
:10176E00CC0CDD1CEE1CFF1CCC0CDD1CEE1CFF1C7F
:10177E00CC0CDD1CEE1CFF1CCC0CDD1CEE1CFF1C6F
:10178E00CC0CDD1CEE1CFF1CCC0CDD1CEE1CFF1C5F
:10179E0040E050E0BA01DBC021E042165104610482
:1017AE00710409F048C0D501C4010497A109BE4FC8
:1017BE00C80ED91EEA1EFB1ECC0CDD1CEE1CFF1C37
:1017CE00CC0CDD1CEE1CFF1CCC0CDD1CEE1CFF1C1F
:1017DE00CC0CDD1CEE1CFF1CCC0CDD1CEE1CFF1C0F
:1017EE00CC0CDD1CEE1CFF1CCC0CDD1CEE1CFF1CFF
:1017FE00B501A4014150510961097E4F440F551F97
:10180E00661F771F440F551F661F771F440F551F06
:10181E00661F771F440F551F661F771F440F551FF6
:10182E00661F771F440F551F661F771F440F551FE6
:10183E00661F771F8CC0C301B2010E94EB16698729
:10184E007A878B879C87C501B4010E94EB16298588
:10185E003A854B855C850E94841C20E030E040E098
:10186E0053E40E94881C0E9407116D877E878F8724
:10187E00988BD701C601880F991FAA1FBB1F880F0F
:10188E00991FAA1FBB1F880F991FAA1FBB1F880F66
:10189E00991FAA1FBB1F880F991FAA1FBB1F880F56
:1018AE00991FAA1FBB1FBC01CD01660F771F881F92
:1018BE00991F0E94EB162D853E854F8558890E94F3
:1018CE003F1C20E030E040E054E40E943E1C0E94A9
:1018DE000B186B017C01D501C401880F991FAA1F3B
:1018EE00BB1F880F991FAA1FBB1F880F991FAA1F06
:1018FE00BB1F880F991FAA1FBB1F880F991FAA1FF6
:10190E00BB1F880F991FAA1FBB1FBC01CD01660FFD
:10191E00771F881F991F0E94EB16698B7A8B8B8B12
:10192E009C8B2D853E854F85588969857A858B855B
:10193E009C850E94881C9B01AC0169897A898B89E0
:10194E009C890E943E1C0E940B18AB01BC011130F9
:10195E0049F018F0123059F00FC00F2EFAE23F2E58
:10196E00F02D0BC00F2EF2E33F2EF02D06C00F2EE2
:10197E00FAE33F2EF02D01C0312C59824A82D70155
:10198E00C60188279927A370BB2724E0129FF00178
:10199E001124E75DFC4F2081822F8A2B8B83DC8202
:1019AE00CD82D301C20188279927AF70BB27072E9E
:1019BE007CE0B695A795979587957A95D1F7702D7A
:1019CE006A017B01CC24DD24EFE0EE22FF248E2978
:1019DE008E835F8348870E948B1A80E60E94281BA5
:1019EE00832D0E94BF1BCE0101967C016E0199E0F2
:1019FE00C90ED11CF70181917F010E94BF1BEC140F
:101A0E00FD04C1F70E94801C013011F46FE201C089
:101A1E006FE089288A288B2809F46064113041F020
:101A2E0018F0123049F00BC080E10E94A01A07C0D6
:101A3E0081E10E94A01A03C082E10E94A01A64965E
:101A4E000FB6F894DEBF0FBECDBFDF91CF911F91C1
:101A5E000F91FF90EF90DF90CF90BF90AF909F903F
:0E1A6E008F907F906F905F904F903F90089503
:101A7C004F925F926F927F928F929F92AF92BF9292
:101A8C00CF92DF92EF92FF920F931F93CF93DF933E
:101A9C00CDB7DEB72A970FB6F894DEBF0FBECDBF19
:101AAC0089876A8729013A0147015801862F8F508F
:101ABC008C3408F0E3C0D801C7010197A109B10922
:101ACC008F3F9F4FAF40B10508F0D8C0411451046F
:101ADC0080E16806710408F0D1C04114510461041E
:101AEC00710479F4C62ED12C24E0C21AD108D694F4
:101AFC00DC2CCC24D794C7940D2C000CEE08FF08DA
:101B0C0071C0C801B7010E94EB1669837A838B837D
:101B1C009C83C301B2010E94EB1629813A814B814F
:101B2C005C810E94841C20E030E040E053E40E9481
:101B3C00881C0E9407116D837E838F8398879A85FA
:101B4C0080E8989FB0011124072E000C880B990B8C
:101B5C000E94ED162D813E814F8158850E943F1CBD
:101B6C0020E030E040E054E40E943E1C0E940B1840
:101B7C006B017C01D301C201880F991FAA1FBB1FE7
:101B8C00880F991FAA1FBB1F880F991FAA1FBB1F65
:101B9C00880F991FAA1FBB1F880F991FAA1FBB1F55
:101BAC00880F991FAA1FBB1FBC01CD01660F771FA1
:101BBC00881F991F0E94EB162B013C012D813E8141
:101BCC004F81588569817A818B819C810E94881C08
:101BDC009B01AC01C301B2010E943E1C0E940B1878
:101BEC002B013C012985222319F082E2898302C052
:101BFC009AE19983692D89810E94A01A682D8981A7
:101C0C008F5F0E94A01AD701C60188279927A3705D
:101C1C00BB27BD018827992789818E5F0E94A01A56
:101C2C006D2D89818D5F0E94A01A6C2D89818C5F2E
:101C3C000E94A01A882499242FE0A222BB24072EEC
:101C4C007CE0B694A794979487947A95D1F7702DED
:101C5C00D301C20188279927AF70BB27682D6A2B47
:101C6C0089818B5F0E94A01A652D89818A5F0E94F1
:101C7C00A01A642D8981895F0E94A01A2A960FB63A
:101C8C00F894DEBF0FBECDBFDF91CF911F910F91A6
:101C9C00FF90EF90DF90CF90BF90AF909F908F9080
:0A1CAC007F906F905F904F900895B5
:101CB600AFE0B0E0E1E6FEE00C94DB191C016B013D
:101CC6005A8349832B83FB0182819381848095808B
:101CD60000811181A680B78097FD02C00D7F02C0EA
:101CE60081E090E0E981FA814080518062807380D2
:101CF6009801207133273D832C83740104FF08C0AB
:101D0600411451046104710419F032E0E31AF10838
:101D1600F801E870FF27FF83EE8303FF03C0F1E0BD
:101D2600EF1AF108F6010084F185E02D3197FF875F
:101D3600EE87EA0DFB1D10829C012E193F0939879B
:101D46002887C801827099279B878A87EB818E2F07
:101D5600EE0F990B9C01215431093D872C872E8566
:101D66003F852230310530F48C819D81892B09F025
:101D760042C05CC0411451046104710461F18E8556
:101D86009F8501979F878E87C2018F7099278A301A
:101D9600910514F4C09602C0895A9F4FEC85FD85C3
:101DA6007A9748F49C012062215631092A3131057F
:101DB60010F40E94FF1BEE85FF85EA0DFB1D808354
:101DC600F1E0EF1AF10884E076946794579447940B
:101DD6008A95D1F7C4CF888599858E0D9F1D1816D3
:101DE60019066CF21E141F040CF0BECFEA85FB85A3
:101DF600EF2B29F6B9CFE981FA8180819181A28101
:101E0600B381892B8A2B8B2B89F0EE85FF85EA0D12
:101E1600FB1D31972B8120838E859F8502979F8797
:101E26008E87FC01EA0DFB1D80E38083EE81FF8136
:101E3600EF2B59F02E853F85215031093F872E879C
:101E4600F901EA0DFB1D80E28083F601408551858C
:101E5600415051092E853F85421B530BB9016A0D2E
:101E66007B1D9401C1010E949E179C01F101808196
:101E7600918190FF06C0F6018281938182179307B4
:0C1E86000CF4C9012F96E2E10C94F7194E
:101E9200CF92DF92EF92FF920F931F93CF93DF9334
:101EA200CDB7DEB7A0970FB6F894DEBF0FBECDBF99
:101EB2008C0142E050E062E071E00E946619892BD9
:101EC20029F5F80101900020E9F73197E01BF10BA9
:101ED2003397B8F0F8018281813331F45B9A85E05F
:101EE20091E00E94691BADC0803331F45B9882E1BE
:101EF20091E00E94691BA5C080E291E00E94691BEB
:101F0200A0C087E391E00E94691B9BC042E050E0C1
:101F120066E571E0C8010E946619892B09F04CC080
:101F220081E090E090935B0380935A03F801019063
:101F32000020E9F73197E01BF10B3397C0F1C8019C
:101F420002960E940816E62EF72E082F192F9F934D
:101F52008F937F936F9389E591E09F938F93CE0147
:101F620001966C019F938F930E94161BC6010E94DB
:101F7200691B6E2D7F2D802F912F20E432E44FE0DC
:101F820050E00E94741A30935F0320935E0328EEA0
:101F920033E040E050E00E94741A30935D032093D6
:101FA2005C030FB6F894DEBF0FBECDBF4AC08FE60A
:101FB20091E00E94691B45C042E050E06EE871E08A
:101FC200C8010E946619892B51F5F8010190002081
:101FD200E9F73197E01BF10B3397E0F0C801029665
:101FE2000E9408169F938F937F936F9381E991E0EC
:101FF2009F938F938E010F5F1F4F1F930F930E942A
:10200200161BC8010E94691B0FB6F894DEBF0FBEF3
:10201200CDBF17C087EA91E00E94691B12C042E05F
:1020220050E066EC71E0C8010E946619892B29F420
:1020320089EC91E00E94691B04C080EE91E00E944D
:10204200691BA0960FB6F894DEBF0FBECDBFDF911D
:10205200CF911F910F91FF90EF90DF90CF90089555
:10206200A4E0B0E0E7E3F0E10C94DD198B019C0100
:10207200AC0140785F776B017C0140385F4761F4C7
:10208200E894E7F8FF24C114D104E104F10409F053
:10209200ACC097FDAAC0AEC0E894F7F8C114D10451
:1020A200E104F10409F4A6C097FF07C081E290E0C1
:1020B200909301018093000198C0DC01CB0167E19C
:1020C200B595A795979587956A95D1F70097A1053C
:1020D200B105B9F480E090E0DC0127FD08C0000FF3
:1020E200111F221F331F0196A11DB11DF6CF0197AB
:1020F200A109B109B095A095909581959F4FAF4FD9
:10210200BF4F8F579109A109B1092F773327206853
:1021120080FF04C0000F111F221F331FAC01BD013D
:10212200759567955795479549835A836B837C8349
:10213200000F111F221F331F49E150E0812C912C07
:102142005401B394C12CD12C760180E090E0DC01E3
:102152002C013D01480C591C6A1C7B1C04151505F9
:102162002605370574F0D301C201880D991DAA1DF9
:10217200BB1D0419150926093709C80CD91CEA1C0C
:10218200FB1C000F111F221F331FB694A7949794B4
:10219200879441505109E1F60115110521053105D8
:1021A20051F0970186010170112722273327C00EB3
:1021B200D11EE21EF31EF594E794D794C79451EC16
:1021C200F51A89819A81AB81BC8127E1880F991F19
:1021D200AA1FBB1F2A95D1F78C0D9D1DAE1DBF1DD9
:1021E200482F392F2A2F5B2F09C040E030E020EC26
:1021F2005FE704C0462F372F282F592F642F732FE4
:0C220200822F952F2496E0E10C94F9192E
:10220E008F929F92AF92BF92CF92DF92EF92FF92F8
:10221E000F931F938B019C0157E1369527951795C8
:10222E0007955A95D1F71127A8014F5751094731F4
:10223E0051050CF045C057FD2DC00FEF1FEF2FE7D6
:10224E0030E004C035952795179507954A95D2F736
:10225E004801590186229722A822B92289288A2864
:10226E008B2871F197FF07C0DC01CB01800F911F06
:10227E00A21FB31F02C0DC01CB0100951095209563
:10228E00309580239123A223B323482F392F2A2F51
:10229E005B2F1AC097FF0FC08B019C01000F111FFF
:1022AE00221F331F012B022B032B51F040E030E095
:1022BE0020E85FEB09C040E030E020E050E004C0D1
:1022CE00462F372F282F592F642F732F822F952F9C
:1022DE001F910F91FF90EF90DF90CF90BF90AF9036
:0622EE009F908F900895FF
:1022F400A2E0B0E0E0E8F1E10C94DB193C016B01F1
:10230400FB0122813381A480B580808191819A83ED
:10231400898386809780FA012080318042805380AF
:10232400B201A10157FE07C044275527BA0142193B
:1023340053096409750937FD03C08D7F9A83898326
:10234400950157FC05C0898182FD02C083FF02C04C
:1023540021503109CE0101967C010AE010E0C6014A
:102364000E94941357FC03C0298122FF0AC00197DD
:10237400F401E80FF91F57FC02C02BE209C02DE25B
:1023840007C023FF06C00197F401E80FF91F20E2FC
:10239400208309811A81F6014085518541505109F4
:1023A400481B590BB401680F791F9501C3010E94A2
:1023B4009E179C01F3018081918190FF06C0F60174
:1023C40082819381821793070CF4C9012296E2E17A
:0423D4000C94F71955
:1023D80010C00E944C1C58F00E94451C40F029F483
:1023E8005F3F29F00C94611C51110C94541C0C94FF
:1023F8008C1C0E94E31868F39923B1F3552391F3D9
:10240800951B550BBB27AA2762177307840738F05B
:102418009F5F5F4F220F331F441FAA1FA9F335D0B8
:102428000E2E3AF0E0E832D091505040E695001C6C
:10243800CAF72BD0FE2F29D0660F771F881FBB1F26
:10244800261737074807AB07B0E809F0BB0B802D04
:10245800BF01FF2793585F4F3AF09E3F510578F030
:102468000C94611C0C94541C5F3FE4F3983ED4F325
:10247800869577956795B795F7959F5FC9F7880F04
:10248800911D9695879597F90895E1E0660F771F56
:10249800881FBB1F621773078407BA0720F0621BE7
:0E24A800730B840BBA0BEE1F88F7E0950895B6
:1024B6000FC00E94451C38F00E944C1C20F095234A
:1024C60011F00C94611C0C948C1C11240C94541C5B
:1024D6000E94E31870F3959FC1F3950F50E0551FC6
:1024E600629FF001729FBB27F00DB11D639FAA2763
:1024F600F00DB11DAA1F649F6627B00DA11D661FB2
:10250600829F2227B00DA11D621F739FB00DA11DD2
:10251600621F839FA00D611D221F749F3327A00D8C
:10252600611D231F849F600D211D822F762F6A2F28
:1025360011249F5750409AF0F1F088234AF0EE0F8D
:10254600FF1FBB1F661F771F881F91505040A9F7BA
:102556009E3F510580F00C94611C0C94541C5F3F07
:10256600E4F3983ED4F3869577956795B795F795F6
:10257600E7959F5FC1F7FE2B880F911D969587956E
:0425860097F9089524
:10258A00CF93DF93DC01F90168387105F1F05CF44F
:10259A006138710561F164387105A1F1603871051E
:1025AA0009F051C02FC0603C710509F441C0603F79
:1025BA007105F1F1603A710509F045C0C081D18118
:1025CA00CE0102969183808325C0C081D181CE013C
:1025DA00029691838083452B39F04881042E000CA2
:1025EA00550B660B770B1CC0488150E029C0C0818F
:1025FA00D181CE01049691838083488159816A8171
:10260A007B810EC0C081D181CE01029691838083E5
:10261A00452BA1F048815981052E000C660B770BDA
:10262A004D935D936D937C93139781E090E00DC079
:10263A00C081D181CE0102969183808348815981DC
:10264A0060E070E0EDCF80E090E0DF91CF910895F7
:10265A0011C00E94451C38F00E944C1C20F039F42D
:10266A009F3F19F426F40C948C1C0EF4E095E7FBBA
:10267A000C94611CE92F0E94E31858F3BA176207F9
:10268A0073078407950720F079F4A6F50C94531C78
:10269A000EF4E0950B2EBA2FA02D0B01B901900173
:1026AA000C01CA01A0011124FF27591B99F0593FB7
:1026BA0050F4503E68F11A16F040A22F232F342FFF
:1026CA004427585FF3CF469537952795A795F0404D
:1026DA005395C9F77EF41F16BA0B620B730B840B62
:1026EA00BAF09150A1F0FF0FBB1F661F771F881F1A
:1026FA00C2F70EC0BA0F621F731F841F48F4879572
:10270A0077956795B795F7959E3F08F0B0CF939563
:0E271A00880F08F09927EE0F97958795089580
:10272800A0E0B0E0EAE9F3E10C94DD19DC0128014E
:102738001696AD90BC901797F701808191811296FB
:10274800ED91FC9113971896CD91DC9119972197EB
:10275800F7FF02C0E1E0F0E0CA0DDB1D1882690155
:10276800A1E0B0E08F01021B130B4C01F2E08F22B5
:102778009924052C000C66087708CE018A199B0954
:10278800CA15DB0519F1411551056105710589F077
:10279800CB01BA01A30192010E940519CA01A62F13
:1027A800B72F605D6A9341E0C41AD108A901BC0142
:1027B800E4CF98012C0D3D1D121613064CF31C1482
:1027C8001D0434F48114910419F702C080E090E0EC
:1027D800AB2B31F4F701208131812F7E31832083A7
:0A27E800CDB7DEB7E0E10C94F9195B
:1027F200E9E2F3E0108211821282138214821582BE
:1028020016821782108611861286138662ED87EB76
:102812000E94A01A60E880E10E94A01A60E881E1AB
:102822000E94A01A60E882E10E94A01A60E883E197
:102832000E94A01A60E884E10E94A01A60E885E183
:102842000E94A01A60E886E10E94A01A60E887E16F
:102852000E94A01A6CE080E10E94A01A6CE081E163
:102862000E94A01A6CE082E10E94A01A6CE083E14F
:102872000E94A01A6CE084E10E94A01A6CE085E13B
:102882000E94A01A6CE086E10E94A01A6CE087E127
:102892000E94A01A85E90E94D717682F6F7785E9F1
:0628A2000E94A01A089537
:1028A8001F921FB61F9211242F933F938F939F93CC
:1028B80030B120B1832F817090E0880F991F21FBE0
:1028C800992790F9892B9091690391110DC0813056
:1028D80059F420916403309165032F5F3F4F309383
:1028E80065032093640310C09091690391110CC093
:1028F800823051F4209164033091650321503109ED
:102908003093650320936403209164033091650339
:102918002E3131053CF02EE130E0309365032093F1
:1029280064030DC0209164033091650324303105A0
:1029380034F423E030E030936503209364038093FC
:1029480069039F918F913F912F911F901FBE1F90F8
:022958001895D0
:10295A001F921FB61F9211242F933F938F939F9319
:10296A0036B126B136FB882780F990E0880F991F87
:10297A00922F991F9927991F892B9091680391117A
:10298A000DC0813059F420916203309163032F5FA7
:10299A003F4F309363032093620310C09091680302
:1029AA0091110CC0823051F420916203309163037B
:1029BA00215031093093630320936203209162030B
:1029CA0030916303273E33403CF027EE33E03093E7
:1029DA006303209362030BC0209162033091630367
:1029EA001216130624F01092630310926203809366
:1029FA0068039F918F913F912F911F901FBE1F9047
:022A0A0018951D
:102A0C000F931F93CF93DF93EA0140385105D4F015
:102A1C0020E030E040E05FE70E94881C9E012F57C9
:102A2C003109203831056CF120E030E040E05FE7FF
:102A3C000E94881CCE5FD109C038D1051CF1CFE7AC
:102A4C00D0E020C042385F4FECF420E030E040E8AA
:102A5C005CE00E94881C9E012A593F4F22384FEFA0
:102A6C0034077CF420E030E040E85CE00E94881CF5
:102A7C00C453DF4FC2382FEFD20724F4C2E8DFEF84
:102A8C0001C0E9019E0121583F4F8901330F220BF0
:102A9C00330BA9019801E7E1220F331F441F551F87
:102AAC00EA95D1F70E94881CDF91CF911F910F916D
:022ABC0008957B
:102ABE00A2E0B0E0E5E6F5E10C94DF194C016B0104
:102ACE00FB012281338164807580808191819A839C
:102ADE008983A680B78037FD03C08D7F9A83898353
:102AEE00FA014081518162817381CE0101967C0190
:102AFE0008E010E09301C6010E949413298124FF7F
:102B0E0006C00197F501E80FF91F20E32083298104
:102B1E0023FF06C00197F501E80FF91F20E220837D
:102B2E0009811A81F6014085518541505109481B92
:102B3E00590BB501680F791F9301C4010E949E17AE
:102B4E009C01F4018081918190FF06C0F601828183
:102B5E009381821793070CF4C9012296EEE00C9430
:022B6E00FB1951
:102B7000FF920F931F93CF93DF9300D0CDB7DEB7B3
:102B80008A01F22E0E944A1BFF20D1F16F2D70E0C6
:102B900061507109072E000C880B990B0E94ED16ED
:102BA0009B01AC0160E070E080E291E40E94AD0026
:102BB0000E940B187A83698369817A81C8010E9417
:102BC000F01AAB019B01ADECBCEC0E94871B969503
:102BD00087959695879596958795880F991F9C015F
:102BE000220F331F220F331F820F931F9A01281BBE
:102BF000390BC901805D0E942B1AFA94F110C6CFDF
:102C00000F900F90DF91CF911F910F91FF9008953A
:102C1000A0E0B0E0EEE0F6E10C94E519AC01FA01B9
:102C200090814F5F5F4F9032D1F3292F092E000C16
:102C3000330B295031092530310588F39B3271F56A
:102C400000E010E0319602C000E010E020E030E04B
:102C5000A901C1910C2E000CDD0BE097CA30D10503
:102C600078F4AAE0B0E00E94E21B6E01DD0FEE08EE
:102C7000FF089B01AC012C193D094E095F09E9CF02
:102C80000115110541F466277727CB01621B730BF1
:102C9000840B950B08C0CA01B90105C09D32A1F68D
:102CA00001E010E0CFCFCDB7DEB7E8E00C94011A19
:102CB0000F931F93CF93DF93DB01109719F48FEFDE
:102CC0009FEF3DC02D913C91119730FF25C0169686
:102CD0004D915C91179714962D913C911597421741
:102CE000530778F41296ED91FC9113978083129616
:102CF0002D913C9113972F5F3F4F13963C932E934A
:102D0000129716962D913C9117972F5F3F4F17966C
:102D10003C932E93169713C01C96ED91FC911D9732
:102D2000309769F2EB01092F182F0995892B39F695
:102D30008E819F8101969F838E83812F902FDF91BB
:082D4000CF911F910F9108953E
:102D4800A2E0B0E0EAEAF6E10C94DF195C016B015D
:102D5800FB012281338184809580808191819A83CF
:102D680089836680778037FD03C08D7F9A83898346
:102D7800FA014081518162817381CE0101967C0103
:102D88000AE010E09401C6010E94941309811A8197
:102D9800F6014085518541505109481B590BB30133
:102DA800680F791F9401C5010E949E179C01F501C7
:102DB8008081918190FF06C0F601828193818217FC
:0E2DC80093070CF4C9012296EEE00C94FB195F
:102DD600E89409C097FB3EF49095809570956195AF
:102DE6007F4F8F4F9F4F9923A9F0F92F96E9BB2765
:102DF6009395F695879577956795B795F111F8CFE1
:102E0600FAF4BB0F11F460FF1BC06F5F7F4F8F4F4B
:102E16009F4F16C0882311F096E911C0772321F041
:102E26009EE8872F762F05C0662371F096E8862FD9
:102E360070E060E02AF09A95660F771F881FDAF730
:0A2E4600880F9695879597F9089577
:102E5000A2E8B0E0EEE2F7E10C94E1195C014A016E
:102E6000CF57DF4F79836883C158D040C12CD12C14
:102E7000CF57DF4FE881F981C158D0408081882346
:102E8000E9F07401860120E830E0AE014F5F5F4F4A
:102E9000BE016F577F4FC5010E9461098C0D9D1DBA
:102EA0008C159D054CF48FE490E090930101809384
:102EB00000018FEF9FEF03C06C01DACFC601CE5740
:082EC000DF4FECE00C94FD195A
:102EC800A0E1B0E0EAE6F7E10C94E719FB01BA01EA
:102ED800AE014F5F5F4F7A0140E1D7011D924A95DD
:102EE800E9F742E051E05A8349839C838B83F7FFDB
:102EF80009C08FE490E090930101809300018FEF67
:102F08009FEF14C0A9018C013197FE83ED83C7019F
:102F18000E945C1A4F8158852D813E8142175307C4
:102F280008F49A01F801E20FF31F10826096E6E0B8
:042F38000C94031AD8
:102F3C00A0E0B0E0E4EAF7E10C94E1196C015B016C
:102F4C007A01E901480181E08822992400FD03C03F
:102F5C004217530750F0A701B501C6010E94A219F0
:102F6C00EC16FD0610F0C70117C08E010E191F09D3
:102F7C000115110541F0B60180E290E00E9458164F
:102F8C0001501109F5CF8114910429F4A701B50161
:102F9C00C6010E94A219CE01CDB7DEB7ECE00C94AD
:022FAC00FD190D
:102FAE001F93CF93DF9300D00F92CDB7DEB7182FBC
:102FBE000E948B1A80E60E94281B898389818831A2
:102FCE00B9F4812F0E94BF1B8A838A81883291F4C3
:102FDE000E94F61B80E60E94781B8B838B818034C7
:102FEE0059F40E94CC1B89830E94801C898105C0E4
:102FFE008FEF03C08FEF01C08FEF0F900F900F90E8
:08300E00DF91CF911F9108959D
:103016000E94EB1888F09F5798F0B92F9927B7515F
:10302600B0F0E1F0660F771F881F991F1AF0BA9566
:10303600C9F714C0B13091F00E94531CB1E0089555
:103046000C94531C672F782F8827B85F39F0B93F47
:10305600CCF3869577956795B395D9F73EF4909519
:0E3066008095709561957F4F8F4F9F4F089515
:10307400DC01ED91FC91119780818A3221F080E08E
:1030840090E03AE00EC03196ED93FC93DB01ED91B4
:10309400FC911197CF0102968D939C93808191812D
:1030A4000895ED91FC911197208120532A3068F402
:1030B400389FA001399F500D1124CA01820F911D20
:0C30C40031961196FC93EE93ECCF08952A
:1030D000CF93882341F10E94181CC82F0E94101C16
:1030E000CB3369F4E0916A03F0E0ED52FD4F1082BA
:1030F00083ED92E00E94490F10926A0314C0E091A0
:103100006A03EF3348F481E08E0F80936A03F0E0A6
:10311000ED52FD4FC083DFCF10926A0386EF91E03E
:0A3120000E94691BD8CFCF910895DB
:10312A00A0E0B0E0EBE9F8E10C94E3197C01FB01C3
:10313A00EA01C901A280B380C480D58000811181CF
:10314A00209711F4CDE4D3E0009719F4CE010E9440
:10315A00A41BB7FC04C0A816B90608F4C501960159
:10316A00AC01BE01C7010E949E17CDB7DEB7EAE0E7
:04317A000C94FF1999
:10317E00990F0008550FAA0BE0E8FEEF161617067A
:10318E00E807F907C0F012161306E407F50798F0E2
:10319E00621B730B840B950B39F40A2661F0232BFB
:1031AE00242B252B21F408950A2609F4A140A69577
:0831BE008FEF811D811D0895B2
:1031C60057FD9058440F551F59F05F3F71F04795D2
:1031D600880F97FB991F61F09F3F79F087950895B7
:1031E600121613061406551FF2CF4695F1DF08C0D6
:1031F600161617061806991FF1CF869571056105F3
:04320600089408958B
:10320A00A1E21A2EAA1BBB1BFD010DC0AA1FBB1FE0
:10321A00EE1FFF1FA217B307E407F50720F0A21B52
:10322A00B30BE40BF50B661F771F881F991F1A94BF
:10323A0069F760957095809590959B01AC01BD01E9
:04324A00CF01089513
:10324E00CF93DF93EC0190E0E92FF0E0EE0FFF1F3C
:10325E00ED5EFC4F8081811102C081810EC0A8817C
:10326E00B9812C91821305C091811196B983A883DF
:10327E0001C09F5F9B3040F3892FDF91CF9108955E
:10328E0081B18C7F81B987B18F7387B982B18F601D
:10329E0082B9E8E6F0E0808181608083808184607D
:1032AE008083EBE6F0E0808183608083EDE6F0E0E2
:0E32BE008081806C8083D89ADA9A7894089583
:1032CC00CF93DF9341155105A9F0DC01FB01EF0110
:1032DC008D91882351F09191992339F0413051050A
:1032EC0021F041505109891791F390E02881821BFC
:0E32FC00910902C080E090E0DF91CF9108952B
:10330A0050B140B1252F217030E0220F331F41FB0D
:10331A00332730F9232B2093690336B126B136FBC4
:10332A00882780F990E0880F991F922F991F992773
:0A333A00991F892B80936803089502
:10334400A0E0B0E0E8EAF9E10C94E5196C01EB01C6
:103354008A017B01E40EF51ECE15DF0541F089914B
:10336400B601082E000C990B0E945816F5CFC8011F
:0A337400CDB7DEB7E8E00C94011AB3
:10337E00CF92DF92EF92FF926B017C0160E085EAC3
:10338E000E94A01AC701B6016F7777278827992761
:10339E0086EA0E94A01A60EA81EB0E94A01AFF90B2
:0833AE00EF90DF90CF9008952D
:1033B6002F923F924F925F926F927F928F929F923F
:1033C600AF92BF92CF92DF92EF92FF920F931F932D
:1033D600CF93DF93CDB7DEB7CA1BDB0B0FB6F894DE
:0833E600DEBF0FBECDBF09944C
:1033EE002A88398848885F846E847D848C849B8487
:1033FE00AA84B984C884DF80EE80FD800C811B8195
:10340E00AA81B981CE0FD11D0FB6F894DEBF0FBEC3
:06341E00CDBFED01089591
:103424005F985E9895B1892B85B95D9A89EF90E094
:103434000197F1F700C000005D9889EF90E00197D3
:10344400F1F700C0000085B115B88BB18F718BB94D
:023454000895D9
:103456005F9A5E9895B1892B85B95D9A89EF90E060
:103466000197F1F700C000005D9889EF90E00197A1
:10347600F1F700C0000085B115B88BB18F718BB91B
:023486000895A7
:103488000F931F93CF938A010E944A1BF8018081F2
:10349800882351F0C0E00E942B1ACF5FF801EC0F8F
:1034A800F11D80818111F7CFCF911F910F91089560
:1034B800A2E0B0E0E2E6FAE10C94E9198C015A8343
:1034C8004983AE014F5F5F4F0E942817F8012081A2
:1034D80024FF02C08FEF9FEF2296E4E00C94051AB8
:1034E800052E97FB1EF400940E94201C57FD07D060
:1034F8000E94051907FC03D04EF40C94201C50952B
:0E3508004095309521953F4F4F4F5F4F0895EE
:10351600CF93DF930F92CDB7DEB7198284EA8093FB
:10352600BC00ECEBF0E080818823ECF78091B900D9
:0A35360089830F90DF91CF91089573
:10354000CF93DF93D82FC62F0E948B1A80E60E945C
:10355000281B8D2F0E94BF1B8C2F0E94BF1B0E9417
:08356000801CDF91CF9108955A
:10356800069B10C087E893E10197F1F700C00000BF
:103578000699FECF87E893E10197F1F700C00000B4
:0835880081E0089580E0089540
:10359000059B10C087E893E10197F1F700C0000098
:1035A0000599FECF87E893E10197F1F700C000008D
:0835B00081E0089580E0089518
:1035B800049B10C087E893E10197F1F700C0000071
:1035C8000499FECF87E893E10197F1F700C0000066
:0835D80081E0089580E00895F0
:1035E000AA1BBB1B51E107C0AA1FBB1FA617B70729
:1035F00010F0A61BB70B881F991F5A95A9F7809545
:083600009095BC01CD01089575
:1036080087B1836087B988B18C7F88B987B18C7F8F
:1036180087B98DEF8093B800ECEBF0E0808184608F
:0436280080830895FE
:10362C00A0E0B0E0ECE1FBE10C94EB19AE01475FDC
:10363C005F4F6F8178858D819E810E945A1CE2E0DC
:04364C000C94071AB9
:10365000880F8093BB0084E88093BC00ECEBF0E023
:1036600080818823ECF7E9EBF0E0808180818E7F18
:023670000895BB
:10367200092E0394000C11F4882352F0BB0F40F47E
:10368200BF2B11F460FF04C06F5F7F4F8F4F9F4FBE
:02369200089599
:10369400813031F48FEF860F80680E94121A0895EA
:1036A400823029F48FE3860F80680E94121A0895ED
:1036B4001092C5008CE08093C40082E08093C00027
:0E36C40088E18093C10086E08093C2000895E3
:1036D200CF93DF93EC018881882331F021960E94F9
:0E36E200101C89918111FBCFDF91CF910895CB
:1036F000880F81608093BB0084E88093BC00ECEB72
:0E370000F0E080818823ECF78091B9000895F5
:10370E00A29FB001B39FC001A39F700D811D112414
:0E371E00911DB29F700D811D1124911D089503
:10372C000E94441A2FE78AE196E021508040904095
:0C373C00E1F700C000000E947C1C089512
:10374800FC01AF014F5F5F4F2081222311F0FA0186
:0C375800F8CF9F01281B390BC901089510
:1037640088E30E94121A8CE00E94121A86E00E94DA
:0A377400121A81E00E94121A089553
:10377E008093BB0084E88093BC00ECEBF0E080818A
:0A378E008823ECF78091B90008953C
:1037980084E88093BC00ECEBF0E080818823ECF7B0
:0637A8008091BB000895B2
:1037AE00EC010E94961C0E94951CCE010E94971C53
:0637BE00CE010E94931CE5
:1037C4000E94871BA59F900DB49F900DA49F800D10
:0637D400911D112408956F
:1037DA00CF93C42F0E944A1B8C2F0E942B1ACF9181
:0237EA00089540
:1037EC0084EA8093BC00ECEBF0E080818823ECF75A
:0237FC0008952E
:1037FE009C01215631092A31310510F48F75992714
:02380E0008951B
:1038100061E08627682F619583E00E94A01A0895D1
:10382000E0ECF0E0908195FFFDCF8093C600089515
:10383000E0ECF0E080818823ECF78091C6000895E9
:1038400090958095709561957F4F8F4F9F4F08950C
:103850009C01215431092A31310508F48062089510
:0E38600081B18F7881B982B18F7882B90895D5
:0E386E0084B18FEF84B98AB1806E8AB9089553
:0E387C005058BB27AA270E942D130C94391B0D
:0E388A0000240A94161617061806090608955B
:0E38980000240A94121613061406050608955D
:0E38A600E894BB2766277727CB0197F9089592
:0E38B4009A01AB016FEF7FE70E946417089541
:0C38C20097F99F6780E870E060E00895CF
:0C38CE00EE0FFF1F0590F491E02D09940F
:0A38DA0060EA81EB0E94A01A089535
:0A38E4000E94BF1808F481E0089567
:0A38EE000E94BF1808F48FEF089540
:0838F80081E00E94121A0895FC
:0839000084E98093BC000895E6
:083908000E94EC110C94391B24
:083910000E945B120C94391BAC
:063918009FEF80EC089512
:04391E000C94000005
:043922009F770895EE
:043926000E94AB0050
:02392A000895FE
:02392C000895FC
:02392E000895FA
:10393000545800545820456E61626C65640D0A004D
:1039400054582044697361626C65640D0A00496EC5
:1039500076616C696420545820706172616D657481
:1039600065720D0A00545820636F6D6D616E64209E
:103970006D697373696E6720706172616D657465DE
:10398000720D0A0046410056464F2D412073657462
:1039900020746F20256C6420487A0D0A004641206F
:1039A000636F6D6D616E64206D697373696E6720FE
:1039B0006672657175656E63790D0A004642005640
:1039C000464F2D422073657420746F20256C64204F
:1039D000487A0D0A00464220636F6D6D616E642067
:1039E0006D697373696E67206672657175656E6364
:1039F000790D0A00494600494620636F6D6D616E7E
:103A0000642070726F6365737365640D0A00556E90
:103A10006B6E6F776E2043415420636F6D6D616EE6
:043A2000640D0A0027
:103A24000D0A4572726F723A20436F6D6D616E6458
:103A340020746F6F206C6F6E670D0A0050555348E9
:103A440020414E5920425554544F4E00544F205358
:103A54005441525400546F7020427574746F6E0058
:103A6400666F7220545800426F74746F6D204275F3
:103A740074746F6E00666F72205258004D696464EE
:103A84006C6520427574746F6E00746F20436F6EA2
:103A94006669726D00545800506C6561736500531B
:103AA400656C656374204D6F6465005258004D6FFA
:103AB400646520436F6E6669726D65643A0052589E
:103AC400204D6F6465005458204D6F646500467244
:103AD400657175656E63793A004D487A004B487A92
:103AE40000436F6E6669726D656420467265713A53
:0D3AF400002000436F6D70204354524C00C1
:103B010068076C094C836A9074A07AC00080688849
:063B110000846C820081BB
:083B170000000000DCCFD135F5
:083B1F000000000000C0153F8A
:083B27000000803F0000C03FD8
:073B2F00286E756C6C290083
:063B3600286E696C2900F5
:00000001FF
