:100000000C9483000C94771C0C94771C0C94771C34
:100010000C943C140C94771C0C9495140C94771C41
:100020000C94771C0C94771C0C94771C0C94771C04
:100030000C94771C0C94771C0C94771C0C94771CF4
:100040000C94771C0C94771C0C94771C0C94771CE4
:100050000C94771C0C94771C0C94771C0C94771CD4
:100060000C94771C0C94771C0C94771C0C94771CC4
:100070000C94771C0C94771C0C94771C0C94771CB4
:100080000C94771C0C94771C0C94771C0C94771CA4
:100090000C94771C0C94771C0C94771C0C94771C94
:1000A0000C94771C0C94771C0C94771C0C94771C84
:1000B0000C94771C0C94771C0C94771C0C94771C74
:1000C0000C94771C0C94771C0C94771C0907370749
:1000D0009F07CF07E8076708A308BA0801000102D5
:1000E00080010202D300390002D3031380031303FB
:1000F00029003AD103290335800335035A003AE732
:10010000035A036B800011241FBECFEFD8E0DEBF7F
:10011000CDBFECEDF0E041E017C0B591A591359170
:100120002591059107FD0CC095918591EF01F92F5F
:10013000E82F05900D92A217B307D9F7FE0104C06E
:100140001D92A217B307E1F7E530F40731F70E94DB
:0A015000CC060C94BF1BF894FFCFFF
:10015A00A2E2B0E0E3EBF0E00C94C51929833A83FC
:10016A004B835C8329013A01E89477F841145104DE
:10017A006104710409F4FFC569877A878B879C87B4
:10018A004B015C016115710500E880070FE39007D8
:10019A0009F4F1C56B017C01E894F7F811E0C11686
:1001AA00D10410E8E1061FE7F1060CF0DFC5A1E073
:1001BA004A165104A0E86A06AFE77A060CF0D6C5DB
:1001CA0097FF42C041145104B0E86B06BBE47B06BA
:1001DA00ECF541145104E0E86E06EFE37E060CF4F8
:1001EA0059C05301420117E1B594A7949794879493
:1001FA001A95D1F7FFE78F1A9108A108B108E7E12C
:10020A00F0E0E819F909530142010E2E04C0B59431
:10021A00A794979487940A94D2F78D829E82AF828C
:10022A00B88604C0880C991CAA1CBB1CEA95D2F794
:10023A00481459046A047B0469F5ED81E170B2E05F
:10024A009B2E9E1A9D8227C01D8202C002E00D834A
:10025A004114510410E861061FE77106E1F4C11464
:10026A00D10480E8E8068FE3F80609F484C54CF067
:10027A0089809A80AB80BC80B7FC82C5CA01B9016B
:10028A0082C5E980FA800B811C8117FF79C5CA01F2
:10029A00B9017FC01D822D8B3E8B4F8B588F4B012E
:1002AA005C014114510400E860060FE3700679F41A
:1002BA00E980FA800B811C8117FF65C59B01AC019F
:1002CA0060E070E080E89FE30E946C1C5CC50981D5
:1002DA001A812B813C8101151105210540E434075F
:1002EA0029F49B01AC010E94701C4DC589819A8139
:1002FA00AB81BC810097A105BF4359F409851A85D2
:10030A002B853C8537FD05C0C501B4010E94191033
:10031A003AC5C501B4010E94791CC114D104E10493
:10032A00F10449F01FE3B1228114910420E8A206E6
:10033A002FE3B20681F589809A80AB80BC80B7FE34
:10034A0008C09B01AC0160E070E080E89FE30E9476
:10035A006C1C89849A84AB84BC84B7FE14C500E8FB
:10036A00E01A0FE3F00A1D81C12AC114D104E10485
:10037A00F10459F481E290E0909301018093000125
:10038A006FEF7FEF8FEF9FE7FEC40D81013009F019
:10039A00FAC49058F8C489849A84AB84BC84B7FEA2
:1003AA0010C09D80992031F3092D013051F4812C20
:1003BA00912CA12CA0E8BA2E89869A86AB86BC8697
:1003CA0004C019861A861B861C8601E04016510451
:1003DA0061040DE470060CF488C018EFC1161FEF13
:1003EA00D1061FE7E1061FE3F1063CF489809A80F3
:1003FA00AB80BC80B7FE41C317C308E0C016D10466
:10040A0000E8E0060FE3F0065CF089809A80AB8092
:10041A00BC80181419041A041B040CF405C32DC358
:10042A0020E030E040E85FE30E94261C6B017C017B
:10043A0020E03AEA48EB5FE30E94701C4B015C0142
:10044A0020E735EA4CEE56E3C701B6010E94701C5C
:10045A0069837A838B839C8320E030E040E85EE303
:10046A00C701B6010E94701C9B01AC016BEA7AEAD3
:10047A008AEA9EE30E94261CA70196010E94701C2C
:10048A009B01AC0160E070E080E09FE30E94261CC3
:10049A002B013C01A7019601C701B6010E94701CFD
:1004AA009B01AC01C301B2010E94701C2BE33AEA22
:1004BA0048EB5FE30E94701C9B01AC0169817A8161
:1004CA008B819C810E94261C6B017C019B01AC01E3
:1004DA00C501B4010E94271C6627707F6D837E8345
:1004EA008F839887A501940120C2C114D10400E822
:1004FA00E006F1046CF420E030E040E85BE40E949E
:10050A00701C6B017C0148EE5FEF6FEF7FEF03C059
:10051A0040E050E0BA01D701C601F7E1B595A795C9
:10052A0097958795FA95D1F78F579109A109B1093E
:10053A004C015D01840E951EA61EB71E898A9A8AF1
:10054A00AB8ABC8AE894E7F8FF244601570168940D
:10055A00A7F80FE3B02A12E7C11614ECD1061CE182
:10056A00E106F104B4F027EDC21623EBD2062DE51D
:10057A00E206F1049CF089899A89AB89BC890196C3
:10058A00A11DB11D898B9A8BAB8BBC8B90E8A91AE4
:10059A00B1081D821E821F82188608C0E12CF12C28
:1005AA008701E394ED82FE820F8318870D811E81F5
:1005BA00000F111F000F111F1AA309A3F801EB5B0B
:1005CA00FC4FE080F18002811381ED86FE860F8761
:1005DA00188BA8019701C501B4010E94261C698FD6
:1005EA007A8F8B8F9C8FA8019701C501B4010E9455
:1005FA00271C9B01AC0160E070E080E89FE30E9449
:10060A006C1C6D8F7E8F8F8F98A39B01AC01698DB7
:10061A007A8D8B8D9C8D0E94701C69837A838B8363
:10062A009C8349805A806B807C80442400EF50224E
:10063A0075016401F594E794D794C794CC2410EF1C
:10064A00D122E894F5F86894F5F8D701C601A05CC0
:10065A00BF4FCD80DE80EF80F88475E1CC0CDD1CC5
:10066A00EE1CFF1C7A95D1F7C80ED91EEA1EFB1E96
:10067A00A7019601C301B2010E94701C9B01AC0143
:10068A00698D7A8D8B8D9C8D0E94261C6D837E834D
:10069A008F8398872D853E854F855889C701B60176
:1006AA000E94261C9B01AC01C501B4010E94261CB4
:1006BA00A30192010E94701C9B01AC016D817E8195
:1006CA008F8198850E94261C2D8D3E8D4F8D58A1B5
:1006DA000E94701C6D837E838F83988729813A815B
:1006EA004B815C81CA01B9010E94701C6B017C01BB
:1006FA0022E431EF43E55EE30E94701C25E532E314
:10070A004CE65EE30E94271CA70196010E94701C1A
:10071A0025E033EA4BE85EE30E94271CA701960115
:10072A000E94701C2BEA3AEA4AEA5EE30E94271CFE
:10073A00A70196010E94701C27EB3DE64BED5EE394
:10074A000E94271CA70196010E94701C2AE939E918
:10075A0049E15FE30E94271C4B015C01A701960156
:10076A00C701B6010E94701C9B01AC01C501B4010E
:10077A000E94701C6B017C01A301920169817A813C
:10078A008B819C810E94271C2D813E814F81588537
:10079A000E94701CA70196010E94271C6B017C0114
:1007AA00A3019201C301B2010E94701C6D877E876A
:1007BA008F87988B20E030E040E450E40E94271CA9
:1007CA00A70196010E94271C4B015C01882420EF97
:1007DA009222A5019401C301B2010E94701C2B014F
:1007EA003C0120E030E040E450E4C501B4010E943D
:1007FA00261C2D853E854F8558890E94261C9B0103
:10080A00AC01C701B6010E94261C29813A814B819D
:10081A005C810E94701C6B017C01A50194016D81B1
:10082A007E818F8198850E94701C9B01AC01C70153
:10083A00B6010E94271C4B015C019B01AC01C3015C
:10084A00B2010E94271C6B017C01CC2430EFD32219
:10085A0020E030E446E75FE3C701B6010E94701C5E
:10086A0069837A838B839C83A3019201C701B601B2
:10087A000E94261C9B01AC01C501B4010E94261CE2
:10088A002FE438E346E75FE30E94701C4B015C01EA
:10089A0026EC33E246EF58EBC701B6010E94701C02
:1008AA009B01AC01C501B4010E94271CE9A1FAA170
:1008BA00EB5CFC4F20813181428153810E94271CCD
:1008CA006B017C0169897A898B899C890E94D5167A
:1008DA004B015C0109A11AA1035C1C4FD8014D9080
:1008EA005D906D907C90A701960169817A818B81D8
:1008FA009C810E94271CA30192010E94271CA5012A
:10090A0094010E94271C6627707F6D837E838F83E4
:10091A009887A50194010E94261CA30192010E94B6
:10092A00261C29813A814B815C810E94261C9B01ED
:10093A00AC01C701B6010E94261C4B015C01CD889F
:10094A00DE88EF88F88CCC24B0EFDB22A701960171
:10095A006D897E898F89988D0E94261C2D813E8102
:10096A004F8158850E94701C2B013C012D893E89BC
:10097A004F89588DC501B4010E94701C9B01AC01BE
:10098A00C301B2010E94271C69837A838B839C83EB
:10099A00A70196016D817E818F8198850E94701CC6
:1009AA00962EA72EB82E892E6D87798B182F092F90
:1009BA00262F372F482F592F69817A818B819C8165
:1009CA000E94271C6B017C016D837E838F8398872D
:1009DA0081E0C816D104E10483E4F8062CF52D81E0
:1009EA003E814F815885211531054105534419F53A
:1009FA002CE33AEA48E353E369817A818B819C814B
:100A0A000E94271C2B013C01292D3A2D4B2D582DD4
:100A1A00C701B6010E94261C9B01AC01C301B201A9
:100A2A000E945F1C181674F589859A85AB85BC856A
:100A3A00A068BF6798C1D701C601BF770197A641D1
:100A4A00B344DCF42D813E814F815885211531054F
:100A5A004641534CB9F4292D3A2D4B2D582DC70137
:100A6A00B6010E94261C9B01AC0169817A818B81A7
:100A7A009C810E945A1C18162CF069857A858B85F0
:100A8A009C8581C1D701C601BF7781309105A10537
:100A9A00EFE3BE070CF46AC037E1B595A7959795C1
:100AAA0087953A95D1F78E5740E050E060E870E0BC
:100ABA008A019B0104C035952795179507958A9554
:100ACA00D2F7C00ED11EE21EF31E26013701E894AA
:100ADA0077F847E175946794579447944A95D1F704
:100AEA001FE7411A5108610871088FEF9FEFAFE7BE
:100AFA00B0E0042C04C0B595A795979587950A94FC
:100B0A00D2F780959095A095B0959C01AD012C21C6
:100B1A003D214E215F21E894E7F8FF246894E7F825
:100B2A0087E190E0841995092601370104C075947C
:100B3A006794579447948A95D2F7ED80FE800F8187
:100B4A00188517FF08C07094609450944094411C13
:100B5A00511C611C711C692D7A2D8B2D982D0E94B8
:100B6A00261C6D87798B182F092F03C0412C512C15
:100B7A00320129813A814B815C816D857989812F86
:100B8A00902F0E94271C4B015C01882420E89222A6
:100B9A0020E032E741E35FE3C501B4010E94701C23
:100BAA006D837E838F8398872D853989412F502FB6
:100BBA00C501B4010E94261C9B01AC0169817A819E
:100BCA008B819C810E94261C28E132E741E35FE386
:100BDA000E94701C6B017C012CE83EEB4FEB55E345
:100BEA00C501B4010E94701C9B01AC01C701B6018A
:100BFA000E94271C4B015C019B01AC016D817E8127
:100C0A008F8198850E94271C6B017C012D813E8172
:100C1A004F8158850E94261C9B01AC01C501B40175
:100C2A000E94261C69837A838B839C83A701960181
:100C3A00C701B6010E94701C4B015C012CE43BEB1E
:100C4A0041E353E30E94701C2EE03AEE4DED55E36A
:100C5A000E94261CA50194010E94701C25E533EB15
:100C6A004AE858E30E94271CA50194010E94701CBF
:100C7A0021E63BE046E35BE30E94261CA5019401C2
:100C8A000E94701C2BEA3AEA4AE25EE30E94271CA1
:100C9A00A50194010E94701C9B01AC01C701B60119
:100CAA000E94261C4B015C019B01AC01C701B601E5
:100CBA000E94701C6D837E838F83988720E030E0CA
:100CCA0040E050E4C501B4010E94261C9B01AC011E
:100CDA006D817E818F8198850E946C1C4B015C011D
:100CEA0029813A814B815C81C701B6010E94701C3F
:100CFA0029813A814B815C810E94271C9B01AC01AE
:100D0A00C501B4010E94261CA70196010E94261C57
:100D1A009B01AC0160E070E080E89FE30E94261C22
:100D2A005301420127E1880C991CAA1CBB1C2A9575
:100D3A00D1F7860E971EA81EB91E8114910430E8B9
:100D4A00A306B10424F4A2010E94EE1402C0C50154
:100D5A00B40189849A84AB84BC8486269726A82603
:100D6A00B926D501C401BC01CD010DC060E070E017
:100D7A0080EC9FE708C060E070E080E89FE303C072
:0E0D8A0060E070E0CB01A296E0E10C94E1196C
:100D9800539A5B980E941F1C0E949A1B0E94421B38
:100DA8000E942F190E946D190E94181C0E94EC1AAB
:100DB8000E94E1130E94551CE12CF12C8701E39459
:100DC80020E030E0A90160E280E00E94260D6AE59B
:100DD80070E080E090E00E94A719212C312C912C22
:100DE800C0E0D0E00F2EF2E38F2EF02D10926703B3
:100DF800E09166038E2F90E08830910508F042C29A
:100E0800FC01EA59FF4F0C944F1C42E152E061E0AB
:100E180081E00E942C1A42E252E061E082E00E94E6
:100E28002C1AE0ECF0E0808191E0282F207285FFF9
:100E380090E090936703222321F086E08093660375
:100E4800D5CF0E949C1A811108C00E94B01A811146
:100E580004C00E94C41A882349F281E08093660383
:100E68000E94641CC3CF89EF90E00197F1F700C09E
:100E78000000AE014F5F5F4F9A0136952795ABE7AB
:100E8800B4E10E946F1BEC01D695C7958C9EC001FA
:100E98008D9E900D1124EA01C81BD90B61F4809135
:100EA8006003909161038230910551F1019690930E
:100EB80061038093600380916003909161030097C0
:100EC80069F44BE252E061E081E00E942C1A46E3AB
:100ED80052E061E082E00E942C1A1EC08130910528
:100EE80069F44DE352E061E081E00E942C1A4BE482
:100EF80052E061E082E00E942C1A0EC0029761F471
:100F080042E552E061E081E00E942C1A40E652E09E
:100F180061E082E00E942C1A0E94B01A882309F42A
:100F280065CF82E0809366030E94641C109261037F
:100F3800109260035BCF4BE652E061E081E00E94D3
:100F48002C1A4EE652E06BE081E00E942C1A45E72D
:100F580052E066E082E00E942C1A41E852E061E02B
:100F680082E00E942C1A0E949C1A882341F083E098
:100F7800809366030E94641C9924939437CF0E943F
:100F8800C41A882309F432CF83E0809366030E9451
:100F9800641C912C2BCF44E852E061E081E00E9470
:100FA8002C1A992039F044E952E061E082E00E946D
:100FB8007E1B06C04CE952E061E082E00E947E1B85
:100FC80084E08093660312CF44EA52E061E081E056
:100FD8000E942C1A409164035091650323E061E05C
:100FE80082E00E94A0154FEA52E064E082E00E948D
:100FF8002C1A40E267E082E00E94D51B4091620310
:101008005091630323E068E082E00E94A01543EB5F
:1010180052E06BE082E00E942C1A0E94B01A8823EA
:1010280009F4E4CE40906403509065036090620335
:10103800709063038091640390916503209162032B
:1010480030916303E0E4F2E48E9F10018F9F300C2F
:101058009E9F300C112448EE53E0249FC001259F29
:10106800900D349F900D1124280E391E47EB52E045
:1010780061E081E00E942C1A23E0A20161E082E095
:101088000E94A0154FEA52E064E082E00E942C1A08
:1010980040E267E082E00E94D51B23E0A30168E0FC
:1010A80082E00E94A01543EB52E06BE082E00E94D0
:1010B8002C1A47EC52E060E181E00E947E1B55E06B
:1010C8005093660393CE810120E030E060E078E041
:1010D8008FEA9FE2A90198010E945C1A2A503109FF
:1010E8004109510960E472E48FE090E00E945C1AC3
:1010F80029013A01662477246301520110E4E12EA4
:1011080012E4F12E0FE010E02AE030E040E050E079
:1011180060E080E00E94470B2AE030E040E050E0C9
:1011280061E080E00E94470B81E00E94F01B99205B
:1011380011F05B9A01C05B981092660357CE0E942B
:10114800641C49EC52E061E081E00E942C1A809115
:1011580067030E94501880916703882321F087E075
:101168008093660343CE1092660340CE80915A0363
:1011780090915B03019709F085C044EA52E061E071
:1011880081E00E942C1A40915E0350915F0323E096
:1011980061E082E00E94A0154FEA52E064E082E03C
:1011A8000E942C1A40E267E082E00E94D51B409121
:1011B8005C0350915D0323E068E082E00E94A01583
:1011C80043EB52E06BE082E00E942C1A0E94B01AB6
:1011D800882309F40BCE80915E0390915F03809180
:1011E8005C0390915D038091640390916503209165
:1011F800620330916303E0E4F2E48E9F10018F9F55
:10120800300C9E9F300C112448EE53E0249FC001FF
:10121800259F900D349F900D1124280E391E47EB01
:1012280052E061E081E00E942C1A40915E035091E7
:101238005F0323E061E082E00E94A0154FEA52E0DC
:1012480064E082E00E942C1A40E267E082E00E949B
:10125800D51B40915C0350915D0323E068E082E078
:101268000E94A01543EB52E06BE082E00E942C1A2A
:1012780047EC52E060E181E00E947E1B55E050930C
:0A1288006603B4CD10926603B1CDE9
:10129200AEE0B0E0EFE4F9E00C94C6194C016B014A
:1012A2001A8219828FEF9FEF9C838B831E821D828D
:1012B20058874F833A872987A12CB12CD6016D908C
:1012C2007C90F301EA0DFB1D808181110FC0D601D4
:1012D200ED93FC938081853209F0D3C13F01BFEFCA
:1012E2006B1A7B0AF6017182608219C0853279F32A
:1012F200B401082E000C990B0E9440164FEFA41A5D
:10130200B40ADCCF8C32ACF08D32F9F489819A8147
:1013120081609A8389833196D601ED93FC93D6013D
:10132200ED91FC9180818B3269F789819A81846089
:10133200F0CF803221F489819A818860EACF8332AA
:1013420051F489819A818061E4CF803321F48981CB
:101352009A818260DECFB701C6010E9422189E8365
:101362008D8397FF0BC029813A81B1E02B273A8305
:1013720029839195819591099E838D8389819A8193
:1013820080FF03C08D7F9A838983D601ED91FC9102
:10139200119780818E3249F43196ED93FC93B70117
:1013A200C6010E9422189C838B83C6010E940F19DA
:1013B200582ED601ED91FC918081082E000C990BDC
:1013C2000E94101C893609F443C084F4833609F460
:1013D20002C134F4853209F427C18136E1F030C10B
:1013E2008436B1F188360CF4D9C02AC1803709F4A9
:1013F2009AC03CF48E3609F4BCC08F3609F461C041
:101402001FC1853709F440C0883709F476C0833795
:1014120009F016C1F3C0652D70E0A701CE010B964D
:101422000E940000892B09F426C1D601ED91FC919E
:101432001197CF0101968D939C932081AE01455F58
:101442005F4FBE016F5F7F4FC4010E94000010C159
:10145200652D70E0970141E050E0CE010B960E94AD
:10146200AD12892B09F407C1F601808191810196A1
:1014720091838083AE01455F5F4FBE016F5F7F4FF7
:10148200C4010E946211F4C0652D70E0970140E032
:1014920050E0CE010B960E94AD12892B09F4EBC0ED
:1014A200D6018D919C91119701968D939C93AE01DB
:1014B200455F5F4FBE016F5F7F4FC4010E948C1674
:1014C200D7C0652D70E0970140E050E0CE010B9649
:1014D2000E94AD12892B09F4CEC0F6018081918160
:1014E200019691838083AE01455F5F4FBE016F5FBE
:1014F2007F4FC4010E944715BBC0652D70E0970164
:1015020040E050E0CE010B960E94AD12892B09F407
:10151200B2C0D601ED91FC911197CF0101968D9346
:101522009C9320811CC0970140E050E060EF70E086
:10153200CE010B960E94AD12892B09F49CC0F601D4
:10154200808191810196918380838B859C85892BF3
:1015520029F420E030E044E553E084C028E7AE01FE
:10156200455F5F4FBE016F5F7F4FC4010E94430E14
:101572007FC0A501400F511F652D70E09701CE017C
:101582000B960E940000892B09F475C0D6018D913B
:101592009C91119701968D939C9373C0652D70E079
:1015A200A701CE010B960E940000892B09F463C0AB
:1015B200D601ED91FC911197CF0101968D939C93E9
:1015C2002081AE01455F5F4FBE016F5F7F4FC40157
:1015D2000E9400004DC0B0E85B124DC0F601808150
:1015E2009181019691838083D701ED91FC911197AE
:1015F200CF0102968D939C93808120C0B0E85B124C
:101602003AC0F60180819181019691838083D7014E
:10161200ED91FC911197CF0102968D939C9340819D
:10162200518120E030E01EC0B0E85B1224C0F60118
:10163200208131812F5F3F4F318320838B870DC003
:1016420085E28B87D6016D927C921A8219821E8264
:101652001D828FEF9FEF9C838B8321E030E0AE01F0
:10166200455F5F4FBE016F5F7F4FC4010E947D18CF
:101672008A0D9B1D07C0F60180819181019691839D
:0C1682008083C5012E96EFE00C94E21965
:10168E003F924F925F926F927F928F929F92AF9204
:10169E00BF92CF92DF92EF92FF920F931F93CF9351
:1016AE00DF93CDB7DEB764970FB6F894DEBF0FBEEB
:1016BE00CDBF633008F0ABC129013A0194E0491A5D
:1016CE00510861087108EDEF4E16E7E05E06610401
:1016DE00710408F09CC125013601F1E04F1A510842
:1016EE00610871089FEF491659069FE0690671045B
:1016FE0008F08DC1E114F104E0E10E07110508F0C8
:10170E0086C1250136014701580169017A01162F5C
:10171E00082F81149104A104B10431F5F4E0CF1A1D
:10172E00D108E108FEEFFF0ACC0CDD1CEE1CFF1CFD
:10173E00CC0CDD1CEE1CFF1CCC0CDD1CEE1CFF1CAF
:10174E00CC0CDD1CEE1CFF1CCC0CDD1CEE1CFF1C9F
:10175E00CC0CDD1CEE1CFF1CCC0CDD1CEE1CFF1C8F
:10176E0040E050E0BA01DBC021E0421651046104B2
:10177E00710409F048C0D501C4010497A109BE4FF8
:10178E00C80ED91EEA1EFB1ECC0CDD1CEE1CFF1C67
:10179E00CC0CDD1CEE1CFF1CCC0CDD1CEE1CFF1C4F
:1017AE00CC0CDD1CEE1CFF1CCC0CDD1CEE1CFF1C3F
:1017BE00CC0CDD1CEE1CFF1CCC0CDD1CEE1CFF1C2F
:1017CE00B501A4014150510961097E4F440F551FC7
:1017DE00661F771F440F551F661F771F440F551F37
:1017EE00661F771F440F551F661F771F440F551F27
:1017FE00661F771F440F551F661F771F440F551F17
:10180E00661F771F8CC0C301B2010E94D316698771
:10181E007A878B879C87C501B4010E94D3162985D0
:10182E003A854B855C850E946C1C20E030E040E0E0
:10183E0053E40E94701C0E94EF106D877E878F8785
:10184E00988BD701C601880F991FAA1FBB1F880F3F
:10185E00991FAA1FBB1F880F991FAA1FBB1F880F96
:10186E00991FAA1FBB1F880F991FAA1FBB1F880F86
:10187E00991FAA1FBB1FBC01CD01660F771F881FC2
:10188E00991F0E94D3162D853E854F8558890E943B
:10189E00271C20E030E040E054E40E94261C0E9409
:1018AE00F3176B017C01D501C401880F991FAA1F84
:1018BE00BB1F880F991FAA1FBB1F880F991FAA1F36
:1018CE00BB1F880F991FAA1FBB1F880F991FAA1F26
:1018DE00BB1F880F991FAA1FBB1FBC01CD01660F2E
:1018EE00771F881F991F0E94D316698B7A8B8B8B5B
:1018FE009C8B2D853E854F85588969857A858B858C
:10190E009C850E94701C9B01AC0169897A898B8928
:10191E009C890E94261C0E94F317AB01BC0111305A
:10192E0049F018F0123059F00FC00F2EFAE23F2E88
:10193E00F02D0BC00F2EF2E33F2EF02D06C00F2E12
:10194E00FAE33F2EF02D01C0312C59824A82D70185
:10195E00C60188279927A370BB2724E0129FF001A8
:10196E001124E75DFC4F2081822F8A2B8B83DC8232
:10197E00CD82D301C20188279927AF70BB27072ECE
:10198E007CE0B695A795979587957A95D1F7702DAA
:10199E006A017B01CC24DD24EFE0EE22FF248E29A8
:1019AE008E835F8348870E94731A80E60E94101B05
:1019BE00832D0E94A71BCE0101967C016E0199E03A
:1019CE00C90ED11CF70181917F010E94A71BEC1457
:1019DE00FD04C1F70E94681C013011F46FE201C0D2
:1019EE006FE089288A288B2809F46064113041F051
:1019FE0018F0123049F00BC080E10E94881A07C01F
:101A0E0081E10E94881A03C082E10E94881A6496BE
:101A1E000FB6F894DEBF0FBECDBFDF91CF911F91F1
:101A2E000F91FF90EF90DF90CF90BF90AF909F906F
:0E1A3E008F907F906F905F904F903F90089533
:101A4C004F925F926F927F928F929F92AF92BF92C2
:101A5C00CF92DF92EF92FF920F931F93CF93DF936E
:101A6C00CDB7DEB72A970FB6F894DEBF0FBECDBF49
:101A7C0089876A8729013A0147015801862F8F50BF
:101A8C008C3408F0E3C0D801C7010197A109B10952
:101A9C008F3F9F4FAF40B10508F0D8C0411451049F
:101AAC0080E16806710408F0D1C04114510461044E
:101ABC00710479F4C62ED12C24E0C21AD108D69424
:101ACC00DC2CCC24D794C7940D2C000CEE08FF080A
:101ADC0071C0C801B7010E94D31669837A838B83C6
:101AEC009C83C301B2010E94D31629813A814B8198
:101AFC005C810E946C1C20E030E040E053E40E94CA
:101B0C00701C0E94EF106D837E838F8398879A855B
:101B1C0080E8989FB0011124072E000C880B990BBC
:101B2C000E94D5162D813E814F8158850E94271C1D
:101B3C0020E030E040E054E40E94261C0E94F317A1
:101B4C006B017C01D301C201880F991FAA1FBB1F17
:101B5C00880F991FAA1FBB1F880F991FAA1FBB1F95
:101B6C00880F991FAA1FBB1F880F991FAA1FBB1F85
:101B7C00880F991FAA1FBB1FBC01CD01660F771FD1
:101B8C00881F991F0E94D3162B013C012D813E8189
:101B9C004F81588569817A818B819C810E94701C50
:101BAC009B01AC01C301B2010E94261C0E94F317D9
:101BBC002B013C012985222319F082E2898302C082
:101BCC009AE19983692D89810E94881A682D8981EF
:101BDC008F5F0E94881AD701C60188279927A370A6
:101BEC00BB27BD018827992789818E5F0E94881A9F
:101BFC006D2D89818D5F0E94881A6C2D89818C5F77
:101C0C000E94881A882499242FE0A222BB24072E34
:101C1C007CE0B694A794979487947A95D1F7702D1D
:101C2C00D301C20188279927AF70BB27682D6A2B77
:101C3C0089818B5F0E94881A652D89818A5F0E9439
:101C4C00881A642D8981895F0E94881A2A960FB69A
:101C5C00F894DEBF0FBECDBFDF91CF911F910F91D6
:101C6C00FF90EF90DF90CF90BF90AF909F908F90B0
:0A1C7C007F906F905F904F900895E5
:101C8600AFE0B0E0E9E4FEE00C94C3191C016B017F
:101C96005A8349832B83FB018281938184809580BB
:101CA60000811181A680B78097FD02C00D7F02C01A
:101CB60081E090E0E981FA81408051806280738002
:101CC6009801207133273D832C83740104FF08C0DB
:101CD600411451046104710419F032E0E31AF10869
:101CE600F801E870FF27FF83EE8303FF03C0F1E0EE
:101CF600EF1AF108F6010084F185E02D3197FF8790
:101D0600EE87EA0DFB1D10829C012E193F093987CB
:101D16002887C801827099279B878A87EB818E2F37
:101D2600EE0F990B9C01215431093D872C872E8596
:101D36003F852230310530F48C819D81892B09F055
:101D460042C05CC0411451046104710461F18E8586
:101D56009F8501979F878E87C2018F7099278A304A
:101D6600910514F4C09602C0895A9F4FEC85FD85F3
:101D76007A9748F49C012062215631092A313105AF
:101D860010F40E94E71BEE85FF85EA0DFB1D80839C
:101D9600F1E0EF1AF10884E076946794579447943B
:101DA6008A95D1F7C4CF888599858E0D9F1D181603
:101DB60019066CF21E141F040CF0BECFEA85FB85D3
:101DC600EF2B29F6B9CFE981FA8180819181A28131
:101DD600B381892B8A2B8B2B89F0EE85FF85EA0D43
:101DE600FB1D31972B8120838E859F8502979F87C8
:101DF6008E87FC01EA0DFB1D80E38083EE81FF8167
:101E0600EF2B59F02E853F85215031093F872E87CC
:101E1600F901EA0DFB1D80E28083F60140855185BC
:101E2600415051092E853F85421B530BB9016A0D5E
:101E36007B1D9401C1010E9486179C01F1018081DE
:101E4600918190FF06C0F6018281938182179307E4
:0C1E56000CF4C9012F96E2E10C94DF1996
:101E6200CF92DF92EF92FF920F931F93CF93DF9364
:101E7200CDB7DEB7A0970FB6F894DEBF0FBECDBFC9
:101E82008C0142E050E062E071E00E944E19892B21
:101E920029F5F80101900020E9F73197E01BF10BD9
:101EA2003397B8F0F8018281813331F45B9A85E08F
:101EB20091E00E94511BADC0803331F45B9882E106
:101EC20091E00E94511BA5C080E291E00E94511B4B
:101ED200A0C087E391E00E94511B9BC042E050E00A
:101EE20066E571E0C8010E944E19892B09F04CC0C9
:101EF20081E090E090935B0380935A03F801019094
:101F02000020E9F73197E01BF10B3397C0F1C801CC
:101F120002960E94F015E62EF72E082F192F9F9396
:101F22008F937F936F9389E591E09F938F93CE0177
:101F320001966C019F938F930E94FE1AC6010E9424
:101F4200511B6E2D7F2D802F912F20E432E44FE024
:101F520050E00E945C1A30935F0320935E0328EEE8
:101F620033E040E050E00E945C1A30935D0320931E
:101F72005C030FB6F894DEBF0FBECDBF4AC08FE63A
:101F820091E00E94511B45C042E050E06EE871E0D2
:101F9200C8010E944E19892B51F5F80101900020C9
:101FA200E9F73197E01BF10B3397E0F0C801029695
:101FB2000E94F0159F938F937F936F9381E991E035
:101FC2009F938F938E010F5F1F4F1F930F930E945A
:101FD200FE1AC8010E94511B0FB6F894DEBF0FBE55
:101FE200CDBF17C087EA91E00E94511B12C042E0A8
:101FF20050E066EC71E0C8010E944E19892B29F469
:1020020089EC91E00E94511B04C080EE91E00E9495
:10201200511BA0960FB6F894DEBF0FBECDBFDF9165
:10202200CF911F910F91FF90EF90DF90CF90089585
:10203200A4E0B0E0EFE1F0E10C94C5198B019C0142
:10204200AC0140785F776B017C0140385F4761F4F7
:10205200E894E7F8FF24C114D104E104F10409F083
:10206200ACC097FDAAC0AEC0E894F7F8C114D10481
:10207200E104F10409F4A6C097FF07C081E290E0F1
:10208200909301018093000198C0DC01CB0167E1CC
:10209200B595A795979587956A95D1F70097A1056C
:1020A200B105B9F480E090E0DC0127FD08C0000F23
:1020B200111F221F331F0196A11DB11DF6CF0197DB
:1020C200A109B109B095A095909581959F4FAF4F09
:1020D200BF4F8F579109A109B1092F773327206884
:1020E20080FF04C0000F111F221F331FAC01BD016E
:1020F200759567955795479549835A836B837C837A
:10210200000F111F221F331F49E150E0812C912C37
:102112005401B394C12CD12C760180E090E0DC0113
:102122002C013D01480C591C6A1C7B1C0415150529
:102132002605370574F0D301C201880D991DAA1D29
:10214200BB1D0419150926093709C80CD91CEA1C3C
:10215200FB1C000F111F221F331FB694A7949794E4
:10216200879441505109E1F6011511052105310508
:1021720051F0970186010170112722273327C00EE3
:10218200D11EE21EF31EF594E794D794C79451EC46
:10219200F51A89819A81AB81BC8127E1880F991F49
:1021A200AA1FBB1F2A95D1F78C0D9D1DAE1DBF1D09
:1021B200482F392F2A2F5B2F09C040E030E020EC56
:1021C2005FE704C0462F372F282F592F642F732F14
:0C21D200822F952F2496E0E10C94E11977
:1021DE008F929F92AF92BF92CF92DF92EF92FF9229
:1021EE000F931F938B019C0157E1369527951795F9
:1021FE0007955A95D1F71127A8014F575109473125
:10220E0051050CF045C057FD2DC00FEF1FEF2FE706
:10221E0030E004C035952795179507954A95D2F766
:10222E004801590186229722A822B92289288A2894
:10223E008B2871F197FF07C0DC01CB01800F911F36
:10224E00A21FB31F02C0DC01CB0100951095209593
:10225E00309580239123A223B323482F392F2A2F81
:10226E005B2F1AC097FF0FC08B019C01000F111F2F
:10227E00221F331F012B022B032B51F040E030E0C5
:10228E0020E85FEB09C040E030E020E050E004C001
:10229E00462F372F282F592F642F732F822F952FCC
:1022AE001F910F91FF90EF90DF90CF90BF90AF9066
:0622BE009F908F9008952F
:1022C400A2E0B0E0E8E6F1E10C94C3193C016B0133
:1022D400FB0122813381A480B580808191819A831E
:1022E400898386809780FA012080318042805380E0
:1022F400B201A10157FE07C044275527BA0142196C
:1023040053096409750937FD03C08D7F9A83898356
:10231400950157FC05C0898182FD02C083FF02C07C
:1023240021503109CE0101967C010AE010E0C6017A
:102334000E947C1357FC03C0298122FF0AC0019725
:10234400F401E80FF91F57FC02C02BE209C02DE28B
:1023540007C023FF06C00197F401E80FF91F20E22C
:10236400208309811A81F601408551854150510924
:10237400481B590BB401680F791F9501C3010E94D2
:1023840086179C01F3018081918190FF06C0F601BC
:1023940082819381821793070CF4C9012296E2E1AA
:0423A4000C94DF199D
:1023A80010C00E94341C58F00E942D1C40F029F4E3
:1023B8005F3F29F00C94491C51110C943C1C0C945F
:1023C800741C0E94CB1868F39923B1F3552391F339
:1023D800951B550BBB27AA2762177307840738F08C
:1023E8009F5F5F4F220F331F441FAA1FA9F335D0E9
:1023F8000E2E3AF0E0E832D091505040E695001C9D
:10240800CAF72BD0FE2F29D0660F771F881FBB1F56
:10241800261737074807AB07B0E809F0BB0B802D34
:10242800BF01FF2793585F4F3AF09E3F510578F060
:102438000C94491C0C943C1C5F3FE4F3983ED4F385
:10244800869577956795B795F7959F5FC9F7880F34
:10245800911D9695879597F90895E1E0660F771F86
:10246800881FBB1F621773078407BA0720F0621B17
:0E247800730B840BBA0BEE1F88F7E0950895E6
:102486000FC00E942D1C38F00E94341C20F09523AA
:1024960011F00C94491C0C94741C11240C943C1CD3
:1024A6000E94CB1870F3959FC1F3950F50E0551F0E
:1024B600629FF001729FBB27F00DB11D639FAA2793
:1024C600F00DB11DAA1F649F6627B00DA11D661FE2
:1024D600829F2227B00DA11D621F739FB00DA11D03
:1024E600621F839FA00D611D221F749F3327A00DBD
:1024F600611D231F849F600D211D822F762F6A2F59
:1025060011249F5750409AF0F1F088234AF0EE0FBD
:10251600FF1FBB1F661F771F881F91505040A9F7EA
:102526009E3F510580F00C94491C0C943C1C5F3F67
:10253600E4F3983ED4F3869577956795B795F79526
:10254600E7959F5FC1F7FE2B880F911D969587959E
:0425560097F9089554
:10255A00CF93DF93DC01F90168387105F1F05CF47F
:10256A006138710561F164387105A1F1603871054E
:10257A0009F051C02FC0603C710509F441C0603FA9
:10258A007105F1F1603A710509F045C0C081D18148
:10259A00CE0102969183808325C0C081D181CE016C
:1025AA00029691838083452B39F04881042E000CD2
:1025BA00550B660B770B1CC0488150E029C0C081BF
:1025CA00D181CE01049691838083488159816A81A1
:1025DA007B810EC0C081D181CE0102969183808316
:1025EA00452BA1F048815981052E000C660B770B0B
:1025FA004D935D936D937C93139781E090E00DC0AA
:10260A00C081D181CE01029691838083488159810C
:10261A0060E070E0EDCF80E090E0DF91CF91089527
:10262A0011C00E942D1C38F00E94341C20F039F48D
:10263A009F3F19F426F40C94741C0EF4E095E7FB02
:10264A000C94491CE92F0E94CB1858F3BA17620759
:10265A0073078407950720F079F4A6F50C943B1CC0
:10266A000EF4E0950B2EBA2FA02D0B01B9019001A3
:10267A000C01CA01A0011124FF27591B99F0593FE7
:10268A0050F4503E68F11A16F040A22F232F342F2F
:10269A004427585FF3CF469537952795A795F0407D
:1026AA005395C9F77EF41F16BA0B620B730B840B92
:1026BA00BAF09150A1F0FF0FBB1F661F771F881F4A
:1026CA00C2F70EC0BA0F621F731F841F48F48795A2
:1026DA0077956795B795F7959E3F08F0B0CF939594
:0E26EA00880F08F09927EE0F979587950895B1
:1026F800A0E0B0E0E2E8F3E10C94C519DC012801A0
:102708001696AD90BC901797F7018081918112962B
:10271800ED91FC9113971896CD91DC91199721971B
:10272800F7FF02C0E1E0F0E0CA0DDB1D1882690185
:10273800A1E0B0E08F01021B130B4C01F2E08F22E5
:102748009924052C000C66087708CE018A199B0984
:10275800CA15DB0519F1411551056105710589F0A7
:10276800CB01BA01A30192010E94ED18CA01A62F5C
:10277800B72F605D6A9341E0C41AD108A901BC0172
:10278800E4CF98012C0D3D1D121613064CF31C14B2
:102798001D0434F48114910419F702C080E090E01C
:1027A800AB2B31F4F701208131812F7E31832083D7
:0A27B800CDB7DEB7E0E10C94E119A3
:1027C200E9E2F3E0108211821282138214821582EE
:1027D20016821782108611861286138662ED87EBA7
:1027E2000E94881A60E880E10E94881A60E881E10C
:1027F2000E94881A60E882E10E94881A60E883E1F8
:102802000E94881A60E884E10E94881A60E885E1E3
:102812000E94881A60E886E10E94881A60E887E1CF
:102822000E94881A6CE080E10E94881A6CE081E1C3
:102832000E94881A6CE082E10E94881A6CE083E1AF
:102842000E94881A6CE084E10E94881A6CE085E19B
:102852000E94881A6CE086E10E94881A6CE087E187
:102862000E94881A85E90E94BF17682F6F7785E951
:062872000E94881A08957F
:102878001F921FB61F9211242F933F938F939F93FC
:1028880030B120B1832F817090E0880F991F21FB10
:10289800992790F9892B9091690391110DC0813086
:1028A80059F420916403309165032F5F3F4F3093B3
:1028B80065032093640310C09091690391110CC0C3
:1028C800823051F42091640330916503215031091D
:1028D800309365032093640320916403309165036A
:1028E8002E3131053CF02EE130E030936503209322
:1028F80064030DC0209164033091650324303105D1
:1029080034F423E030E0309365032093640380932C
:1029180069039F918F913F912F911F901FBE1F9028
:02292800189500
:10292A001F921FB61F9211242F933F938F939F9349
:10293A0036B126B136FB882780F990E0880F991FB7
:10294A00922F991F9927991F892B909168039111AA
:10295A000DC0813059F420916203309163032F5FD7
:10296A003F4F309363032093620310C09091680332
:10297A0091110CC0823051F42091620330916303AB
:10298A00215031093093630320936203209162033B
:10299A0030916303273E33403CF027EE33E0309317
:1029AA006303209362030BC0209162033091630397
:1029BA001216130624F01092630310926203809396
:1029CA0068039F918F913F912F911F901FBE1F9077
:0229DA0018954E
:1029DC000F931F93CF93DF93EA0140385105D4F046
:1029EC0020E030E040E05FE70E94701C9E012F5712
:1029FC003109203831056CF120E030E040E05FE730
:102A0C000E94701CCE5FD109C038D1051CF1CFE7F4
:102A1C00D0E020C042385F4FECF420E030E040E8DA
:102A2C005CE00E94701C9E012A593F4F22384FEFE8
:102A3C0034077CF420E030E040E85CE00E94701C3D
:102A4C00C453DF4FC2382FEFD20724F4C2E8DFEFB4
:102A5C0001C0E9019E0121583F4F8901330F220B20
:102A6C00330BA9019801E7E1220F331F441F551FB7
:102A7C00EA95D1F70E94701CDF91CF911F910F91B5
:022A8C000895AB
:102A8E00A2E0B0E0EDE4F5E10C94C7194C016B0146
:102A9E00FB012281338164807580808191819A83CC
:102AAE008983A680B78037FD03C08D7F9A83898383
:102ABE00FA014081518162817381CE0101967C01C0
:102ACE0008E010E09301C6010E947C13298124FFC7
:102ADE0006C00197F501E80FF91F20E32083298135
:102AEE0023FF06C00197F501E80FF91F20E22083AE
:102AFE0009811A81F6014085518541505109481BC3
:102B0E00590BB501680F791F9301C4010E948617F6
:102B1E009C01F4018081918190FF06C0F6018281B3
:102B2E009381821793070CF4C9012296EEE00C9460
:022B3E00E31999
:102B4000FF920F931F93CF93DF9300D0CDB7DEB7E3
:102B50008A01F22E0E94321BFF20D1F16F2D70E00E
:102B600061507109072E000C880B990B0E94D51635
:102B70009B01AC0160E070E080E291E40E94AD0056
:102B80000E94F3177A83698369817A81C8010E9460
:102B9000D81AAB019B01ADECBCEC0E946F1B969563
:102BA00087959695879596958795880F991F9C018F
:102BB000220F331F220F331F820F931F9A01281BEE
:102BC000390BC901805D0E94131AFA94F110C6CF27
:102BD0000F900F90DF91CF911F910F91FF9008956B
:102BE000A0E0B0E0E6EFF5E10C94CD19AC01FA01FC
:102BF00090814F5F5F4F9032D1F3292F092E000C47
:102C0000330B295031092530310588F39B3271F59A
:102C100000E010E0319602C000E010E020E030E07B
:102C2000A901C1910C2E000CDD0BE097CA30D10533
:102C300078F4AAE0B0E00E94CA1B6E01DD0FEE0836
:102C4000FF089B01AC012C193D094E095F09E9CF32
:102C50000115110541F466277727CB01621B730B21
:102C6000840B950B08C0CA01B90105C09D32A1F6BD
:102C700001E010E0CFCFCDB7DEB7E8E00C94E91962
:102C80000F931F93CF93DF93DB01109719F48FEF0E
:102C90009FEF3DC02D913C91119730FF25C01696B6
:102CA0004D915C91179714962D913C911597421771
:102CB000530778F41296ED91FC9113978083129646
:102CC0002D913C9113972F5F3F4F13963C932E937A
:102CD000129716962D913C9117972F5F3F4F17969D
:102CE0003C932E93169713C01C96ED91FC911D9763
:102CF000309769F2EB01092F182F0995892B39F6C6
:102D00008E819F8101969F838E83812F902FDF91EB
:082D1000CF911F910F9108956E
:102D1800A2E0B0E0E2E9F6E10C94C7195C016B01AE
:102D2800FB012281338184809580808191819A83FF
:102D380089836680778037FD03C08D7F9A83898376
:102D4800FA014081518162817381CE0101967C0133
:102D58000AE010E09401C6010E947C1309811A81DF
:102D6800F6014085518541505109481B590BB30163
:102D7800680F791F9401C5010E9486179C01F5010F
:102D88008081918190FF06C0F6018281938182172C
:0E2D980093070CF4C9012296EEE00C94E319A7
:102DA600E89409C097FB3EF49095809570956195DF
:102DB6007F4F8F4F9F4F9923A9F0F92F96E9BB2795
:102DC6009395F695879577956795B795F111F8CF11
:102DD600FAF4BB0F11F460FF1BC06F5F7F4F8F4F7C
:102DE6009F4F16C0882311F096E911C0772321F072
:102DF6009EE8872F762F05C0662371F096E8862F0A
:102E060070E060E02AF09A95660F771F881FDAF760
:0A2E1600880F9695879597F90895A7
:102E2000A2E8B0E0E6E1F7E10C94C9195C014A01BF
:102E3000CF57DF4F79836883C158D040C12CD12C44
:102E4000CF57DF4FE881F981C158D0408081882376
:102E5000E9F07401860120E830E0AE014F5F5F4F7A
:102E6000BE016F577F4FC5010E9449098C0D9D1D02
:102E70008C159D054CF48FE490E0909301018093B4
:102E800000018FEF9FEF03C06C01DACFC601CE5770
:082E9000DF4FECE00C94E519A2
:102E9800A0E1B0E0E2E5F7E10C94CF19FB01BA013B
:102EA800AE014F5F5F4F7A0140E1D7011D924A950D
:102EB800E9F742E051E05A8349839C838B83F7FF0B
:102EC80009C08FE490E090930101809300018FEF97
:102ED8009FEF14C0A9018C013197FE83ED83C701D0
:102EE8000E94441A4F8158852D813E81421753070D
:102EF80008F49A01F801E20FF31F10826096E6E0E9
:042F08000C94EB1921
:102F0C00A0E0B0E0ECE8F7E10C94C9196C015B01AE
:102F1C007A01E901480181E08822992400FD03C06F
:102F2C004217530750F0A701B501C6010E948A1938
:102F3C00EC16FD0610F0C70117C08E010E191F0903
:102F4C000115110541F0B60180E290E00E94401697
:102F5C0001501109F5CF8114910429F4A701B50191
:102F6C00C6010E948A19CE01CDB7DEB7ECE00C94F5
:022F7C00E51955
:102F7E001F93CF93DF9300D00F92CDB7DEB7182FEC
:102F8E000E94731A80E60E94101B89838981883102
:102F9E00B9F4812F0E94A71B8A838A81883291F40B
:102FAE000E94DE1B80E60E94601B8B838B81803427
:102FBE0059F40E94B41B89830E94681C898105C044
:102FCE008FEF03C08FEF01C08FEF0F900F900F9018
:082FDE00DF91CF911F910895CE
:102FE6000E94D31888F09F5798F0B92F9927B751A8
:102FF600B0F0E1F0660F771F881F991F1AF0BA9597
:10300600C9F714C0B13091F00E943B1CB1E008959D
:103016000C943B1C672F782F8827B85F39F0B93F8F
:10302600CCF3869577956795B395D9F73EF4909549
:0E3036008095709561957F4F8F4F9F4F089545
:10304400DC01ED91FC91119780818A3221F080E0BE
:1030540090E03AE00EC03196ED93FC93DB01ED91E4
:10306400FC911197CF0102968D939C93808191815D
:103074000895ED91FC911197208120532A3068F432
:10308400389FA001399F500D1124CA01820F911D50
:0C30940031961196FC93EE93ECCF08955A
:1030A000CF93882341F10E94001CC82F0E94F81B77
:1030B000CB3369F4E0916A03F0E0ED52FD4F1082EA
:1030C00083ED92E00E94310F10926A0314C0E091E8
:1030D0006A03EF3348F481E08E0F80936A03F0E0D7
:1030E000ED52FD4FC083DFCF10926A0386EF91E06F
:0A30F0000E94511BD8CFCF91089524
:1030FA00A0E0B0E0E3E8F8E10C94CB197C01FB0115
:10310A00EA01C901A280B380C480D58000811181FF
:10311A00209711F4CDE4D3E0009719F4CE010E9470
:10312A008C1BB7FC04C0A816B90608F4C5019601A1
:10313A00AC01BE01C7010E948617CDB7DEB7EAE02F
:04314A000C94E719E1
:10314E00990F0008550FAA0BE0E8FEEF16161706AA
:10315E00E807F907C0F012161306E407F50798F012
:10316E00621B730B840B950B39F40A2661F0232B2B
:10317E00242B252B21F408950A2609F4A140A695A7
:08318E008FEF811D811D0895E2
:1031960057FD9058440F551F59F05F3F71F0479502
:1031A600880F97FB991F61F09F3F79F087950895E7
:1031B600121613061406551FF2CF4695F1DF08C006
:1031C600161617061806991FF1CF86957105610523
:0431D60008940895BC
:1031DA00A1E21A2EAA1BBB1BFD010DC0AA1FBB1F11
:1031EA00EE1FFF1FA217B307E407F50720F0A21B83
:1031FA00B30BE40BF50B661F771F881F991F1A94F0
:10320A0069F760957095809590959B01AC01BD0119
:04321A00CF01089543
:10321E00CF93DF93EC0190E0E92FF0E0EE0FFF1F6C
:10322E00ED5EFC4F8081811102C081810EC0A881AC
:10323E00B9812C91821305C091811196B983A8830F
:10324E0001C09F5F9B3040F3892FDF91CF9108958E
:10325E0081B18C7F81B987B18F7387B982B18F604D
:10326E0082B9E8E6F0E080818160808380818460AD
:10327E008083EBE6F0E0808183608083EDE6F0E012
:0E328E008081806C8083D89ADA9A78940895B3
:10329C00CF93DF9341155105A9F0DC01FB01EF0140
:1032AC008D91882351F09191992339F0413051053A
:1032BC0021F041505109891791F390E02881821B2C
:0E32CC00910902C080E090E0DF91CF9108955B
:1032DA0050B140B1252F217030E0220F331F41FB3E
:1032EA00332730F9232B2093690336B126B136FBF5
:1032FA00882780F990E0880F991F922F991F9927A4
:0A330A00991F892B80936803089532
:10331400A0E0B0E0E0E9F9E10C94CD196C01EB0117
:103324008A017B01E40EF51ECE15DF0541F089917B
:10333400B601082E000C990B0E944016F5CFC80167
:0A334400CDB7DEB7E8E00C94E919FC
:10334E00CF92DF92EF92FF926B017C0160E085EAF3
:10335E000E94881AC701B6016F77772788279927A9
:10336E0086EA0E94881A60EA81EB0E94881AFF9012
:08337E00EF90DF90CF9008955D
:103386002F923F924F925F926F927F928F929F926F
:10339600AF92BF92CF92DF92EF92FF920F931F935D
:1033A600CF93DF93CDB7DEB7CA1BDB0B0FB6F8940E
:0833B600DEBF0FBECDBF09947C
:1033BE002A88398848885F846E847D848C849B84B7
:1033CE00AA84B984C884DF80EE80FD800C811B81C5
:1033DE00AA81B981CE0FD11D0FB6F894DEBF0FBEF4
:0633EE00CDBFED010895C2
:1033F4005F985E9895B1892B85B95D9A89EF90E0C5
:103404000197F1F700C000005D9889EF90E0019703
:10341400F1F700C0000085B115B88BB18F718BB97D
:02342400089509
:103426005F9A5E9895B1892B85B95D9A89EF90E090
:103436000197F1F700C000005D9889EF90E00197D1
:10344600F1F700C0000085B115B88BB18F718BB94B
:023456000895D7
:103458000F931F93CF938A010E94321BF80180813A
:10346800882351F0C0E00E94131ACF5FF801EC0FD7
:10347800F11D80818111F7CFCF911F910F91089590
:10348800A2E0B0E0EAE4FAE10C94D1198C015A8385
:103498004983AE014F5F5F4F0E941017F8012081EA
:1034A80024FF02C08FEF9FEF2296E4E00C94ED1901
:1034B800052E97FB1EF400940E94081C57FD07D0A8
:1034C8000E94ED1807FC03D04EF40C94081C50958C
:0E34D8004095309521953F4F4F4F5F4F08951F
:1034E600CF93DF930F92CDB7DEB7198284EA80932C
:1034F600BC00ECEBF0E080818823ECF78091B9000A
:0A35060089830F90DF91CF910895A3
:10351000CF93DF93D82FC62F0E94731A80E60E94A4
:10352000101B8D2F0E94A71B8C2F0E94A71B0E948F
:08353000681CDF91CF910895A2
:10353800069B10C087E893E10197F1F700C00000EF
:103548000699FECF87E893E10197F1F700C00000E4
:0835580081E0089580E0089570
:10356000059B10C087E893E10197F1F700C00000C8
:103570000599FECF87E893E10197F1F700C00000BD
:0835800081E0089580E0089548
:10358800049B10C087E893E10197F1F700C00000A1
:103598000499FECF87E893E10197F1F700C0000096
:0835A80081E0089580E0089520
:1035B000AA1BBB1B51E107C0AA1FBB1FA617B70759
:1035C00010F0A61BB70B881F991F5A95A9F7809575
:0835D0009095BC01CD010895A6
:1035D80087B1836087B988B18C7F88B987B18C7FC0
:1035E80087B98DEF8093B800ECEBF0E080818460C0
:0435F800808308952F
:1035FC00A0E0B0E0E4E0FBE10C94D319AE01475F2E
:10360C005F4F6F8178858D819E810E94421CE2E024
:04361C000C94EF1902
:10362000880F8093BB0084E88093BC00ECEBF0E053
:1036300080818823ECF7E9EBF0E0808180818E7F48
:023640000895EB
:10364200092E0394000C11F4882352F0BB0F40F4AE
:10365200BF2B11F460FF04C06F5F7F4F8F4F9F4FEE
:023662000895C9
:10366400813031F48FEF860F80680E94FA19089533
:10367400823029F48FE3860F80680E94FA19089536
:103684001092C5008CE08093C40082E08093C00057
:0E36940088E18093C10086E08093C200089513
:1036A200CF93DF93EC018881882331F021960E9429
:0E36B200F81B89918111FBCFDF91CF91089514
:1036C000880F81608093BB0084E88093BC00ECEBA2
:0E36D000F0E080818823ECF78091B900089526
:1036DE00A29FB001B39FC001A39F700D811D112445
:0E36EE00911DB29F700D811D1124911D089534
:1036FC000E942C1A2FE78AE196E0215080409040DE
:0C370C00E1F700C000000E94641C08955A
:10371800FC01AF014F5F5F4F2081222311F0FA01B6
:0C372800F8CF9F01281B390BC901089540
:1037340088E30E94FA198CE00E94FA1986E00E943C
:0A374400FA1981E00E94FA190895B5
:10374E008093BB0084E88093BC00ECEBF0E08081BA
:0A375E008823ECF78091B90008956C
:1037680084E88093BC00ECEBF0E080818823ECF7E0
:063778008091BB000895E2
:10377E00EC010E947E1C0E947D1CCE010E947F1CCB
:06378E00CE010E947B1C2D
:103794000E946F1BA59F900DB49F900DA49F800D58
:0637A400911D112408959F
:1037AA00CF93C42F0E94321B8C2F0E94131ACF91E1
:0237BA00089570
:1037BC0084EA8093BC00ECEBF0E080818823ECF78A
:0237CC0008955E
:1037CE009C01215631092A31310510F48F75992744
:0237DE0008954C
:1037E00061E08627682F619583E00E94881A08951A
:1037F000E0ECF0E0908195FFFDCF8093C600089546
:10380000E0ECF0E080818823ECF78091C600089519
:1038100090958095709561957F4F8F4F9F4F08953C
:103820009C01215431092A31310508F48062089540
:0E38300081B18F7881B982B18F7882B9089505
:0E383E0084B18FEF84B98AB1806E8AB9089583
:0E384C005058BB27AA270E9415130C94211B6D
:0E385A0000240A94161617061806090608958B
:0E38680000240A94121613061406050608958D
:0E387600E894BB2766277727CB0197F90895C2
:0E3884009A01AB016FEF7FE70E944C17089589
:0C38920097F99F6780E870E060E00895FF
:0C389E00EE0FFF1F0590F491E02D09943F
:0A38AA0060EA81EB0E94881A08957D
:0A38B4000E94A71808F481E00895AF
:0A38BE000E94A71808F48FEF089588
:0838C80081E00E94FA19089545
:0838D00084E98093BC00089517
:0838D8000E94D4110C94211B85
:0838E0000E9443120C94211B0D
:0638E8009FEF80EC089543
:0438EE000C94000036
:0438F2009F7708951F
:0438F6000E94AB0081
:0238FA0008952F
:0238FC0008952D
:0238FE0008952B
:10390000545800545820456E61626C65640D0A007D
:1039100054582044697361626C65640D0A00496EF5
:1039200076616C696420545820706172616D6574B1
:1039300065720D0A00545820636F6D6D616E6420CE
:103940006D697373696E6720706172616D6574650E
:10395000720D0A0046410056464F2D412073657492
:1039600020746F20256C6420487A0D0A004641209F
:10397000636F6D6D616E64206D697373696E67202E
:103980006672657175656E63790D0A004642005670
:10399000464F2D422073657420746F20256C64207F
:1039A000487A0D0A00464220636F6D6D616E642097
:1039B0006D697373696E67206672657175656E6394
:1039C000790D0A00494600494620636F6D6D616EAE
:1039D000642070726F6365737365640D0A00556EC1
:1039E0006B6E6F776E2043415420636F6D6D616E17
:0439F000640D0A0058
:1039F4000D0A4572726F723A20436F6D6D616E6489
:103A040020746F6F206C6F6E670D0A005055534819
:103A140020414E5920425554544F4E00544F205388
:103A24005441525400546F7020427574746F6E0088
:103A3400666F7220545800426F74746F6D20427523
:103A440074746F6E00666F72205258004D6964641E
:103A54006C6520427574746F6E00746F20436F6ED2
:103A64006669726D00545800506C6561736500534B
:103A7400656C656374204D6F6465005258004D6F2A
:103A8400646520436F6E6669726D65643A005258CE
:103A9400204D6F6465005458204D6F646500467274
:103AA400657175656E63793A004D487A004B487AC2
:103AB40000436F6E6669726D656420467265713A83
:0D3AC400002000434F4D50204354524C0051
:103AD10068076C094C836A9074A07AC0008068887A
:063AE10000846C820081EC
:083AE70000000000DCCFD13526
:083AEF000000000000C0153FBB
:083AF7000000803F0000C03F09
:073AFF00286E756C6C2900B4
:063B0600286E696C290025
:00000001FF
