:100000000C947C000C94AA160C94AA160C94AA16B4
:100010000C94660F0C94AA160C94BF0F0C94AA169D
:100020000C94AA160C94AA160C94AA160C94AA1650
:100030000C94AA160C94AA160C94AA160C94AA1640
:100040000C94AA160C94AA160C94AA160C94AA1630
:100050000C94AA160C94AA160C94AA160C94AA1620
:100060000C94AA160C94AA160C94AA160C94AA1610
:100070000C94AA160C94AA160C94AA160C94AA1600
:100080000C94AA160C94AA160C94AA160C94AA16F0
:100090000C94AA160C94AA160C94AA160C94AA16E0
:1000A0000C94AA160C94AA160C94AA160C94AA16D0
:1000B0000C94AA160C94AA160C94AA160C94AA16C0
:1000C0000C94AA160C94AA160C94AA16EA080F0906
:1000D0008209BA09DC094D0A550A010001028001B2
:1000E0000202EA002D6602EA032A80032A03650061
:1000F0002F4E03650370800011241FBECFEFD8E0A0
:10010000DEBFCDBFEAEDF0E040E017C0B591A591AC
:1001100035912591059107FD0CC095918591EF01D1
:10012000F92FE82F05900D92A217B307D9F7FE011A
:1001300004C01D92A217B307E1F7E73FF40731F7B8
:0C0140000E94C3080C941416F894FFCF22
:10014C00A2E2B0E0ECEAF0E00C94A41429833A8328
:10015C004B835C8329013A01E89477F841145104EC
:10016C006104710409F4FFC569877A878B879C87C2
:10017C004B015C016115710500E880070FE39007E6
:10018C0009F4F1C56B017C01E894F7F811E0C11694
:10019C00D10410E8E1061FE7F1060CF0DFC5A1E081
:1001AC004A165104A0E86A06AFE77A060CF0D6C5E9
:1001BC0097FF42C041145104B0E86B06BBE47B06C8
:1001CC00ECF541145104E0E86E06EFE37E060CF406
:1001DC0059C05301420117E1B594A79497948794A1
:1001EC001A95D1F7FFE78F1A9108A108B108E7E13A
:1001FC00F0E0E819F909530142010E2E04C0B59440
:10020C00A794979487940A94D2F78D829E82AF829A
:10021C00B88604C0880C991CAA1CBB1CEA95D2F7A2
:10022C00481459046A047B0469F5ED81E170B2E06D
:10023C009B2E9E1A9D8227C01D8202C002E00D8358
:10024C004114510410E861061FE77106E1F4C11472
:10025C00D10480E8E8068FE3F80609F484C54CF075
:10026C0089809A80AB80BC80B7FC82C5CA01B90179
:10027C0082C5E980FA800B811C8117FF79C5CA0100
:10028C00B9017FC01D822D8B3E8B4F8B588F4B013C
:10029C005C014114510400E860060FE3700679F428
:1002AC00E980FA800B811C8117FF65C59B01AC01AD
:1002BC0060E070E080E89FE30E949F165CC50981B6
:1002CC001A812B813C8101151105210540E434076D
:1002DC0029F49B01AC010E94A3164DC589819A811A
:1002EC00AB81BC810097A105BF4359F409851A85E0
:1002FC002B853C8537FD05C0C501B4010E94540B0C
:10030C003AC5C501B4010E94AC16C114D104E10474
:10031C00F10449F01FE3B1228114910420E8A206F4
:10032C002FE3B20681F589809A80AB80BC80B7FE42
:10033C0008C09B01AC0160E070E080E89FE30E9484
:10034C009F1689849A84AB84BC84B7FE14C500E8DC
:10035C00E01A0FE3F00A1D81C12AC114D104E10493
:10036C00F10459F481E290E0909301018093000133
:10037C006FEF7FEF8FEF9FE7FEC40D81013009F027
:10038C00FAC49058F8C489849A84AB84BC84B7FEB0
:10039C0010C09D80992031F3092D013051F4812C2E
:1003AC00912CA12CA0E8BA2E89869A86AB86BC86A5
:1003BC0004C019861A861B861C8601E0401651045F
:1003CC0061040DE470060CF488C018EFC1161FEF21
:1003DC00D1061FE7E1061FE3F1063CF489809A8001
:1003EC00AB80BC80B7FE41C317C308E0C016D10474
:1003FC0000E8E0060FE3F0065CF089809A80AB80A1
:10040C00BC80181419041A041B040CF405C32DC366
:10041C0020E030E040E85FE30E9462166B017C0153
:10042C0020E03AEA48EB5FE30E94A3164B015C0123
:10043C0020E735EA4CEE56E3C701B6010E94A3163D
:10044C0069837A838B839C8320E030E040E85EE311
:10045C00C701B6010E94A3169B01AC016BEA7AEAB4
:10046C008AEA9EE30E946216A70196010E94A316D7
:10047C009B01AC0160E070E080E09FE30E9462169B
:10048C002B013C01A7019601C701B6010E94A316DE
:10049C009B01AC01C301B2010E94A3162BE33AEA03
:1004AC0048EB5FE30E94A3169B01AC0169817A8142
:1004BC008B819C810E9462166B017C019B01AC01BB
:1004CC00C501B4010E9463166627707F6D837E831D
:1004DC008F839887A501940120C2C114D10400E830
:1004EC00E006F1046CF420E030E040E85BE40E94AC
:1004FC00A3166B017C0148EE5FEF6FEF7FEF03C03B
:10050C0040E050E0BA01D701C601F7E1B595A795D7
:10051C0097958795FA95D1F78F579109A109B1094C
:10052C004C015D01840E951EA61EB71E898A9A8AFF
:10053C00AB8ABC8AE894E7F8FF244601570168941B
:10054C00A7F80FE3B02A12E7C11614ECD1061CE190
:10055C00E106F104B4F027EDC21623EBD2062DE52B
:10056C00E206F1049CF089899A89AB89BC890196D1
:10057C00A11DB11D898B9A8BAB8BBC8B90E8A91AF2
:10058C00B1081D821E821F82188608C0E12CF12C36
:10059C008701E394ED82FE820F8318870D811E8103
:1005AC00000F111F000F111F1AA309A3F801E05B24
:1005BC00FC4FE080F18002811381ED86FE860F876F
:1005CC00188BA8019701C501B4010E946216698FAE
:1005DC007A8F8B8F9C8FA8019701C501B4010E9463
:1005EC0063169B01AC0160E070E080E89FE30E9421
:1005FC009F166D8F7E8F8F8F98A39B01AC01698D99
:10060C007A8D8B8D9C8D0E94A31669837A838B8344
:10061C009C8349805A806B807C80442400EF50225C
:10062C0075016401F594E794D794C794CC2410EF2A
:10063C00D122E894F5F86894F5F8D701C601A05CCE
:10064C00BF4FCD80DE80EF80F88475E1CC0CDD1CD3
:10065C00EE1CFF1C7A95D1F7C80ED91EEA1EFB1EA4
:10066C00A7019601C301B2010E94A3169B01AC0124
:10067C00698D7A8D8B8D9C8D0E9462166D837E8325
:10068C008F8398872D853E854F855889C701B60184
:10069C000E9462169B01AC01C501B4010E94621656
:1006AC00A30192010E94A3169B01AC016D817E8176
:1006BC008F8198850E9462162D8D3E8D4F8D58A18D
:1006CC000E94A3166D837E838F83988729813A813C
:1006DC004B815C81CA01B9010E94A3166B017C019C
:1006EC0022E431EF43E55EE30E94A31625E532E3F5
:1006FC004CE65EE30E946316A70196010E94A316C6
:10070C0025E033EA4BE85EE30E946316A7019601ED
:10071C000E94A3162BEA3AEA4AEA5EE30E946316A9
:10072C00A70196010E94A31627EB3DE64BED5EE375
:10073C000E946316A70196010E94A3162AE939E9C3
:10074C0049E15FE30E9463164B015C01A70196012E
:10075C00C701B6010E94A3169B01AC01C501B401EF
:10076C000E94A3166B017C01A301920169817A811D
:10077C008B819C810E9463162D813E814F8158850F
:10078C000E94A316A70196010E9463166B017C01BF
:10079C00A3019201C301B2010E94A3166D877E874B
:1007AC008F87988B20E030E040E450E40E94631681
:1007BC00A70196010E9463164B015C01882420EF6F
:1007CC009222A5019401C301B2010E94A3162B0130
:1007DC003C0120E030E040E450E4C501B4010E944B
:1007EC0062162D853E854F8558890E9462169B01A5
:1007FC00AC01C701B6010E94621629813A814B8176
:10080C005C810E94A3166B017C01A50194016D8192
:10081C007E818F8198850E94A3169B01AC01C70134
:10082C00B6010E9463164B015C019B01AC01C30134
:10083C00B2010E9463166B017C01CC2430EFD322F1
:10084C0020E030E446E75FE3C701B6010E94A3163F
:10085C0069837A838B839C83A3019201C701B601C0
:10086C000E9462169B01AC01C501B4010E94621684
:10087C002FE438E346E75FE30E94A3164B015C01CB
:10088C0026EC33E246EF58EBC701B6010E94A316E3
:10089C009B01AC01C501B4010E946316E9A1FAA148
:1008AC00E05CFC4F20813181428153810E946316B0
:1008BC006B017C0169897A898B899C890E94FF1163
:1008CC004B015C0109A11AA1085B1C4FD8014D908A
:1008DC005D906D907C90A701960169817A818B81E6
:1008EC009C810E946316A30192010E946316A501CC
:1008FC0094010E9463166627707F6D837E838F83BD
:10090C009887A50194010E946216A30192010E948E
:10091C00621629813A814B815C810E9462169B018F
:10092C00AC01C701B6010E9462164B015C01CD8877
:10093C00DE88EF88F88CCC24B0EFDB22A70196017F
:10094C006D897E898F89988D0E9462162D813E81DA
:10095C004F8158850E94A3162B013C012D893E899D
:10096C004F89588DC501B4010E94A3169B01AC019F
:10097C00C301B2010E94631669837A838B839C83C3
:10098C00A70196016D817E818F8198850E94A316A7
:10099C00962EA72EB82E892E6D87798B182F092F9E
:1009AC00262F372F482F592F69817A818B819C8173
:1009BC000E9463166B017C016D837E838F83988705
:1009CC0081E0C816D104E10483E4F8062CF52D81EE
:1009DC003E814F815885211531054105534419F548
:1009EC002CE33AEA48E353E369817A818B819C8159
:1009FC000E9463162B013C01292D3A2D4B2D582DAD
:100A0C00C701B6010E9462169B01AC01C301B20181
:100A1C000E949616181674F589859A85AB85BC8547
:100A2C00A068BF6798C1D701C601BF770197A641DF
:100A3C00B344DCF42D813E814F815885211531055D
:100A4C004641534CB9F4292D3A2D4B2D582DC70145
:100A5C00B6010E9462169B01AC0169817A818B817F
:100A6C009C810E94911618162CF069857A858B85CD
:100A7C009C8581C1D701C601BF7781309105A10545
:100A8C00EFE3BE070CF46AC037E1B595A7959795CF
:100A9C0087953A95D1F78E5740E050E060E870E0CA
:100AAC008A019B0104C035952795179507958A9562
:100ABC00D2F7C00ED11EE21EF31E26013701E894B8
:100ACC0077F847E175946794579447944A95D1F712
:100ADC001FE7411A5108610871088FEF9FEFAFE7CC
:100AEC00B0E0042C04C0B595A795979587950A940A
:100AFC00D2F780959095A095B0959C01AD012C21D5
:100B0C003D214E215F21E894E7F8FF246894E7F833
:100B1C0087E190E0841995092601370104C075948A
:100B2C006794579447948A95D2F7ED80FE800F8195
:100B3C00188517FF08C07094609450944094411C21
:100B4C00511C611C711C692D7A2D8B2D982D0E94C6
:100B5C0062166D87798B182F092F03C0412C512CED
:100B6C00320129813A814B815C816D857989812F94
:100B7C00902F0E9463164B015C01882420E892227E
:100B8C0020E032E741E35FE3C501B4010E94A31604
:100B9C006D837E838F8398872D853989412F502FC4
:100BAC00C501B4010E9462169B01AC0169817A8176
:100BBC008B819C810E94621628E132E741E35FE35E
:100BCC000E94A3166B017C012CE83EEB4FEB55E326
:100BDC00C501B4010E94A3169B01AC01C701B6016B
:100BEC000E9463164B015C019B01AC016D817E81FF
:100BFC008F8198850E9463166B017C012D813E814B
:100C0C004F8158850E9462169B01AC01C501B4014D
:100C1C000E94621669837A838B839C83A701960159
:100C2C00C701B6010E94A3164B015C012CE43BEBFF
:100C3C0041E353E30E94A3162EE03AEE4DED55E34B
:100C4C000E946216A50194010E94A31625E533EBC0
:100C5C004AE858E30E946316A50194010E94A3166A
:100C6C0021E63BE046E35BE30E946216A50194019A
:100C7C000E94A3162BEA3AEA4AE25EE30E9463164C
:100C8C00A50194010E94A3169B01AC01C701B601FA
:100C9C000E9462164B015C019B01AC01C701B601BD
:100CAC000E94A3166D837E838F83988720E030E0AB
:100CBC0040E050E4C501B4010E9462169B01AC01F6
:100CCC006D817E818F8198850E949F164B015C01FE
:100CDC0029813A814B815C81C701B6010E94A31620
:100CEC0029813A814B815C810E9463169B01AC0186
:100CFC00C501B4010E946216A70196010E946216FA
:100D0C009B01AC0160E070E080E89FE30E946216FA
:100D1C005301420127E1880C991CAA1CBB1C2A9583
:100D2C00D1F7860E971EA81EB91E8114910430E8C7
:100D3C00A306B10424F4A2010E94181002C0C5013C
:100D4C00B40189849A84AB84BC8486269726A82611
:100D5C00B926D501C401BC01CD010DC060E070E025
:100D6C0080EC9FE708C060E070E080E89FE303C080
:0E0D7C0060E070E0CB01A296E0E10C94C014A0
:100D8A00AEE0B0E0EBECF6E00C94A5144C016B017C
:100D9A001A8219828FEF9FEF9C838B831E821D829A
:100DAA0058874F833A872987A12CB12CD6016D9099
:100DBA007C90F301EA0DFB1D808181110FC0D601E1
:100DCA00ED93FC938081853209F0D3C13F01BFEFD7
:100DDA006B1A7B0AF6017182608219C0853279F337
:100DEA00B401082E000C990B0E946A114FEFA41A45
:100DFA00B40ADCCF8C32ACF08D32F9F489819A8155
:100E0A0081609A8389833196D601ED93FC93D6014A
:100E1A00ED91FC9180818B3269F789819A81846096
:100E2A00F0CF803221F489819A818860EACF8332B7
:100E3A0051F489819A818061E4CF803321F48981D8
:100E4A009A818260DECFB701C6010E944A139E834F
:100E5A008D8397FF0BC029813A81B1E02B273A8312
:100E6A0029839195819591099E838D8389819A81A0
:100E7A0080FF03C08D7F9A838983D601ED91FC910F
:100E8A00119780818E3249F43196ED93FC93B70124
:100E9A00C6010E944A139C838B83C6010E940A14CE
:100EAA00582ED601ED91FC918081082E000C990BE9
:100EBA000E944C16893609F443C084F4833609F437
:100ECA0002C134F4853209F427C18136E1F030C118
:100EDA008436B1F188360CF4D9C02AC1803709F4B6
:100EEA009AC03CF48E3609F4BCC08F3609F461C04E
:100EFA001FC1853709F440C0883709F476C08337A3
:100F0A0009F016C1F3C0652D70E0A701CE010B965A
:100F1A000E940000892B09F426C1D601ED91FC91AB
:100F2A001197CF0101968D939C932081AE01455F65
:100F3A005F4FBE016F5F7F4FC4010E94000010C166
:100F4A00652D70E0970141E050E0CE010B960E94BA
:100F5A00320E892B09F407C1F6018081918101962D
:100F6A0091838083AE01455F5F4FBE016F5F7F4F04
:100F7A00C4010E94E70CF4C0652D70E0970140E0BF
:100F8A0050E0CE010B960E94320E892B09F4EBC079
:100F9A00D6018D919C91119701968D939C93AE01E8
:100FAA00455F5F4FBE016F5F7F4FC4010E94B6115C
:100FBA00D7C0652D70E0970140E050E0CE010B9656
:100FCA000E94320E892B09F4CEC0F60180819181EC
:100FDA00019691838083AE01455F5F4FBE016F5FCB
:100FEA007F4FC4010E947110BBC0652D70E097014C
:100FFA0040E050E0CE010B960E94320E892B09F494
:10100A00B2C0D601ED91FC911197CF0101968D9353
:10101A009C9320811CC0970140E050E060EF70E093
:10102A00CE010B960E94320E892B09F49CC0F60160
:10103A00808191810196918380838B859C85892B00
:10104A0029F420E030E04FE553E084C028E7AE0100
:10105A00455F5F4FBE016F5F7F4FC4010E94660A02
:10106A007FC0A501400F511F652D70E09701CE0189
:10107A000B960E940000892B09F475C0D6018D9148
:10108A009C91119701968D939C9373C0652D70E086
:10109A00A701CE010B960E940000892B09F463C0B8
:1010AA00D601ED91FC911197CF0101968D939C93F6
:1010BA002081AE01455F5F4FBE016F5F7F4FC40164
:1010CA000E9400004DC0B0E85B124DC0F60180815D
:1010DA009181019691838083D701ED91FC911197BB
:1010EA00CF0102968D939C93808120C0B0E85B1259
:1010FA003AC0F60180819181019691838083D7015C
:10110A00ED91FC911197CF0102968D939C934081AA
:10111A00518120E030E01EC0B0E85B1224C0F60125
:10112A00208131812F5F3F4F318320838B870DC010
:10113A0085E28B87D6016D927C921A8219821E8271
:10114A001D828FEF9FEF9C838B8321E030E0AE01FD
:10115A00455F5F4FBE016F5F7F4FC4010E947813E6
:10116A008A0D9B1D07C0F6018081918101969183AA
:0C117A008083C5012E96EFE00C94C11498
:10118600539A5B980E945B160E9407160E94BE1532
:101196000E942A140E9468140E945416D0E000E0AF
:1011A60010E0C6E00F2EF5E0EF2EF02D0F2EF4E640
:1011B600FF2EF02DE0916B038E2F90E08730910586
:1011C60008F07EC1FC01EA59FF4F0C948B16809102
:1011D6006C03882319F0C0936B03ECCF43E352E012
:1011E60061E081E00E940B1543E452E061E082E099
:1011F6000E940B150E943B15811108C00E944F15D5
:10120600811104C00E9463158823A1F281E08093B6
:101216006B030E949B16CECF80916C03882329F026
:10122600C0936B030E949B16C5CF89EF90E0019790
:10123600F1F700C00000A8014F5F5F4F9A01369595
:10124600279536952795ABE7B4E10E94DC158C010E
:1012560016950795F09EC001F19E900D11248A0106
:10126600081B190B61F48091650390916603823027
:10127600910551F1019690936603809365038091E1
:10128600650390916603009769F44CE452E061E0CF
:1012960081E00E940B1547E552E061E082E00E9482
:1012A6000B151EC08130910569F44EE552E061E0F0
:1012B60081E00E940B154CE652E061E082E00E945C
:1012C6000B150EC0029761F443E752E061E081E03E
:1012D6000E940B1541E852E061E082E00E940B1586
:1012E6000E944F15882309F465CF82E080936B0333
:1012F6000E949B1610926603109265035BCF809145
:101306006C03882329F0C0936B030E949B1652CF6F
:101316004CE852E061E081E00E940B154FE852E094
:101326006BE081E00E940B1546E952E06C2F82E0EB
:101336000E940B1542EA52E061E082E00E940B1522
:101346000E943B15882339F083E080936B030E944B
:101356009B16D1E02FCF0E946315882309F42ACF6C
:1013660083E080936B030E949B16D0E023CF80918D
:101376006C03882329F0C0936B030E949B161ACF37
:1013860045EA52E061E081E00E940B15DD2339F069
:1013960045EB52E061E082E00E94EB1506C04DEBA2
:1013A60052E061E082E00E94EB1584E080936B03DB
:1013B60001CF80916C03882319F0C0936B03FACE9A
:1013C60045EC52E061E081E00E940B154091690313
:1013D60050916A0323E061E082E00E94CA1040ED6A
:1013E60052E064E082E00E940B1540E267E082E092
:1013F6000E942A16409167035091680323E068E033
:1014060082E00E94CA1044ED52E06BE082E00E9446
:101416000B150E944F15882309F4CCCEA0906903C2
:10142600B0906A03C0906703D09068038091690307
:1014360090916A03809167039091680348ED52E0AA
:1014460061E081E00E940B1523E0A50161E082E0E6
:101456000E94CA1040ED52E064E082E00E940B1543
:1014660040E267E082E00E942A1623E0A60168E0D7
:1014760082E00E94CA1044ED52E06BE082E00E94D6
:101486000B1548EE52E060E181E00E94EB15E09218
:101496006B0390CEDD2311F05B9A01C05B9810922E
:1014A6006B0388CE80916C030E94E91280916C03D5
:1014B600882319F0C0936B037DCE10926B037ACE0E
:0614C60010926B0377CECB
:1014CC00AFE0B0E0ECE6FAE00C94A2141C016B0166
:1014DC005A8349832B83FB0182819381848095807D
:1014EC0000811181A680B78097FD02C00D7F02C0DC
:1014FC0081E090E0E981FA814080518062807380C4
:10150C009801207133273D832C83740104FF08C09C
:10151C00411451046104710419F032E0E31AF1082A
:10152C00F801E870FF27FF83EE8303FF03C0F1E0AF
:10153C00EF1AF108F6010084F185E02D3197FF8751
:10154C00EE87EA0DFB1D10829C012E193F0939878D
:10155C002887C801827099279B878A87EB818E2FF9
:10156C00EE0F990B9C01215431093D872C872E8558
:10157C003F852230310530F48C819D81892B09F017
:10158C0042C05CC0411451046104710461F18E8548
:10159C009F8501979F878E87C2018F7099278A300C
:1015AC00910514F4C09602C0895A9F4FEC85FD85B5
:1015BC007A9748F49C012062215631092A31310571
:1015CC0010F40E943316EE85FF85EA0DFB1D808317
:1015DC00F1E0EF1AF10884E07694679457944794FD
:1015EC008A95D1F7C4CF888599858E0D9F1D1816C5
:1015FC0019066CF21E141F040CF0BECFEA85FB8595
:10160C00EF2B29F6B9CFE981FA8180819181A281F2
:10161C00B381892B8A2B8B2B89F0EE85FF85EA0D04
:10162C00FB1D31972B8120838E859F8502979F8789
:10163C008E87FC01EA0DFB1D80E38083EE81FF8128
:10164C00EF2B59F02E853F85215031093F872E878E
:10165C00F901EA0DFB1D80E28083F601408551857E
:10166C00415051092E853F85421B530BB9016A0D20
:10167C007B1D9401C1010E94B0129C01F10180817B
:10168C00918190FF06C0F6018281938182179307A6
:0C169C000CF4C9012F96E2E10C94BE147E
:1016A800A4E0B0E0EAE5FBE00C94A4148B019C01F3
:1016B800AC0140785F776B017C0140385F4761F48B
:1016C800E894E7F8FF24C114D104E104F10409F017
:1016D800ACC097FDAAC0AEC0E894F7F8C114D10415
:1016E800E104F10409F4A6C097FF07C081E290E085
:1016F800909301018093000198C0DC01CB0167E160
:10170800B595A795979587956A95D1F70097A105FF
:10171800B105B9F480E090E0DC0127FD08C0000FB6
:10172800111F221F331F0196A11DB11DF6CF01976E
:10173800A109B109B095A095909581959F4FAF4F9C
:10174800BF4F8F579109A109B1092F773327206817
:1017580080FF04C0000F111F221F331FAC01BD0101
:10176800759567955795479549835A836B837C830D
:10177800000F111F221F331F49E150E0812C912CCB
:101788005401B394C12CD12C760180E090E0DC01A7
:101798002C013D01480C591C6A1C7B1C04151505BD
:1017A8002605370574F0D301C201880D991DAA1DBD
:1017B800BB1D0419150926093709C80CD91CEA1CD0
:1017C800FB1C000F111F221F331FB694A794979478
:1017D800879441505109E1F601151105210531059C
:1017E80051F0970186010170112722273327C00E77
:1017F800D11EE21EF31EF594E794D794C79451ECDA
:10180800F51A89819A81AB81BC8127E1880F991FDC
:10181800AA1FBB1F2A95D1F78C0D9D1DAE1DBF1D9C
:10182800482F392F2A2F5B2F09C040E030E020ECE9
:101838005FE704C0462F372F282F592F642F732FA7
:0C184800822F952F2496E0E10C94C01430
:101854000F931F93CF93DF93CDB7DEB7A0970FB647
:10186400F894DEBF0FBECDBF8C0142E050E062E0D1
:1018740071E00E944914892B29F5F8010190002098
:10188400E9F73197E01BF10B3397B8F0F801828147
:10189400813331F45B9A85E091E00E94CD158AC0D2
:1018A400803331F45B9882E191E00E94CD1582C0CF
:1018B40080E291E00E94CD157DC087E391E00E9413
:1018C400CD1578C042E050E066E571E0C8010E94A1
:1018D4004914892B51F5F80101900020E9F731975B
:1018E400E01BF10B3397E0F0C80102960E941A1135
:1018F4009F938F937F936F9389E591E09F938F9349
:101904008E010F5F1F4F1F930F930E948B15C80109
:101914000E94CD150FB6F894DEBF0FBECDBF4AC0EE
:101924008FE691E00E94CD1545C042E050E06EE89C
:1019340071E0C8010E944914892B51F5F801019006
:101944000020E9F73197E01BF10B3397E0F0C80171
:1019540002960E941A119F938F937F936F9381E94C
:1019640091E09F938F938E010F5F1F4F1F930F93EF
:101974000E948B15C8010E94CD150FB6F894DEBFE6
:101984000FBECDBF17C087EA91E00E94CD1512C0EB
:1019940042E050E066EC71E0C8010E944914892BD2
:1019A40029F489EC91E00E94CD1504C080EE91E009
:1019B4000E94CD15A0960FB6F894DEBF0FBECDBF22
:0A19C400DF91CF911F910F9108955C
:1019CE00A2E0B0E0EDEEFCE00C94A2143C016B0141
:1019DE00FB0122813381A480B580808191819A831D
:1019EE00898386809780FA012080318042805380DF
:1019FE00B201A10157FE07C044275527BA0142196B
:101A0E0053096409750937FD03C08D7F9A83898355
:101A1E00950157FC05C0898182FD02C083FF02C07B
:101A2E0021503109CE0101967C010AE010E0C60179
:101A3E000E94010F57FC03C0298122FF0AC00197A3
:101A4E00F401E80FF91F57FC02C02BE209C02DE28A
:101A5E0007C023FF06C00197F401E80FF91F20E22B
:101A6E00208309811A81F601408551854150510923
:101A7E00481B590BB401680F791F9501C3010E94D1
:101A8E00B0129C01F3018081918190FF06C0F60196
:101A9E0082819381821793070CF4C9012296E2E1A9
:041AAE000C94BE14C2
:101AB20010C00E94701658F00E94691640F029F476
:101AC2005F3F29F00C94851651110C9478160C94F2
:101AD200A7160E94C61368F39923B1F3552391F315
:101AE200951B550BBB27AA2762177307840738F08B
:101AF2009F5F5F4F220F331F441FAA1FA9F335D0E8
:101B02000E2E3AF0E0E832D091505040E695001C9B
:101B1200CAF72BD0FE2F29D0660F771F881FBB1F55
:101B2200261737074807AB07B0E809F0BB0B802D33
:101B3200BF01FF2793585F4F3AF09E3F510578F05F
:101B42000C9485160C9478165F3FE4F3983ED4F318
:101B5200869577956795B795F7959F5FC9F7880F33
:101B6200911D9695879597F90895E1E0660F771F85
:101B7200881FBB1F621773078407BA0720F0621B16
:0E1B8200730B840BBA0BEE1F88F7E0950895E5
:101B90000FC00E94691638F00E94701620F095233D
:101BA00011F00C9485160C94A71611240C94781639
:101BB0000E94C61370F3959FC1F3950F50E0551F17
:101BC000629FF001729FBB27F00DB11D639FAA2792
:101BD000F00DB11DAA1F649F6627B00DA11D661FE1
:101BE000829F2227B00DA11D621F739FB00DA11D02
:101BF000621F839FA00D611D221F749F3327A00DBC
:101C0000611D231F849F600D211D822F762F6A2F57
:101C100011249F5750409AF0F1F088234AF0EE0FBC
:101C2000FF1FBB1F661F771F881F91505040A9F7E9
:101C30009E3F510580F00C9485160C9478165F3FFA
:101C4000E4F3983ED4F3869577956795B795F79525
:101C5000E7959F5FC1F7FE2B880F911D969587959D
:041C600097F9089553
:101C6400CF93DF93DC01F90168387105F1F05CF47E
:101C74006138710561F164387105A1F1603871054D
:101C840009F051C02FC0603C710509F441C0603FA8
:101C94007105F1F1603A710509F045C0C081D18147
:101CA400CE0102969183808325C0C081D181CE016B
:101CB400029691838083452B39F04881042E000CD1
:101CC400550B660B770B1CC0488150E029C0C081BE
:101CD400D181CE01049691838083488159816A81A0
:101CE4007B810EC0C081D181CE0102969183808315
:101CF400452BA1F048815981052E000C660B770B0A
:101D04004D935D936D937C93139781E090E00DC0A8
:101D1400C081D181CE01029691838083488159810B
:101D240060E070E0EDCF80E090E0DF91CF91089526
:101D340011C00E94691638F00E94701620F039F420
:101D44009F3F19F426F40C94A7160EF4E095E7FBD4
:101D54000C948516E92F0E94C61358F3BA1762072C
:101D640073078407950720F079F4A6F50C94771689
:101D74000EF4E0950B2EBA2FA02D0B01B9019001A2
:101D84000C01CA01A0011124FF27591B99F0593FE6
:101D940050F4503E68F11A16F040A22F232F342F2E
:101DA4004427585FF3CF469537952795A795F0407C
:101DB4005395C9F77EF41F16BA0B620B730B840B91
:101DC400BAF09150A1F0FF0FBB1F661F771F881F49
:101DD400C2F70EC0BA0F621F731F841F48F48795A1
:101DE40077956795B795F7959E3F08F0B0CF939593
:0E1DF400880F08F09927EE0F979587950895B0
:101E0200A0E0B0E0E7E0FFE00C94A414DC012801BC
:101E12001696AD90BC901797F7018081918112962A
:101E2200ED91FC9113971896CD91DC91199721971A
:101E3200F7FF02C0E1E0F0E0CA0DDB1D1882690184
:101E4200A1E0B0E08F01021B130B4C01F2E08F22E4
:101E52009924052C000C66087708CE018A199B0983
:101E6200CA15DB0519F1411551056105710589F0A6
:101E7200CB01BA01A30192010E94E813CA01A62F65
:101E8200B72F605D6A9341E0C41AD108A901BC0171
:101E9200E4CF98012C0D3D1D121613064CF31C14B1
:101EA2001D0434F48114910419F702C080E090E01B
:101EB200AB2B31F4F701208131812F7E31832083D6
:0A1EC200CDB7DEB7E0E10C94C014C8
:101ECC001F921FB61F9211242F933F938F939F93B2
:101EDC0030B120B1832F817090E0880F991F21FBC6
:101EEC00992790F9892B90916F0391110DC0813036
:101EFC0059F42091690330916A032F5F3F4F30935F
:101F0C006A032093690310C090916F0391110CC068
:101F1C00823051F42091690330916A0321503109C8
:101F2C0030936A03209369032091690330916A030B
:101F3C002E3131053CF02EE130E030936A032093D2
:101F4C0069030DC02091690330916A032430310577
:101F5C0034F423E030E030936A03209369038093D8
:101F6C006F039F918F913F912F911F901FBE1F90D8
:021F7C001895B6
:101F7E001F921FB61F9211242F933F938F939F93FF
:101F8E0036B126B136FB882780F990E0880F991F6D
:101F9E00922F991F9927991F892B90916E0391115A
:101FAE000DC0813059F420916703309168032F5F83
:101FBE003F4F309368032093670310C090916E03D8
:101FCE0091110CC0823051F4209167033091680357
:101FDE0021503109309368032093670320916703E2
:101FEE0030916803273E33403CF027EE33E03093C8
:101FFE006803209367030BC0209167033091680339
:10200E001216130624F01092680310926703809341
:10201E006E039F918F913F912F911F901FBE1F9026
:02202E00189503
:102030000F931F93CF93DF93EA0140385105D4F0FB
:1020400020E030E040E05FE70E94A3169E012F579A
:102050003109203831056CF120E030E040E05FE7E5
:102060000E94A316CE5FD109C038D1051CF1CFE77D
:10207000D0E020C042385F4FECF420E030E040E890
:102080005CE00E94A3169E012A593F4F22384FEF71
:1020900034077CF420E030E040E85CE00E94A316C6
:1020A000C453DF4FC2382FEFD20724F4C2E8DFEF6A
:1020B00001C0E9019E0121583F4F8901330F220BD6
:1020C000330BA9019801E7E1220F331F441F551F6D
:1020D000EA95D1F70E94A316DF91CF911F910F913E
:0220E000089561
:1020E200A2E0B0E0E7E7F0E10C94A6144C016B012A
:1020F200FB012281338164807580808191819A8382
:102102008983A680B78037FD03C08D7F9A83898338
:10211200FA014081518162817381CE0101967C0175
:1021220008E010E09301C6010E94010F298124FFFB
:1021320006C00197F501E80FF91F20E320832981EA
:1021420023FF06C00197F501E80FF91F20E2208363
:1021520009811A81F6014085518541505109481B78
:10216200590BB501680F791F9301C4010E94B01287
:102172009C01F4018081918190FF06C0F601828169
:102182009381821793070CF4C9012296EEE00C9416
:02219200C21475
:10219400FF920F931F93CF93DF9300D0CDB7DEB799
:1021A4008A01F22E0E94AE15FF20D1F16F2D70E04E
:1021B40061507109072E000C880B990B0E94FF11C6
:1021C4009B01AC0160E070E080E291E40E94A60013
:1021D4000E941B137A83698369817A81C8010E94F2
:1021E4007715AB019B01ADECBCEC0E94DC15969518
:1021F40087959695879596958795880F991F9C0145
:10220400220F331F220F331F820F931F9A01281BA3
:10221400390BC901805D0E94F214FA94F110C6CF03
:102224000F900F90DF91CF911F910F91FF90089520
:10223400A0E0B0E0E0E2F1E10C94AC14AC01FA01EE
:1022440090814F5F5F4F9032D1F3292F092E000CFC
:10225400330B295031092530310588F39B3271F550
:1022640000E010E0319602C000E010E020E030E031
:10227400A901C1910C2E000CDD0BE097CA30D105E9
:1022840078F4AAE0B0E00E941F166E01DD0FEE089C
:10229400FF089B01AC012C193D094E095F09E9CFE8
:1022A4000115110541F466277727CB01621B730BD7
:1022B400840B950B08C0CA01B90105C09D32A1F673
:1022C40001E010E0CFCFCDB7DEB7E8E00C94C8143E
:1022D4000F931F93CF93DF93DB01109719F48FEFC4
:1022E4009FEF3DC02D913C91119730FF25C016966C
:1022F4004D915C91179714962D913C911597421727
:10230400530778F41296ED91FC91139780831296FB
:102314002D913C9113972F5F3F4F13963C932E932F
:10232400129716962D913C9117972F5F3F4F179652
:102334003C932E93169713C01C96ED91FC911D9718
:10234400309769F2EB01092F182F0995892B39F67B
:102354008E819F8101969F838E83812F902FDF91A1
:08236400CF911F910F91089524
:10236C00A2E0B0E0ECEBF1E10C94A6145C016B0183
:10237C00FB012281338184809580808191819A83B5
:10238C0089836680778037FD03C08D7F9A8389832C
:10239C00FA014081518162817381CE0101967C01E9
:1023AC000AE010E09401C6010E94010F09811A8114
:1023BC00F6014085518541505109481B590BB30119
:1023CC00680F791F9401C5010E94B0129C01F501A0
:1023DC008081918190FF06C0F601828193818217E2
:0E23EC0093070CF4C9012296EEE00C94C21483
:1023FA00E89409C097FB3EF4909580957095619595
:10240A007F4F8F4F9F4F9923A9F0F92F96E9BB274A
:10241A009395F695879577956795B795F111F8CFC6
:10242A00FAF4BB0F11F460FF1BC06F5F7F4F8F4F31
:10243A009F4F16C0882311F096E911C0772321F027
:10244A009EE8872F762F05C0662371F096E8862FBF
:10245A0070E060E02AF09A95660F771F881FDAF716
:0A246A00880F9695879597F908955D
:10247400A2E8B0E0E0E4F2E10C94A8145C014A01A3
:10248400CF57DF4F79836883C158D040C12CD12CFA
:10249400CF57DF4FE881F981C158D040808188232C
:1024A400E9F07401860120E830E0AE014F5F5F4F30
:1024B400BE016F577F4FC5010E94C5068C0D9D1D3F
:1024C4008C159D054CF48FE490E09093010180936A
:1024D40000018FEF9FEF03C06C01DACFC601CE5726
:0824E400DF4FECE00C94C4147E
:1024EC00A0E1B0E0ECE7F2E10C94AE14FB01BA0110
:1024FC00AE014F5F5F4F7A0140E1D7011D924A95C3
:10250C00E9F742E051E05A8349839C838B83F7FFC0
:10251C0009C08FE490E090930101809300018FEF4C
:10252C009FEF14C0A9018C013197FE83ED83C70185
:10253C000E9423154F8158852D813E8142175307E8
:10254C0008F49A01F801E20FF31F10826096E6E09E
:04255C000C94CA14FD
:10256000A0E0B0E0E6EBF2E10C94A8146C015B0192
:102570007A01E901480181E08822992400FD03C025
:102580004217530750F0A701B501C6010E948514F8
:10259000EC16FD0610F0C70117C08E010E191F09B9
:1025A0000115110541F0B60180E290E00E946A1128
:1025B00001501109F5CF8114910429F4A701B50147
:1025C000C6010E948514CE01CDB7DEB7ECE00C94B5
:0225D000C41431
:1025D200CF93C82F86EF91E00E94CD15CC2341F115
:1025E2000E944416C82F0E943C16CB3369F4E09136
:1025F2006D03F0E0E651FD4F10828AEE92E00E94F8
:102602002A0C10926D03ECCFE0916D03EF3348F486
:1026120081E08E0F80936D03F0E0E651FD4FC083A1
:10262200DFCF10926D0387E192E00E94CD15D8CFE3
:04263200CF910895A7
:102636000E94CE1388F09F5798F0B92F9927B7516B
:10264600B0F0E1F0660F771F881F991F1AF0BA9550
:10265600C9F714C0B13091F00E947716B1E0089521
:102666000C947716672F782F8827B85F39F0B93F13
:10267600CCF3869577956795B395D9F73EF4909503
:0E2686008095709561957F4F8F4F9F4F0895FF
:10269400DC01ED91FC91119780818A3221F080E078
:1026A40090E03AE00EC03196ED93FC93DB01ED919E
:1026B400FC911197CF0102968D939C938081918117
:1026C4000895ED91FC911197208120532A3068F4EC
:1026D400389FA001399F500D1124CA01820F911D0A
:0C26E40031961196FC93EE93ECCF089514
:1026F000A0E0B0E0EEE7F3E10C94AA147C01FB014A
:10270000EA01C901A280B380C480D5800081118113
:10271000209711F4C8E5D3E0009719F4CE010E9488
:10272000F915B7FC04C0A816B90608F4C50196014E
:10273000AC01BE01C7010E94B012CDB7DEB7EAE01E
:042740000C94C6141B
:10274400990F0008550FAA0BE0E8FEEF16161706BE
:10275400E807F907C0F012161306E407F50798F026
:10276400621B730B840B950B39F40A2661F0232B3F
:10277400242B252B21F408950A2609F4A140A695BB
:082784008FEF811D811D0895F6
:10278C0057FD9058440F551F59F05F3F71F0479516
:10279C00880F97FB991F61F09F3F79F087950895FB
:1027AC00121613061406551FF2CF4695F1DF08C01A
:1027BC00161617061806991FF1CF86957105610537
:0427CC0008940895D0
:1027D000A1E21A2EAA1BBB1BFD010DC0AA1FBB1F25
:1027E000EE1FFF1FA217B307E407F50720F0A21B97
:1027F000B30BE40BF50B661F771F881F991F1A9404
:1028000069F760957095809590959B01AC01BD012D
:04281000CF01089557
:10281400CF93DF93EC0190E0E92FF0E0EE0FFF1F80
:10282400E65DFC4F8081811102C081810EC0A881C8
:10283400B9812C91821305C091811196B983A88323
:1028440001C09F5F9B3040F3892FDF91CF910895A2
:1028540081B18C7F81B987B18F7387B982B18F6061
:1028640082B9E8E6F0E080818160808380818460C1
:102874008083EBE6F0E0808183608083EDE6F0E026
:0E2884008081806C8083D89ADA9A78940895C7
:10289200CF93DF9341155105A9F0DC01FB01EF0154
:1028A2008D91882351F09191992339F0413051054E
:1028B20021F041505109891791F390E02881821B40
:0E28C200910902C080E090E0DF91CF9108956F
:1028D00050B140B1252F217030E0220F331F41FB52
:1028E000332730F9232B20936F0336B126B136FB03
:1028F000882780F990E0880F991F922F991F9927B8
:0A290000991F892B80936E03089540
:10290A00A0E0B0E0EBE8F4E10C94AC146C01EB014C
:10291A008A017B01E40EF51ECE15DF0541F089918F
:10292A00B601082E000C990B0E946A11F5CFC80156
:0A293A00CDB7DEB7E8E00C94C81436
:102944002F923F924F925F926F927F928F929F92BB
:10295400AF92BF92CF92DF92EF92FF920F931F93A9
:10296400CF93DF93CDB7DEB7CA1BDB0B0FB6F8945A
:08297400DEBF0FBECDBF0994C8
:10297C002A88398848885F846E847D848C849B8403
:10298C00AA84B984C884DF80EE80FD800C811B8111
:10299C00AA81B981CE0FD11D0FB6F894DEBF0FBE40
:0629AC00CDBFED0108950E
:1029B2005F985E9895B1892B85B95D9A89EF90E011
:1029C2000197F1F700C000005D9889EF90E0019750
:1029D200F1F700C0000085B115B88BB18F718BB9CA
:0229E200089556
:1029E4005F9A5E9895B1892B85B95D9A89EF90E0DD
:1029F4000197F1F700C000005D9889EF90E001971E
:102A0400F1F700C0000085B115B88BB18F718BB997
:022A1400089523
:102A16000F931F93CF938A010E94AE15F801808110
:102A2600882351F0C0E00E94F214CF5FF801EC0F4A
:102A3600F11D80818111F7CFCF911F910F910895DC
:102A4600A2E0B0E0E9E2F5E10C94B0148C015A83FF
:102A56004983AE014F5F5F4F0E943A12F801208111
:102A660024FF02C08FEF9FEF2296E4E00C94CC1473
:102A7600069B10C087E893E10197F1F700C00000BC
:102A86000699FECF87E893E10197F1F700C00000B1
:082A960081E0089580E008953D
:102A9E00059B10C087E893E10197F1F700C0000095
:102AAE000599FECF87E893E10197F1F700C000008A
:082ABE0081E0089580E0089515
:102AC600049B10C087E893E10197F1F700C000006E
:102AD6000499FECF87E893E10197F1F700C0000063
:082AE60081E0089580E00895ED
:102AEE00AA1BBB1B51E107C0AA1FBB1FA617B70726
:102AFE0010F0A61BB70B881F991F5A95A9F7809542
:082B0E009095BC01CD01089572
:102B1600A0E0B0E0E1E9F5E10C94B214AE01475F44
:102B26005F4F6F8178858D819E810E947E16E2E0DF
:042B36000C94CE1419
:102B3A00092E0394000C11F4882352F0BB0F40F4C1
:102B4A00BF2B11F460FF04C06F5F7F4F8F4F9F4F01
:022B5A000895DC
:102B5C00813031F48FEF860F80680E94D91408956C
:102B6C00823029F48FE3860F80680E94D91408956F
:102B7C001092C5008CE08093C40082E08093C0006A
:0E2B8C0088E18093C10086E08093C200089526
:102B9A00CF93DF93EC018881882331F021960E943C
:0E2BAA003C1689918111FBCFDF91CF910895E8
:102BB800A29FB001B39FC001A39F700D811D112476
:0E2BC800911DB29F700D811D1124911D089565
:102BD6000E940B152FE78AE196E021508040904035
:0C2BE600E1F700C000000E949B1608955B
:102BF200FC01AF014F5F5F4F2081222311F0FA01E8
:0C2C0200F8CF9F01281B390BC901089571
:102C0E0088E30E94D9148CE00E94D91486E00E94B9
:0A2C1E00D91481E00E94D914089532
:102C2800EC010E94B1160E94B016CE010E94B216A5
:062C3800CE010E94AE1661
:102C3E000E94DC15A59F900DB49F900DA49F800D52
:062C4E00911D1124089500
:102C5400CF93C42F0E94AE158C2F0E94F214CF91F3
:022C64000895D1
:102C66009C01215631092A31310510F48F759927B7
:022C76000895BF
:102C7800E0ECF0E0908195FFFDCF8093C6000895C9
:102C8800E0ECF0E080818823ECF78091C60008959D
:102C98009C01215431092A31310508F480620895D4
:0E2CA80081B18F7881B982B18F7882B9089599
:0E2CB60084B18FEF84B98AB1806E8AB9089517
:0E2CC4005058BB27AA270E949A0E0C949D150B
:0E2CD20000240A94161617061806090608951F
:0E2CE00000240A941216130614060506089521
:0E2CEE00E894BB2766277727CB0197F9089556
:0E2CFC009A01AB016FEF7FE70E9476120895F8
:0C2D0A0097F99F6780E870E060E0089592
:0C2D1600EE0FFF1F0590F491E02D0994D2
:0A2D22000E94A21308F481E0089556
:0A2D2C000E94A21308F48FEF08952F
:082D360081E00E94D914089508
:082D3E000E94590D0C949D1533
:082D46000E94C80D0C949D15BC
:062D4E009FEF80EC0895E8
:042D54000C940000DB
:042D58009F770895C4
:042D5C000E94A4002D
:022D60000895D4
:022D62000895D2
:022D64000895D0
:102D6600545800545820456E61626C65640D0A0023
:102D760054582044697361626C65640D0A00496E9B
:102D860076616C696420545820706172616D657457
:102D960065720D0A00545820636F6D6D616E642074
:102DA6006D697373696E6720706172616D657465B4
:102DB600720D0A0046410056464F2D412073657438
:102DC60020746F20256C6420487A0D0A0046412045
:102DD600636F6D6D616E64206D697373696E6720D4
:102DE6006672657175656E63790D0A004642005616
:102DF600464F2D422073657420746F20256C642025
:102E0600487A0D0A00464220636F6D6D616E64203C
:102E16006D697373696E67206672657175656E6339
:102E2600790D0A00494600494620636F6D6D616E53
:102E3600642070726F6365737365640D0A00556E66
:102E46006B6E6F776E2043415420636F6D6D616EBC
:042E5600640D0A00FD
:102E5A0041546D6567613332345042206E6F2049A8
:102E6A006E746572666163652052656164790D0AE4
:102E7A00000D0A4572726F723A20436F6D6D616E72
:102E8A006420746F6F206C6F6E670D0A0050555383
:102E9A004820414E5920425554544F4E00544F2019
:102EAA00535441525400546F7020427574746F6EBB
:102EBA0000666F7220545800426F74746F6D20421E
:102ECA007574746F6E00666F72205258004D696493
:102EDA00646C6520427574746F6E00746F20436F62
:102EEA006E6669726D00545800506C6561736500B6
:102EFA0053656C656374204D6F6465005258004DCC
:102F0A006F646520436F6E6669726D65643A00523C
:102F1A0058204D6F6465005458204D6F6465004613
:102F2A0072657175656E63793A004D487A004B484F
:102F3A007A00436F6E6669726D65642046726571C8
:042F4A003A00200029
:102F4E0068076C094C836A9074A07AC00080688808
:062F5E0000846C8200817A
:082F640000000000DCCFD135B4
:082F6C000000000000C0153F49
:082F74000000803F0000C03F97
:072F7C00286E756C6C290042
:062F8300286E696C2900B4
:00000001FF
