:100000000C9466000C9498000C9498000C94980042
:100010000C9498000C9498000C9498000C94980000
:100020000C9498000C9498000C9498000C949800F0
:100030000C9498000C9498000C9498000C949800E0
:100040000C9498000C9498000C9498000C949800D0
:100050000C9498000C9498000C9498000C949800C0
:100060000C9498000C9498000C9498000C949800B0
:100070000C9498000C9498000C9498000C949800A0
:100080000C9498000C9498000C9498000C94980090
:100090000C9498000C9498000C9498000C94980080
:1000A0000C9498000C9498000C9498000C94980070
:1000B0000C9498000C9498000C9498000C94980060
:1000C0000C9498000C9498000C94980011241FBE76
:1000D000CFEFD8E0DEBFCDBF0E9472000C948D0040
:0400E000F894FFCFC2
:1000E400CF93DF930F92CDB7DEB750985898249AE8
:1000F40090E189B18170898389818111FACFE7E820
:10010400F3E13197F1F700C00000489BFECF85B1C1
:06011400892785B9EECF3A
:10011A00EC010E949D000E949C00CE010E949E005C
:06012A00CE010E949A00C4
:040130000C9400002B
:040134000E947000B5
:02013800089528
:02013A00089526
:02013C00089524
:00000001FF
