:100000000C9466000C948D000C948D000C948D0063
:100010000C948D000C948D000C948D000C948D002C
:100020000C948D000C948D000C948D000C948D001C
:100030000C948D000C948D000C948D000C948D000C
:100040000C948D000C948D000C948D000C948D00FC
:100050000C948D000C948D000C948D000C948D00EC
:100060000C948D000C948D000C948D000C948D00DC
:100070000C948D000C948D000C948D000C948D00CC
:100080000C948D000C948D000C948D000C948D00BC
:100090000C948D000C948D000C948D000C948D00AC
:1000A0000C948D000C948D000C948D000C948D009C
:1000B0000C948D000C948D000C948D000C948D008C
:1000C0000C948D000C948D000C948D0011241FBE97
:1000D000CFEFD8E0DEBFCDBF0E9472000C9482004B
:0400E000F894FFCFC2
:1000E400569A5E9890E48BB189278BB92FE33DE053
:1000F40083E0215030408040E1F700C00000F3CF9E
:10010400EC010E9492000E949100CE010E94930093
:06011400CE010E948F00E5
:04011A000C94000041
:04011E000E947000CB
:0201220008953E
:0201240008953C
:0201260008953A
:00000001FF
