:100000000C946A000C946A010C946A010C946A01C5
:100010000C946A010C946A010C946A010C946A01B4
:100020000C946A010C946A010C946A010C946A01A4
:100030000C946A010C946A010C946A010C946A0194
:100040000C946A010C946A010C946A010C946A0184
:100050000C946A010C946A010C946A010C946A0174
:100060000C946A010C946A010C946A010C946A0164
:100070000C946A010C946A010C946A010C946A0154
:100080000C946A010C946A010C946A010C946A0144
:100090000C946A010C946A010C946A010C946A0134
:1000A0000C946A010C946A010C946A010C946A0124
:1000B0000C946A010C946A010C946A010C946A0114
:1000C0000C946A010C946A010C946A010100010706
:1000D0000002E20011241FBECFEFD8E0DEBFCDBF8B
:1000E000ECECF0E040E017C0B591A5913591259179
:1000F000059107FD0CC095918591EF01F92FE82F2F
:1001000005900D92A217B307D9F7FE0104C01D9206
:10011000A217B307E1F7E33DF40731F70E9450015E
:080120000C945B01F894FFCF81
:1001280083ED90E30197F1F700C000008AE30E9495
:10013800100189E00E94100186E00E9410018EE102
:100148000E94100189E30E9410018BE10E941001B6
:100158008FE60E94100187E50E9410018FE70E9438
:10016800100188E30E9410018FE00E94100181E0D5
:060178000E941001089531
:10017E00CF9380E80E94100188E4C0E00E94210124
:10018E0087E893E10197F1F700C00000CF5FEC2FF5
:10019E00F0E0E050FF4F80818111F0CFCF910895B4
:1001AE00CF93DF930F92CDB7DEB7198284EA809397
:1001BE00BC00ECEBF0E080818823ECF78091B90075
:0A01CE0089830F90DF91CF9108950F
:1001D800813031F0823031F0833031F080EE05C06B
:1001E80080E803C080EA01C080EC6150862B0E9441
:0401F8002101089544
:1001FC0087B1836087B988B18C7F88B987B18C7FD0
:10020C0087B98DEF8093B800ECEBF0E080818460CF
:04021C00808308953E
:10022000CF93C82F0E94D70088E70E94320180E058
:100230000E9443018C2F0E9443010E946601CF91CE
:0202400008951F
:10024200CF93C82F0E94D70088E70E94320180E432
:100252000E9443018C2F0E9443010E946601CF91AC
:020262000895FD
:10026400880F8093BB0084E88093BC00ECEBF0E043
:1002740080818823ECF7E9EBF0E0808180818E7F38
:020284000895DB
:100286008093BB0084E88093BC00ECEBF0E08081B7
:0A0296008823ECF78091B900089569
:1002A0000E94FE000E94940061E081E00E94EC0048
:0602B0000E94BF00FFCF19
:1002B600EC010E946F010E946E01CE010E94700146
:0602C600CE010E946C0154
:0802CC0084E98093BC00089551
:0402D4000C94000086
:0402D8000E949200EE
:0202DC00089583
:0202DE00089581
:0202E00008957F
:0702E20048656C6C6F210000
:00000001FF
