:100000000C9469000C9468070C9468070C946807BA
:100010000C9468070C9468070C9468070C946807A4
:100020000C9468070C9468070C9468070C94680794
:100030000C9468070C9468070C9468070C94680784
:100040000C9468070C9468070C9468070C94680774
:100050000C9468070C9468070C9468070C94680764
:100060000C9468070C9468070C9468070C94680754
:100070000C9468070C9468070C9468070C94680744
:100080000C9468070C9468070C9468070C94680734
:100090000C9468070C9468070C9468070C94680724
:1000A0000C9468070C9468070C9468070C94680714
:1000B0000C9468070C9468070C9468070C94680704
:1000C0000C9468070C9468070C9468070100010CF5
:1000D000800011241FBECFEFD8E0DEBFCDBFECEC17
:1000E000F0E040E017C0B591A591359125910591BB
:1000F00007FD0CC095918591EF01F92FE82F059030
:100100000D92A217B307D9F7FE0104C01D92A217E2
:10011000B307E1F7E13DF40731F70E940E060C94B6
:060120001607F894FFCF62
:100126003F924F925F926F927F928F929F92AF9281
:10013600BF92CF92DF92EF92FF920F931F93CF93CE
:10014600DF93CDB7DEB764970FB6F894DEBF0FBE68
:10015600CDBF633008F0ABC129013A0194E0491ADA
:10016600510861087108EDEF4E16E7E05E0661047E
:10017600710408F09CC125013601F1E04F1A5108BF
:10018600610871089FEF491659069FE069067104D8
:1001960008F08DC1E114F104E0E10E07110508F045
:1001A60086C1250136014701580169017A01162FDA
:1001B600082F81149104A104B10431F5F4E0CF1A9B
:1001C600D108E108FEEFFF0ACC0CDD1CEE1CFF1C7B
:1001D600CC0CDD1CEE1CFF1CCC0CDD1CEE1CFF1C2D
:1001E600CC0CDD1CEE1CFF1CCC0CDD1CEE1CFF1C1D
:1001F600CC0CDD1CEE1CFF1CCC0CDD1CEE1CFF1C0D
:1002060040E050E0BA01DBC021E04216510461042F
:10021600710409F048C0D501C4010497A109BE4F75
:10022600C80ED91EEA1EFB1ECC0CDD1CEE1CFF1CE4
:10023600CC0CDD1CEE1CFF1CCC0CDD1CEE1CFF1CCC
:10024600CC0CDD1CEE1CFF1CCC0CDD1CEE1CFF1CBC
:10025600CC0CDD1CEE1CFF1CCC0CDD1CEE1CFF1CAC
:10026600B501A4014150510961097E4F440F551F44
:10027600661F771F440F551F661F771F440F551FB4
:10028600661F771F440F551F661F771F440F551FA4
:10029600661F771F440F551F661F771F440F551F94
:1002A600661F771F8CC0C301B2010E949D05698736
:1002B6007A878B879C87C501B4010E949D05298595
:1002C6003A854B855C850E945D0720E030E040E082
:1002D60053E40E9461070E948F036D877E878F8794
:1002E600988BD701C601880F991FAA1FBB1F880FBD
:1002F600991FAA1FBB1F880F991FAA1FBB1F880F14
:10030600991FAA1FBB1F880F991FAA1FBB1F880F03
:10031600991FAA1FBB1FBC01CD01660F771F881F3F
:10032600991F0E949D052D853E854F8558890E94FF
:10033600330720E030E040E054E40E9432070E9498
:1003460041066B017C01D501C401880F991FAA1FC4
:10035600BB1F880F991FAA1FBB1F880F991FAA1FB3
:10036600BB1F880F991FAA1FBB1F880F991FAA1FA3
:10037600BB1F880F991FAA1FBB1FBC01CD01660FAB
:10038600771F881F991F0E949D05698B7A8B8B8B1F
:100396009C8B2D853E854F85588969857A858B8509
:1003A6009C850E9461079B01AC0169897A898B89CA
:1003B6009C890E9432070E944106AB01BC011130A4
:1003C60049F018F0123059F00FC00F2EFAE23F2E06
:1003D600F02D0BC00F2EF2E33F2EF02D06C00F2E90
:1003E600FAE33F2EF02D01C0312C59824A82D70103
:1003F600C60188279927A370BB2724E0129FF00126
:100406001124E050FF4F2081822F8A2B8B83DC82C0
:10041600CD82D301C20188279927AF70BB27072E4B
:100426007CE0B695A795979587957A95D1F7702D27
:100436006A017B01CC24DD24EFE0EE22FF248E2925
:100446008E835F8348870E94920680E60E94CD06CF
:10045600832D0E94FE06CE0101967C016E0199E075
:10046600C90ED11CF70181917F010E94FE06EC1492
:10047600FD04C1F70E945907013011F46FE201C073
:100486006FE089288A288B2809F46064113041F0CE
:1004960018F0123049F00BC080E10E94A70607C091
:1004A60081E10E94A70603C082E10E94A706649626
:1004B6000FB6F894DEBF0FBECDBFDF91CF911F916F
:1004C6000F91FF90EF90DF90CF90BF90AF909F90ED
:0E04D6008F907F906F905F904F903F900895B1
:1004E4004F925F926F927F928F929F92AF92BF9240
:1004F400CF92DF92EF92FF920F931F93CF93DF93EC
:10050400CDB7DEB72A970FB6F894DEBF0FBECDBFC6
:1005140089876A8729013A0147015801862F8F503C
:100524008C3408F0E3C0D801C7010197A109B109CF
:100534008F3F9F4FAF40B10508F0D8C0411451041C
:1005440080E16806710408F0D1C0411451046104CB
:10055400710479F4C62ED12C24E0C21AD108D694A1
:10056400DC2CCC24D794C7940D2C000CEE08FF0887
:1005740071C0C801B7010E949D0569837A838B838A
:100584009C83C301B2010E949D0529813A814B815C
:100594005C810E945D0720E030E040E053E40E946B
:1005A40061070E948F036D837E838F8398879A856A
:1005B40080E8989FB0011124072E000C880B990B3A
:1005C4000E949F052D813E814F8158850E943307EB
:1005D40020E030E040E054E40E9432070E944106EB
:1005E4006B017C01D301C201880F991FAA1FBB1F95
:1005F400880F991FAA1FBB1F880F991FAA1FBB1F13
:10060400880F991FAA1FBB1F880F991FAA1FBB1F02
:10061400880F991FAA1FBB1FBC01CD01660F771F4E
:10062400881F991F0E949D052B013C012D813E814D
:100634004F81588569817A818B819C810E946107F1
:100644009B01AC01C301B2010E9432070E94410622
:100654002B013C012985222319F082E2898302C0FF
:100664009AE19983692D89810E94A706682D898161
:100674008F5F0E94A706D701C60188279927A37018
:10068400BB27BD018827992789818E5F0E94A70611
:100694006D2D89818D5F0E94A7066C2D89818C5FE9
:1006A4000E94A706882499242FE0A222BB24072EA7
:1006B4007CE0B694A794979487947A95D1F7702D9B
:1006C400D301C20188279927AF70BB27682D6A2BF5
:1006D40089818B5F0E94A706652D89818A5F0E94AC
:1006E400A706642D8981895F0E94A7062A960FB602
:1006F400F894DEBF0FBECDBFDF91CF911F910F9154
:10070400FF90EF90DF90CF90BF90AF909F908F902D
:0A0714007F906F905F904F90089562
:10071E008F929F92AF92BF92CF92DF92EF92FF9203
:10072E000F931F938B019C0157E1369527951795D3
:10073E0007955A95D1F71127A8014F5751094731FF
:10074E0051050CF045C057FD2DC00FEF1FEF2FE7E1
:10075E0030E004C035952795179507954A95D2F741
:10076E004801590186229722A822B92289288A286F
:10077E008B2871F197FF07C0DC01CB01800F911F11
:10078E00A21FB31F02C0DC01CB010095109520956E
:10079E00309580239123A223B323482F392F2A2F5C
:1007AE005B2F1AC097FF0FC08B019C01000F111F0A
:1007BE00221F331F012B022B032B51F040E030E0A0
:1007CE0020E85FEB09C040E030E020E050E004C0DC
:1007DE00462F372F282F592F642F732F822F952FA7
:1007EE001F910F91FF90EF90DF90CF90BF90AF9041
:0607FE009F908F9008950A
:1008040010C00E94400758F00E94390740F029F4B4
:100814005F3F29F00C944E0751110C9448070C9437
:1008240065070E94700668F39923B1F3552391F389
:10083400951B550BBB27AA2762177307840738F04B
:100844009F5F5F4F220F331F441FAA1FA9F335D0A8
:100854000E2E3AF0E0E832D091505040E695001C5C
:10086400CAF72BD0FE2F29D0660F771F881FBB1F16
:10087400261737074807AB07B0E809F0BB0B802DF4
:10088400BF01FF2793585F4F3AF09E3F510578F020
:100894000C944E070C9448075F3FE4F3983ED4F35E
:1008A400869577956795B795F7959F5FC9F7880FF4
:1008B400911D9695879597F90895E1E0660F771F46
:1008C400881FBB1F621773078407BA0720F0621BD7
:0E08D400730B840BBA0BEE1F88F7E0950895A6
:1008E2000FC00E94390738F00E94400720F095237C
:1008F20011F00C944E070C94650711240C944807D0
:100902000E94700670F3959FC1F3950F50E0551F3A
:10091200629FF001729FBB27F00DB11D639FAA2752
:10092200F00DB11DAA1F649F6627B00DA11D661FA1
:10093200829F2227B00DA11D621F739FB00DA11DC2
:10094200621F839FA00D611D221F749F3327A00D7C
:10095200611D231F849F600D211D822F762F6A2F18
:1009620011249F5750409AF0F1F088234AF0EE0F7D
:10097200FF1FBB1F661F771F881F91505040A9F7AA
:100982009E3F510580F00C944E070C9448075F3F40
:10099200E4F3983ED4F3869577956795B795F795E6
:1009A200E7959F5FC1F7FE2B880F911D969587955E
:0409B20097F9089514
:1009B60011C00E94390738F00E94400720F039F430
:1009C6009F3F19F426F40C9465070EF4E095E7FBB7
:1009D6000C944E07E92F0E94700658F3BA17620767
:1009E60073078407950720F079F4A6F50C9447075A
:1009F6000EF4E0950B2EBA2FA02D0B01B901900134
:100A06000C01CA01A0011124FF27591B99F0593F77
:100A160050F4503E68F11A16F040A22F232F342FBF
:100A26004427585FF3CF469537952795A795F0400D
:100A36005395C9F77EF41F16BA0B620B730B840B22
:100A4600BAF09150A1F0FF0FBB1F661F771F881FDA
:100A5600C2F70EC0BA0F621F731F841F48F4879532
:100A660077956795B795F7959E3F08F0B0CF939524
:0E0A7600880F08F09927EE0F97958795089541
:100A8400E0E0F1E010821182128213821482158256
:100A940016821782108611861286138662ED87EB02
:100AA4000E94A70660E880E10E94A70660E881E151
:100AB4000E94A70660E882E10E94A70660E883E13D
:100AC4000E94A70660E884E10E94A70660E885E129
:100AD4000E94A70660E886E10E94A70660E887E115
:100AE4000E94A7066CE080E10E94A7066CE081E109
:100AF4000E94A7066CE082E10E94A7066CE083E1F5
:100B04000E94A7066CE084E10E94A7066CE085E1E0
:100B14000E94A7066CE086E10E94A7066CE087E1CC
:100B24000E94A70685E90E94DA05682F6F7785E998
:060B34000E94A7060895CF
:100B3A00E89409C097FB3EF490958095709561956D
:100B4A007F4F8F4F9F4F9923A9F0F92F96E9BB2723
:100B5A009395F695879577956795B795F111F8CF9F
:100B6A00FAF4BB0F11F460FF1BC06F5F7F4F8F4F0A
:100B7A009F4F16C0882311F096E911C0772321F000
:100B8A009EE8872F762F05C0662371F096E8862F98
:100B9A0070E060E02AF09A95660F771F881FDAF7EF
:0A0BAA00880F9695879597F9089536
:100BB4001F93CF93DF9300D00F92CDB7DEB7182FDA
:100BC4000E94920680E60E94CD068983898188313D
:100BD400B9F4812F0E94FE068A838A81883291F4B7
:100BE4000E94210780E60E94EF068B838B8180346C
:100BF40059F40E940B0789830E945907898105C013
:100C04008FEF03C08FEF01C08FEF0F900F900F9005
:080C1400DF91CF911F910895BB
:100C1C000E94BB060E9442050E945407E12CF12C55
:100C2C008701E39420E030E0A90160E280E00E94BB
:100C3C0072020F2EF7E5AF2EF4E0BF2EC12CD12C93
:100C4C00F02D10EAE12E16E8F12E01E010E02AE07A
:100C5C0030E040E050E060E080E00E9493002AE049
:100C6C0030E040E050E061E080E00E94930081E0E1
:060C7C000E942A07FFCFD1
:100C82000E94780688F09F5798F0B92F9927B7519C
:100C9200B0F0E1F0660F771F881F991F1AF0BA951E
:100CA200C9F714C0B13091F00E944707B1E008952E
:100CB2000C944707672F782F8827B85F39F0B93F20
:100CC200CCF3869577956795B395D9F73EF49095D1
:0E0CD2008095709561957F4F8F4F9F4F0895CD
:100CE00057FD9058440F551F59F05F3F71F04795DD
:100CF000880F97FB991F61F09F3F79F087950895C2
:100D0000121613061406551FF2CF4695F1DF08C0E0
:100D1000161617061806991FF1CF869571056105FD
:040D20000894089596
:100D2400CF93DF930F92CDB7DEB7198284EA809315
:100D3400BC00ECEBF0E080818823ECF78091B900F3
:0A0D440089830F90DF91CF9108958D
:100D4E00CF93DF93D82FC62F0E94920680E60E9483
:100D5E00CD068D2F0E94FE068C2F0E94FE060E944D
:080D6E005907DF91CF910895B0
:100D760087B1836087B988B18C7F88B987B18C7F4A
:100D860087B98DEF8093B800ECEBF0E0808184604A
:040D960080830895B9
:100D9A00880F8093BB0084E88093BC00ECEBF0E002
:100DAA0080818823ECF7E9EBF0E0808180818E7FF7
:020DBA0008959A
:100DBC00092E0394000C11F4882352F0BB0F40F45D
:100DCC00BF2B11F460FF04C06F5F7F4F8F4F9F4F9D
:020DDC00089578
:100DDE00880F81608093BB0084E88093BC00ECEBAD
:0E0DEE00F0E080818823ECF78091B900089531
:100DFC008093BB0084E88093BC00ECEBF0E0808136
:0A0E0C008823ECF78091B9000895E7
:100E160084E88093BC00ECEBF0E080818823ECF75B
:060E26008091BB0008955D
:100E2C00EC010E946D070E946C07CE010E946E07B8
:060E3C00CE010E946A07CE
:100E420084EA8093BC00ECEBF0E080818823ECF72D
:020E5200089501
:100E540061E08627682F619583E00E94A7060895C4
:0E0E64005058BB27AA270E94DB040C94DE0620
:0E0E720000240A94161617061806090608959D
:0E0E800000240A94121613061406050608959F
:0E0E8E00E894BB2766277727CB0197F90895D4
:0C0E9C0097F99F6780E870E060E008951F
:0A0EA80060EA81EB0E94A70608959E
:080EB20084E98093BC0008955F
:080EBA000E9402040C94DE0604
:080EC2000E9471040C94DE068D
:060ECA009FEF80EC08958B
:040ED0000C9400007E
:040ED4000E949100E7
:020ED80008957B
:020EDA00089579
:020EDC00089577
:00000001FF
