:100000000C943D000C941C1E0C941C1E0C941C1E85
:100010000C94A0150C941C1E0C94F9150C941C1E29
:100020000C941C1E0C941C1EDB065A07D6073908BC
:100030005408EF086E0987090100010280010203DC
:100040004D003C4A034D038D80038D03A3003E9574
:1000500003A303AF8003AF03D4003EAB03D403DE9E
:100060008003DE03EA003ED003EA03F68003F603D2
:10007000F7003EDC03F703FB800011241FBECFEF27
:10008000D8E0DEBFCDBFE8E3F0E040E017C0B591B7
:10009000A59135912591059107FD0CC0959185910C
:1000A000EF01F92FE82F05900D92A217B307D9F7AA
:1000B000FE0104C01D92A217B307E1F7E937F40768
:0E00C00031F70E9486060C946B1DF894FFCF5A
:1000CE00A2E2B0E0EDE6F0E00C94271B29833A8320
:1000DE004B835C8329013A01E89477F8411451046B
:1000EE006104710409F4FFC569877A878B879C8741
:1000FE004B015C016115710500E880070FE3900765
:10010E0009F4F1C56B017C01E894F7F811E0C11612
:10011E00D10410E8E1061FE7F1060CF0DFC5A1E0FF
:10012E004A165104A0E86A06AFE77A060CF0D6C567
:10013E0097FF42C041145104B0E86B06BBE47B0646
:10014E00ECF541145104E0E86E06EFE37E060CF484
:10015E0059C05301420117E1B594A794979487941F
:10016E001A95D1F7FFE78F1A9108A108B108E7E1B8
:10017E00F0E0E819F909530142010E2E04C0B594BE
:10018E00A794979487940A94D2F78D829E82AF8219
:10019E00B88604C0880C991CAA1CBB1CEA95D2F721
:1001AE00481459046A047B0469F5ED81E170B2E0EC
:1001BE009B2E9E1A9D8227C01D8202C002E00D83D7
:1001CE004114510410E861061FE77106E1F4C114F1
:1001DE00D10480E8E8068FE3F80609F484C54CF0F4
:1001EE0089809A80AB80BC80B7FC82C5CA01B901F8
:1001FE0082C5E980FA800B811C8117FF79C5CA017F
:10020E00B9017FC01D822D8B3E8B4F8B588F4B01BA
:10021E005C014114510400E860060FE3700679F4A6
:10022E00E980FA800B811C8117FF65C59B01AC012B
:10023E0060E070E080E89FE30E94111E5CC50981BA
:10024E001A812B813C8101151105210540E43407EB
:10025E0029F49B01AC010E94151E4DC589819A811E
:10026E00AB81BC810097A105BF4359F409851A855E
:10027E002B853C8537FD05C0C501B4010E947D115B
:10028E003AC5C501B4010E941E1EC114D104E10479
:10029E00F10449F01FE3B1228114910420E8A20673
:1002AE002FE3B20681F589809A80AB80BC80B7FEC1
:1002BE0008C09B01AC0160E070E080E89FE30E9403
:1002CE00111E89849A84AB84BC84B7FE14C500E8E1
:1002DE00E01A0FE3F00A1D81C12AC114D104E10412
:1002EE00F10459F481E290E09093010180930001B2
:1002FE006FEF7FEF8FEF9FE7FEC40D81013009F0A6
:10030E00FAC49058F8C489849A84AB84BC84B7FE2E
:10031E0010C09D80992031F3092D013051F4812CAC
:10032E00912CA12CA0E8BA2E89869A86AB86BC8623
:10033E0004C019861A861B861C8601E040165104DD
:10034E0061040DE470060CF488C018EFC1161FEF9F
:10035E00D1061FE7E1061FE3F1063CF489809A807F
:10036E00AB80BC80B7FE41C317C308E0C016D104F2
:10037E0000E8E0060FE3F0065CF089809A80AB801F
:10038E00BC80181419041A041B040CF405C32DC3E5
:10039E0020E030E040E85FE30E94CB1D6B017C0162
:1003AE0020E03AEA48EB5FE30E94151E4B015C0128
:1003BE0020E735EA4CEE56E3C701B6010E94151E42
:1003CE0069837A838B839C8320E030E040E85EE390
:1003DE00C701B6010E94151E9B01AC016BEA7AEAB9
:1003EE008AEA9EE30E94CB1DA70196010E94151E6C
:1003FE009B01AC0160E070E080E09FE30E94CB1DAA
:10040E002B013C01A7019601C701B6010E94151EE2
:10041E009B01AC01C301B2010E94151E2BE33AEA07
:10042E0048EB5FE30E94151E9B01AC0169817A8146
:10043E008B819C810E94CB1D6B017C019B01AC01C9
:10044E00C501B4010E94CC1D6627707F6D837E832B
:10045E008F839887A501940120C2C114D10400E8AE
:10046E00E006F1046CF420E030E040E85BE40E942A
:10047E00151E6B017C0148EE5FEF6FEF7FEF03C03F
:10048E0040E050E0BA01D701C601F7E1B595A79556
:10049E0097958795FA95D1F78F579109A109B109CB
:1004AE004C015D01840E951EA61EB71E898A9A8A7E
:1004BE00AB8ABC8AE894E7F8FF244601570168949A
:1004CE00A7F80FE3B02A12E7C11614ECD1061CE10F
:1004DE00E106F104B4F027EDC21623EBD2062DE5AA
:1004EE00E206F1049CF089899A89AB89BC89019650
:1004FE00A11DB11D898B9A8BAB8BBC8B90E8A91A71
:10050E00B1081D821E821F82188608C0E12CF12CB4
:10051E008701E394ED82FE820F8318870D811E8181
:10052E00000F111F000F111F1AA309A3F801E154A8
:10053E00FC4FE080F18002811381ED86FE860F87ED
:10054E00188BA8019701C501B4010E94CB1D698FBC
:10055E007A8F8B8F9C8FA8019701C501B4010E94E1
:10056E00CC1D9B01AC0160E070E080E89FE30E942F
:10057E00111E6D8F7E8F8F8F98A39B01AC01698D9D
:10058E007A8D8B8D9C8D0E94151E69837A838B8349
:10059E009C8349805A806B807C80442400EF5022DB
:1005AE0075016401F594E794D794C794CC2410EFA9
:1005BE00D122E894F5F86894F5F8D701C601A05C4D
:1005CE00BF4FCD80DE80EF80F88475E1CC0CDD1C52
:1005DE00EE1CFF1C7A95D1F7C80ED91EEA1EFB1E23
:1005EE00A7019601C301B2010E94151E9B01AC0129
:1005FE00698D7A8D8B8D9C8D0E94CB1D6D837E8334
:10060E008F8398872D853E854F855889C701B60102
:10061E000E94CB1D9B01AC01C501B4010E94CB1DF4
:10062E00A30192010E94151E9B01AC016D817E817A
:10063E008F8198850E94CB1D2D8D3E8D4F8D58A19B
:10064E000E94151E6D837E838F83988729813A8140
:10065E004B815C81CA01B9010E94151E6B017C01A0
:10066E0022E431EF43E55EE30E94151E25E532E3F9
:10067E004CE65EE30E94CC1DA70196010E94151E5A
:10068E0025E033EA4BE85EE30E94CC1DA7019601FC
:10069E000E94151E2BEA3AEA4AEA5EE30E94CC1D3E
:1006AE00A70196010E94151E27EB3DE64BED5EE37A
:1006BE000E94CC1DA70196010E94151E2AE939E958
:1006CE0049E15FE30E94CC1D4B015C01A70196013D
:1006DE00C701B6010E94151E9B01AC01C501B401F4
:1006EE000E94151E6B017C01A301920169817A8122
:1006FE008B819C810E94CC1D2D813E814F8158851E
:10070E000E94151EA70196010E94CC1D6B017C0153
:10071E00A3019201C301B2010E94151E6D877E874F
:10072E008F87988B20E030E040E450E40E94CC1D8F
:10073E00A70196010E94CC1D4B015C01882420EF7D
:10074E009222A5019401C301B2010E94151E2B0134
:10075E003C0120E030E040E450E4C501B4010E94C9
:10076E00CB1D2D853E854F8558890E94CB1D9B0143
:10077E00AC01C701B6010E94CB1D29813A814B8184
:10078E005C810E94151E6B017C01A50194016D8197
:10079E007E818F8198850E94151E9B01AC01C70139
:1007AE00B6010E94CC1D4B015C019B01AC01C30143
:1007BE00B2010E94CC1D6B017C01CC2430EFD32200
:1007CE0020E030E446E75FE3C701B6010E94151E44
:1007DE0069837A838B839C83A3019201C701B6013F
:1007EE000E94CB1D9B01AC01C501B4010E94CB1D23
:1007FE002FE438E346E75FE30E94151E4B015C01D0
:10080E0026EC33E246EF58EBC701B6010E94151EE7
:10081E009B01AC01C501B4010E94CC1DE9A1FAA156
:10082E00E155FC4F20813181428153810E94CC1DC4
:10083E006B017C0169897A898B899C890E943918A0
:10084E004B015C0109A11AA109541C4FD8014D900E
:10085E005D906D907C90A701960169817A818B8164
:10086E009C810E94CC1DA30192010E94CC1DA5016A
:10087E0094010E94CC1D6627707F6D837E838F83CB
:10088E009887A50194010E94CB1DA30192010E949D
:10089E00CB1D29813A814B815C810E94CB1D9B012E
:1008AE00AC01C701B6010E94CB1D4B015C01CD8886
:1008BE00DE88EF88F88CCC24B0EFDB22A7019601FE
:1008CE006D897E898F89988D0E94CB1D2D813E81E9
:1008DE004F8158850E94151E2B013C012D893E89A2
:1008EE004F89588DC501B4010E94151E9B01AC01A4
:1008FE00C301B2010E94CC1D69837A838B839C83D2
:10090E00A70196016D817E818F8198850E94151EAB
:10091E00962EA72EB82E892E6D87798B182F092F1C
:10092E00262F372F482F592F69817A818B819C81F1
:10093E000E94CC1D6B017C016D837E838F83988713
:10094E0081E0C816D104E10483E4F8062CF52D816C
:10095E003E814F815885211531054105534419F5C6
:10096E002CE33AEA48E353E369817A818B819C81D7
:10097E000E94CC1D2B013C01292D3A2D4B2D582DBB
:10098E00C701B6010E94CB1D9B01AC01C301B20190
:10099E000E94041E181674F589859A85AB85BC8550
:1009AE00A068BF6798C1D701C601BF770197A6415E
:1009BE00B344DCF42D813E814F81588521153105DC
:1009CE004641534CB9F4292D3A2D4B2D582DC701C4
:1009DE00B6010E94CB1D9B01AC0169817A818B818E
:1009EE009C810E94FF1D18162CF069857A858B85D7
:1009FE009C8581C1D701C601BF7781309105A105C4
:100A0E00EFE3BE070CF46AC037E1B595A79597954D
:100A1E0087953A95D1F78E5740E050E060E870E048
:100A2E008A019B0104C035952795179507958A95E0
:100A3E00D2F7C00ED11EE21EF31E26013701E89436
:100A4E0077F847E175946794579447944A95D1F790
:100A5E001FE7411A5108610871088FEF9FEFAFE74A
:100A6E00B0E0042C04C0B595A795979587950A9488
:100A7E00D2F780959095A095B0959C01AD012C2153
:100A8E003D214E215F21E894E7F8FF246894E7F8B2
:100A9E0087E190E0841995092601370104C0759409
:100AAE006794579447948A95D2F7ED80FE800F8114
:100ABE00188517FF08C07094609450944094411CA0
:100ACE00511C611C711C692D7A2D8B2D982D0E9445
:100ADE00CB1D6D87798B182F092F03C0412C512CFC
:100AEE00320129813A814B815C816D857989812F13
:100AFE00902F0E94CC1D4B015C01882420E892228D
:100B0E0020E032E741E35FE3C501B4010E94151E08
:100B1E006D837E838F8398872D853989412F502F42
:100B2E00C501B4010E94CB1D9B01AC0169817A8184
:100B3E008B819C810E94CB1D28E132E741E35FE36C
:100B4E000E94151E6B017C012CE83EEB4FEB55E32A
:100B5E00C501B4010E94151E9B01AC01C701B6016F
:100B6E000E94CC1D4B015C019B01AC016D817E810D
:100B7E008F8198850E94CC1D6B017C012D813E8159
:100B8E004F8158850E94CB1D9B01AC01C501B4015C
:100B9E000E94CB1D69837A838B839C83A701960168
:100BAE00C701B6010E94151E4B015C012CE43BEB04
:100BBE0041E353E30E94151E2EE03AEE4DED55E350
:100BCE000E94CB1DA50194010E94151E25E533EB55
:100BDE004AE858E30E94CC1DA50194010E94151EFF
:100BEE0021E63BE046E35BE30E94CB1DA5019401A9
:100BFE000E94151E2BEA3AEA4AE25EE30E94CC1DE1
:100C0E00A50194010E94151E9B01AC01C701B601FE
:100C1E000E94CB1D4B015C019B01AC01C701B601CB
:100C2E000E94151E6D837E838F83988720E030E0AF
:100C3E0040E050E4C501B4010E94CB1D9B01AC0104
:100C4E006D817E818F8198850E94111E4B015C0102
:100C5E0029813A814B815C81C701B6010E94151E24
:100C6E0029813A814B815C810E94CC1D9B01AC0194
:100C7E00C501B4010E94CB1DA70196010E94CB1D98
:100C8E009B01AC0160E070E080E89FE30E94CB1D09
:100C9E005301420127E1880C991CAA1CBB1C2A9502
:100CAE00D1F7860E971EA81EB91E8114910430E846
:100CBE00A306B10424F4A2010E94521602C0C5017B
:100CCE00B40189849A84AB84BC8486269726A82690
:100CDE00B926D501C401BC01CD010DC060E070E0A4
:100CEE0080EC9FE708C060E070E080E89FE303C0FF
:0E0CFE0060E070E0CB01A296E0E10C94431B95
:100D0C00CF93DF9300D000D0CDB7DEB7539A5B986A
:100D1C000E94C41D0E94461D0E94E11C539A0E9411
:100D2C00911A0E94CF1A0E94391D19821A821B82B5
:100D3C001C820E948B1C0E9445150E94FA1DE12CFE
:100D4C00F12C8701E39420E030E0A90160E280E01F
:100D5C000E946F0D6AE570E080E090E00E94091B34
:100D6C00812C912C0F2EF7E06F2EF02D0F2EF0E230
:100D7C004F2EF3E05F2EF02D0F2EF6E03F2EF02DD0
:100D8C000F2EF5E02F2EF02D0F2EF2E37F2EF02DEF
:100D9C00E091F4038E2F90E08830910508F0B4C2F6
:100DAC00FC01EC5EFF4F0C94F41D89EF90E0019771
:100DBC00F1F700C00000A4014F5F5F4F9A01369518
:100DCC002795ABE7B4E10E940E1D4C0196948794D5
:100DDC00789CC001799C900D11244A01881A990ABB
:100DEC0099F48091DC039091DD03823091052CF015
:100DFC001092DD031092DC030DC001969093DD037D
:100E0C008093DC030E94091E8091DC039091DD032A
:100E1C00009769F444E551E061E081E00E948E1B8B
:100E2C004FE551E061E082E00E948E1B0EC00197FD
:100E3C0061F44FE651E061E081E00E948E1B4FE7C8
:100E4C0051E061E082E00E948E1B0E94131C811114
:100E5C0008C00E94271C811104C00E943B1C8823DF
:100E6C0061F081E08093F4031092DD031092DC03B7
:100E7C000E94091E812C912C8BCF0E94D51B8111B5
:100E8C0005C00E944F1C882309F482CF81E0809317
:100E9C00F7031092DD031092DC030E94091E3092BE
:100EAC00F403812C912C74CF89EF90E00197F1F72A
:100EBC0000C00000A4014F5F5F4F9A013695279543
:100ECC00ABE7B4E10E940E1D4C0196948794789C7C
:100EDC00C001799C900D11244A01881A990A81F459
:100EEC008091DC039091DD038330910521F482E045
:100EFC008093F4033AC001969093DD038093DC0356
:100F0C008091DC039091DD03009769F44DE851E08A
:100F1C0061E081E00E948E1B4CE951E061E082E0CF
:100F2C000E948E1B2EC08130910569F44CEA51E071
:100F3C0061E081E00E948E1B47EB51E061E082E0B2
:100F4C000E948E1B1EC08230910569F44EEB51E05D
:100F5C0061E081E00E948E1B4CEC51E061E082E08C
:100F6C000E948E1B0EC0039761F443ED51E061E0CB
:100F7C0081E00E948E1B41EE51E061E082E00E9414
:100F8C008E1B0E94271C882309F402CF82E08093D9
:100F9C00F4030E94091E1092DD031092DC03F8CEBC
:100FAC004091E0035091E10361E081E00E948E1BCF
:100FBC004091E2035091E3036BE081E00E948E1BB1
:100FCC004CEE51E0632D82E00E948E1B4091DE03BB
:100FDC005091DF0361E082E00E948E1B0E94131C83
:100FEC00882389F00E94091E81E08093F50348EF65
:100FFC0051E061E00E948E1B43E052E061E082E030
:10100C000E941D1D14C00E943B1C882381F00E946D
:10101C00091E1092F5034CE052E061E081E00E9461
:10102C008E1B43E052E061E082E00E941D1D0E9495
:10103C00271C882329F083E08093F4030E94091E67
:10104C000E94D51B882321F01092F4030E94091EE4
:10105C000E944F1C882309F49BCE84E08093F403F8
:10106C000E94091E95CE40E351E061E081E00E94B0
:10107C008E1B8091F503882339F048E451E061E040
:10108C0082E00E941D1D06C040E451E061E082E058
:10109C000E941D1D84E08093F4037ACE4091E803F6
:1010AC005091E90361E081E00E948E1B4091F203B4
:1010BC005091F30323E061E082E00E940417409119
:1010CC00E6035091E70364E082E00E948E1B40919E
:1010DC00F603662D82E00E94811D4091F003509131
:1010EC00F10323E068E082E00E9404174091E403DE
:1010FC005091E5036BE082E00E948E1B0E94271C3E
:10110C00882309F45BC08091F2039091F3039093D0
:10111C00EF038093EE038091F0039091F103909391
:10112C00ED038093EC038091EE039091EF03880F15
:10113C00991F9C01220F331F220F331F820F931F05
:10114C009093EB038093EA038091EC039091ED0371
:10115C0040E251E061E081E00E948E1B4091EE0381
:10116C005091EF0323E061E082E00E94041740916C
:10117C00E6035091E70364E082E00E948E1B4091ED
:10118C00F603662D82E00E94811D4091EC03509184
:10119C00ED0323E068E082E00E9404174091E40331
:1011AC005091E5036BE082E00E948E1B4EE151E012
:1011BC0060E181E00E941D1D2092F4030E94D51B6A
:1011CC00882309F4E5CD82E08093F4030E94091E84
:1011DC00DFCD0E94FA1D60E070E0CB010E94091B7C
:1011EC0019821A821B821C826091EE037091EF03AC
:1011FC00C2010E94771C8091EE039091EF03079738
:10120C002CF4CB0163E070E00E94771C072E000CDD
:10121C00880B990B0E94091B6091EA037091EB03F8
:10122C0080E49FE10E94771C072E000C880B990B21
:10123C000E94391820E030E040E251E40E94CB1DBE
:10124C009B01AC0160E070E583EC97E40E94111EF9
:10125C0069837A838B839C8369817A818B819C815E
:10126C000E9457195B016C0110EAE12E16E8F12E71
:10127C0001E010E02AE030E040E050E060E080E087
:10128C000E94900B69817A818B819C810E945719F5
:10129C005B016C012AE030E040E050E061E080E06E
:1012AC000E94900B0E94FA1D81E00E949C1D80916F
:1012BC00F503882311F05B9A01C05B988091F703CA
:1012CC00882319F03092F40363CD1092F40360CDAF
:1012DC0047E152E061E081E00E948E1B00E315E7DC
:1012EC000E94D51B811104C00E944F1C882329F039
:1012FC001092F7031092F4034BCD0150110981F7B2
:10130C0006C00E948C0E44CD1092F40341CD0E9475
:08131C00B4196092F4033CCD0A
:10132400AEE0B0E0E8E9F9E00C94281B4C016B0155
:101334001A8219828FEF9FEF9C838B831E821D82FA
:1013440058874F833A872987A12CB12CD6016D90F9
:101354007C90F301EA0DFB1D808181110FC0D60141
:10136400ED93FC938081853209F0D3C13F01BFEF37
:101374006B1A7B0AF6017182608219C0853279F397
:10138400B401082E000C990B0E94A4174FEFA41A65
:10139400B40ADCCF8C32ACF08D32F9F489819A81B5
:1013A40081609A8389833196D601ED93FC93D601AB
:1013B400ED91FC9180818B3269F789819A818460F7
:1013C400F0CF803221F489819A818860EACF833218
:1013D40051F489819A818061E4CF803321F4898139
:1013E4009A818260DECFB701C6010E9486199E836E
:1013F4008D8397FF0BC029813A81B1E02B273A8373
:1014040029839195819591099E838D8389819A8100
:1014140080FF03C08D7F9A838983D601ED91FC916F
:10142400119780818E3249F43196ED93FC93B70184
:10143400C6010E9486199C838B83C6010E94711A7F
:10144400582ED601ED91FC918081082E000C990B49
:101454000E94BC1D893609F443C084F4833609F420
:1014640002C134F4853209F427C18136E1F030C178
:101474008436B1F188360CF4D9C02AC1803709F416
:101484009AC03CF48E3609F4BCC08F3609F461C0AE
:101494001FC1853709F440C0883709F476C0833703
:1014A40009F016C1F3C0652D70E0A701CE010B96BB
:1014B4000E940000892B09F426C1D601ED91FC910C
:1014C4001197CF0101968D939C932081AE01455FC6
:1014D4005F4FBE016F5F7F4FC4010E94000010C1C7
:1014E400652D70E0970141E050E0CE010B960E941B
:1014F4001114892B09F407C1F601808191810196A9
:1015040091838083AE01455F5F4FBE016F5F7F4F64
:10151400C4010E94C612F4C0652D70E0970140E03A
:1015240050E0CE010B960E941114892B09F4EBC0F4
:10153400D6018D919C91119701968D939C93AE0148
:10154400455F5F4FBE016F5F7F4FC4010E94F0177C
:10155400D7C0652D70E0970140E050E0CE010B96B6
:101564000E941114892B09F4CEC0F6018081918167
:10157400019691838083AE01455F5F4FBE016F5F2B
:101584007F4FC4010E94AB16BBC0652D70E097016C
:1015940040E050E0CE010B960E941114892B09F40F
:1015A400B2C0D601ED91FC911197CF0101968D93B4
:1015B4009C9320811CC0970140E050E060EF70E0F4
:1015C400CE010B960E941114892B09F49CC0F601DC
:1015D400808191810196918380838B859C85892B61
:1015E40029F420E030E04EEC53E084C028E7AE015B
:1015F400455F5F4FBE016F5F7F4FC4010E948F1034
:101604007FC0A501400F511F652D70E09701CE01E9
:101614000B960E940000892B09F475C0D6018D91A8
:101624009C91119701968D939C9373C0652D70E0E6
:10163400A701CE010B960E940000892B09F463C018
:10164400D601ED91FC911197CF0101968D939C9356
:101654002081AE01455F5F4FBE016F5F7F4FC401C4
:101664000E9400004DC0B0E85B124DC0F6018081BD
:101674009181019691838083D701ED91FC9111971B
:10168400CF0102968D939C93808120C0B0E85B12B9
:101694003AC0F60180819181019691838083D701BC
:1016A400ED91FC911197CF0102968D939C9340810B
:1016B400518120E030E01EC0B0E85B1224C0F60186
:1016C400208131812F5F3F4F318320838B870DC071
:1016D40085E28B87D6016D927C921A8219821E82D2
:1016E4001D828FEF9FEF9C838B8321E030E0AE015E
:1016F400455F5F4FBE016F5F7F4FC4010E94DF19DA
:101704008A0D9B1D07C0F60180819181019691830A
:0C1714008083C5012E96EFE00C94441B6E
:101720003F924F925F926F927F928F929F92AF9271
:10173000BF92CF92DF92EF92FF920F931F93CF93BE
:10174000DF93CDB7DEB764970FB6F894DEBF0FBE58
:10175000CDBF633008F0ABC129013A0194E0491ACA
:10176000510861087108EDEF4E16E7E05E0661046E
:10177000710408F09CC125013601F1E04F1A5108AF
:10178000610871089FEF491659069FE069067104C8
:1017900008F08DC1E114F104E0E10E07110508F035
:1017A00086C1250136014701580169017A01162FCA
:1017B000082F81149104A104B10431F5F4E0CF1A8B
:1017C000D108E108FEEFFF0ACC0CDD1CEE1CFF1C6B
:1017D000CC0CDD1CEE1CFF1CCC0CDD1CEE1CFF1C1D
:1017E000CC0CDD1CEE1CFF1CCC0CDD1CEE1CFF1C0D
:1017F000CC0CDD1CEE1CFF1CCC0CDD1CEE1CFF1CFD
:1018000040E050E0BA01DBC021E04216510461041F
:10181000710409F048C0D501C4010497A109BE4F65
:10182000C80ED91EEA1EFB1ECC0CDD1CEE1CFF1CD4
:10183000CC0CDD1CEE1CFF1CCC0CDD1CEE1CFF1CBC
:10184000CC0CDD1CEE1CFF1CCC0CDD1CEE1CFF1CAC
:10185000CC0CDD1CEE1CFF1CCC0CDD1CEE1CFF1C9C
:10186000B501A4014150510961097E4F440F551F34
:10187000661F771F440F551F661F771F440F551FA4
:10188000661F771F440F551F661F771F440F551F94
:10189000661F771F440F551F661F771F440F551F84
:1018A000661F771F8CC0C301B2010E943718698779
:1018B0007A878B879C87C501B4010E9437182985D8
:1018C0003A854B855C850E94111E20E030E040E0A7
:1018D00053E40E94151E0E9453126D877E878F87E6
:1018E000988BD701C601880F991FAA1FBB1F880FAD
:1018F000991FAA1FBB1F880F991FAA1FBB1F880F04
:10190000991FAA1FBB1F880F991FAA1FBB1F880FF3
:10191000991FAA1FBB1FBC01CD01660F771F881F2F
:10192000991F0E9437182D853E854F8558890E9442
:10193000CC1D20E030E040E054E40E94CB1D0E942A
:1019400057196B017C01D501C401880F991FAA1F8B
:10195000BB1F880F991FAA1FBB1F880F991FAA1FA3
:10196000BB1F880F991FAA1FBB1F880F991FAA1F93
:10197000BB1F880F991FAA1FBB1FBC01CD01660F9B
:10198000771F881F991F0E943718698B7A8B8B8B62
:101990009C8B2D853E854F85588969857A858B85F9
:1019A0009C850E94151E9B01AC0169897A898B89EF
:1019B0009C890E94CB1D0E945719AB01BC011130BC
:1019C00049F018F0123059F00FC00F2EFAE23F2EF6
:1019D000F02D0BC00F2EF2E33F2EF02D06C00F2E80
:1019E000FAE33F2EF02D01C0312C59824A82D701F3
:1019F000C60188279927A370BB2724E0129FF00116
:101A00001124ED55FC4F2081822F8A2B8B83DC82A1
:101A1000CD82D301C20188279927AF70BB27072E3B
:101A20007CE0B695A795979587957A95D1F7702D17
:101A30006A017B01CC24DD24EFE0EE22FF248E2915
:101A40008E835F8348870E94EA1B80E60E94AF1C5A
:101A5000832D0E94531DCE0101967C016E0199E0F9
:101A6000C90ED11CF70181917F010E94531DEC1416
:101A7000FD04C1F70E940D1E013011F46FE201C098
:101A80006FE089288A288B2809F46064113041F0BE
:101A900018F0123049F00BC080E10E94FF1B07C014
:101AA00081E10E94FF1B03C082E10E94FF1B64963C
:101AB0000FB6F894DEBF0FBECDBFDF91CF911F915F
:101AC0000F91FF90EF90DF90CF90BF90AF909F90DD
:0E1AD0008F907F906F905F904F903F900895A1
:101ADE004F925F926F927F928F929F92AF92BF9230
:101AEE00CF92DF92EF92FF920F931F93CF93DF93DC
:101AFE00CDB7DEB72A970FB6F894DEBF0FBECDBFB7
:101B0E0089876A8729013A0147015801862F8F502C
:101B1E008C3408F0E3C0D801C7010197A109B109BF
:101B2E008F3F9F4FAF40B10508F0D8C0411451040C
:101B3E0080E16806710408F0D1C0411451046104BB
:101B4E00710479F4C62ED12C24E0C21AD108D69491
:101B5E00DC2CCC24D794C7940D2C000CEE08FF0877
:101B6E0071C0C801B7010E94371869837A838B83CD
:101B7E009C83C301B2010E94371829813A814B819F
:101B8E005C810E94111E20E030E040E053E40E9490
:101B9E00151E0E9453126D837E838F8398879A85BC
:101BAE0080E8989FB0011124072E000C880B990B2A
:101BBE000E9439182D813E814F8158850E94CC1D7F
:101BCE0020E030E040E054E40E94CB1D0E94571903
:101BDE006B017C01D301C201880F991FAA1FBB1F85
:101BEE00880F991FAA1FBB1F880F991FAA1FBB1F03
:101BFE00880F991FAA1FBB1F880F991FAA1FBB1FF3
:101C0E00880F991FAA1FBB1FBC01CD01660F771F3E
:101C1E00881F991F0E9437182B013C012D813E8190
:101C2E004F81588569817A818B819C810E94151E16
:101C3E009B01AC01C301B2010E94CB1D0E9457193A
:101C4E002B013C012985222319F082E2898302C0EF
:101C5E009AE19983692D89810E94FF1B682D8981E4
:101C6E008F5F0E94FF1BD701C60188279927A3709B
:101C7E00BB27BD018827992789818E5F0E94FF1B94
:101C8E006D2D89818D5F0E94FF1B6C2D89818C5F6C
:101C9E000E94FF1B882499242FE0A222BB24072E2A
:101CAE007CE0B694A794979487947A95D1F7702D8B
:101CBE00D301C20188279927AF70BB27682D6A2BE5
:101CCE0089818B5F0E94FF1B652D89818A5F0E942F
:101CDE00FF1B642D8981895F0E94FF1B2A960FB618
:101CEE00F894DEBF0FBECDBFDF91CF911F910F9144
:101CFE00FF90EF90DF90CF90BF90AF909F908F901E
:0A1D0E007F906F905F904F90089552
:101D18008091D6039091D7038130910509F091C045
:101D28004091E8035091E90361E081E00E948E1B35
:101D38004091DA035091DB0323E061E082E00E94E6
:101D480004174091E6035091E70364E082E00E94A3
:101D58008E1B4091F60367E082E00E94811D40914E
:101D6800D8035091D90323E068E082E00E94041769
:101D78004091E4035091E5036BE082E00E948E1BE2
:101D88004EE151E060E181E00E941D1D2091DA03DF
:101D98003091DB033093EF032093EE038091D80357
:101DA8009091D9039093ED038093EC03220F331F96
:101DB800B901660F771F660F771F260F371F64E676
:101DC80070E00E94771C620F731F7093EB0360939F
:101DD800EA0340E251E061E081E00E948E1B4091FD
:101DE800DA035091DB0323E061E082E00E940417EC
:101DF8004091E6035091E70364E082E00E948E1B65
:101E08004091F60367E082E00E94811D4091D8036B
:101E18005091D90323E068E082E00E9404174091C2
:101E2800E4035091E5036BE082E00E948E1B4EE1D3
:101E380051E060E181E00E941D1D85E08093F4037C
:101E480008958230910599F440E351E061E081E022
:101E58000E948E1B40E451E061E082E00E941D1D5B
:101E68001092F5035B9886E08093F403089583301D
:101E78009105A1F440E351E061E081E00E948E1BEE
:101E880048E451E061E082E00E941D1D81E08093FA
:101E9800F5035B9A86E08093F403089584309105F6
:101EA80009F03ACF0E94091E40E551E061E081E067
:101EB8000E948E1B23E040E050E063E081E00E9436
:101EC80004174091EE035091EF0323E066E081E0B0
:101ED8000E9404174091EC035091ED0323E069E060
:101EE80081E00E94041723E040E050E06CE081E0CC
:101EF8000E9404172DE040E050E061E082E00E947B
:101F080004174EE151E060E182E00E941D1D86E069
:061F18008093F40308951C
:101F1E00CF92DF92EF92FF920F931F93CF93DF93A7
:101F2E00CDB7DEB7A0970FB6F894DEBF0FBECDBF0C
:101F3E008C0142E050E069E572E00E94B01A892BF4
:101F4E0089F5F80101900020E9F73197E01BF10BBC
:101F5E00339718F1F8018281813361F482E090E0C9
:101F6E009093D7038093D6035B9A8CE592E00E9400
:101F7E00F01CBFC0803361F483E090E09093D703F0
:101F8E008093D6035B9889E692E00E94F01CB1C064
:101F9E0087E792E00E94F01CACC08EE892E00E94AF
:101FAE00F01CA7C042E050E06DEA72E0C8010E944A
:101FBE00B01A892B09F052C081E090E09093D703BC
:101FCE008093D603F80101900020E9F73197E01BCA
:101FDE00F10B3397F0F1C80102960E945417062FA9
:101FEE00172FE82EF92E9F938F937F936F9380EB8D
:101FFE0092E09F938F93CE0101966C019F938F93E6
:10200E000E949D1CC6010E94F01C602F712F8E2D08
:10201E009F2D20E432E44FE050E00E94BE1B30932F
:10202E00DB032093DA0328EE33E040E050E00E9419
:10203E00BE1B3093D9032093D803802F912F9093FA
:10204E00D5038093D4030FB6F894DEBF0FBECDBF79
:10205E0050C086EC92E00E94F01C4BC042E050E073
:10206E0065EE72E0C8010E94B01A892B51F5F80195
:10207E0001900020E9F73197E01BF10B3397E0F068
:10208E00C80102960E9454179F938F937F936F936C
:10209E0088EE92E09F938F938E010F5F1F4F1F93D9
:1020AE000F930E949D1CC8010E94F01C0FB6F8945D
:1020BE00DEBF0FBECDBF1DC08EEF92E00E94F01CA2
:1020CE0018C042E050E06DE173E0C8010E94B01A02
:1020DE00892B59F484E090E09093D7038093D60334
:1020EE0080E293E00E94F01C04C087E393E00E941C
:1020FE00F01CA0960FB6F894DEBF0FBECDBFDF91D9
:10210E00CF911F910F91FF90EF90DF90CF90089598
:10211E00AFE0B0E0E5E9F0E10C94251B1C016B018A
:10212E005A8349832B83FB0182819381848095801E
:10213E0000811181A680B78097FD02C00D7F02C07D
:10214E0081E090E0E981FA81408051806280738065
:10215E009801207133273D832C83740104FF08C03E
:10216E00411451046104710419F032E0E31AF108CC
:10217E00F801E870FF27FF83EE8303FF03C0F1E051
:10218E00EF1AF108F6010084F185E02D3197FF87F3
:10219E00EE87EA0DFB1D10829C012E193F0939872F
:1021AE002887C801827099279B878A87EB818E2F9B
:1021BE00EE0F990B9C01215431093D872C872E85FA
:1021CE003F852230310530F48C819D81892B09F0B9
:1021DE0042C05CC0411451046104710461F18E85EA
:1021EE009F8501979F878E87C2018F7099278A30AE
:1021FE00910514F4C09602C0895A9F4FEC85FD8557
:10220E007A9748F49C012062215631092A31310512
:10221E0010F40E94931DEE85FF85EA0DFB1D808351
:10222E00F1E0EF1AF10884E076946794579447949E
:10223E008A95D1F7C4CF888599858E0D9F1D181666
:10224E0019066CF21E141F040CF0BECFEA85FB8536
:10225E00EF2B29F6B9CFE981FA8180819181A28194
:10226E00B381892B8A2B8B2B89F0EE85FF85EA0DA6
:10227E00FB1D31972B8120838E859F8502979F872B
:10228E008E87FC01EA0DFB1D80E38083EE81FF81CA
:10229E00EF2B59F02E853F85215031093F872E8730
:1022AE00F901EA0DFB1D80E28083F6014085518520
:1022BE00415051092E853F85421B530BB9016A0DC2
:1022CE007B1D9401C1010E94EA189C01F1018081DD
:1022DE00918190FF06C0F601828193818217930748
:0C22EE000CF4C9012F96E2E10C94411B96
:1022FA00A4E0B0E0E3E8F1E10C94271B8B019C0118
:10230A00AC0140785F776B017C0140385F4761F42C
:10231A00E894E7F8FF24C114D104E104F10409F0B8
:10232A00ACC097FDAAC0AEC0E894F7F8C114D104B6
:10233A00E104F10409F4A6C097FF07C081E290E026
:10234A00909301018093000198C0DC01CB0167E101
:10235A00B595A795979587956A95D1F70097A105A1
:10236A00B105B9F480E090E0DC0127FD08C0000F58
:10237A00111F221F331F0196A11DB11DF6CF019710
:10238A00A109B109B095A095909581959F4FAF4F3E
:10239A00BF4F8F579109A109B1092F7733272068B9
:1023AA0080FF04C0000F111F221F331FAC01BD01A3
:1023BA00759567955795479549835A836B837C83AF
:1023CA00000F111F221F331F49E150E0812C912C6D
:1023DA005401B394C12CD12C760180E090E0DC0149
:1023EA002C013D01480C591C6A1C7B1C041515055F
:1023FA002605370574F0D301C201880D991DAA1D5F
:10240A00BB1D0419150926093709C80CD91CEA1C71
:10241A00FB1C000F111F221F331FB694A794979419
:10242A00879441505109E1F601151105210531053D
:10243A0051F0970186010170112722273327C00E18
:10244A00D11EE21EF31EF594E794D794C79451EC7B
:10245A00F51A89819A81AB81BC8127E1880F991F7E
:10246A00AA1FBB1F2A95D1F78C0D9D1DAE1DBF1D3E
:10247A00482F392F2A2F5B2F09C040E030E020EC8B
:10248A005FE704C0462F372F282F592F642F732F49
:0C249A00822F952F2496E0E10C94431B48
:1024A6008F929F92AF92BF92CF92DF92EF92FF925E
:1024B6000F931F938B019C0157E13695279517952E
:1024C60007955A95D1F71127A8014F57510947315A
:1024D60051050CF045C057FD2DC00FEF1FEF2FE73C
:1024E60030E004C035952795179507954A95D2F79C
:1024F6004801590186229722A822B92289288A28CA
:102506008B2871F197FF07C0DC01CB01800F911F6B
:10251600A21FB31F02C0DC01CB01009510952095C8
:10252600309580239123A223B323482F392F2A2FB6
:102536005B2F1AC097FF0FC08B019C01000F111F64
:10254600221F331F012B022B032B51F040E030E0FA
:1025560020E85FEB09C040E030E020E050E004C036
:10256600462F372F282F592F642F732F822F952F01
:102576001F910F91FF90EF90DF90CF90BF90AF909B
:062586009F908F90089564
:10258C00A2E0B0E0ECECF2E10C94251B3C016B01F9
:10259C00FB0122813381A480B580808191819A8353
:1025AC00898386809780FA01208031804280538015
:1025BC00B201A10157FE07C044275527BA014219A1
:1025CC0053096409750937FD03C08D7F9A8389838C
:1025DC00950157FC05C0898182FD02C083FF02C0B2
:1025EC0021503109CE0101967C010AE010E0C601B0
:1025FC000E94E01457FC03C0298122FF0AC00197F6
:10260C00F401E80FF91F57FC02C02BE209C02DE2C0
:10261C0007C023FF06C00197F401E80FF91F20E261
:10262C00208309811A81F601408551854150510959
:10263C00481B590BB401680F791F9501C3010E9407
:10264C00EA189C01F3018081918190FF06C0F6018C
:10265C0082819381821793070CF4C9012296E2E1DF
:04266C000C94411B6E
:1026700010C00E94D91D58F00E94D21D40F029F4CC
:102680005F3F29F00C94EE1D51110C94E11D0C9448
:10269000191E0E942D1A68F39923B1F3552391F363
:1026A000951B550BBB27AA2762177307840738F0C1
:1026B0009F5F5F4F220F331F441FAA1FA9F335D01E
:1026C0000E2E3AF0E0E832D091505040E695001CD2
:1026D000CAF72BD0FE2F29D0660F771F881FBB1F8C
:1026E000261737074807AB07B0E809F0BB0B802D6A
:1026F000BF01FF2793585F4F3AF09E3F510578F096
:102700000C94EE1D0C94E11D5F3FE4F3983ED4F36E
:10271000869577956795B795F7959F5FC9F7880F69
:10272000911D9695879597F90895E1E0660F771FBB
:10273000881FBB1F621773078407BA0720F0621B4C
:0E274000730B840BBA0BEE1F88F7E09508951B
:10274E000FC00E94D21D38F00E94D91D20F0952393
:10275E0011F00C94EE1D0C94191E11240C94E11D15
:10276E000E942D1A70F3959FC1F3950F50E0551FDF
:10277E00629FF001729FBB27F00DB11D639FAA27C8
:10278E00F00DB11DAA1F649F6627B00DA11D661F17
:10279E00829F2227B00DA11D621F739FB00DA11D38
:1027AE00621F839FA00D611D221F749F3327A00DF2
:1027BE00611D231F849F600D211D822F762F6A2F8E
:1027CE0011249F5750409AF0F1F088234AF0EE0FF3
:1027DE00FF1FBB1F661F771F881F91505040A9F720
:1027EE009E3F510580F00C94EE1D0C94E11D5F3F51
:1027FE00E4F3983ED4F3869577956795B795F7955C
:10280E00E7959F5FC1F7FE2B880F911D96958795D3
:04281E0097F9089589
:10282200CF93DF93DC01F90168387105F1F05CF4B4
:102832006138710561F164387105A1F16038710583
:1028420009F051C02FC0603C710509F441C0603FDE
:102852007105F1F1603A710509F045C0C081D1817D
:10286200CE0102969183808325C0C081D181CE01A1
:10287200029691838083452B39F04881042E000C07
:10288200550B660B770B1CC0488150E029C0C081F4
:10289200D181CE01049691838083488159816A81D6
:1028A2007B810EC0C081D181CE010296918380834B
:1028B200452BA1F048815981052E000C660B770B40
:1028C2004D935D936D937C93139781E090E00DC0DF
:1028D200C081D181CE010296918380834881598142
:1028E20060E070E0EDCF80E090E0DF91CF9108955D
:1028F20011C00E94D21D38F00E94D91D20F039F477
:102902009F3F19F426F40C94191E0EF4E095E7FB90
:102912000C94EE1DE92F0E942D1A58F3BA17620784
:1029220073078407950720F079F4A6F50C94E01D4F
:102932000EF4E0950B2EBA2FA02D0B01B9019001D8
:102942000C01CA01A0011124FF27591B99F0593F1C
:1029520050F4503E68F11A16F040A22F232F342F64
:102962004427585FF3CF469537952795A795F040B2
:102972005395C9F77EF41F16BA0B620B730B840BC7
:10298200BAF09150A1F0FF0FBB1F661F771F881F7F
:10299200C2F70EC0BA0F621F731F841F48F48795D7
:1029A20077956795B795F7959E3F08F0B0CF9395C9
:0E29B200880F08F09927EE0F979587950895E6
:1029C000A0E0B0E0E6EEF4E10C94271BDC01280166
:1029D0001696AD90BC901797F70180819181129661
:1029E000ED91FC9113971896CD91DC911997219751
:1029F000F7FF02C0E1E0F0E0CA0DDB1D18826901BB
:102A0000A1E0B0E08F01021B130B4C01F2E08F221A
:102A10009924052C000C66087708CE018A199B09B9
:102A2000CA15DB0519F1411551056105710589F0DC
:102A3000CB01BA01A30192010E944F1ACA01A62F2D
:102A4000B72F605D6A9341E0C41AD108A901BC01A7
:102A5000E4CF98012C0D3D1D121613064CF31C14E7
:102A60001D0434F48114910419F702C080E090E051
:102A7000AB2B31F4F701208131812F7E318320830C
:0A2A8000CDB7DEB7E0E10C94431B74
:102A8A00E3EAF3E010821182128213821482158221
:102A9A0016821782108611861286138662ED87EBDC
:102AAA000E94FF1B60E880E10E94FF1B60E881E151
:102ABA000E94FF1B60E882E10E94FF1B60E883E13D
:102ACA000E94FF1B60E884E10E94FF1B60E885E129
:102ADA000E94FF1B60E886E10E94FF1B60E887E115
:102AEA000E94FF1B6CE080E10E94FF1B6CE081E109
:102AFA000E94FF1B6CE082E10E94FF1B6CE083E1F5
:102B0A000E94FF1B6CE084E10E94FF1B6CE085E1E0
:102B1A000E94FF1B6CE086E10E94FF1B6CE087E1CC
:102B2A000E94FF1B85E90E942319682F6F7785E9A8
:062B3A000E94FF1B08953C
:102B40001F921FB61F9211242F933F938F939F9331
:102B500030B120B1832F817090E0880F991F21FB45
:102B6000992790F9892B9091FA0391110DC081302A
:102B700059F42091F2033091F3032F5F3F4F3093CC
:102B8000F3032093F20310C09091FA0391110CC04B
:102B9000823051F42091F2033091F3032150310936
:102BA0003093F3032093F2032091F2033091F30367
:102BB0002E3131053CF02EE130E03093F3032093C9
:102BC000F2030DC02091F2033091F303243031055C
:102BD00034F423E030E03093F3032093F203809346
:102BE000FA039F918F913F912F911F901FBE1F90CD
:022BF000189536
:102BF2001F921FB61F9211242F933F938F939F937F
:102C020036B126B136FB882780F990E0880F991FEC
:102C1200922F991F9927991F892B9091F90391114E
:102C22000DC0813059F42091F0033091F1032F5FF0
:102C32003F4F3093F1032093F00310C09091F903BA
:102C420091110CC0823051F42091F0033091F103C4
:102C5200215031093093F1032093F0032091F003C6
:102C62003091F103273E33403CF027EE33E03093BE
:102C7200F1032093F0030BC02091F0033091F10394
:102C82001216130624F01092F1031092F0038093AF
:102C9200F9039F918F913F912F911F901FBE1F901B
:022CA200189583
:102CA4000F931F93CF93DF93EA0140385105D4F07B
:102CB40020E030E040E05FE70E94151E9E012F57A0
:102CC4003109203831056CF120E030E040E05FE765
:102CD4000E94151ECE5FD109C038D1051CF1CFE783
:102CE400D0E020C042385F4FECF420E030E040E810
:102CF4005CE00E94151E9E012A593F4F22384FEF77
:102D040034077CF420E030E040E85CE00E94151ECB
:102D1400C453DF4FC2382FEFD20724F4C2E8DFEFE9
:102D240001C0E9019E0121583F4F8901330F220B55
:102D3400330BA9019801E7E1220F331F441F551FEC
:102D4400EA95D1F70E94151EDF91CF911F910F9143
:022D54000895E0
:102D5600A2E0B0E0E1EBF6E10C94291B4C016B011B
:102D6600FB012281338164807580808191819A8301
:102D76008983A680B78037FD03C08D7F9A838983B8
:102D8600FA014081518162817381CE0101967C01F5
:102D960008E010E09301C6010E94E014298124FF97
:102DA60006C00197F501E80FF91F20E3208329816A
:102DB60023FF06C00197F501E80FF91F20E22083E3
:102DC60009811A81F6014085518541505109481BF8
:102DD600590BB501680F791F9301C4010E94EA18C7
:102DE6009C01F4018081918190FF06C0F6018281E9
:102DF6009381821793070CF4C9012296EEE00C9496
:022E0600451B6A
:102E0800FF920F931F93CF93DF9300D0CDB7DEB718
:102E18008A01F22E0E94D11CFF20D1F16F2D70E0A3
:102E280061507109072E000C880B990B0E94391804
:102E38009B01AC0160E070E080E291E40E946700D1
:102E48000E9457197A83698369817A81C8010E942F
:102E5800631CAB019B01ADECBCEC0E940E1D96956A
:102E680087959695879596958795880F991F9C01C4
:102E7800220F331F220F331F820F931F9A01281B23
:102E8800390BC901805D0E94751BFA94F110C6CFF9
:102E98000F900F90DF91CF911F910F91FF900895A0
:102EA800A0E0B0E0EAE5F7E10C942F1BAC01FA01D1
:102EB80090814F5F5F4F9032D1F3292F092E000C7C
:102EC800330B295031092530310588F39B3271F5D0
:102ED80000E010E0319602C000E010E020E030E0B1
:102EE800A901C1910C2E000CDD0BE097CA30D10569
:102EF80078F4AAE0B0E00E94761D6E01DD0FEE08BE
:102F0800FF089B01AC012C193D094E095F09E9CF67
:102F18000115110541F466277727CB01621B730B56
:102F2800840B950B08C0CA01B90105C09D32A1F6F2
:102F380001E010E0CFCFCDB7DEB7E8E00C944B1B33
:102F48000F931F93CF93DF93DB01109719F48FEF43
:102F58009FEF3DC02D913C91119730FF25C01696EB
:102F68004D915C91179714962D913C9115974217A6
:102F7800530778F41296ED91FC911397808312967B
:102F88002D913C9113972F5F3F4F13963C932E93AF
:102F9800129716962D913C9117972F5F3F4F1796D2
:102FA8003C932E93169713C01C96ED91FC911D9798
:102FB800309769F2EB01092F182F0995892B39F6FB
:102FC8008E819F8101969F838E83812F902FDF9121
:082FD800CF911F910F910895A4
:102FE000A2E0B0E0E6EFF7E10C94291B5C016B0175
:102FF000FB012281338184809580808191819A8335
:1030000089836680778037FD03C08D7F9A838983AB
:10301000FA014081518162817381CE0101967C0168
:103020000AE010E09401C6010E94E01409811A81AF
:10303000F6014085518541505109481B590BB30198
:10304000680F791F9401C5010E94EA189C01F501DF
:103050008081918190FF06C0F60182819381821761
:0E30600093070CF4C9012296EEE00C94451B78
:10306E00E89409C097FB3EF4909580957095619514
:10307E007F4F8F4F9F4F9923A9F0F92F96E9BB27CA
:10308E009395F695879577956795B795F111F8CF46
:10309E00FAF4BB0F11F460FF1BC06F5F7F4F8F4FB1
:1030AE009F4F16C0882311F096E911C0772321F0A7
:1030BE009EE8872F762F05C0662371F096E8862F3F
:1030CE0070E060E02AF09A95660F771F881FDAF796
:0A30DE00880F9695879597F90895DD
:1030E800A2E8B0E0EAE7F8E10C942B1B5C014A0186
:1030F800CF57DF4F79836883C158D040C12CD12C7A
:10310800CF57DF4FE881F981C158D04080818823AB
:10311800E9F07401860120E830E0AE014F5F5F4FAF
:10312800BE016F577F4FC5010E9492098C0D9D1DEE
:103138008C159D054CF48FE490E0909301018093E9
:1031480000018FEF9FEF03C06C01DACFC601CE57A5
:08315800DF4FECE00C94471B73
:10316000A0E1B0E0E6EBF8E10C94311BFB01BA0101
:10317000AE014F5F5F4F7A0140E1D7011D924A9542
:10318000E9F742E051E05A8349839C838B83F7FF40
:1031900009C08FE490E090930101809300018FEFCC
:1031A0009FEF14C0A9018C013197FE83ED83C70105
:1031B0000E94A61B4F8158852D813E8142175307DF
:1031C00008F49A01F801E20FF31F10826096E6E01E
:0431D0000C944D1BF3
:1031D400A0E0B0E0E0EFF8E10C942B1B6C015B0184
:1031E4007A01E901480181E08822992400FD03C0A5
:1031F4004217530750F0A701B501C6010E94EC1A0B
:10320400EC16FD0610F0C70117C08E010E191F0938
:103214000115110541F0B60180E290E00E94A41767
:1032240001501109F5CF8114910429F4A701B501C6
:10323400C6010E94EC1ACE01CDB7DEB7ECE00C94C7
:02324400471B26
:103246001F93CF93DF9300D00F92CDB7DEB7182F21
:103256000E94EA1B80E60E94AF1C8983898188311F
:10326600B9F4812F0E94531D8A838A81883291F492
:103276000E948A1D80E60E94FF1C8B838B8180340E
:1032860059F40E94601D89830E940D1E898105C024
:103296008FEF03C08FEF01C08FEF0F900F900F904D
:0832A600DF91CF911F91089503
:1032AE000E94351A88F09F5798F0B92F9927B75179
:1032BE00B0F0E1F0660F771F881F991F1AF0BA95CC
:1032CE00C9F714C0B13091F00E94E01DB1E008952D
:1032DE000C94E01D672F782F8827B85F39F0B93F1F
:1032EE00CCF3869577956795B395D9F73EF490957F
:0E32FE008095709561957F4F8F4F9F4F08957B
:10330C00DC01ED91FC91119780818A3221F080E0F3
:10331C0090E03AE00EC03196ED93FC93DB01ED9119
:10332C00FC911197CF0102968D939C938081918192
:10333C000895ED91FC911197208120532A3068F467
:10334C00389FA001399F500D1124CA01820F911D85
:0C335C0031961196FC93EE93ECCF08958F
:10336800CF930E94AC1DC82F0E94A41DCB3369F4D3
:10337800E091F803F0E0E35BFC4F10828DE493E00A
:103388000E948F0F1092F80314C0E091F803EF33F6
:1033980048F481E08E0F8093F803F0E0E35BFC4F84
:1033A800C083DFCF1092F80382E091E00E94F01C06
:0633B800D8CFCF9108956B
:1033BE00A0E0B0E0E5EEF9E10C942D1B7C01FB01E1
:1033CE00EA01C901A280B380C480D5800081118139
:1033DE00209711F4C7ECD3E0009719F4CE010E94A8
:1033EE002B1DB7FC04C0A816B90608F4C50196013A
:1033FE00AC01BE01C7010E94EA18CDB7DEB7EAE004
:04340E000C94491BB6
:10341200990F0008550FAA0BE0E8FEEF16161706E3
:10342200E807F907C0F012161306E407F50798F04B
:10343200621B730B840B950B39F40A2661F0232B64
:10344200242B252B21F408950A2609F4A140A695E0
:083452008FEF811D811D08951B
:10345A0057FD9058440F551F59F05F3F71F047953B
:10346A00880F97FB991F61F09F3F79F08795089520
:10347A00121613061406551FF2CF4695F1DF08C03F
:10348A00161617061806991FF1CF8695710561055C
:04349A0008940895F5
:10349E00A1E21A2EAA1BBB1BFD010DC0AA1FBB1F4A
:1034AE00EE1FFF1FA217B307E407F50720F0A21BBC
:1034BE00B30BE40BF50B661F771F881F991F1A9429
:1034CE0069F760957095809590959B01AC01BD0153
:0434DE00CF0108957D
:1034E200CF93DF93EC0190E0E92FF0E0EE0FFF1FA6
:1034F200E357FC4F8081811102C081810EC0A881F7
:10350200B9812C91821305C091811196B983A88348
:1035120001C09F5F9B3040F3892FDF91CF910895C7
:1035220081B18C7F81B987B18F7387B982B18F6086
:1035320082B9E8E6F0E080818160808380818460E6
:103542008083EBE6F0E0808183608083EDE6F0E04B
:0E3552008081806C8083D89ADA9A78940895EC
:10356000CF93DF9341155105A9F0DC01FB01EF0179
:103570008D91882351F09191992339F04130510573
:1035800021F041505109891791F390E02881821B65
:0E359000910902C080E090E0DF91CF91089594
:10359E0050B140B1252F217030E0220F331F41FB77
:1035AE00332730F9232B2093FA0336B126B136FB9D
:1035BE00882780F990E0880F991F922F991F9927DD
:0A35CE00991F892B8093F9030895DB
:1035D800A0E0B0E0E2EFFAE10C942F1B6C01EB01E4
:1035E8008A017B01E40EF51ECE15DF0541F08991B5
:1035F800B601082E000C990B0E94A417F5CFC8013C
:0A360800CDB7DEB7E8E00C944B1BD1
:10361200CF92DF92EF92FF926B017C0160E085EA2C
:103622000E94FF1BC701B6016F777727882799276A
:1036320086EA0E94FF1B60EA81EB0E94FF1BFF905B
:08364200EF90DF90CF90089596
:10364A002F923F924F925F926F927F928F929F92A8
:10365A00AF92BF92CF92DF92EF92FF920F931F9396
:10366A00CF93DF93CDB7DEB7CA1BDB0B0FB6F89447
:08367A00DEBF0FBECDBF0994B5
:103682002A88398848885F846E847D848C849B84F0
:10369200AA84B984C884DF80EE80FD800C811B81FE
:1036A200AA81B981CE0FD11D0FB6F894DEBF0FBE2D
:0636B200CDBFED010895FB
:1036B8005F985E9895B1892B85B95D9A89EF90E0FE
:1036C8000197F1F700C000005D9889EF90E001973D
:1036D800F1F700C0000085B115B88BB18F718BB9B7
:0236E800089543
:1036EA005F9A5E9895B1892B85B95D9A89EF90E0CA
:1036FA000197F1F700C000005D9889EF90E001970B
:10370A00F1F700C0000085B115B88BB18F718BB984
:02371A00089510
:10371C000F931F93CF938A010E94D11CF8018081D3
:10372C00882351F0C0E00E94751BCF5FF801EC0FAD
:10373C00F11D80818111F7CFCF911F910F910895C9
:10374C00A2E0B0E0ECEAFBE10C94331B8C015A8351
:10375C004983AE014F5F5F4F0E947418F8012081BE
:10376C0024FF02C08FEF9FEF2296E4E00C944F1BD6
:10377C00052E97FB1EF400940E94B41D57FD07D034
:10378C000E944F1A07FC03D04EF40C94B41D5095B4
:0E379C004095309521953F4F4F4F5F4F089558
:1037AA009CB1892F817090FF0FC087E893E1019740
:1037BA00F1F700C000006099FECF87E893E1019716
:0A37CA00F1F700C0000081E008954F
:1037D400CF93DF930F92CDB7DEB7198284EA80933B
:1037E400BC00ECEBF0E080818823ECF78091B90019
:0A37F40089830F90DF91CF910895B3
:1037FE00CF93DF93D82FC62F0E94EA1B80E60E943C
:10380E00AF1C8D2F0E94531D8C2F0E94531D0E94A2
:08381E000D1EDF91CF9108950A
:10382600069B10C087E893E10197F1F700C00000FE
:103836000699FECF87E893E10197F1F700C00000F3
:0838460081E0089580E008957F
:10384E00059B10C087E893E10197F1F700C00000D7
:10385E000599FECF87E893E10197F1F700C00000CC
:08386E0081E0089580E0089557
:10387600049B10C087E893E10197F1F700C00000B0
:103886000499FECF87E893E10197F1F700C00000A5
:0838960081E0089580E008952F
:10389E00619B10C087E893E10197F1F700C000002B
:1038AE006199FECF87E893E10197F1F700C0000020
:0838BE0081E0089580E0089507
:1038C600AA1BBB1B51E107C0AA1FBB1FA617B70740
:1038D60010F0A61BB70B881F991F5A95A9F780955C
:0838E6009095BC01CD0108958D
:1038EE0097FB072E16F4009407D077FD09D00E949F
:1038FE00631C07FC05D03EF4909581959F4F08956B
:08390E00709561957F4F08954B
:1039160087B1836087B988B18C7F88B987B18C7F7E
:1039260087B98DEF8093B800ECEBF0E0808184607E
:0439360080830895ED
:10393A00A0E0B0E0E3EAFCE10C94351BAE01475F7E
:10394A005F4F6F8178858D819E810E94E71DE2E03D
:04395A000C94511B5D
:10395E00880F8093BB0084E88093BC00ECEBF0E012
:10396E0080818823ECF7E9EBF0E0808180818E7F07
:02397E000895AA
:10398000092E0394000C11F4882352F0BB0F40F46D
:10399000BF2B11F460FF04C06F5F7F4F8F4F9F4FAD
:0239A000089588
:1039A200813031F48FEF860F80680E945C1B08958E
:1039B200823029F48FE3860F80680E945C1B089591
:1039C2001092C5008CE08093C40082E08093C00016
:0E39D20088E18093C10086E08093C2000895D2
:1039E000CF93DF93EC018881882331F021960E94E8
:0E39F000A41D89918111FBCFDF91CF91089525
:1039FE00880F81608093BB0084E88093BC00ECEB61
:0E3A0E00F0E080818823ECF78091B9000895E4
:103A1C00A29FB001B39FC001A39F700D811D112403
:0E3A2C00911DB29F700D811D1124911D0895F2
:103A3A000E948E1B2FE78AE196E021508040904039
:0C3A4A00E1F700C000000E94091E089572
:103A5600FC01AF014F5F5F4F2081222311F0FA0175
:0C3A6600F8CF9F01281B390BC9010895FF
:103A720081B18F7881B982B18F7882B98DB18C7F13
:0A3A82008DB98EB18C7F8EB90895C6
:103A8C0088E30E945C1B8CE00E945C1B86E00E9419
:0A3A9C005C1B81E00E945C1B089592
:103AA6008093BB0084E88093BC00ECEBF0E080815F
:0A3AB6008823ECF78091B900089511
:103AC00084E88093BC00ECEBF0E080818823ECF785
:063AD0008091BB00089587
:103AD600EC010E94231E0E94221ECE010E94241E7B
:063AE600CE010E94201E2B
:103AEC000E940E1DA59F900DB49F900DA49F800D5C
:063AFC00911D1124089544
:103B0200CF93C42F0E94D11C8C2F0E94751BCF9182
:023B1200089514
:103B140084EA8093BC00ECEBF0E080818823ECF72E
:023B2400089502
:103B26009C01215631092A31310510F48F759927E8
:023B36000895F0
:103B380061E08627682F619583E00E94FF1B089546
:103B4800E0ECF0E0908195FFFDCF8093C6000895EA
:103B5800E0ECF0E080818823ECF78091C6000895BE
:103B680090958095709561957F4F8F4F9F4F0895E1
:103B78009C01215431092A31310508F480620895E5
:0E3B880084B18FEF84B98AB1806E8AB9089536
:0E3B96005058BB27AA270E9479140C94C01C1B
:0E3BA40000240A94161617061806090608953E
:0E3BB20000240A941216130614060506089540
:0E3BC000E894BB2766277727CB0197F9089575
:0E3BCE009A01AB016FEF7FE70E94B0180895D7
:0C3BDC0097F99F6780E870E060E00895B2
:0C3BE800EE0FFF1F0590F491E02D0994F2
:0A3BF40060EA81EB0E94FF1B0895B8
:0A3BFE000E94091A08F481E00895FE
:0A3C08000E94091A08F48FEF0895D6
:083C120081E00E945C1B089593
:083C1A0084E98093BC000895C9
:083C22000E9438130C94C01C31
:083C2A000E94A7130C94C01CBA
:063C32009FEF80EC0895F5
:043C38000C940000E8
:043C3C009F770895D1
:043C40000E94650079
:023C44000895E1
:023C46000895DF
:023C48000895DD
:103C4A000D0A4572726F723A20436F6D6D616E6430
:103C5A0020746F6F206C6F6E670D0A002000436F2F
:103C6A006E6669726D656420467265713A004D6FC1
:103C7A00646520436F6E6669726D65643A005458D4
:103C8A00204D6F6465005258204D6F6465004946A7
:103C9A003A003E20544F2053544152540050555339
:103CAA004820414E5920425554544F4E003E20431D
:103CBA004F4D5055544552204354524C0050555381
:103CCA004820414E59204B4E4F4200557365722091
:103CDA0054555420507265737300434F4E464952EF
:103CEA004D20746F20736B697000546F7020427599
:103CFA0074746F6E00666F7220545800426F747449
:103D0A006F6D20427574746F6E00666F7220525820
:103D1A00004D6964646C6520427574746F6E00743A
:103D2A006F20436F6E6669726D0053656C656374CC
:103D3A00204D6F6465005258204D6F646520697389
:103D4A000073656C6563746564005458204D6F6434
:103D5A006520697300434F4D50204354524C005222
:103D6A005800545800506C65617365004B487A00DE
:103D7A004D487A004672657175656E63793A0050EE
:103D8A0055534820414E5920425554544F4E544F92
:073D9A002053544152540074
:103DA100545800545820456E61626C65640D0A00D8
:103DB10054582044697361626C65640D0A00496E50
:103DC10076616C696420545820706172616D65740C
:103DD10065720D0A00545820636F6D6D616E642029
:103DE1006D697373696E6720706172616D65746569
:103DF100720D0A0046410056464F2D4120736574ED
:103E010020746F20256C6420487A0D0A00464120F9
:103E1100636F6D6D616E64206D697373696E672088
:103E21006672657175656E63790D0A0046420056CA
:103E3100464F2D422073657420746F20256C6420D9
:103E4100487A0D0A00464220636F6D6D616E6420F1
:103E51006D697373696E67206672657175656E63EE
:103E6100790D0A00494600494620636F6D6D616E08
:103E7100642070726F6365737365640D0A00556E1B
:103E81006B6E6F776E2043415420636F6D6D616E71
:043E9100640D0A00B2
:103E950068076C094C836A9074A07AC000806888B2
:063EA50000846C82008124
:083EAB0000000000DCCFD1355E
:083EB3000000000000C0153FF3
:083EBB000000803F0000C03F41
:073EC300286E756C6C2900EC
:063ECA00286E696C29005E
:023ED0002102CD
:023ED2002402C8
:023ED4002702C3
:023ED6002E02BA
:023ED8003202B4
:023EDA003602AE
:013EDC0020C5
:00000001FF
