:100000000C9489000C948F170C948F170C948F17F5
:100010000C9434110C948F170C948D110C948F1731
:100020000C948F170C948F170C948F170C948F17B8
:100030000C948F170C948F170C948F170C948F17A8
:100040000C948F170C948F170C948F170C948F1798
:100050000C948F170C948F170C948F170C948F1788
:100060000C948F170C948F170C948F170C948F1778
:100070000C948F170C948F170C948F170C948F1768
:100080000C948F170C948F170C948F170C948F1758
:100090000C948F170C948F170C948F170C948F1748
:1000A0000C948F170C948F170C948F170C948F1738
:1000B0000C948F170C948F170C948F170C948F1728
:1000C0000C948F170C948F170C948F172707A60783
:1000D00028088B08A6084109C009CF0901000102C0
:1000E0008001020397002F30039703E38003E303AB
:1000F000FB0031C503FB040580040504110031DD5C
:100100000411041D80041D041E0031E9041E042294
:10011000800011241FBECFEFD8E0DEBFCDBFECEDD5
:10012000F0E041E017C0B591A59135912591059179
:1001300007FD0CC095918591EF01F92FE82F0590EF
:100140000D92A217B307D9F7FE0104C01D92A217A2
:10015000B307E1F7E131F40731F70E94D2060C94BE
:06016000F616F894FFCF33
:10016600A2E2B0E0E9EBF0E00C94DC1429833A83D8
:100176004B835C8329013A01E89477F841145104D2
:100186006104710409F4FFC569877A878B879C87A8
:100196004B015C016115710500E880070FE39007CC
:1001A60009F4F1C56B017C01E894F7F811E0C1167A
:1001B600D10410E8E1061FE7F1060CF0DFC5A1E067
:1001C6004A165104A0E86A06AFE77A060CF0D6C5CF
:1001D60097FF42C041145104B0E86B06BBE47B06AE
:1001E600ECF541145104E0E86E06EFE37E060CF4EC
:1001F60059C05301420117E1B594A7949794879487
:100206001A95D1F7FFE78F1A9108A108B108E7E11F
:10021600F0E0E819F909530142010E2E04C0B59425
:10022600A794979487940A94D2F78D829E82AF8280
:10023600B88604C0880C991CAA1CBB1CEA95D2F788
:10024600481459046A047B0469F5ED81E170B2E053
:100256009B2E9E1A9D8227C01D8202C002E00D833E
:100266004114510410E861061FE77106E1F4C11458
:10027600D10480E8E8068FE3F80609F484C54CF05B
:1002860089809A80AB80BC80B7FC82C5CA01B9015F
:1002960082C5E980FA800B811C8117FF79C5CA01E6
:1002A600B9017FC01D822D8B3E8B4F8B588F4B0122
:1002B6005C014114510400E860060FE3700679F40E
:1002C600E980FA800B811C8117FF65C59B01AC0193
:1002D60060E070E080E89FE30E9484175CC50981B6
:1002E6001A812B813C8101151105210540E4340753
:1002F60029F49B01AC010E9488174DC589819A811A
:10030600AB81BC810097A105BF4359F409851A85C5
:100316002B853C8537FD05C0C501B4010E94500EF2
:100326003AC5C501B4010E949117C114D104E10474
:10033600F10449F01FE3B1228114910420E8A206DA
:100346002FE3B20681F589809A80AB80BC80B7FE28
:1003560008C09B01AC0160E070E080E89FE30E946A
:10036600841789849A84AB84BC84B7FE14C500E8DC
:10037600E01A0FE3F00A1D81C12AC114D104E10479
:10038600F10459F481E290E0909301018093000119
:100396006FEF7FEF8FEF9FE7FEC40D81013009F00D
:1003A600FAC49058F8C489849A84AB84BC84B7FE96
:1003B60010C09D80992031F3092D013051F4812C14
:1003C600912CA12CA0E8BA2E89869A86AB86BC868B
:1003D60004C019861A861B861C8601E04016510445
:1003E60061040DE470060CF488C018EFC1161FEF07
:1003F600D1061FE7E1061FE3F1063CF489809A80E7
:10040600AB80BC80B7FE41C317C308E0C016D10459
:1004160000E8E0060FE3F0065CF089809A80AB8086
:10042600BC80181419041A041B040CF405C32DC34C
:1004360020E030E040E85FE30E9445176B017C0155
:1004460020E03AEA48EB5FE30E9488174B015C0123
:1004560020E735EA4CEE56E3C701B6010E9488173D
:1004660069837A838B839C8320E030E040E85EE3F7
:10047600C701B6010E9488179B01AC016BEA7AEAB4
:100486008AEA9EE30E944517A70196010E948817F3
:100496009B01AC0160E070E080E09FE30E9445179D
:1004A6002B013C01A7019601C701B6010E948817DE
:1004B6009B01AC01C301B2010E9488172BE33AEA03
:1004C60048EB5FE30E9488179B01AC0169817A8142
:1004D6008B819C810E9445176B017C019B01AC01BD
:1004E600C501B4010E9446176627707F6D837E831F
:1004F6008F839887A501940120C2C114D10400E816
:10050600E006F1046CF420E030E040E85BE40E9491
:1005160088176B017C0148EE5FEF6FEF7FEF03C03A
:1005260040E050E0BA01D701C601F7E1B595A795BD
:1005360097958795FA95D1F78F579109A109B10932
:100546004C015D01840E951EA61EB71E898A9A8AE5
:10055600AB8ABC8AE894E7F8FF2446015701689401
:10056600A7F80FE3B02A12E7C11614ECD1061CE176
:10057600E106F104B4F027EDC21623EBD2062DE511
:10058600E206F1049CF089899A89AB89BC890196B7
:10059600A11DB11D898B9A8BAB8BBC8B90E8A91AD8
:1005A600B1081D821E821F82188608C0E12CF12C1C
:1005B6008701E394ED82FE820F8318870D811E81E9
:1005C600000F111F000F111F1AA309A3F801ED5008
:1005D600FC4FE080F18002811381ED86FE860F8755
:1005E600188BA8019701C501B4010E944517698FB0
:1005F6007A8F8B8F9C8FA8019701C501B4010E9449
:1006060046179B01AC0160E070E080E89FE30E9422
:1006160084176D8F7E8F8F8F98A39B01AC01698D98
:100626007A8D8B8D9C8D0E94881769837A838B8344
:100636009C8349805A806B807C80442400EF502242
:1006460075016401F594E794D794C794CC2410EF10
:10065600D122E894F5F86894F5F8D701C601A05CB4
:10066600BF4FCD80DE80EF80F88475E1CC0CDD1CB9
:10067600EE1CFF1C7A95D1F7C80ED91EEA1EFB1E8A
:10068600A7019601C301B2010E9488179B01AC0124
:10069600698D7A8D8B8D9C8D0E9445176D837E8327
:1006A6008F8398872D853E854F855889C701B6016A
:1006B6000E9445179B01AC01C501B4010E94451774
:1006C600A30192010E9488179B01AC016D817E8176
:1006D6008F8198850E9445172D8D3E8D4F8D58A18F
:1006E6000E9488176D837E838F83988729813A813C
:1006F6004B815C81CA01B9010E9488176B017C019C
:1007060022E431EF43E55EE30E94881725E532E3F4
:100716004CE65EE30E944617A70196010E948817E1
:1007260025E033EA4BE85EE30E944617A7019601EF
:100736000E9488172BEA3AEA4AEA5EE30E944617C5
:10074600A70196010E94881727EB3DE64BED5EE375
:100756000E944617A70196010E9488172AE939E9DF
:1007660049E15FE30E9446174B015C01A701960130
:10077600C701B6010E9488179B01AC01C501B401EF
:100786000E9488176B017C01A301920169817A811D
:100796008B819C810E9446172D813E814F81588511
:1007A6000E948817A70196010E9446176B017C01DB
:1007B600A3019201C301B2010E9488176D877E874B
:1007C6008F87988B20E030E040E450E40E94461783
:1007D600A70196010E9446174B015C01882420EF71
:1007E6009222A5019401C301B2010E9488172B0130
:1007F6003C0120E030E040E450E4C501B4010E9431
:1008060045172D853E854F8558890E9445179B01C2
:10081600AC01C701B6010E94451729813A814B8177
:100826005C810E9488176B017C01A50194016D8192
:100836007E818F8198850E9488179B01AC01C70134
:10084600B6010E9446174B015C019B01AC01C30136
:10085600B2010E9446176B017C01CC2430EFD322F3
:1008660020E030E446E75FE3C701B6010E9488173F
:1008760069837A838B839C83A3019201C701B601A6
:100886000E9445179B01AC01C501B4010E944517A2
:100896002FE438E346E75FE30E9488174B015C01CB
:1008A60026EC33E246EF58EBC701B6010E948817E3
:1008B6009B01AC01C501B4010E944617E9A1FAA14A
:1008C600ED51FC4F20813181428153810E944617B0
:1008D6006B017C0169897A898B899C890E94321314
:1008E6004B015C0109A11AA105511C4FD8014D907D
:1008F6005D906D907C90A701960169817A818B81CC
:100906009C810E944617A30192010E944617A501E9
:1009160094010E9446176627707F6D837E838F83BE
:100926009887A50194010E944517A30192010E9490
:10093600451729813A814B815C810E9445179B01AD
:10094600AC01C701B6010E9445174B015C01CD8879
:10095600DE88EF88F88CCC24B0EFDB22A701960165
:100966006D897E898F89988D0E9445172D813E81DC
:100976004F8158850E9488172B013C012D893E899D
:100986004F89588DC501B4010E9488179B01AC019F
:10099600C301B2010E94461769837A838B839C83C5
:1009A600A70196016D817E818F8198850E948817A7
:1009B600962EA72EB82E892E6D87798B182F092F84
:1009C600262F372F482F592F69817A818B819C8159
:1009D6000E9446176B017C016D837E838F83988707
:1009E60081E0C816D104E10483E4F8062CF52D81D4
:1009F6003E814F815885211531054105534419F52E
:100A06002CE33AEA48E353E369817A818B819C813E
:100A16000E9446172B013C01292D3A2D4B2D582DAE
:100A2600C701B6010E9445179B01AC01C301B20183
:100A36000E947717181674F589859A85AB85BC854B
:100A4600A068BF6798C1D701C601BF770197A641C5
:100A5600B344DCF42D813E814F8158852115310543
:100A66004641534CB9F4292D3A2D4B2D582DC7012B
:100A7600B6010E9445179B01AC0169817A818B8181
:100A86009C810E94721718162CF069857A858B85D1
:100A96009C8581C1D701C601BF7781309105A1052B
:100AA600EFE3BE070CF46AC037E1B595A7959795B5
:100AB60087953A95D1F78E5740E050E060E870E0B0
:100AC6008A019B0104C035952795179507958A9548
:100AD600D2F7C00ED11EE21EF31E26013701E8949E
:100AE60077F847E175946794579447944A95D1F7F8
:100AF6001FE7411A5108610871088FEF9FEFAFE7B2
:100B0600B0E0042C04C0B595A795979587950A94EF
:100B1600D2F780959095A095B0959C01AD012C21BA
:100B26003D214E215F21E894E7F8FF246894E7F819
:100B360087E190E0841995092601370104C0759470
:100B46006794579447948A95D2F7ED80FE800F817B
:100B5600188517FF08C07094609450944094411C07
:100B6600511C611C711C692D7A2D8B2D982D0E94AC
:100B760045176D87798B182F092F03C0412C512CEF
:100B8600320129813A814B815C816D857989812F7A
:100B9600902F0E9446174B015C01882420E8922280
:100BA60020E032E741E35FE3C501B4010E94881704
:100BB6006D837E838F8398872D853989412F502FAA
:100BC600C501B4010E9445179B01AC0169817A8178
:100BD6008B819C810E94451728E132E741E35FE360
:100BE6000E9488176B017C012CE83EEB4FEB55E326
:100BF600C501B4010E9488179B01AC01C701B6016B
:100C06000E9446174B015C019B01AC016D817E8100
:100C16008F8198850E9446176B017C012D813E814C
:100C26004F8158850E9445179B01AC01C501B4014F
:100C36000E94451769837A838B839C83A70196015B
:100C4600C701B6010E9488174B015C012CE43BEBFF
:100C560041E353E30E9488172EE03AEE4DED55E34B
:100C66000E944517A50194010E94881725E533EBDC
:100C76004AE858E30E944617A50194010E94881786
:100C860021E63BE046E35BE30E944517A50194019C
:100C96000E9488172BEA3AEA4AE25EE30E94461768
:100CA600A50194010E9488179B01AC01C701B601FA
:100CB6000E9445174B015C019B01AC01C701B601BF
:100CC6000E9488176D837E838F83988720E030E0AB
:100CD60040E050E4C501B4010E9445179B01AC01F8
:100CE6006D817E818F8198850E9484174B015C01FE
:100CF60029813A814B815C81C701B6010E94881720
:100D060029813A814B815C810E9446179B01AC0187
:100D1600C501B4010E944517A70196010E94451717
:100D26009B01AC0160E070E080E89FE30E944517FC
:100D36005301420127E1880C991CAA1CBB1C2A9569
:100D4600D1F7860E971EA81EB91E8114910430E8AD
:100D5600A306B10424F4A2010E94E61102C0C50153
:100D6600B40189849A84AB84BC8486269726A826F7
:100D7600B926D501C401BC01CD010DC060E070E00B
:100D860080EC9FE708C060E070E080E89FE303C066
:0E0D960060E070E0CB01A296E0E10C94F8144E
:100DA400CF93DF9300D000D0CDB7DEB7539A5B98D2
:100DB4000E943E170E94D1160E946C16539A0E94FC
:100DC40063140E94A1140E94C41619821A821B8201
:100DD4001C820E9428160E94D9100E946D17E12CD3
:100DE400F12C8701E39420E030E0A90160E280E087
:100DF4000E94330D6AE570E080E090E00E94BE142A
:100E0400812C912C0F2EF7E07F2EF02D0F2EF0E287
:100E14004F2EF3E05F2EF02D0F2EF6E03F2EF02D37
:100E24000F2EF5E02F2EF02D0F2EF2E36F2EF02D66
:100E3400E0911B048E2F90E08830910508F0B0C239
:100E4400FC01EA59FF4F0C94671789EF90E0019772
:100E5400F1F700C00000A4014F5F5F4F9A0136957F
:100E64002795ABE7B4E10E9499164C0196948794B8
:100E7400689CC001699C900D11244A01881A990A42
:100E840099F48091030490910404823091052CF02C
:100E940010920404109203040DC00196909304046C
:100EA400809303040E947C178091030490910404AE
:100EB400009769F44EE151E061E081E00E9443153E
:100EC40049E251E061E082E00E9443150EC00197BF
:100ED40061F449E351E061E081E00E94431549E493
:100EE40051E061E082E00E9443150E94B015811137
:100EF40008C00E94C415811104C00E94D81588231B
:100F040061F081E080931B041092040410920304A6
:100F14000E947C17812C912C8BCF0E947215811119
:100F240005C00E94EC15882309F482CF81E08093E8
:100F34001E0410920404109203040E947C17309241
:100F44001B04812C912C74CF89EF90E00197F1F769
:100F540000C00000A4014F5F5F4F9A0136952795AA
:100F6400ABE7B4E10E9499164C0196948794689C6F
:100F7400C001699C900D11244A01881A990AB1F4A0
:100F84000E947C178091030490910404833091059E
:100F940031F40E947C1782E080931B0449CF0196B0
:100FA40090930404809303040E947C1780910304AB
:100FB40090910404009769F447E551E061E081E011
:100FC4000E94431546E651E061E082E00E94431529
:100FD4002EC08130910569F446E751E061E081E07B
:100FE4000E94431541E851E061E082E00E9443150C
:100FF4001EC08230910569F448E851E061E081E067
:101004000E94431546E951E061E082E00E944315E5
:101014000EC0039761F44DE951E061E081E00E9464
:1010240043154BEA51E061E082E00E9443150E94BF
:10103400C415882309F4FCCE82E080931B040E942B
:101044007C171092040410920304F2CE409107041A
:101054005091080461E081E00E9443154091090425
:1010640050910A046BE081E00E94431546EB51E085
:10107400632D82E00E9443154091050450910604BB
:1010840061E082E00E9443150E94B015882389F034
:101094000E947C1781E080931C0442EC51E061E0E3
:1010A4000E9443154DEC51E061E082E00E94A816D5
:1010B40014C00E94D815882381F00E947C171092D6
:1010C4001C0446ED51E061E081E00E9443154DECC3
:1010D40051E061E082E00E94A8160E94C4158823B2
:1010E40029F083E080931B040E947C170E947215F0
:1010F400882321F010921B040E947C170E94EC1597
:10110400882309F495CE84E080931B040E947C1705
:101114008FCE41EE51E061E081E00E944315809161
:101124001C04882339F041EF51E061E082E00E9421
:10113400A81606C049EF51E061E082E00E94A816BB
:1011440084E080931B0474CE40910F0450911004EA
:1011540061E081E00E9443154091190450911A0402
:1011640023E061E082E00E94901240910D045091CE
:101174000E0464E082E00E94431540911D04672D33
:1011840082E00E940C17409117045091180423E048
:1011940068E082E00E94901240910B0450910C048C
:1011A4006BE082E00E9443150E94C415882309F471
:1011B4005BC08091190490911A0490931604809353
:1011C400150480911704909118049093140480934B
:1011D40013048091150490911604880F991F9C01A3
:1011E400220F331F220F331F820F931F9093120479
:1011F40080931104809113049091140441E052E00F
:1012040061E081E00E944315409115045091160459
:1012140023E061E082E00E94901240910D0450911D
:101224000E0464E082E00E94431540911D04672D82
:1012340082E00E940C17409113045091140423E09F
:1012440068E082E00E94901240910B0450910C04DB
:101254006BE082E00E94431541E152E060E181E0ED
:101264000E94A81620921B040E947215882309F478
:10127400DFCD82E080931B040E947C17D9CD0E94AD
:101284006D1760E070E0CB010E94BE1419821A82CF
:101294001B821C826091150470911604C2010E9485
:1012A4001416809115049091160407972CF4CB0121
:1012B40063E070E00E941416072E000C880B990B53
:1012C4000E94BE14609111047091120480E49FE1A5
:1012D4000E941416072E000C880B990B0E943213DF
:1012E40020E030E040E251E40E9445179B01AC014C
:1012F40060E070E583EC97E40E94841769837A8345
:101304008B839C8369817A818B819C810E94A11348
:101314005B016C0110EAE12E16E8F12E01E010E009
:101324002AE030E040E050E060E080E00E94D5092F
:1013340069817A818B819C810E94A1135B016C017C
:101344002AE030E040E050E061E080E00E94D5090E
:101354000E946D1781E00E941E1780911C0488234F
:1013640011F05B9A01C05B9880911E04882319F0E8
:1013740030921B045DCD10921B045ACD1092FE03D3
:101384001092FD0343E152E061E081E00E944315C5
:101394000E94D01370921B044BCD0E943F1248CD83
:0613A40010921B0445CD70
:1013AA003F924F925F926F927F928F929F92AF92EB
:1013BA00BF92CF92DF92EF92FF920F931F93CF9338
:1013CA00DF93CDB7DEB764970FB6F894DEBF0FBED2
:1013DA00CDBF633008F0ABC129013A0194E0491A44
:1013EA00510861087108EDEF4E16E7E05E066104E8
:1013FA00710408F09CC125013601F1E04F1A510829
:10140A00610871089FEF491659069FE06906710441
:10141A0008F08DC1E114F104E0E10E07110508F0AE
:10142A0086C1250136014701580169017A01162F43
:10143A00082F81149104A104B10431F5F4E0CF1A04
:10144A00D108E108FEEFFF0ACC0CDD1CEE1CFF1CE4
:10145A00CC0CDD1CEE1CFF1CCC0CDD1CEE1CFF1C96
:10146A00CC0CDD1CEE1CFF1CCC0CDD1CEE1CFF1C86
:10147A00CC0CDD1CEE1CFF1CCC0CDD1CEE1CFF1C76
:10148A0040E050E0BA01DBC021E042165104610499
:10149A00710409F048C0D501C4010497A109BE4FDF
:1014AA00C80ED91EEA1EFB1ECC0CDD1CEE1CFF1C4E
:1014BA00CC0CDD1CEE1CFF1CCC0CDD1CEE1CFF1C36
:1014CA00CC0CDD1CEE1CFF1CCC0CDD1CEE1CFF1C26
:1014DA00CC0CDD1CEE1CFF1CCC0CDD1CEE1CFF1C16
:1014EA00B501A4014150510961097E4F440F551FAE
:1014FA00661F771F440F551F661F771F440F551F1E
:10150A00661F771F440F551F661F771F440F551F0D
:10151A00661F771F440F551F661F771F440F551FFD
:10152A00661F771F8CC0C301B2010E9430136987FE
:10153A007A878B879C87C501B4010E94301329855D
:10154A003A854B855C850E94841720E030E040E0B4
:10155A0053E40E9488170E94260F6D877E878F8723
:10156A00988BD701C601880F991FAA1FBB1F880F26
:10157A00991FAA1FBB1F880F991FAA1FBB1F880F7D
:10158A00991FAA1FBB1F880F991FAA1FBB1F880F6D
:10159A00991FAA1FBB1FBC01CD01660F771F881FA9
:1015AA00991F0E9430132D853E854F8558890E94C8
:1015BA00461720E030E040E054E40E9445170E94BC
:1015CA00A1136B017C01D501C401880F991FAA1FC1
:1015DA00BB1F880F991FAA1FBB1F880F991FAA1F1D
:1015EA00BB1F880F991FAA1FBB1F880F991FAA1F0D
:1015FA00BB1F880F991FAA1FBB1FBC01CD01660F15
:10160A00771F881F991F0E943013698B7A8B8B8BE7
:10161A009C8B2D853E854F85588969857A858B8572
:10162A009C850E9488179B01AC0169897A898B89FC
:10163A009C890E9445170E94A113AB01BC0111307D
:10164A0049F018F0123059F00FC00F2EFAE23F2E6F
:10165A00F02D0BC00F2EF2E33F2EF02D06C00F2EF9
:10166A00FAE33F2EF02D01C0312C59824A82D7016C
:10167A00C60188279927A370BB2724E0129FF0018F
:10168A001124E952FC4F2081822F8A2B8B83DC8222
:10169A00CD82D301C20188279927AF70BB27072EB5
:1016AA007CE0B695A795979587957A95D1F7702D91
:1016BA006A017B01CC24DD24EFE0EE22FF248E298F
:1016CA008E835F8348870E94871580E60E943A16B8
:1016DA00832D0E94DE16CE0101967C016E0199E0EF
:1016EA00C90ED11CF70181917F010E94DE16EC140C
:1016FA00FD04C1F70E948017013011F46FE201C0A6
:10170A006FE089288A288B2809F46064113041F037
:10171A0018F0123049F00BC080E10E949C1507C0F6
:10172A0081E10E949C1503C082E10E949C15649687
:10173A000FB6F894DEBF0FBECDBFDF91CF911F91D8
:10174A000F91FF90EF90DF90CF90BF90AF909F9056
:0E175A008F907F906F905F904F903F9008951A
:10176800CF92DF92EF92FF920F931F93CF93DF9365
:10177800CDB7DEB7A8970FB6F894DEBF0FBECDBFC2
:101788008C0142E050E065E572E00E948214892BEA
:1017980089F5F80101900020E9F73197E01BF10B7A
:1017A800339718F1F8018281813361F482E090E087
:1017B8009093FE038093FD035B9A88E592E00E9474
:1017C8007B163EC1803361F483E090E09093FE0382
:1017D8008093FD035B9885E692E00E947B1630C1FA
:1017E80083E792E00E947B162BC18AE892E00E9470
:1017F8007B1626C142E050E069EA72E0C8010E9407
:101808008214892BC9F581E090E09093FE038093C0
:10181800FD03F80101900020E9F73197E01BF10B77
:10182800339728F1C80102960E94E0126B017C01EF
:10183800CE0101960E947B16C701B60120E432E46E
:101848004FE050E00E945B1530930204209301049E
:1018580028EE33E040E050E00E945B15309300042E
:101868002093FF03D092FC03C092FB03E9C08CEAEB
:1018780092E00E947B16E4C042E050E06BEC72E01C
:10188800C8010E948214892BB9F4F8010190002044
:10189800E9F73197E01BF10B339748F0C80102963E
:1018A8000E94E012CE0101960E947B16C9C08EEC00
:1018B80092E00E947B16C4C042E050E06DEE72E0F8
:1018C800C8010E948214892B19F5F80101900020A3
:1018D800E9F73197E01BF10B3497A8F0F801828102
:1018E800803329F480EF92E00E947B16A9C08133EF
:1018F80029F485EF92E00E947B16A2C08AEF92E05D
:101908000E947B169DC080EF92E00E947B1698C0D3
:1019180042E050E061E173E0C8010E948214892B23
:1019280019F5F80101900020E9F73197E01BF10B58
:101938003497A8F0F8018281803329F484E193E098
:101948000E947B167DC0813329F489E193E00E94CF
:101958007B1676C08EE193E00E947B1671C084E10D
:1019680093E00E947B166CC042E050E065E373E0B0
:10197800C8010E948214892B29F488E393E00E940D
:101988007B165EC043E050E060E473E0C8010E944B
:101998008214892B29F484E493E00E947B1650C0BA
:1019A80043E050E06AE473E0C8010E948214892B86
:1019B80029F48EE493E00E947B1642C043E050E095
:1019C80066E573E0C8010E948214892B29F48AE530
:1019D80093E00E947B1634C042E050E060E673E07A
:1019E800C8010E948214892BB9F463E673E0C80128
:1019F8000E94B616892B29F4CE0101960E947B1607
:101A08001FC084E090E09093FE038093FD0387E677
:101A180093E00E947B1614C042E050E06EE773E04A
:101A2800C8010E948214892B39F485E090E09093D4
:101A3800FE038093FD0304C081E893E00E947B16B7
:101A4800A8960FB6F894DEBF0FBECDBFDF91CF9139
:0E1A58001F910F91FF90EF90DF90CF900895B7
:101A66004F925F926F927F928F929F92AF92BF92A8
:101A7600CF92DF92EF92FF920F931F93CF93DF9354
:101A8600CDB7DEB72A970FB6F894DEBF0FBECDBF2F
:101A960089876A8729013A0147015801862F8F50A5
:101AA6008C3408F0E3C0D801C7010197A109B10938
:101AB6008F3F9F4FAF40B10508F0D8C04114510485
:101AC60080E16806710408F0D1C041145104610434
:101AD600710479F4C62ED12C24E0C21AD108D6940A
:101AE600DC2CCC24D794C7940D2C000CEE08FF08F0
:101AF60071C0C801B7010E94301369837A838B8352
:101B06009C83C301B2010E94301329813A814B8123
:101B16005C810E94841720E030E040E053E40E949C
:101B260088170E94260F6D837E838F8398879A85F8
:101B360080E8989FB0011124072E000C880B990BA2
:101B46000E9432132D813E814F8158850E9446178F
:101B560020E030E040E054E40E9445170E94A113C3
:101B66006B017C01D301C201880F991FAA1FBB1FFD
:101B7600880F991FAA1FBB1F880F991FAA1FBB1F7B
:101B8600880F991FAA1FBB1F880F991FAA1FBB1F6B
:101B9600880F991FAA1FBB1FBC01CD01660F771FB7
:101BA600881F991F0E9430132B013C012D813E8115
:101BB6004F81588569817A818B819C810E94881723
:101BC6009B01AC01C301B2010E9445170E94A113FB
:101BD6002B013C012985222319F082E2898302C068
:101BE6009AE19983692D89810E949C15682D8981C6
:101BF6008F5F0E949C15D701C60188279927A3707D
:101C0600BB27BD018827992789818E5F0E949C1575
:101C16006D2D89818D5F0E949C156C2D89818C5F4D
:101C26000E949C15882499242FE0A222BB24072E0B
:101C36007CE0B694A794979487947A95D1F7702D03
:101C4600D301C20188279927AF70BB27682D6A2B5D
:101C560089818B5F0E949C15652D89818A5F0E9410
:101C66009C15642D8981895F0E949C152A960FB662
:101C7600F894DEBF0FBECDBFDF91CF911F910F91BC
:101C8600FF90EF90DF90CF90BF90AF909F908F9096
:0A1C96007F906F905F904F900895CB
:101CA000A4E0B0E0E6E5FEE00C94DC148B019C01BE
:101CB000AC0140785F776B017C0140385F4761F48D
:101CC000E894E7F8FF24C114D104E104F10409F019
:101CD000ACC097FDAAC0AEC0E894F7F8C114D10417
:101CE000E104F10409F4A6C097FF07C081E290E087
:101CF000909301018093000198C0DC01CB0167E162
:101D0000B595A795979587956A95D1F70097A10501
:101D1000B105B9F480E090E0DC0127FD08C0000FB8
:101D2000111F221F331F0196A11DB11DF6CF019770
:101D3000A109B109B095A095909581959F4FAF4F9E
:101D4000BF4F8F579109A109B1092F773327206819
:101D500080FF04C0000F111F221F331FAC01BD0103
:101D6000759567955795479549835A836B837C830F
:101D7000000F111F221F331F49E150E0812C912CCD
:101D80005401B394C12CD12C760180E090E0DC01A9
:101D90002C013D01480C591C6A1C7B1C04151505BF
:101DA0002605370574F0D301C201880D991DAA1DBF
:101DB000BB1D0419150926093709C80CD91CEA1CD2
:101DC000FB1C000F111F221F331FB694A79497947A
:101DD000879441505109E1F601151105210531059E
:101DE00051F0970186010170112722273327C00E79
:101DF000D11EE21EF31EF594E794D794C79451ECDC
:101E0000F51A89819A81AB81BC8127E1880F991FDE
:101E1000AA1FBB1F2A95D1F78C0D9D1DAE1DBF1D9E
:101E2000482F392F2A2F5B2F09C040E030E020ECEB
:101E30005FE704C0462F372F282F592F642F732FA9
:0C1E4000822F952F2496E0E10C94F814FA
:101E4C008F929F92AF92BF92CF92DF92EF92FF92BE
:101E5C000F931F938B019C0157E13695279517958E
:101E6C0007955A95D1F71127A8014F5751094731BA
:101E7C0051050CF045C057FD2DC00FEF1FEF2FE79C
:101E8C0030E004C035952795179507954A95D2F7FC
:101E9C004801590186229722A822B92289288A282A
:101EAC008B2871F197FF07C0DC01CB01800F911FCC
:101EBC00A21FB31F02C0DC01CB0100951095209529
:101ECC00309580239123A223B323482F392F2A2F17
:101EDC005B2F1AC097FF0FC08B019C01000F111FC5
:101EEC00221F331F012B022B032B51F040E030E05B
:101EFC0020E85FEB09C040E030E020E050E004C097
:101F0C00462F372F282F592F642F732F822F952F61
:101F1C001F910F91FF90EF90DF90CF90BF90AF90FB
:061F2C009F908F900895C4
:101F320010C00E94531758F00E944C1740F029F429
:101F42005F3F29F00C94611751110C945B170C94AC
:101F52008C170E941F1468F39923B1F3552391F350
:101F6200951B550BBB27AA2762177307840738F006
:101F72009F5F5F4F220F331F441FAA1FA9F335D063
:101F82000E2E3AF0E0E832D091505040E695001C17
:101F9200CAF72BD0FE2F29D0660F771F881FBB1FD1
:101FA200261737074807AB07B0E809F0BB0B802DAF
:101FB200BF01FF2793585F4F3AF09E3F510578F0DB
:101FC2000C9461170C945B175F3FE4F3983ED4F3D3
:101FD200869577956795B795F7959F5FC9F7880FAF
:101FE200911D9695879597F90895E1E0660F771F01
:101FF200881FBB1F621773078407BA0720F0621B92
:0E200200730B840BBA0BEE1F88F7E095089560
:102010000FC00E944C1738F00E94531720F09523F0
:1020200011F00C9461170C948C1711240C945B170D
:102030000E941F1470F3959FC1F3950F50E0551F38
:10204000629FF001729FBB27F00DB11D639FAA270D
:10205000F00DB11DAA1F649F6627B00DA11D661F5C
:10206000829F2227B00DA11D621F739FB00DA11D7D
:10207000621F839FA00D611D221F749F3327A00D37
:10208000611D231F849F600D211D822F762F6A2FD3
:1020900011249F5750409AF0F1F088234AF0EE0F38
:1020A000FF1FBB1F661F771F881F91505040A9F765
:1020B0009E3F510580F00C9461170C945B175F3FB5
:1020C000E4F3983ED4F3869577956795B795F795A1
:1020D000E7959F5FC1F7FE2B880F911D9695879519
:0420E00097F90895CF
:1020E40011C00E944C1738F00E94531720F039F4A5
:1020F4009F3F19F426F40C948C170EF4E095E7FB3B
:102104000C946117E92F0E941F1458F3BA17620741
:1021140073078407950720F079F4A6F50C945A17F1
:102124000EF4E0950B2EBA2FA02D0B01B9019001EE
:102134000C01CA01A0011124FF27591B99F0593F32
:1021440050F4503E68F11A16F040A22F232F342F7A
:102154004427585FF3CF469537952795A795F040C8
:102164005395C9F77EF41F16BA0B620B730B840BDD
:10217400BAF09150A1F0FF0FBB1F661F771F881F95
:10218400C2F70EC0BA0F621F731F841F48F48795ED
:1021940077956795B795F7959E3F08F0B0CF9395DF
:0E21A400880F08F09927EE0F979587950895FC
:1021B200E7EDF3E0108211821282138214821582FB
:1021C20016821782108611861286138662ED87EBBD
:1021D2000E949C1560E880E10E949C1560E881E104
:1021E2000E949C1560E882E10E949C1560E883E1F0
:1021F2000E949C1560E884E10E949C1560E885E1DC
:102202000E949C1560E886E10E949C1560E887E1C7
:102212000E949C156CE080E10E949C156CE081E1BB
:102222000E949C156CE082E10E949C156CE083E1A7
:102232000E949C156CE084E10E949C156CE085E193
:102242000E949C156CE086E10E949C156CE087E17F
:102252000E949C1585E90E946D13682F6F7785E9AE
:062262000E949C15089586
:102268001F921FB61F9211242F933F938F939F9312
:1022780030B120B1832F817090E0880F991F21FB26
:10228800992790F9892B9091210491110DC08130E3
:1022980059F42091190430911A042F5F3F4F30935D
:1022A8001A042093190410C09091210491110CC0B4
:1022B800823051F42091190430911A0421503109C7
:1022C80030931A04209319042091190430911A04A8
:1022D8002E3131053CF02EE130E030931A04209382
:1022E80019040DC02091190430911A0424303105C5
:1022F80034F423E030E030931A04209319048093D7
:1023080021049F918F913F912F911F901FBE1F9085
:02231800189516
:10231A001F921FB61F9211242F933F938F939F935F
:10232A0036B126B136FB882780F990E0880F991FCD
:10233A00922F991F9927991F892B90912004911107
:10234A000DC0813059F420911704309118042F5F81
:10235A003F4F309318042093170410C09091200423
:10236A0091110CC0823051F4209117043091180455
:10237A00215031093093180420931704209117042F
:10238A0030911804273E33403CF027EE33E0309377
:10239A001804209317040BC02091170430911804D5
:1023AA001216130624F01092180410921704809340
:1023BA0020049F918F913F912F911F901FBE1F90D4
:0223CA00189564
:1023CC000F931F93CF93DF93EA0140385105D4F05C
:1023DC0020E030E040E05FE70E9488179E012F5715
:1023EC003109203831056CF120E030E040E05FE746
:1023FC000E948817CE5FD109C038D1051CF1CFE7F8
:10240C00D0E020C042385F4FECF420E030E040E8F0
:10241C005CE00E9488179E012A593F4F22384FEFEB
:10242C0034077CF420E030E040E85CE00E94881740
:10243C00C453DF4FC2382FEFD20724F4C2E8DFEFCA
:10244C0001C0E9019E0121583F4F8901330F220B36
:10245C00330BA9019801E7E1220F331F441F551FCD
:10246C00EA95D1F70E948817DF91CF911F910F91B8
:02247C000895C1
:10247E008091FD039091FE038130910539F52091F5
:10248E0001043091020430931604209315048091B8
:10249E00FF03909100049093140480931304220F71
:1024AE00331FB901660F771F660F771F260F371F71
:1024BE0064E670E00E941416620F731F709312048C
:1024CE006093110485E080931B040895823091057A
:1024DE0039F410921C045B9886E080931B040895D7
:1024EE008330910541F481E080931C045B9A86E071
:1024FE0080931B0408958430910521F486E0809327
:10250E001B0408958530910509F0B6CF10921B0477
:02251E0008951E
:10252000FF920F931F93CF93DF9300D0CDB7DEB709
:102530008A01F22E0E945C16FF20D1F16F2D70E00F
:1025400061507109072E000C880B990B0E94321301
:102550009B01AC0160E070E080E291E40E94B30076
:102560000E94A1137A83698369817A81C8010E94DC
:102570000016AB019B01ADECBCEC0E949916969540
:1025800087959695879596958795880F991F9C01B5
:10259000220F331F220F331F820F931F9A01281B14
:1025A000390BC901805D0E942A15FA94F110C6CF3B
:1025B0000F900F90DF91CF911F910F91FF90089591
:1025C000A0E0B0E0E6EEF2E10C94E414AC01FA0114
:1025D00090814F5F5F4F9032D1F3292F092E000C6D
:1025E000330B295031092530310588F39B3271F5C1
:1025F00000E010E0319602C000E010E020E030E0A2
:10260000A901C1910C2E000CDD0BE097CA30D10559
:1026100078F4AAE0B0E00E9401176E01DD0FEE0829
:10262000FF089B01AC012C193D094E095F09E9CF58
:102630000115110541F466277727CB01621B730B47
:10264000840B950B08C0CA01B90105C09D32A1F6E3
:1026500001E010E0CFCFCDB7DEB7E8E00C94001575
:10266000E89409C097FB3EF490958095709561952C
:102670007F4F8F4F9F4F9923A9F0F92F96E9BB27E2
:102680009395F695879577956795B795F111F8CF5E
:10269000FAF4BB0F11F460FF1BC06F5F7F4F8F4FC9
:1026A0009F4F16C0882311F096E911C0772321F0BF
:1026B0009EE8872F762F05C0662371F096E8862F57
:1026C00070E060E02AF09A95660F771F881FDAF7AE
:0A26D000880F9695879597F90895F5
:1026DA001F93CF93DF9300D00F92CDB7DEB7182F99
:1026EA000E94871580E60E943A168983898188317B
:1026FA00B9F4812F0E94DE168A838A81883291F486
:10270A000E94151780E60E948A168B838B8180347B
:10271A0059F40E94EB1689830E948017898105C0AB
:10272A008FEF03C08FEF01C08FEF0F900F900F90C4
:08273A00DF91CF911F9108957A
:102742000E94271488F09F5798F0B92F9927B75104
:10275200B0F0E1F0660F771F881F991F1AF0BA9543
:10276200C9F714C0B13091F00E945A17B1E0089530
:102772000C945A17672F782F8827B85F39F0B93F22
:10278200CCF3869577956795B395D9F73EF49095F6
:0E2792008095709561957F4F8F4F9F4F0895F2
:1027A000CF930E942E17C82F0E942617CB3369F4AF
:1027B000E0911F04F0E0E956FC4F108287E993E0B6
:1027C0000E94B40B10921F0414C0E0911F04EF3359
:1027D00048F481E08E0F80931F04F0E0E956FC4F2F
:1027E000C083DFCF10921F0482E091E00E947B162D
:0627F000D8CFCF9108953F
:1027F600990F0008550FAA0BE0E8FEEF161617060C
:10280600E807F907C0F012161306E407F50798F073
:10281600621B730B840B950B39F40A2661F0232B8C
:10282600242B252B21F408950A2609F4A140A69508
:082836008FEF811D811D089543
:10283E0057FD9058440F551F59F05F3F71F0479563
:10284E00880F97FB991F61F09F3F79F08795089548
:10285E00121613061406551FF2CF4695F1DF08C067
:10286E00161617061806991FF1CF86957105610584
:04287E00089408951D
:10288200A1E21A2EAA1BBB1BFD010DC0AA1FBB1F72
:10289200EE1FFF1FA217B307E407F50720F0A21BE4
:1028A200B30BE40BF50B661F771F881F991F1A9451
:1028B20069F760957095809590959B01AC01BD017B
:0428C200CF010895A5
:1028C60081B18C7F81B987B18F7387B982B18F60EF
:1028D60082B9E8E6F0E0808181608083808184604F
:1028E6008083EBE6F0E0808183608083EDE6F0E0B4
:0E28F6008081806C8083D89ADA9A7894089555
:10290400CF93DF9341155105A9F0DC01FB01EF01E1
:102914008D91882351F09191992339F041305105DB
:1029240021F041505109891791F390E02881821BCD
:0E293400910902C080E090E0DF91CF910895FC
:1029420050B140B1252F217030E0220F331F41FBDF
:10295200332730F9232B2093210436B126B136FBDD
:10296200882780F990E0880F991F922F991F992745
:0A297200991F892B8093200408951B
:10297C00CF92DF92EF92FF926B017C0160E085EACF
:10298C000E949C15C701B6016F7777278827992776
:10299C0086EA0E949C1560EA81EB0E949C15FF90D0
:0829AC00EF90DF90CF90089539
:1029B4002F923F924F925F926F927F928F929F924B
:1029C400AF92BF92CF92DF92EF92FF920F931F9339
:1029D400CF93DF93CDB7DEB7CA1BDB0B0FB6F894EA
:0829E400DEBF0FBECDBF099458
:1029EC002A88398848885F846E847D848C849B8493
:1029FC00AA84B984C884DF80EE80FD800C811B81A1
:102A0C00AA81B981CE0FD11D0FB6F894DEBF0FBECF
:062A1C00CDBFED0108959D
:102A22005F985E9895B1892B85B95D9A89EF90E0A0
:102A32000197F1F700C000005D9889EF90E00197DF
:102A4200F1F700C0000085B115B88BB18F718BB959
:022A52000895E5
:102A54005F9A5E9895B1892B85B95D9A89EF90E06C
:102A64000197F1F700C000005D9889EF90E00197AD
:102A7400F1F700C0000085B115B88BB18F718BB927
:022A84000895B3
:102A86000F931F93CF938A010E945C16F8018081F1
:102A9600882351F0C0E00E942A15CF5FF801EC0FA1
:102AA600F11D80818111F7CFCF911F910F9108956C
:102AB600052E97FB1EF400940E94361757FD07D08B
:102AC6000E94411407FC03D04EF40C94361750951F
:0E2AD6004095309521953F4F4F4F5F4F08952B
:102AE4009CB1892F817090FF0FC087E893E1019713
:102AF400F1F700C000006099FECF87E893E10197E9
:0A2B0400F1F700C0000081E0089521
:102B0E00CF93DF930F92CDB7DEB7198284EA80930D
:102B1E00BC00ECEBF0E080818823ECF78091B900EB
:0A2B2E0089830F90DF91CF91089585
:102B3800CF93DF93D82FC62F0E94871580E60E9477
:102B48003A168D2F0E94DE168C2F0E94DE160E94E8
:082B58008017DF91CF91089571
:102B6000069B10C087E893E10197F1F700C00000D1
:102B70000699FECF87E893E10197F1F700C00000C6
:082B800081E0089580E0089552
:102B8800059B10C087E893E10197F1F700C00000AA
:102B98000599FECF87E893E10197F1F700C000009F
:082BA80081E0089580E008952A
:102BB000049B10C087E893E10197F1F700C0000083
:102BC0000499FECF87E893E10197F1F700C0000078
:082BD00081E0089580E0089502
:102BD800619B10C087E893E10197F1F700C00000FE
:102BE8006199FECF87E893E10197F1F700C00000F3
:082BF80081E0089580E00895DA
:102C0000AA1BBB1B51E107C0AA1FBB1FA617B70712
:102C100010F0A61BB70B881F991F5A95A9F780952E
:082C20009095BC01CD0108955F
:102C280097FB072E16F4009407D077FD09D00E9471
:102C3800001607FC05D03EF4909581959F4F0895A6
:082C4800709561957F4F08951E
:102C500087B1836087B988B18C7F88B987B18C7F51
:102C600087B98DEF8093B800ECEBF0E08081846051
:042C700080830895C0
:102C7400880F8093BB0084E88093BC00ECEBF0E009
:102C840080818823ECF7E9EBF0E0808180818E7FFE
:022C94000895A1
:102C9600092E0394000C11F4882352F0BB0F40F464
:102CA600BF2B11F460FF04C06F5F7F4F8F4F9F4FA4
:022CB60008957F
:102CB800813031F48FEF860F80680E9411150895D6
:102CC800823029F48FE3860F80680E9411150895D9
:102CD8001092C5008CE08093C40082E08093C0000D
:0E2CE80088E18093C10086E08093C2000895C9
:102CF600CF93DF93EC018881882331F021960E94DF
:0E2D0600261789918111FBCFDF91CF9108959F
:102D1400880F81608093BB0084E88093BC00ECEB57
:0E2D2400F0E080818823ECF78091B9000895DB
:102D3200A29FB001B39FC001A39F700D811D1124FA
:0E2D4200911DB29F700D811D1124911D0895E9
:102D50000E9443152FE78AE196E021508040904081
:0C2D6000E1F700C000000E947C170895FD
:102D6C00DC01FB019D912191921303C09111FACFCB
:0C2D7C00292F892F90E0821B91090895F7
:102D880081B18F7881B982B18F7882B98DB18C7F0A
:0A2D98008DB98EB18C7F8EB90895BD
:102DA20088E30E9411158CE00E94111586E00E94B2
:0A2DB200111581E00E94111508952B
:102DBC008093BB0084E88093BC00ECEBF0E0808156
:0A2DCC008823ECF78091B900089508
:102DD60084E88093BC00ECEBF0E080818823ECF77C
:062DE6008091BB0008957E
:102DEC00EC010E9496170E949517CE010E9497172E
:062DFC00CE010E949317B6
:102E02000E949916A59F900DB49F900DA49F800DCE
:062E1200911D112408953A
:102E1800CF93C42F0E945C168C2F0E942A15CF9145
:022E280008950B
:102E2A0084EA8093BC00ECEBF0E080818823ECF725
:022E3A000895F9
:102E3C0061E08627682F619583E00E949C150895B8
:102E4C00E0ECF0E0908195FFFDCF8093C6000895F3
:102E5C00E0ECF0E080818823ECF78091C6000895C7
:102E6C0090958095709561957F4F8F4F9F4F0895EA
:0E2E7C0084B18FEF84B98AB1806E8AB908954F
:0E2E8A005058BB27AA270E9472100C944B16BA
:0E2E980000240A941616170618060906089557
:0E2EA60000240A941216130614060506089559
:0E2EB400E894BB2766277727CB0197F908958E
:0C2EC20097F99F6780E870E060E00895D9
:0C2ECE00EE0FFF1F0590F491E02D099419
:0A2EDA0060EA81EB0E949C15089548
:0A2EE4000E94FB1308F481E008953A
:0A2EEE000E94FB1308F48FEF089513
:082EF80081E00E94111508950C
:082F000084E98093BC000895F0
:082F08000E94990F0C944B1676
:082F10000E9408100C944B16FE
:062F18009FEF80EC08951C
:042F1E000C9400000F
:042F22009F770895F8
:042F26000E94B10054
:022F2A00089508
:022F2C00089506
:022F2E00089504
:102F30000D0A4572726F723A20436F6D6D616E6457
:102F400020746F6F206C6F6E670D0A003E20544F27
:102F5000205354415254005055534820414E59205B
:102F6000425554544F4E003E20434F4D505554450A
:102F700052204354524C005055534820414E592042
:102F80004B4E4F4200557365722054555420507279
:102F900065737300434F4E4649524D20746F207342
:102FA0006B697000546F7020427574746F6E0066A8
:102FB0006F7220545800426F74746F6D20427574A4
:102FC000746F6E00666F72205258004D6964646CB5
:102FD0006520427574746F6E00746F20436F6E6667
:102FE00069726D0053656C656374204D6F64650094
:102FF0005258204D6F64652069730073656C65637A
:10300000746564005458204D6F6465206973004DE9
:103010006F646520436F6E6669726D65643A005235
:1030200058204D6F6465005458204D6F646500430F
:103030006F6E6669726D656420467265713A002034
:1030400000434F4D50204354524C005258005458A6
:1030500000506C65617365004B487A004D487A00FA
:103060004672657175656E63793A00505553482014
:10307000414E5920425554544F4E544F20535441C1
:03308000525400A7
:10308300545800545820456E61626C65640D0A0003
:1030930054582044697361626C65640D0A00496E7B
:1030A30076616C696420545820706172616D657437
:1030B30065720D0A00545820636F6D6D616E642054
:1030C3006D697373696E6720706172616D65746594
:1030D300720D0A00464100464120636F6D6D616EBB
:1030E30064206D697373696E6720667265717565B7
:1030F3006E63790D0A00464200464220636F6D6D90
:10310300616E64206D697373696E672066726571A1
:1031130075656E63790D0A004149004149303B00F2
:103123004149313B00496E76616C69642041492015
:10313300706172616D657465720D0A0053540053BA
:1031430054303B005354313B00496E76616C6964E3
:1031530020535420706172616D657465720D0A00AD
:103163004944004944303635303B004D4430004D2E
:103173004430433B00534830005348303030303BF9
:10318300004E4130004E4130303B00494600494635
:103193003B00494620636F6D6D616E642070726FF2
:1031A3006365737365640D0A00455800556E6B6E55
:1031B3006F776E2043415420636F6D6D616E640DB4
:0231C3000A0000
:0831C50000000000DCCFD13551
:0831CD000000000000C0153FE6
:0831D5000000803F0000C03F34
:0231DD001D02D1
:0231DF002002CC
:0231E1002302C7
:0231E3002A02BE
:0231E5002E02B8
:0231E7003202B2
:0131E90020C5
:00000001FF
