:100000000C948F000C94661E0C94661E0C94661E55
:100010000C9499150C94661E0C94F2150C94661EA3
:100020000C94661E0C94661E0C94661E0C94661E40
:100030000C94661E0C94661E0C94661E0C94661E30
:100040000C94661E0C94661E0C94661E0C94661E20
:100050000C94661E0C94661E0C94661E0C94661E10
:100060000C94661E0C94661E0C94661E0C94661E00
:100070000C94661E0C94661E0C94661E0C94661EF0
:100080000C94661E0C94661E0C94661E0C94661EE0
:100090000C94661E0C94661E0C94661E0C94661ED0
:1000A0000C94661E0C94661E0C94661E0C94661EC0
:1000B0000C94661E0C94661E0C94661E0C94661EB0
:1000C0000C94661E0C94661E0C94661E2D07AC07DD
:1000D0002E089108AC084709C609D10901000102A0
:1000E0008001020335003CDE033503958003950350
:1000F000AB003F1103AB03B78003B703DC003F271E
:1001000003DC03E68003E603F2003F4C03F203FE48
:100110008003FE03FF003F5803FF04038000112407
:100120001FBECFEFD8E0DEBFCDBFECEDF0E041E089
:1001300017C0B591A59135912591059107FD0CC08A
:1001400095918591EF01F92FE82F05900D92A21757
:10015000B307D9F7FE0104C01D92A217B307E1F758
:10016000ED31F40731F70E94D8060C94B51DF894D0
:02017000FFCFBF
:10017200A2E2B0E0EFEBF0E00C94711B29833A832A
:100182004B835C8329013A01E89477F841145104C6
:100192006104710409F4FFC569877A878B879C879C
:1001A2004B015C016115710500E880070FE39007C0
:1001B20009F4F1C56B017C01E894F7F811E0C1166E
:1001C200D10410E8E1061FE7F1060CF0DFC5A1E05B
:1001D2004A165104A0E86A06AFE77A060CF0D6C5C3
:1001E20097FF42C041145104B0E86B06BBE47B06A2
:1001F200ECF541145104E0E86E06EFE37E060CF4E0
:1002020059C05301420117E1B594A794979487947A
:100212001A95D1F7FFE78F1A9108A108B108E7E113
:10022200F0E0E819F909530142010E2E04C0B59419
:10023200A794979487940A94D2F78D829E82AF8274
:10024200B88604C0880C991CAA1CBB1CEA95D2F77C
:10025200481459046A047B0469F5ED81E170B2E047
:100262009B2E9E1A9D8227C01D8202C002E00D8332
:100272004114510410E861061FE77106E1F4C1144C
:10028200D10480E8E8068FE3F80609F484C54CF04F
:1002920089809A80AB80BC80B7FC82C5CA01B90153
:1002A20082C5E980FA800B811C8117FF79C5CA01DA
:1002B200B9017FC01D822D8B3E8B4F8B588F4B0116
:1002C2005C014114510400E860060FE3700679F402
:1002D200E980FA800B811C8117FF65C59B01AC0187
:1002E20060E070E080E89FE30E945B1E5CC50981CC
:1002F2001A812B813C8101151105210540E4340747
:1003020029F49B01AC010E945F1E4DC589819A812F
:10031200AB81BC810097A105BF4359F409851A85B9
:100322002B853C8537FD05C0C501B4010E947611BD
:100332003AC5C501B4010E94681EC114D104E1048A
:10034200F10449F01FE3B1228114910420E8A206CE
:100352002FE3B20681F589809A80AB80BC80B7FE1C
:1003620008C09B01AC0160E070E080E89FE30E945E
:100372005B1E89849A84AB84BC84B7FE14C500E8F2
:10038200E01A0FE3F00A1D81C12AC114D104E1046D
:10039200F10459F481E290E090930101809300010D
:1003A2006FEF7FEF8FEF9FE7FEC40D81013009F001
:1003B200FAC49058F8C489849A84AB84BC84B7FE8A
:1003C20010C09D80992031F3092D013051F4812C08
:1003D200912CA12CA0E8BA2E89869A86AB86BC867F
:1003E20004C019861A861B861C8601E04016510439
:1003F20061040DE470060CF488C018EFC1161FEFFB
:10040200D1061FE7E1061FE3F1063CF489809A80DA
:10041200AB80BC80B7FE41C317C308E0C016D1044D
:1004220000E8E0060FE3F0065CF089809A80AB807A
:10043200BC80181419041A041B040CF405C32DC340
:1004420020E030E040E85FE30E94151E6B017C0172
:1004520020E03AEA48EB5FE30E945F1E4B015C0139
:1004620020E735EA4CEE56E3C701B6010E945F1E53
:1004720069837A838B839C8320E030E040E85EE3EB
:10048200C701B6010E945F1E9B01AC016BEA7AEACA
:100492008AEA9EE30E94151EA70196010E945F1E32
:1004A2009B01AC0160E070E080E09FE30E94151EBA
:1004B2002B013C01A7019601C701B6010E945F1EF4
:1004C2009B01AC01C301B2010E945F1E2BE33AEA19
:1004D20048EB5FE30E945F1E9B01AC0169817A8158
:1004E2008B819C810E94151E6B017C019B01AC01DA
:1004F200C501B4010E94161E6627707F6D837E833C
:100502008F839887A501940120C2C114D10400E809
:10051200E006F1046CF420E030E040E85BE40E9485
:100522005F1E6B017C0148EE5FEF6FEF7FEF03C050
:1005320040E050E0BA01D701C601F7E1B595A795B1
:1005420097958795FA95D1F78F579109A109B10926
:100552004C015D01840E951EA61EB71E898A9A8AD9
:10056200AB8ABC8AE894E7F8FF24460157016894F5
:10057200A7F80FE3B02A12E7C11614ECD1061CE16A
:10058200E106F104B4F027EDC21623EBD2062DE505
:10059200E206F1049CF089899A89AB89BC890196AB
:1005A200A11DB11D898B9A8BAB8BBC8B90E8A91ACC
:1005B200B1081D821E821F82188608C0E12CF12C10
:1005C2008701E394ED82FE820F8318870D811E81DD
:1005D200000F111F000F111F1AA309A3F801E953FD
:1005E200FC4FE080F18002811381ED86FE860F8749
:1005F200188BA8019701C501B4010E94151E698FCD
:100602007A8F8B8F9C8FA8019701C501B4010E943C
:10061200161E9B01AC0160E070E080E89FE30E943F
:100622005B1E6D8F7E8F8F8F98A39B01AC01698DAE
:100632007A8D8B8D9C8D0E945F1E69837A838B835A
:100642009C8349805A806B807C80442400EF502236
:1006520075016401F594E794D794C794CC2410EF04
:10066200D122E894F5F86894F5F8D701C601A05CA8
:10067200BF4FCD80DE80EF80F88475E1CC0CDD1CAD
:10068200EE1CFF1C7A95D1F7C80ED91EEA1EFB1E7E
:10069200A7019601C301B2010E945F1E9B01AC013A
:1006A200698D7A8D8B8D9C8D0E94151E6D837E8344
:1006B2008F8398872D853E854F855889C701B6015E
:1006C2000E94151E9B01AC01C501B4010E94151EBA
:1006D200A30192010E945F1E9B01AC016D817E818C
:1006E2008F8198850E94151E2D8D3E8D4F8D58A1AC
:1006F2000E945F1E6D837E838F83988729813A8152
:100702004B815C81CA01B9010E945F1E6B017C01B1
:1007120022E431EF43E55EE30E945F1E25E532E30A
:100722004CE65EE30E94161EA70196010E945F1E20
:1007320025E033EA4BE85EE30E94161EA70196010C
:100742000E945F1E2BEA3AEA4AEA5EE30E94161E04
:10075200A70196010E945F1E27EB3DE64BED5EE38B
:100762000E94161EA70196010E945F1E2AE939E91E
:1007720049E15FE30E94161E4B015C01A70196014D
:10078200C701B6010E945F1E9B01AC01C501B40105
:100792000E945F1E6B017C01A301920169817A8133
:1007A2008B819C810E94161E2D813E814F8158852E
:1007B2000E945F1EA70196010E94161E6B017C011A
:1007C200A3019201C301B2010E945F1E6D877E8761
:1007D2008F87988B20E030E040E450E40E94161EA0
:1007E200A70196010E94161E4B015C01882420EF8E
:1007F2009222A5019401C301B2010E945F1E2B0146
:100802003C0120E030E040E450E4C501B4010E9424
:10081200151E2D853E854F8558890E94151E9B0108
:10082200AC01C701B6010E94151E29813A814B8194
:100832005C810E945F1E6B017C01A50194016D81A8
:100842007E818F8198850E945F1E9B01AC01C7014A
:10085200B6010E94161E4B015C019B01AC01C30153
:10086200B2010E94161E6B017C01CC2430EFD32210
:1008720020E030E446E75FE3C701B6010E945F1E55
:1008820069837A838B839C83A3019201C701B6019A
:100892000E94151E9B01AC01C501B4010E94151EE8
:1008A2002FE438E346E75FE30E945F1E4B015C01E1
:1008B20026EC33E246EF58EBC701B6010E945F1EF9
:1008C2009B01AC01C501B4010E94161EE9A1FAA167
:1008D200E954FC4F20813181428153810E94161ECE
:1008E2006B017C0169897A898B899C890E948318B2
:1008F2004B015C0109A11AA101541C4FD8014D9072
:100902005D906D907C90A701960169817A818B81BF
:100912009C810E94161EA30192010E94161EA5012F
:1009220094010E94161E6627707F6D837E838F83DB
:100932009887A50194010E94151EA30192010E94AD
:10094200151E29813A814B815C810E94151E9B01F3
:10095200AC01C701B6010E94151E4B015C01CD8896
:10096200DE88EF88F88CCC24B0EFDB22A701960159
:100972006D897E898F89988D0E94151E2D813E81F9
:100982004F8158850E945F1E2B013C012D893E89B3
:100992004F89588DC501B4010E945F1E9B01AC01B5
:1009A200C301B2010E94161E69837A838B839C83E2
:1009B200A70196016D817E818F8198850E945F1EBD
:1009C200962EA72EB82E892E6D87798B182F092F78
:1009D200262F372F482F592F69817A818B819C814D
:1009E2000E94161E6B017C016D837E838F83988724
:1009F20081E0C816D104E10483E4F8062CF52D81C8
:100A02003E814F815885211531054105534419F521
:100A12002CE33AEA48E353E369817A818B819C8132
:100A22000E94161E2B013C01292D3A2D4B2D582DCB
:100A3200C701B6010E94151E9B01AC01C301B201A0
:100A42000E944E1E181674F589859A85AB85BC8561
:100A5200A068BF6798C1D701C601BF770197A641B9
:100A6200B344DCF42D813E814F8158852115310537
:100A72004641534CB9F4292D3A2D4B2D582DC7011F
:100A8200B6010E94151E9B01AC0169817A818B819E
:100A92009C810E94491E18162CF069857A858B85E7
:100AA2009C8581C1D701C601BF7781309105A1051F
:100AB200EFE3BE070CF46AC037E1B595A7959795A9
:100AC20087953A95D1F78E5740E050E060E870E0A4
:100AD2008A019B0104C035952795179507958A953C
:100AE200D2F7C00ED11EE21EF31E26013701E89492
:100AF20077F847E175946794579447944A95D1F7EC
:100B02001FE7411A5108610871088FEF9FEFAFE7A5
:100B1200B0E0042C04C0B595A795979587950A94E3
:100B2200D2F780959095A095B0959C01AD012C21AE
:100B32003D214E215F21E894E7F8FF246894E7F80D
:100B420087E190E0841995092601370104C0759464
:100B52006794579447948A95D2F7ED80FE800F816F
:100B6200188517FF08C07094609450944094411CFB
:100B7200511C611C711C692D7A2D8B2D982D0E94A0
:100B8200151E6D87798B182F092F03C0412C512C0C
:100B9200320129813A814B815C816D857989812F6E
:100BA200902F0E94161E4B015C01882420E892229D
:100BB20020E032E741E35FE3C501B4010E945F1E1A
:100BC2006D837E838F8398872D853989412F502F9E
:100BD200C501B4010E94151E9B01AC0169817A8195
:100BE2008B819C810E94151E28E132E741E35FE37D
:100BF2000E945F1E6B017C012CE83EEB4FEB55E33C
:100C0200C501B4010E945F1E9B01AC01C701B60180
:100C12000E94161E4B015C019B01AC016D817E811D
:100C22008F8198850E94161E6B017C012D813E8169
:100C32004F8158850E94151E9B01AC01C501B4016C
:100C42000E94151E69837A838B839C83A701960178
:100C5200C701B6010E945F1E4B015C012CE43BEB15
:100C620041E353E30E945F1E2EE03AEE4DED55E361
:100C72000E94151EA50194010E945F1E25E533EB1B
:100C82004AE858E30E94161EA50194010E945F1EC5
:100C920021E63BE046E35BE30E94151EA5019401B9
:100CA2000E945F1E2BEA3AEA4AE25EE30E94161EA7
:100CB200A50194010E945F1E9B01AC01C701B60110
:100CC2000E94151E4B015C019B01AC01C701B601DC
:100CD2000E945F1E6D837E838F83988720E030E0C1
:100CE20040E050E4C501B4010E94151E9B01AC0115
:100CF2006D817E818F8198850E945B1E4B015C0114
:100D020029813A814B815C81C701B6010E945F1E35
:100D120029813A814B815C810E94161E9B01AC01A4
:100D2200C501B4010E94151EA70196010E94151E5D
:100D32009B01AC0160E070E080E89FE30E94151E19
:100D42005301420127E1880C991CAA1CBB1C2A955D
:100D5200D1F7860E971EA81EB91E8114910430E8A1
:100D6200A306B10424F4A2010E944B1602C0C501DD
:100D7200B40189849A84AB84BC8486269726A826EB
:100D8200B926D501C401BC01CD010DC060E070E0FF
:100D920080EC9FE708C060E070E080E89FE303C05A
:0E0DA20060E070E0CB01A296E0E10C948D1BA6
:100DB000CF93DF9300D000D0CDB7DEB7539A5B98C6
:100DC0000E940E1E0E94901D0E942B1D539A0E948D
:100DD000DB1A0E94191B0E94831D19821A821B8232
:100DE0001C820E94D51C0E943E150E94441EE12CCC
:100DF000F12C8701E39420E030E0A90160E280E07B
:100E00000E946B0F6AE570E080E090E00E94531B47
:100E1000812C912C0F2EF7E07F2EF02D0F2EF0E27B
:100E20004F2EF3E05F2EF02D0F2EF6E03F2EF02D2B
:100E30000F2EF5E02F2EF02D0F2EF2E36F2EF02D5A
:100E4000E091FC038E2F90E08830910508F0ACC251
:100E5000FC01EA59FF4F0C943E1E89EF90E0019788
:100E6000F1F700C00000A4014F5F5F4F9A01369573
:100E70002795ABE7B4E10E94581D4C0196948794E6
:100E8000689CC001699C900D11244A01881A990A36
:100E900099F48091E4039091E503823091052CF060
:100EA0001092E5031092E4030DC001969093E503C0
:100EB0008093E4030E94531E8091E4039091E50324
:100EC000009769F44EE151E061E081E00E94D81B97
:100ED00049E251E061E082E00E94D81B0EC0019718
:100EE00061F449E351E061E081E00E94D81B49E4EC
:100EF00051E061E082E00E94D81B0E945D1C8111DC
:100F000008C00E94711C811104C00E94851C8823A6
:100F100061F081E08093FC031092E5031092E403FA
:100F20000E94531E812C912C8BCF0E941F1C81117B
:100F300005C00E94991C882309F482CF81E0809328
:100F4000FF031092E5031092E4030E94531E3092B7
:100F5000FC03812C912C74CF89EF90E00197F1F77D
:100F600000C00000A4014F5F5F4F9A01369527959E
:100F7000ABE7B4E10E94581D4C0196948794689C9D
:100F8000C001699C900D11244A01881A990AB1F494
:100F90000E94531E8091E4039091E50383309105F4
:100FA00031F40E94531E82E08093FC0349CF0196E6
:100FB0009093E5038093E4030E94531E8091E40321
:100FC0009091E503009769F447E551E061E081E025
:100FD0000E94D81B46E651E061E082E00E94D81BE7
:100FE0002EC08130910569F446E751E061E081E06F
:100FF0000E94D81B41E851E061E082E00E94D81BCA
:101000001EC08230910569F448E851E061E081E05A
:101010000E94D81B46E951E061E082E00E94D81BA3
:101020000EC0039761F44DE951E061E081E00E9458
:10103000D81B4BEA51E061E082E00E94D81B0E947D
:10104000711C882309F4FCCE82E08093FC030E948B
:10105000531E1092E5031092E403F2CE4091E80390
:101060005091E90361E081E00E94D81B4091EA03BE
:101070005091EB036BE081E00E94D81B46EB51E0FE
:10108000632D82E00E94D81B4091E6035091E70354
:1010900061E082E00E94D81B0E945D1C882389F0D9
:1010A0000E94531E81E08093FD0342EC51E061E019
:1010B0000E94D81B4DEC51E061E082E00E94671D68
:1010C00014C00E94851C882381F00E94531E109238
:1010D000FD0346ED51E061E081E00E94D81B4DEC3C
:1010E00051E061E082E00E94671D0E94711C88232C
:1010F00029F083E08093FC030E94531E0E941F1C72
:10110000882321F01092FC030E94531E0E94991C18
:10111000882309F495CE84E08093FC030E94531E3B
:101120008FCE41EE51E061E081E00E94D81B8091BA
:10113000FD03882339F041EF51E061E082E00E9435
:10114000671D06C049EF51E061E082E00E94671D23
:1011500084E08093FC0374CE4091F0035091F1033E
:1011600061E081E00E94D81B4091FA035091FB039B
:1011700023E061E082E00E944E174091EE0350911F
:10118000EF0364E082E00E94D81B4091FE03672DCC
:1011900082E00E94CB1D4091F8035091F90323E0B7
:1011A00068E082E00E944E174091EC035091ED03FD
:1011B0006BE082E00E94D81B0E94711C882309F416
:1011C0005BC08091FA039091FB039093F7038093A7
:1011D000F6038091F8039091F9039093F5038093BF
:1011E000F4038091F6039091F703880F991F9C01F7
:1011F000220F331F220F331F820F931F9093F3038D
:101200008093F2038091F4039091F50341E052E062
:1012100061E081E00E94D81B4091F6035091F703F2
:1012200023E061E082E00E944E174091EE0350916E
:10123000EF0364E082E00E94D81B4091FE03672D1B
:1012400082E00E94CB1D4091F4035091F50323E00E
:1012500068E082E00E944E174091EC035091ED034C
:101260006BE082E00E94D81B41E152E060E181E046
:101270000E94671D2092FC030E941F1C882309F412
:10128000DFCD82E08093FC030E94531ED9CD0E94E3
:10129000441E60E070E0CB010E94531B19821A8249
:1012A0001B821C826091F6037091F703C2010E94B9
:1012B000C11C8091F6039091F70307972CF4CB01A2
:1012C00063E070E00E94C11C072E000C880B990B94
:1012D0000E94531B6091F2037091F30380E49FE13D
:1012E0000E94C11C072E000C880B990B0E948318CA
:1012F00020E030E040E251E40E94151E9B01AC0169
:1013000060E070E583EC97E40E945B1E69837A835A
:101310008B839C8369817A818B819C810E94A11936
:101320005B016C0110EAE12E16E8F12E01E010E0FD
:101330002AE030E040E050E060E080E00E94D50B21
:1013400069817A818B819C810E94A1195B016C016A
:101350002AE030E040E050E061E080E00E94D50B00
:101360000E94441E81E00E94E61D8091FD038823B7
:1013700011F05B9A01C05B988091FF03882319F0FC
:101380003092FC035DCD1092FC035ACD43E152E054
:1013900061E081E00E94D81B0E94FE197092FC035C
:0E13A0004FCD0E94FD164CCD1092FC0349CD9E
:1013AE00AEE0B0E0EDEDF9E00C94721B4C016B0178
:1013BE001A8219828FEF9FEF9C838B831E821D8270
:1013CE0058874F833A872987A12CB12CD6016D906F
:1013DE007C90F301EA0DFB1D808181110FC0D601B7
:1013EE00ED93FC938081853209F0D3C13F01BFEFAD
:1013FE006B1A7B0AF6017182608219C0853279F30D
:10140E00B401082E000C990B0E94EE174FEFA41A90
:10141E00B40ADCCF8C32ACF08D32F9F489819A812A
:10142E0081609A8389833196D601ED93FC93D60120
:10143E00ED91FC9180818B3269F789819A8184606C
:10144E00F0CF803221F489819A818860EACF83328D
:10145E0051F489819A818061E4CF803321F48981AE
:10146E009A818260DECFB701C6010E94D0199E8399
:10147E008D8397FF0BC029813A81B1E02B273A83E8
:10148E0029839195819591099E838D8389819A8176
:10149E0080FF03C08D7F9A838983D601ED91FC91E5
:1014AE00119780818E3249F43196ED93FC93B701FA
:1014BE00C6010E94D0199C838B83C6010E94BB1A61
:1014CE00582ED601ED91FC918081082E000C990BBF
:1014DE000E94061E893609F443C084F4833609F44B
:1014EE0002C134F4853209F427C18136E1F030C1EE
:1014FE008436B1F188360CF4D9C02AC1803709F48C
:10150E009AC03CF48E3609F4BCC08F3609F461C023
:10151E001FC1853709F440C0883709F476C0833778
:10152E0009F016C1F3C0652D70E0A701CE010B9630
:10153E000E940000892B09F426C1D601ED91FC9181
:10154E001197CF0101968D939C932081AE01455F3B
:10155E005F4FBE016F5F7F4FC4010E94000010C13C
:10156E00652D70E0970141E050E0CE010B960E9490
:10157E000A14892B09F407C1F60180819181019625
:10158E0091838083AE01455F5F4FBE016F5F7F4FDA
:10159E00C4010E94BF12F4C0652D70E0970140E0B7
:1015AE0050E0CE010B960E940A14892B09F4EBC071
:1015BE00D6018D919C91119701968D939C93AE01BE
:1015CE00455F5F4FBE016F5F7F4FC4010E943A18A7
:1015DE00D7C0652D70E0970140E050E0CE010B962C
:1015EE000E940A14892B09F4CEC0F60180819181E4
:1015FE00019691838083AE01455F5F4FBE016F5FA1
:10160E007F4FC4010E94A416BBC0652D70E09701E8
:10161E0040E050E0CE010B960E940A14892B09F48B
:10162E00B2C0D601ED91FC911197CF0101968D9329
:10163E009C9320811CC0970140E050E060EF70E069
:10164E00CE010B960E940A14892B09F49CC0F60158
:10165E00808191810196918380838B859C85892BD6
:10166E0029F420E030E046ED53E084C028E7AE01D7
:10167E00455F5F4FBE016F5F7F4FC4010E948810B0
:10168E007FC0A501400F511F652D70E09701CE015F
:10169E000B960E940000892B09F475C0D6018D911E
:1016AE009C91119701968D939C9373C0652D70E05C
:1016BE00A701CE010B960E940000892B09F463C08E
:1016CE00D601ED91FC911197CF0101968D939C93CC
:1016DE002081AE01455F5F4FBE016F5F7F4FC4013A
:1016EE000E9400004DC0B0E85B124DC0F601808133
:1016FE009181019691838083D701ED91FC91119791
:10170E00CF0102968D939C93808120C0B0E85B122E
:10171E003AC0F60180819181019691838083D70131
:10172E00ED91FC911197CF0102968D939C93408180
:10173E00518120E030E01EC0B0E85B1224C0F601FB
:10174E00208131812F5F3F4F318320838B870DC0E6
:10175E0085E28B87D6016D927C921A8219821E8247
:10176E001D828FEF9FEF9C838B8321E030E0AE01D3
:10177E00455F5F4FBE016F5F7F4FC4010E94291A04
:10178E008A0D9B1D07C0F601808191810196918380
:0C179E008083C5012E96EFE00C948E1B9A
:1017AA003F924F925F926F927F928F929F92AF92E7
:1017BA00BF92CF92DF92EF92FF920F931F93CF9334
:1017CA00DF93CDB7DEB764970FB6F894DEBF0FBECE
:1017DA00CDBF633008F0ABC129013A0194E0491A40
:1017EA00510861087108EDEF4E16E7E05E066104E4
:1017FA00710408F09CC125013601F1E04F1A510825
:10180A00610871089FEF491659069FE0690671043D
:10181A0008F08DC1E114F104E0E10E07110508F0AA
:10182A0086C1250136014701580169017A01162F3F
:10183A00082F81149104A104B10431F5F4E0CF1A00
:10184A00D108E108FEEFFF0ACC0CDD1CEE1CFF1CE0
:10185A00CC0CDD1CEE1CFF1CCC0CDD1CEE1CFF1C92
:10186A00CC0CDD1CEE1CFF1CCC0CDD1CEE1CFF1C82
:10187A00CC0CDD1CEE1CFF1CCC0CDD1CEE1CFF1C72
:10188A0040E050E0BA01DBC021E042165104610495
:10189A00710409F048C0D501C4010497A109BE4FDB
:1018AA00C80ED91EEA1EFB1ECC0CDD1CEE1CFF1C4A
:1018BA00CC0CDD1CEE1CFF1CCC0CDD1CEE1CFF1C32
:1018CA00CC0CDD1CEE1CFF1CCC0CDD1CEE1CFF1C22
:1018DA00CC0CDD1CEE1CFF1CCC0CDD1CEE1CFF1C12
:1018EA00B501A4014150510961097E4F440F551FAA
:1018FA00661F771F440F551F661F771F440F551F1A
:10190A00661F771F440F551F661F771F440F551F09
:10191A00661F771F440F551F661F771F440F551FF9
:10192A00661F771F8CC0C301B2010E9481186987A4
:10193A007A878B879C87C501B4010E948118298503
:10194A003A854B855C850E945B1E20E030E040E0D2
:10195A0053E40E945F1E0E944C126D877E878F8718
:10196A00988BD701C601880F991FAA1FBB1F880F22
:10197A00991FAA1FBB1F880F991FAA1FBB1F880F79
:10198A00991FAA1FBB1F880F991FAA1FBB1F880F69
:10199A00991FAA1FBB1FBC01CD01660F771F881FA5
:1019AA00991F0E9481182D853E854F8558890E946E
:1019BA00161E20E030E040E054E40E94151E0E940A
:1019CA00A1196B017C01D501C401880F991FAA1FB7
:1019DA00BB1F880F991FAA1FBB1F880F991FAA1F19
:1019EA00BB1F880F991FAA1FBB1F880F991FAA1F09
:1019FA00BB1F880F991FAA1FBB1FBC01CD01660F11
:101A0A00771F881F991F0E948118698B7A8B8B8B8D
:101A1A009C8B2D853E854F85588969857A858B856E
:101A2A009C850E945F1E9B01AC0169897A898B891A
:101A3A009C890E94151E0E94A119AB01BC0111309C
:101A4A0049F018F0123059F00FC00F2EFAE23F2E6B
:101A5A00F02D0BC00F2EF2E33F2EF02D06C00F2EF5
:101A6A00FAE33F2EF02D01C0312C59824A82D70168
:101A7A00C60188279927A370BB2724E0129FF0018B
:101A8A001124E555FC4F2081822F8A2B8B83DC821F
:101A9A00CD82D301C20188279927AF70BB27072EB1
:101AAA007CE0B695A795979587957A95D1F7702D8D
:101ABA006A017B01CC24DD24EFE0EE22FF248E298B
:101ACA008E835F8348870E94341C80E60E94F91C3B
:101ADA00832D0E949D1DCE0101967C016E0199E025
:101AEA00C90ED11CF70181917F010E949D1DEC1442
:101AFA00FD04C1F70E94571E013011F46FE201C0C4
:101B0A006FE089288A288B2809F46064113041F033
:101B1A0018F0123049F00BC080E10E94491C07C03E
:101B2A0081E10E94491C03C082E10E94491C64961B
:101B3A000FB6F894DEBF0FBECDBFDF91CF911F91D4
:101B4A000F91FF90EF90DF90CF90BF90AF909F9052
:0E1B5A008F907F906F905F904F903F90089516
:101B68008F929F92AF92BF92EF92FF920F931F9323
:101B7800CF93DF93CDB7DEB7A8970FB6F894DEBF43
:101B88000FBECDBF8C0142E050E065E572E00E94D7
:101B9800FA1A892B81F5F80101900020E9F73197AD
:101BA800E01BF10B3397B8F0F8018281813341F4DF
:101BB80082E090E09093DF038093DE035B9A76C126
:101BC800803309F073C183E090E09093DF03809342
:101BD800DE035B986BC18091DE039091DF0302976F
:101BE80029F488E592E00E943A1D60C18EE592E0F2
:101BF8000E943A1D5BC142E050E064E672E0C80111
:101C08000E94FA1A892B09F065C081E090E0909350
:101C1800DF038093DE03F80101900020E9F7319794
:101C2800E01BF10B339708F450C0C80102960E94DC
:101C38009E17062F172FF82EE92E20E432E44FE0E6
:101C480050E00E94081C49015A013093E303209395
:101C5800E20328EE33E040E050E00E94081C309395
:101C6800E1032093E003FAE08F169104A4F4EF92C5
:101C7800FF921F930F9387E692E09F938F9385E7D8
:101C880093E09F938F930E94E71C0FB6F894DEBFF2
:101C98000FBECDBF13C0EF92FF921F930F938FE635
:101CA80092E09F938F9385E793E09F938F930E9491
:101CB800E71C0FB6F894DEBF0FBECDBF802F912F63
:101CC8009093DD038093DC03F1C085E793E00E94E5
:101CD8003A1DECC042E050E066E772E0C8010E949D
:101CE800FA1A892B99F4F80101900020E9F7319745
:101CF800E01BF10B339708F4D9C0C80102960E9483
:101D08009E17CE0101960E943A1DD0C042E050E0D5
:101D180069E772E0C8010E94FA1A892B19F5F801DF
:101D280001900020E9F73197E01BF10B3497A8F0F8
:101D3800F8018281803329F48CE792E00E943A1DF1
:101D4800B5C0813329F481E892E00E943A1DAEC003
:101D580086E892E00E943A1DA9C08CE792E00E94B2
:101D68003A1DA4C042E050E06DE972E0C8010E944B
:101D7800FA1A892B19F5F80101900020E9F7319733
:101D8800E01BF10B3497A8F0F8018281803329F425
:101D980080EA92E00E943A1D89C0813329F485EADD
:101DA80092E00E943A1D82C08AEA92E00E943A1D9F
:101DB8007DC080EA92E00E943A1D78C042E050E07F
:101DC80061EC72E0C8010E94FA1A892B29F484ECAC
:101DD80092E00E943A1D6AC043E050E06CEC72E069
:101DE800C8010E94FA1A892B29F480ED92E00E941A
:101DF8003A1D5CC043E050E066ED72E0C8010E9405
:101E0800FA1A892B29F48AED92E00E943A1D4EC0F5
:101E180043E050E062EE72E0C8010E94FA1A892B92
:101E280029F486EE92E00E943A1D40C042E050E05C
:101E38006CEE72E0C8010E94FA1A892B19F587E73F
:101E480093E09F938F938FEE92E09F938F938E01F1
:101E58000F5F1F4F1F930F930E94E71CC8010E943A
:101E68003A1D84E090E09093DF038093DE0385E0E1
:101E780093E00E943A1D0F900F900F900F900F90D3
:101E88000F9014C042E050E06CE173E0C8010E947A
:101E9800FA1A892B39F485E090E09093DF03809358
:101EA800DE0304C08FE193E00E943A1DA8960FB6A6
:101EB800F894DEBF0FBECDBFDF91CF911F910F9178
:0E1EC800FF90EF90BF90AF909F908F90089585
:101ED6004F925F926F927F928F929F92AF92BF9234
:101EE600CF92DF92EF92FF920F931F93CF93DF93E0
:101EF600CDB7DEB72A970FB6F894DEBF0FBECDBFBB
:101F060089876A8729013A0147015801862F8F5030
:101F16008C3408F0E3C0D801C7010197A109B109C3
:101F26008F3F9F4FAF40B10508F0D8C04114510410
:101F360080E16806710408F0D1C0411451046104BF
:101F4600710479F4C62ED12C24E0C21AD108D69495
:101F5600DC2CCC24D794C7940D2C000CEE08FF087B
:101F660071C0C801B7010E94811869837A838B8387
:101F76009C83C301B2010E94811829813A814B8159
:101F86005C810E945B1E20E030E040E053E40E944A
:101F96005F1E0E944C126D837E838F8398879A857D
:101FA60080E8989FB0011124072E000C880B990B2E
:101FB6000E9483182D813E814F8158850E94161EEE
:101FC60020E030E040E054E40E94151E0E94A11972
:101FD6006B017C01D301C201880F991FAA1FBB1F89
:101FE600880F991FAA1FBB1F880F991FAA1FBB1F07
:101FF600880F991FAA1FBB1F880F991FAA1FBB1FF7
:10200600880F991FAA1FBB1FBC01CD01660F771F42
:10201600881F991F0E9481182B013C012D813E814A
:102026004F81588569817A818B819C810E945F1ED0
:102036009B01AC01C301B2010E94151E0E94A119A9
:102046002B013C012985222319F082E2898302C0F3
:102056009AE19983692D89810E94491C682D89819D
:102066008F5F0E94491CD701C60188279927A37054
:10207600BB27BD018827992789818E5F0E94491C4D
:102086006D2D89818D5F0E94491C6C2D89818C5F25
:102096000E94491C882499242FE0A222BB24072EE3
:1020A6007CE0B694A794979487947A95D1F7702D8F
:1020B600D301C20188279927AF70BB27682D6A2BE9
:1020C60089818B5F0E94491C652D89818A5F0E94E8
:1020D600491C642D8981895F0E94491C2A960FB686
:1020E600F894DEBF0FBECDBFDF91CF911F910F9148
:1020F600FF90EF90DF90CF90BF90AF909F908F9022
:0A2106007F906F905F904F90089556
:10211000AFE0B0E0EEE8F0E10C946F1B1C016B0146
:102120005A8349832B83FB0182819381848095802C
:1021300000811181A680B78097FD02C00D7F02C08B
:1021400081E090E0E981FA81408051806280738073
:102150009801207133273D832C83740104FF08C04C
:10216000411451046104710419F032E0E31AF108DA
:10217000F801E870FF27FF83EE8303FF03C0F1E05F
:10218000EF1AF108F6010084F185E02D3197FF8701
:10219000EE87EA0DFB1D10829C012E193F0939873D
:1021A0002887C801827099279B878A87EB818E2FA9
:1021B000EE0F990B9C01215431093D872C872E8508
:1021C0003F852230310530F48C819D81892B09F0C7
:1021D00042C05CC0411451046104710461F18E85F8
:1021E0009F8501979F878E87C2018F7099278A30BC
:1021F000910514F4C09602C0895A9F4FEC85FD8565
:102200007A9748F49C012062215631092A31310520
:1022100010F40E94DD1DEE85FF85EA0DFB1D808315
:10222000F1E0EF1AF10884E07694679457944794AC
:102230008A95D1F7C4CF888599858E0D9F1D181674
:1022400019066CF21E141F040CF0BECFEA85FB8544
:10225000EF2B29F6B9CFE981FA8180819181A281A2
:10226000B381892B8A2B8B2B89F0EE85FF85EA0DB4
:10227000FB1D31972B8120838E859F8502979F8739
:102280008E87FC01EA0DFB1D80E38083EE81FF81D8
:10229000EF2B59F02E853F85215031093F872E873E
:1022A000F901EA0DFB1D80E28083F601408551852E
:1022B000415051092E853F85421B530BB9016A0DD0
:1022C0007B1D9401C1010E9434199C01F1018081A0
:1022D000918190FF06C0F601828193818217930756
:0C22E0000CF4C9012F96E2E10C948B1B5A
:1022EC00A4E0B0E0ECE7F1E10C94711B8B019C01D4
:1022FC00AC0140785F776B017C0140385F4761F43B
:10230C00E894E7F8FF24C114D104E104F10409F0C6
:10231C00ACC097FDAAC0AEC0E894F7F8C114D104C4
:10232C00E104F10409F4A6C097FF07C081E290E034
:10233C00909301018093000198C0DC01CB0167E10F
:10234C00B595A795979587956A95D1F70097A105AF
:10235C00B105B9F480E090E0DC0127FD08C0000F66
:10236C00111F221F331F0196A11DB11DF6CF01971E
:10237C00A109B109B095A095909581959F4FAF4F4C
:10238C00BF4F8F579109A109B1092F7733272068C7
:10239C0080FF04C0000F111F221F331FAC01BD01B1
:1023AC00759567955795479549835A836B837C83BD
:1023BC00000F111F221F331F49E150E0812C912C7B
:1023CC005401B394C12CD12C760180E090E0DC0157
:1023DC002C013D01480C591C6A1C7B1C041515056D
:1023EC002605370574F0D301C201880D991DAA1D6D
:1023FC00BB1D0419150926093709C80CD91CEA1C80
:10240C00FB1C000F111F221F331FB694A794979427
:10241C00879441505109E1F601151105210531054B
:10242C0051F0970186010170112722273327C00E26
:10243C00D11EE21EF31EF594E794D794C79451EC89
:10244C00F51A89819A81AB81BC8127E1880F991F8C
:10245C00AA1FBB1F2A95D1F78C0D9D1DAE1DBF1D4C
:10246C00482F392F2A2F5B2F09C040E030E020EC99
:10247C005FE704C0462F372F282F592F642F732F57
:0C248C00822F952F2496E0E10C948D1B0C
:102498008F929F92AF92BF92CF92DF92EF92FF926C
:1024A8000F931F938B019C0157E13695279517953C
:1024B80007955A95D1F71127A8014F575109473168
:1024C80051050CF045C057FD2DC00FEF1FEF2FE74A
:1024D80030E004C035952795179507954A95D2F7AA
:1024E8004801590186229722A822B92289288A28D8
:1024F8008B2871F197FF07C0DC01CB01800F911F7A
:10250800A21FB31F02C0DC01CB01009510952095D6
:10251800309580239123A223B323482F392F2A2FC4
:102528005B2F1AC097FF0FC08B019C01000F111F72
:10253800221F331F012B022B032B51F040E030E008
:1025480020E85FEB09C040E030E020E050E004C044
:10255800462F372F282F592F642F732F822F952F0F
:102568001F910F91FF90EF90DF90CF90BF90AF90A9
:062578009F908F90089572
:10257E00A2E0B0E0E5ECF2E10C946F1B3C016B01C4
:10258E00FB0122813381A480B580808191819A8361
:10259E00898386809780FA01208031804280538023
:1025AE00B201A10157FE07C044275527BA014219AF
:1025BE0053096409750937FD03C08D7F9A8389839A
:1025CE00950157FC05C0898182FD02C083FF02C0C0
:1025DE0021503109CE0101967C010AE010E0C601BE
:1025EE000E94D91457FC03C0298122FF0AC001970B
:1025FE00F401E80FF91F57FC02C02BE209C02DE2CF
:10260E0007C023FF06C00197F401E80FF91F20E26F
:10261E00208309811A81F601408551854150510967
:10262E00481B590BB401680F791F9501C3010E9415
:10263E0034199C01F3018081918190FF06C0F6014F
:10264E0082819381821793070CF4C9012296E2E1ED
:04265E000C948B1B32
:1026620010C00E94231E58F00E941C1E40F029F444
:102672005F3F29F00C94381E51110C942B1E0C94C0
:10268200631E0E94771A68F39923B1F3552391F3DD
:10269200951B550BBB27AA2762177307840738F0CF
:1026A2009F5F5F4F220F331F441FAA1FA9F335D02C
:1026B2000E2E3AF0E0E832D091505040E695001CE0
:1026C200CAF72BD0FE2F29D0660F771F881FBB1F9A
:1026D200261737074807AB07B0E809F0BB0B802D78
:1026E200BF01FF2793585F4F3AF09E3F510578F0A4
:1026F2000C94381E0C942B1E5F3FE4F3983ED4F3E7
:10270200869577956795B795F7959F5FC9F7880F77
:10271200911D9695879597F90895E1E0660F771FC9
:10272200881FBB1F621773078407BA0720F0621B5A
:0E273200730B840BBA0BEE1F88F7E095089529
:102740000FC00E941C1E38F00E94231E20F095230B
:1027500011F00C94381E0C94631E11240C942B1E43
:102760000E94771A70F3959FC1F3950F50E0551FA3
:10277000629FF001729FBB27F00DB11D639FAA27D6
:10278000F00DB11DAA1F649F6627B00DA11D661F25
:10279000829F2227B00DA11D621F739FB00DA11D46
:1027A000621F839FA00D611D221F749F3327A00D00
:1027B000611D231F849F600D211D822F762F6A2F9C
:1027C00011249F5750409AF0F1F088234AF0EE0F01
:1027D000FF1FBB1F661F771F881F91505040A9F72E
:1027E0009E3F510580F00C94381E0C942B1E5F3FC9
:1027F000E4F3983ED4F3869577956795B795F7956A
:10280000E7959F5FC1F7FE2B880F911D96958795E1
:0428100097F9089597
:10281400CF93DF93DC01F90168387105F1F05CF4C2
:102824006138710561F164387105A1F16038710591
:1028340009F051C02FC0603C710509F441C0603FEC
:102844007105F1F1603A710509F045C0C081D1818B
:10285400CE0102969183808325C0C081D181CE01AF
:10286400029691838083452B39F04881042E000C15
:10287400550B660B770B1CC0488150E029C0C08102
:10288400D181CE01049691838083488159816A81E4
:102894007B810EC0C081D181CE0102969183808359
:1028A400452BA1F048815981052E000C660B770B4E
:1028B4004D935D936D937C93139781E090E00DC0ED
:1028C400C081D181CE010296918380834881598150
:1028D40060E070E0EDCF80E090E0DF91CF9108956B
:1028E40011C00E941C1E38F00E94231E20F039F4EF
:1028F4009F3F19F426F40C94631E0EF4E095E7FB55
:102904000C94381EE92F0E94771A58F3BA176207FD
:1029140073078407950720F079F4A6F50C942A1E12
:102924000EF4E0950B2EBA2FA02D0B01B9019001E6
:102934000C01CA01A0011124FF27591B99F0593F2A
:1029440050F4503E68F11A16F040A22F232F342F72
:102954004427585FF3CF469537952795A795F040C0
:102964005395C9F77EF41F16BA0B620B730B840BD5
:10297400BAF09150A1F0FF0FBB1F661F771F881F8D
:10298400C2F70EC0BA0F621F731F841F48F48795E5
:1029940077956795B795F7959E3F08F0B0CF9395D7
:0E29A400880F08F09927EE0F979587950895F4
:1029B200A0E0B0E0EFEDF4E10C94711BDC01280122
:1029C2001696AD90BC901797F7018081918112966F
:1029D200ED91FC9113971896CD91DC91199721975F
:1029E200F7FF02C0E1E0F0E0CA0DDB1D18826901C9
:1029F200A1E0B0E08F01021B130B4C01F2E08F2229
:102A02009924052C000C66087708CE018A199B09C7
:102A1200CA15DB0519F1411551056105710589F0EA
:102A2200CB01BA01A30192010E94991ACA01A62FF1
:102A3200B72F605D6A9341E0C41AD108A901BC01B5
:102A4200E4CF98012C0D3D1D121613064CF31C14F5
:102A52001D0434F48114910419F702C080E090E05F
:102A6200AB2B31F4F701208131812F7E318320831A
:0A2A7200CDB7DEB7E0E10C948D1B38
:102A7C00EBEAF3E010821182128213821482158227
:102A8C0016821782108611861286138662ED87EBEA
:102A9C000E94491C60E880E10E94491C60E881E1C9
:102AAC000E94491C60E882E10E94491C60E883E1B5
:102ABC000E94491C60E884E10E94491C60E885E1A1
:102ACC000E94491C60E886E10E94491C60E887E18D
:102ADC000E94491C6CE080E10E94491C6CE081E181
:102AEC000E94491C6CE082E10E94491C6CE083E16D
:102AFC000E94491C6CE084E10E94491C6CE085E159
:102B0C000E94491C6CE086E10E94491C6CE087E144
:102B1C000E94491C85E90E946D19682F6F7785E921
:062B2C000E94491C0895FF
:102B32001F921FB61F9211242F933F938F939F933F
:102B420030B120B1832F817090E0880F991F21FB53
:102B5200992790F9892B9091020491110DC081302F
:102B620059F42091FA033091FB032F5F3F4F3093CA
:102B7200FB032093FA0310C09091020491110CC040
:102B8200823051F42091FA033091FB032150310934
:102B92003093FB032093FA032091FA033091FB0355
:102BA2002E3131053CF02EE130E03093FB032093CF
:102BB200FA030DC02091FA033091FB032430310552
:102BC20034F423E030E03093FB032093FA03809344
:102BD20002049F918F913F912F911F901FBE1F90D2
:022BE200189544
:102BE4001F921FB61F9211242F933F938F939F938D
:102BF40036B126B136FB882780F990E0880F991FFB
:102C0400922F991F9927991F892B90910104911153
:102C14000DC0813059F42091F8033091F9032F5FEE
:102C24003F4F3093F9032093F80310C090910104AF
:102C340091110CC0823051F42091F8033091F903C2
:102C4400215031093093F9032093F8032091F803BC
:102C54003091F903273E33403CF027EE33E03093C4
:102C6400F9032093F8030BC02091F8033091F90382
:102C74001216130624F01092F9031092F8038093AD
:102C840001049F918F913F912F911F901FBE1F9020
:022C9400189591
:102C96000F931F93CF93DF93EA0140385105D4F089
:102CA60020E030E040E05FE70E945F1E9E012F5764
:102CB6003109203831056CF120E030E040E05FE773
:102CC6000E945F1ECE5FD109C038D1051CF1CFE747
:102CD600D0E020C042385F4FECF420E030E040E81E
:102CE6005CE00E945F1E9E012A593F4F22384FEF3B
:102CF60034077CF420E030E040E85CE00E945F1E90
:102D0600C453DF4FC2382FEFD20724F4C2E8DFEFF7
:102D160001C0E9019E0121583F4F8901330F220B63
:102D2600330BA9019801E7E1220F331F441F551FFA
:102D3600EA95D1F70E945F1EDF91CF911F910F9107
:022D46000895EE
:102D4800A2E0B0E0EAEAF6E10C94731B4C016B01D7
:102D5800FB012281338164807580808191819A830F
:102D68008983A680B78037FD03C08D7F9A838983C6
:102D7800FA014081518162817381CE0101967C0103
:102D880008E010E09301C6010E94D914298124FFAC
:102D980006C00197F501E80FF91F20E32083298178
:102DA80023FF06C00197F501E80FF91F20E22083F1
:102DB80009811A81F6014085518541505109481B06
:102DC800590BB501680F791F9301C4010E9434198A
:102DD8009C01F4018081918190FF06C0F6018281F7
:102DE8009381821793070CF4C9012296EEE00C94A4
:022DF8008F1B2F
:102DFA008091DE039091DF038130910539F52091AE
:102E0A00E2033091E3033093F7032093F6038091B2
:102E1A00E0039091E1039093F5038093F403220F6A
:102E2A00331FB901660F771F660F771F260F371FEB
:102E3A0064E670E00E94C11C620F731F7093F30373
:102E4A006093F20385E08093FC0308958230910534
:102E5A0039F41092FD035B9886E08093FC03089591
:102E6A008330910541F481E08093FD035B9A86E00B
:102E7A008093FC0308958430910521F486E08093C1
:102E8A00FC0308958530910509F0B6CF1092FC0332
:022E9A00089599
:102E9C00FF920F931F93CF93DF9300D0CDB7DEB784
:102EAC008A01F22E0E941B1DFF20D1F16F2D70E0C4
:102EBC0061507109072E000C880B990B0E94831826
:102ECC009B01AC0160E070E080E291E40E94B900EB
:102EDC000E94A1197A83698369817A81C8010E9451
:102EEC00AD1CAB019B01ADECBCEC0E94581D969542
:102EFC0087959695879596958795880F991F9C0130
:102F0C00220F331F220F331F820F931F9A01281B8E
:102F1C00390BC901805D0E94BF1BFA94F110C6CF1A
:102F2C000F900F90DF91CF911F910F91FF9008950B
:102F3C00A0E0B0E0E4EAF7E10C94791BAC01FA01F3
:102F4C0090814F5F5F4F9032D1F3292F092E000CE7
:102F5C00330B295031092530310588F39B3271F53B
:102F6C0000E010E0319602C000E010E020E030E01C
:102F7C00A901C1910C2E000CDD0BE097CA30D105D4
:102F8C0078F4AAE0B0E00E94C01D6E01DD0FEE08DF
:102F9C00FF089B01AC012C193D094E095F09E9CFD3
:102FAC000115110541F466277727CB01621B730BC2
:102FBC00840B950B08C0CA01B90105C09D32A1F65E
:102FCC0001E010E0CFCFCDB7DEB7E8E00C94951B55
:102FDC000F931F93CF93DF93DB01109719F48FEFAF
:102FEC009FEF3DC02D913C91119730FF25C0169657
:102FFC004D915C91179714962D913C911597421712
:10300C00530778F41296ED91FC91139780831296E6
:10301C002D913C9113972F5F3F4F13963C932E931A
:10302C00129716962D913C9117972F5F3F4F17963D
:10303C003C932E93169713C01C96ED91FC911D9703
:10304C00309769F2EB01092F182F0995892B39F666
:10305C008E819F8101969F838E83812F902FDF918C
:08306C00CF911F910F9108950F
:10307400A2E0B0E0E0E4F8E10C94731B5C016B01A6
:10308400FB012281338184809580808191819A83A0
:1030940089836680778037FD03C08D7F9A83898317
:1030A400FA014081518162817381CE0101967C01D4
:1030B4000AE010E09401C6010E94D91409811A8122
:1030C400F6014085518541505109481B590BB30104
:1030D400680F791F9401C5010E9434199C01F50100
:1030E4008081918190FF06C0F601828193818217CD
:0E30F40093070CF4C9012296EEE00C948F1B9A
:10310200E89409C097FB3EF490958095709561957F
:103112007F4F8F4F9F4F9923A9F0F92F96E9BB2735
:103122009395F695879577956795B795F111F8CFB1
:10313200FAF4BB0F11F460FF1BC06F5F7F4F8F4F1C
:103142009F4F16C0882311F096E911C0772321F012
:103152009EE8872F762F05C0662371F096E8862FAA
:1031620070E060E02AF09A95660F771F881FDAF701
:0A317200880F9695879597F9089548
:10317C00A2E8B0E0E4ECF8E10C94751B5C014A01A8
:10318C00CF57DF4F79836883C158D040C12CD12CE5
:10319C00CF57DF4FE881F981C158D0408081882317
:1031AC00E9F07401860120E830E0AE014F5F5F4F1B
:1031BC00BE016F577F4FC5010E94D7098C0D9D1D15
:1031CC008C159D054CF48FE490E090930101809355
:1031DC0000018FEF9FEF03C06C01DACFC601CE5711
:0831EC00DF4FECE00C94911B95
:1031F400A0E1B0E0E0E0F9E10C947B1BFB01BA0133
:10320400AE014F5F5F4F7A0140E1D7011D924A95AD
:10321400E9F742E051E05A8349839C838B83F7FFAB
:1032240009C08FE490E090930101809300018FEF37
:103234009FEF14C0A9018C013197FE83ED83C70170
:103244000E94F01B4F8158852D813E814217530700
:1032540008F49A01F801E20FF31F10826096E6E089
:043264000C94971B14
:10326800A0E0B0E0EAE3F9E10C94751B6C015B01A6
:103278007A01E901480181E08822992400FD03C010
:103288004217530750F0A701B501C6010E94361B2B
:10329800EC16FD0610F0C70117C08E010E191F09A4
:1032A8000115110541F0B60180E290E00E94EE1789
:1032B80001501109F5CF8114910429F4A701B50132
:1032C800C6010E94361BCE01CDB7DEB7ECE00C94E8
:0232D800911B48
:1032DA001F93CF93DF9300D00F92CDB7DEB7182F8D
:1032EA000E94341C80E60E94F91C898389818831F6
:1032FA00B9F4812F0E949D1D8A838A81883291F4B4
:10330A000E94D41D80E60E94491D8B838B818034E4
:10331A0059F40E94AA1D89830E94571E898105C0FB
:10332A008FEF03C08FEF01C08FEF0F900F900F90B8
:08333A00DF91CF911F9108956E
:103342000E947F1A88F09F5798F0B92F9927B7519A
:10335200B0F0E1F0660F771F881F991F1AF0BA9537
:10336200C9F714C0B13091F00E942A1EB1E008954D
:103372000C942A1E672F782F8827B85F39F0B93F3F
:10338200CCF3869577956795B395D9F73EF49095EA
:0E3392008095709561957F4F8F4F9F4F0895E6
:1033A000DC01ED91FC91119780818A3221F080E05F
:1033B00090E03AE00EC03196ED93FC93DB01ED9185
:1033C000FC911197CF0102968D939C9380819181FE
:1033D0000895ED91FC911197208120532A3068F4D3
:1033E000389FA001399F500D1124CA01820F911DF1
:0C33F00031961196FC93EE93ECCF0895FB
:1033FC00CF930E94F61DC82F0E94EE1DCB3369F4AB
:10340C00E0910004F0E0EB5CFC4F108285E393E06C
:10341C000E94B40D1092000414C0E0910004EF332C
:10342C0048F481E08E0F80930004F0E0EB5CFC4FDD
:10343C00C083DFCF1092000482E091E00E943A1D1D
:06344C00D8CFCF910895D6
:10345200A0E0B0E0EFE2FAE10C94771B7C01FB0103
:10346200EA01C901A280B380C480D58000811181A4
:10347200209711F4CFECD3E0009719F4CE010E940B
:10348200751DB7FC04C0A816B90608F4C50196015B
:10349200AC01BE01C7010E943419CDB7DEB7EAE024
:0434A2000C94931BD8
:1034A600990F0008550FAA0BE0E8FEEF161617064F
:1034B600E807F907C0F012161306E407F50798F0B7
:1034C600621B730B840B950B39F40A2661F0232BD0
:1034D600242B252B21F408950A2609F4A140A6954C
:0834E6008FEF811D811D089587
:1034EE0057FD9058440F551F59F05F3F71F04795A7
:1034FE00880F97FB991F61F09F3F79F0879508958C
:10350E00121613061406551FF2CF4695F1DF08C0AA
:10351E00161617061806991FF1CF869571056105C7
:04352E000894089560
:10353200A1E21A2EAA1BBB1BFD010DC0AA1FBB1FB5
:10354200EE1FFF1FA217B307E407F50720F0A21B27
:10355200B30BE40BF50B661F771F881F991F1A9494
:1035620069F760957095809590959B01AC01BD01BE
:04357200CF010895E8
:10357600CF93DF93EC0190E0E92FF0E0EE0FFF1F11
:10358600EB56FC4F8081811102C081810EC0A8815B
:10359600B9812C91821305C091811196B983A883B4
:1035A60001C09F5F9B3040F3892FDF91CF91089533
:1035B60081B18C7F81B987B18F7387B982B18F60F2
:1035C60082B9E8E6F0E08081816080838081846052
:1035D6008083EBE6F0E0808183608083EDE6F0E0B7
:0E35E6008081806C8083D89ADA9A7894089558
:1035F400CF93DF9341155105A9F0DC01FB01EF01E5
:103604008D91882351F09191992339F041305105DE
:1036140021F041505109891791F390E02881821BD0
:0E362400910902C080E090E0DF91CF910895FF
:1036320050B140B1252F217030E0220F331F41FBE2
:10364200332730F9232B2093020436B126B136FBFF
:10365200882780F990E0880F991F922F991F992748
:0A366200991F892B8093010408953D
:10366C00A0E0B0E0ECE3FBE10C94791B6C01EB0106
:10367C008A017B01E40EF51ECE15DF0541F0899120
:10368C00B601082E000C990B0E94EE17F5CFC8015D
:0A369C00CDB7DEB7E8E00C94951BF3
:1036A600CF92DF92EF92FF926B017C0160E085EA98
:1036B6000E94491CC701B6016F777727882799278B
:1036C60086EA0E94491C60EA81EB0E94491CFF9031
:0836D600EF90DF90CF90089502
:1036DE002F923F924F925F926F927F928F929F9214
:1036EE00AF92BF92CF92DF92EF92FF920F931F9302
:1036FE00CF93DF93CDB7DEB7CA1BDB0B0FB6F894B3
:08370E00DEBF0FBECDBF099420
:103716002A88398848885F846E847D848C849B845B
:10372600AA84B984C884DF80EE80FD800C811B8169
:10373600AA81B981CE0FD11D0FB6F894DEBF0FBE98
:06374600CDBFED01089566
:10374C005F985E9895B1892B85B95D9A89EF90E069
:10375C000197F1F700C000005D9889EF90E00197A8
:10376C00F1F700C0000085B115B88BB18F718BB922
:02377C000895AE
:10377E005F9A5E9895B1892B85B95D9A89EF90E035
:10378E000197F1F700C000005D9889EF90E0019776
:10379E00F1F700C0000085B115B88BB18F718BB9F0
:0237AE0008957C
:1037B0000F931F93CF938A010E941B1DF8018081F4
:1037C000882351F0C0E00E94BF1BCF5FF801EC0FCF
:1037D000F11D80818111F7CFCF911F910F91089535
:1037E000A2E0B0E0E6EFFBE10C947D1B8C015A8374
:1037F0004983AE014F5F5F4F0E94BE18F8012081E0
:1038000024FF02C08FEF9FEF2296E4E00C94991BF7
:10381000052E97FB1EF400940E94FE1D57FD07D055
:103820000E94991A07FC03D04EF40C94FE1D50958B
:0E3830004095309521953F4F4F4F5F4F0895C3
:10383E009CB1892F817090FF0FC087E893E10197AB
:10384E00F1F700C000006099FECF87E893E1019781
:0A385E00F1F700C0000081E00895BA
:10386800CF93DF930F92CDB7DEB7198284EA8093A6
:10387800BC00ECEBF0E080818823ECF78091B90084
:0A38880089830F90DF91CF9108951E
:10389200CF93DF93D82FC62F0E94341C80E60E945C
:1038A200F91C8D2F0E949D1D8C2F0E949D1D0E9430
:0838B200571EDF91CF9108952C
:1038BA00069B10C087E893E10197F1F700C000006A
:1038CA000699FECF87E893E10197F1F700C000005F
:0838DA0081E0089580E00895EB
:1038E200059B10C087E893E10197F1F700C0000043
:1038F2000599FECF87E893E10197F1F700C0000038
:0839020081E0089580E00895C2
:10390A00049B10C087E893E10197F1F700C000001B
:10391A000499FECF87E893E10197F1F700C0000010
:08392A0081E0089580E008959A
:10393200619B10C087E893E10197F1F700C0000096
:103942006199FECF87E893E10197F1F700C000008B
:0839520081E0089580E0089572
:10395A00AA1BBB1B51E107C0AA1FBB1FA617B707AB
:10396A0010F0A61BB70B881F991F5A95A9F78095C7
:08397A009095BC01CD010895F8
:1039820097FB072E16F4009407D077FD09D00E940A
:10399200AD1C07FC05D03EF4909581959F4F08958C
:0839A200709561957F4F0895B7
:1039AA0087B1836087B988B18C7F88B987B18C7FEA
:1039BA0087B98DEF8093B800ECEBF0E080818460EA
:0439CA008083089559
:1039CE00A0E0B0E0EDEEFCE10C947F1BAE01475F92
:1039DE005F4F6F8178858D819E810E94311EE2E05E
:0439EE000C949B1B7F
:1039F200880F8093BB0084E88093BC00ECEBF0E07E
:103A020080818823ECF7E9EBF0E0808180818E7F72
:023A1200089515
:103A1400092E0394000C11F4882352F0BB0F40F4D8
:103A2400BF2B11F460FF04C06F5F7F4F8F4F9F4F18
:023A34000895F3
:103A3600813031F48FEF860F80680E94A61B0895AF
:103A4600823029F48FE3860F80680E94A61B0895B2
:103A56001092C5008CE08093C40082E08093C00081
:0E3A660088E18093C10086E08093C20008953D
:103A7400CF93DF93EC018881882331F021960E9453
:0E3A8400EE1D89918111FBCFDF91CF91089546
:103A9200880F81608093BB0084E88093BC00ECEBCC
:0E3AA200F0E080818823ECF78091B900089550
:103AB000A29FB001B39FC001A39F700D811D11246F
:0E3AC000911DB29F700D811D1124911D08955E
:103ACE000E94D81B2FE78AE196E02150804090405B
:0C3ADE00E1F700C000000E94531E089594
:103AEA00FC01AF014F5F5F4F2081222311F0FA01E1
:0C3AFA00F8CF9F01281B390BC90108956B
:103B060081B18F7881B982B18F7882B98DB18C7F7E
:0A3B16008DB98EB18C7F8EB9089531
:103B200088E30E94A61B8CE00E94A61B86E00E94F0
:0A3B3000A61B81E00E94A61B089569
:103B3A008093BB0084E88093BC00ECEBF0E08081CA
:0A3B4A008823ECF78091B90008957C
:103B540084E88093BC00ECEBF0E080818823ECF7F0
:063B64008091BB000895F2
:103B6A00EC010E946D1E0E946C1ECE010E946E1E08
:063B7A00CE010E946A1E4C
:103B80000E94581DA59F900DB49F900DA49F800D7D
:063B9000911D11240895AF
:103B9600CF93C42F0E941B1D8C2F0E94BF1BCF9159
:023BA600089580
:103BA80084EA8093BC00ECEBF0E080818823ECF79A
:023BB80008956E
:103BBA009C01215631092A31310510F48F75992754
:023BCA0008955C
:103BCC0061E08627682F619583E00E94491C089567
:103BDC00E0ECF0E0908195FFFDCF8093C600089556
:103BEC00E0ECF0E080818823ECF78091C60008952A
:103BFC0090958095709561957F4F8F4F9F4F08954D
:103C0C009C01215431092A31310508F48062089550
:0E3C1C0084B18FEF84B98AB1806E8AB90895A1
:0E3C2A005058BB27AA270E9472140C940A1D42
:0E3C380000240A9416161706180609060895A9
:0E3C460000240A9412161306140605060895AB
:0E3C5400E894BB2766277727CB0197F90895E0
:0E3C62009A01AB016FEF7FE70E94FA180895F8
:0C3C700097F99F6780E870E060E008951D
:0C3C7C00EE0FFF1F0590F491E02D09945D
:0A3C880060EA81EB0E94491C0895D8
:0A3C92000E94531A08F481E008951F
:0A3C9C000E94531A08F48FEF0895F8
:083CA60081E00E94A61B0895B5
:083CAE0084E98093BC00089535
:083CB6000E9431130C940A1D59
:083CBE000E94A0130C940A1DE2
:063CC6009FEF80EC089561
:043CCC000C94000054
:043CD0009F7708953D
:043CD4000E94B70093
:023CD80008954D
:023CDA0008954B
:023CDC00089549
:103CDE000D0A4572726F723A20436F6D6D616E649C
:103CEE0020746F6F206C6F6E670D0A003E20544F6C
:103CFE00205354415254005055534820414E5920A0
:103D0E00425554544F4E003E20434F4D505554454E
:103D1E0052204354524C005055534820414E592086
:103D2E004B4E4F42005573657220545554205072BD
:103D3E0065737300434F4E4649524D20746F207386
:103D4E006B697000546F7020427574746F6E0066EC
:103D5E006F7220545800426F74746F6D20427574E8
:103D6E00746F6E00666F72205258004D6964646CF9
:103D7E006520427574746F6E00746F20436F6E66AB
:103D8E0069726D0053656C656374204D6F646500D8
:103D9E005258204D6F64652069730073656C6563BE
:103DAE00746564005458204D6F6465206973004D2E
:103DBE006F646520436F6E6669726D65643A00527A
:103DCE0058204D6F6465005458204D6F6465004354
:103DDE006F6E6669726D656420467265713A002079
:103DEE0000434F4D50204354524C005258005458EB
:103DFE0000506C65617365004B487A004D487A003F
:103E0E004672657175656E63793A00505553482058
:103E1E00414E5920425554544F4E544F2053544105
:033E2E00525400EB
:103E31005458005458310D0A005458300D0A0046A8
:103E4100410046413030256C6400464130256C64A8
:103E5100004642004149004149303B004149313B64
:103E610000496E76616C696420414920706172611C
:103E71006D657465720D0A005354005354303B0054
:103E81005354313B00496E76616C69642053542070
:103E9100706172616D657465720D0A004944004973
:103EA10044303635303B004D4430004D4430433BC7
:103EB10000534830005348303030303B004E4130E1
:103EC100004E4130303B00494600494630303125F3
:103ED100732B3030303030304330303030303B00B5
:103EE100494620636F6D6D616E642070726F63650A
:103EF100737365640D0A00455800556E6B6E6F77DC
:103F01006E2043415420636F6D6D616E640D0A0034
:103F110068076C094C836A9074A07AC00080688835
:063F210000846C820081A7
:083F270000000000DCCFD135E1
:083F2F000000000000C0153F76
:083F37000000803F0000C03FC4
:073F3F00286E756C6C29006F
:063F4600286E696C2900E1
:023F4C001D0254
:023F4E0020024F
:023F500023024A
:023F52002A0241
:023F54002E023B
:023F5600320235
:013F58002048
:00000001FF
