:100000000C948F000C945A1F0C945A1F0C945A1F76
:100010000C94D0160C945A1F0C9429170C945A1F48
:100020000C945A1F0C945A1F0C945A1F0C945A1F6C
:100030000C945A1F0C945A1F0C945A1F0C945A1F5C
:100040000C945A1F0C945A1F0C945A1F0C945A1F4C
:100050000C945A1F0C945A1F0C945A1F0C945A1F3C
:100060000C945A1F0C945A1F0C945A1F0C945A1F2C
:100070000C945A1F0C945A1F0C945A1F0C945A1F1C
:100080000C945A1F0C945A1F0C945A1F0C945A1F0C
:100090000C945A1F0C945A1F0C945A1F0C945A1FFC
:1000A0000C945A1F0C945A1F0C945A1F0C945A1FEC
:1000B0000C945A1F0C945A1F0C945A1F0C945A1FDC
:1000C0000C945A1F0C945A1F0C945A1F2D07AC07FE
:1000D0002E089108AC084709C609E309010001028E
:1000E00080010203F1003EC603F1043180043104B3
:1000F000470041B50447045380045304780041CBC2
:1001000004780482800482048E0041F0048E049AF4
:1001100080049A049B0041FC049B049F80001124EE
:100120001FBECFEFD8E0DEBFCDBFECEDF0E041E089
:1001300017C0B591A59135912591059107FD0CC08A
:1001400095918591EF01F92FE82F05900D92A21757
:10015000B307D9F7FE0104C01D92A217B307E1F758
:10016000ED31F40731F70E94D8060C94A91EF894DB
:02017000FFCFBF
:10017200A2E2B0E0EFEBF0E00C94571C29833A8343
:100182004B835C8329013A01E89477F841145104C6
:100192006104710409F4FFC569877A878B879C879C
:1001A2004B015C016115710500E880070FE39007C0
:1001B20009F4F1C56B017C01E894F7F811E0C1166E
:1001C200D10410E8E1061FE7F1060CF0DFC5A1E05B
:1001D2004A165104A0E86A06AFE77A060CF0D6C5C3
:1001E20097FF42C041145104B0E86B06BBE47B06A2
:1001F200ECF541145104E0E86E06EFE37E060CF4E0
:1002020059C05301420117E1B594A794979487947A
:100212001A95D1F7FFE78F1A9108A108B108E7E113
:10022200F0E0E819F909530142010E2E04C0B59419
:10023200A794979487940A94D2F78D829E82AF8274
:10024200B88604C0880C991CAA1CBB1CEA95D2F77C
:10025200481459046A047B0469F5ED81E170B2E047
:100262009B2E9E1A9D8227C01D8202C002E00D8332
:100272004114510410E861061FE77106E1F4C1144C
:10028200D10480E8E8068FE3F80609F484C54CF04F
:1002920089809A80AB80BC80B7FC82C5CA01B90153
:1002A20082C5E980FA800B811C8117FF79C5CA01DA
:1002B200B9017FC01D822D8B3E8B4F8B588F4B0116
:1002C2005C014114510400E860060FE3700679F402
:1002D200E980FA800B811C8117FF65C59B01AC0187
:1002E20060E070E080E89FE30E944F1F5CC50981D7
:1002F2001A812B813C8101151105210540E4340747
:1003020029F49B01AC010E94531F4DC589819A813A
:10031200AB81BC810097A105BF4359F409851A85B9
:100322002B853C8537FD05C0C501B4010E94AD1285
:100332003AC5C501B4010E945C1FC114D104E10495
:10034200F10449F01FE3B1228114910420E8A206CE
:100352002FE3B20681F589809A80AB80BC80B7FE1C
:1003620008C09B01AC0160E070E080E89FE30E945E
:100372004F1F89849A84AB84BC84B7FE14C500E8FD
:10038200E01A0FE3F00A1D81C12AC114D104E1046D
:10039200F10459F481E290E090930101809300010D
:1003A2006FEF7FEF8FEF9FE7FEC40D81013009F001
:1003B200FAC49058F8C489849A84AB84BC84B7FE8A
:1003C20010C09D80992031F3092D013051F4812C08
:1003D200912CA12CA0E8BA2E89869A86AB86BC867F
:1003E20004C019861A861B861C8601E04016510439
:1003F20061040DE470060CF488C018EFC1161FEFFB
:10040200D1061FE7E1061FE3F1063CF489809A80DA
:10041200AB80BC80B7FE41C317C308E0C016D1044D
:1004220000E8E0060FE3F0065CF089809A80AB807A
:10043200BC80181419041A041B040CF405C32DC340
:1004420020E030E040E85FE30E94091F6B017C017D
:1004520020E03AEA48EB5FE30E94531F4B015C0144
:1004620020E735EA4CEE56E3C701B6010E94531F5E
:1004720069837A838B839C8320E030E040E85EE3EB
:10048200C701B6010E94531F9B01AC016BEA7AEAD5
:100492008AEA9EE30E94091FA70196010E94531F48
:1004A2009B01AC0160E070E080E09FE30E94091FC5
:1004B2002B013C01A7019601C701B6010E94531FFF
:1004C2009B01AC01C301B2010E94531F2BE33AEA24
:1004D20048EB5FE30E94531F9B01AC0169817A8163
:1004E2008B819C810E94091F6B017C019B01AC01E5
:1004F200C501B4010E940A1F6627707F6D837E8347
:100502008F839887A501940120C2C114D10400E809
:10051200E006F1046CF420E030E040E85BE40E9485
:10052200531F6B017C0148EE5FEF6FEF7FEF03C05B
:1005320040E050E0BA01D701C601F7E1B595A795B1
:1005420097958795FA95D1F78F579109A109B10926
:100552004C015D01840E951EA61EB71E898A9A8AD9
:10056200AB8ABC8AE894E7F8FF24460157016894F5
:10057200A7F80FE3B02A12E7C11614ECD1061CE16A
:10058200E106F104B4F027EDC21623EBD2062DE505
:10059200E206F1049CF089899A89AB89BC890196AB
:1005A200A11DB11D898B9A8BAB8BBC8B90E8A91ACC
:1005B200B1081D821E821F82188608C0E12CF12C10
:1005C2008701E394ED82FE820F8318870D811E81DD
:1005D200000F111F000F111F1AA309A3F801ED59F3
:1005E200FB4FE080F18002811381ED86FE860F874A
:1005F200188BA8019701C501B4010E94091F698FD8
:100602007A8F8B8F9C8FA8019701C501B4010E943C
:100612000A1F9B01AC0160E070E080E89FE30E944A
:100622004F1F6D8F7E8F8F8F98A39B01AC01698DB9
:100632007A8D8B8D9C8D0E94531F69837A838B8365
:100642009C8349805A806B807C80442400EF502236
:1006520075016401F594E794D794C794CC2410EF04
:10066200D122E894F5F86894F5F8D701C601A05CA8
:10067200BF4FCD80DE80EF80F88475E1CC0CDD1CAD
:10068200EE1CFF1C7A95D1F7C80ED91EEA1EFB1E7E
:10069200A7019601C301B2010E94531F9B01AC0145
:1006A200698D7A8D8B8D9C8D0E94091F6D837E834F
:1006B2008F8398872D853E854F855889C701B6015E
:1006C2000E94091F9B01AC01C501B4010E94091FD0
:1006D200A30192010E94531F9B01AC016D817E8197
:1006E2008F8198850E94091F2D8D3E8D4F8D58A1B7
:1006F2000E94531F6D837E838F83988729813A815D
:100702004B815C81CA01B9010E94531F6B017C01BC
:1007120022E431EF43E55EE30E94531F25E532E315
:100722004CE65EE30E940A1FA70196010E94531F36
:1007320025E033EA4BE85EE30E940A1FA701960117
:100742000E94531F2BEA3AEA4AEA5EE30E940A1F1A
:10075200A70196010E94531F27EB3DE64BED5EE396
:100762000E940A1FA70196010E94531F2AE939E934
:1007720049E15FE30E940A1F4B015C01A701960158
:10078200C701B6010E94531F9B01AC01C501B40110
:100792000E94531F6B017C01A301920169817A813E
:1007A2008B819C810E940A1F2D813E814F81588539
:1007B2000E94531FA70196010E940A1F6B017C0130
:1007C200A3019201C301B2010E94531F6D877E876C
:1007D2008F87988B20E030E040E450E40E940A1FAB
:1007E200A70196010E940A1F4B015C01882420EF99
:1007F2009222A5019401C301B2010E94531F2B0151
:100802003C0120E030E040E450E4C501B4010E9424
:10081200091F2D853E854F8558890E94091F9B011E
:10082200AC01C701B6010E94091F29813A814B819F
:100832005C810E94531F6B017C01A50194016D81B3
:100842007E818F8198850E94531F9B01AC01C70155
:10085200B6010E940A1F4B015C019B01AC01C3015E
:10086200B2010E940A1F6B017C01CC2430EFD3221B
:1008720020E030E446E75FE3C701B6010E94531F60
:1008820069837A838B839C83A3019201C701B6019A
:100892000E94091F9B01AC01C501B4010E94091FFE
:1008A2002FE438E346E75FE30E94531F4B015C01EC
:1008B20026EC33E246EF58EBC701B6010E94531F04
:1008C2009B01AC01C501B4010E940A1FE9A1FAA172
:1008D200ED5AFB4F20813181428153810E940A1FD0
:1008E2006B017C0169897A898B899C890E946919CB
:1008F2004B015C0109A11AA1055A1B4FD8014D9069
:100902005D906D907C90A701960169817A818B81BF
:100912009C810E940A1FA30192010E940A1FA50145
:1009220094010E940A1F6627707F6D837E838F83E6
:100932009887A50194010E94091FA30192010E94B8
:10094200091F29813A814B815C810E94091F9B0109
:10095200AC01C701B6010E94091F4B015C01CD88A1
:10096200DE88EF88F88CCC24B0EFDB22A701960159
:100972006D897E898F89988D0E94091F2D813E8104
:100982004F8158850E94531F2B013C012D893E89BE
:100992004F89588DC501B4010E94531F9B01AC01C0
:1009A200C301B2010E940A1F69837A838B839C83ED
:1009B200A70196016D817E818F8198850E94531FC8
:1009C200962EA72EB82E892E6D87798B182F092F78
:1009D200262F372F482F592F69817A818B819C814D
:1009E2000E940A1F6B017C016D837E838F8398872F
:1009F20081E0C816D104E10483E4F8062CF52D81C8
:100A02003E814F815885211531054105534419F521
:100A12002CE33AEA48E353E369817A818B819C8132
:100A22000E940A1F2B013C01292D3A2D4B2D582DD6
:100A3200C701B6010E94091F9B01AC01C301B201AB
:100A42000E94421F181674F589859A85AB85BC856C
:100A5200A068BF6798C1D701C601BF770197A641B9
:100A6200B344DCF42D813E814F8158852115310537
:100A72004641534CB9F4292D3A2D4B2D582DC7011F
:100A8200B6010E94091F9B01AC0169817A818B81A9
:100A92009C810E943D1F18162CF069857A858B85F2
:100AA2009C8581C1D701C601BF7781309105A1051F
:100AB200EFE3BE070CF46AC037E1B595A7959795A9
:100AC20087953A95D1F78E5740E050E060E870E0A4
:100AD2008A019B0104C035952795179507958A953C
:100AE200D2F7C00ED11EE21EF31E26013701E89492
:100AF20077F847E175946794579447944A95D1F7EC
:100B02001FE7411A5108610871088FEF9FEFAFE7A5
:100B1200B0E0042C04C0B595A795979587950A94E3
:100B2200D2F780959095A095B0959C01AD012C21AE
:100B32003D214E215F21E894E7F8FF246894E7F80D
:100B420087E190E0841995092601370104C0759464
:100B52006794579447948A95D2F7ED80FE800F816F
:100B6200188517FF08C07094609450944094411CFB
:100B7200511C611C711C692D7A2D8B2D982D0E94A0
:100B8200091F6D87798B182F092F03C0412C512C17
:100B9200320129813A814B815C816D857989812F6E
:100BA200902F0E940A1F4B015C01882420E89222A8
:100BB20020E032E741E35FE3C501B4010E94531F25
:100BC2006D837E838F8398872D853989412F502F9E
:100BD200C501B4010E94091F9B01AC0169817A81A0
:100BE2008B819C810E94091F28E132E741E35FE388
:100BF2000E94531F6B017C012CE83EEB4FEB55E347
:100C0200C501B4010E94531F9B01AC01C701B6018B
:100C12000E940A1F4B015C019B01AC016D817E8128
:100C22008F8198850E940A1F6B017C012D813E8174
:100C32004F8158850E94091F9B01AC01C501B40177
:100C42000E94091F69837A838B839C83A701960183
:100C5200C701B6010E94531F4B015C012CE43BEB20
:100C620041E353E30E94531F2EE03AEE4DED55E36C
:100C72000E94091FA50194010E94531F25E533EB31
:100C82004AE858E30E940A1FA50194010E94531FDB
:100C920021E63BE046E35BE30E94091FA5019401C4
:100CA2000E94531F2BEA3AEA4AE25EE30E940A1FBD
:100CB200A50194010E94531F9B01AC01C701B6011B
:100CC2000E94091F4B015C019B01AC01C701B601E7
:100CD2000E94531F6D837E838F83988720E030E0CC
:100CE20040E050E4C501B4010E94091F9B01AC0120
:100CF2006D817E818F8198850E944F1F4B015C011F
:100D020029813A814B815C81C701B6010E94531F40
:100D120029813A814B815C810E940A1F9B01AC01AF
:100D2200C501B4010E94091FA70196010E94091F73
:100D32009B01AC0160E070E080E89FE30E94091F24
:100D42005301420127E1880C991CAA1CBB1C2A955D
:100D5200D1F7860E971EA81EB91E8114910430E8A1
:100D6200A306B10424F4A2010E94821702C0C501A5
:100D7200B40189849A84AB84BC8486269726A826EB
:100D8200B926D501C401BC01CD010DC060E070E0FF
:100D920080EC9FE708C060E070E080E89FE303C05A
:0E0DA20060E070E0CB01A296E0E10C94731CBF
:100DB000CF93DF9300D000D0CDB7DEB7539A5B98C6
:100DC0000E94021F0E94841E0E94111E539A0E94BC
:100DD000C11B0E94FF1B0E94771E19821A821B8270
:100DE0001C820E94BB1D0E9475160E94381FE12CB8
:100DF000F12C8701E39420E030E0A90160E280E07B
:100E00000E94980F6AE570E080E090E00E94391C33
:100E1000812C912C0F2EF7E06F2EF02D0F2EF0E28B
:100E20004F2EF3E05F2EF02D0F2EF6E03F2EF02D2B
:100E30000F2EF5E02F2EF02D0F2EF2E37F2EF02D4A
:100E4000E09198048E2F90E08830910508F0BEC2A2
:100E5000FC01EA59FF4F0C94321F89EF90E0019793
:100E6000F1F700C00000A4014F5F5F4F9A01369573
:100E70002795ABE7B4E10E943E1E4C0196948794FF
:100E8000789CC001799C900D11244A01881A990A16
:100E900099F48091800490918104823091052CF026
:100EA00010928104109280040DC0019690938104E9
:100EB000809380040E94471F809180049091810458
:100EC000009769F44CEE52E061E081E00E94BE1CA4
:100ED00047EF52E061E082E00E94BE1C0EC0019725
:100EE00061F447E053E061E081E00E94BE1C47E10D
:100EF00053E061E082E00E94BE1C0E94431D81110C
:100F000008C00E94571D811104C00E946B1D8823D8
:100F100061F081E080939804109281041092800423
:100F20000E94471F812C912C8BCF0E94051D81119F
:100F300005C00E947F1D882309F482CF81E0809341
:100F40009B0410928104109280040E94471F3092EB
:100F50009804812C912C74CF89EF90E00197F1F7E0
:100F600000C00000A4014F5F5F4F9A01369527959E
:100F7000ABE7B4E10E943E1E4C0196948794789CA6
:100F8000C001799C900D11244A01881A990AB1F484
:100F90000E94471F809180049091810483309105C5
:100FA00031F40E94471F82E08093980449CF019654
:100FB00090938104809380040E94471F8091800455
:100FC00090918104009769F445E253E061E081E08B
:100FD0000E94BE1C44E353E061E082E00E94BE1C1C
:100FE0002EC08130910569F444E453E061E081E072
:100FF0000E94BE1C4FE453E061E082E00E94BE1CF0
:101000001EC08230910569F446E553E061E081E05D
:101010000E94BE1C44E653E061E082E00E94BE1CD8
:101020000EC0039761F44BE653E061E081E00E945B
:10103000BE1C49E753E061E082E00E94BE1C0E94B2
:10104000571D882309F4FCCE82E0809398040E9407
:10105000471F1092810410928004F2CE40918404C4
:101060005091850461E081E00E94BE1C409186049D
:10107000509187046BE081E00E94BE1C44E853E07D
:10108000632D82E00E94BE1C409182045091830433
:1010900061E082E00E94BE1C0E94431D882389F00B
:1010A0000E94471F81E08093990440E953E061E08A
:1010B0000E94BE1C4BE953E061E082E00E944D1E9D
:1010C00014C00E946B1D882381F00E94471F10925C
:1010D000990444EA53E061E081E00E94BE1C4BE9C0
:1010E00053E061E082E00E944D1E0E94571D88235C
:1010F00029F083E0809398040E94471F0E94051DF9
:10110000882321F0109298040E94471F0E947F1D9F
:10111000882309F495CE84E0809398040E94471FA9
:101120008FCE4AEB52E061E081E00E94BE1C8091CC
:101130009904882339F042ED52E061E082E00E9498
:101140004D1E06C04AEC52E061E082E00E944D1E56
:1011500084E08093980474CE40918C0450918D0467
:1011600061E081E00E94BE1C40919604509197047A
:1011700023E061E082E00E94341840918A0450919B
:101180008B0464E082E00E94BE1C40919A04662DAC
:1011900082E00E94BF1E409194045091950423E088
:1011A00068E082E00E9434184091880450918904DC
:1011B0006BE082E00E94BE1C0E94571D882309F448
:1011C0005BC08091960490919704909393048093D0
:1011D000920480919404909195049093910480934B
:1011E00090048091920490919304880F991F9C0120
:1011F000220F331F220F331F820F931F90938F04F0
:1012000080938E0480919004909191044AEA52E078
:1012100061E081E00E94BE1C4091920450919304D1
:1012200023E061E082E00E94341840918A045091EA
:101230008B0464E082E00E94BE1C40919A04662DFB
:1012400082E00E94BF1E409190045091910423E0DF
:1012500068E082E00E94341840918804509189042B
:101260006BE082E00E94BE1C48EA52E060E181E04F
:101270000E944D1E209298040E94051D882309F4A7
:10128000DFCD82E0809398040E94471FD9CD0E9451
:10129000381F60E070E0CB010E94391C19821A826D
:1012A0001B821C826091920470919304C2010E947F
:1012B000A71D809192049091930407972CF4CB0181
:1012C00063E070E00E94A71D072E000C880B990BAD
:1012D0000E94391C60918E0470918F0480E49FE11C
:1012E0000E94A71D072E000C880B990B0E946919FC
:1012F00020E030E040E251E40E94091F9B01AC0174
:1013000060E070E583EC97E40E944F1F69837A8365
:101310008B839C8369817A818B819C810E94871A4F
:101320005B016C0110EAE12E16E8F12E01E010E0FD
:101330002AE030E040E050E060E080E00E94EC0B0A
:1013400069817A818B819C810E94871A5B016C0183
:101350002AE030E040E050E061E080E00E94EC0BE9
:101360000E94381F81E00E94DA1E80919904882330
:1013700011F05B9A01C05B9880919B04882319F05F
:10138000309298045DCD109298045ACD10927B044F
:1013900010927A044FEA53E061E081E00E94BE1CA3
:1013A00000E315E70E94051D811104C00E947F1D06
:1013B000882329F010929B041092980441CD01508B
:1013C000110981F706C00E94B5103ACD1092980419
:0C13D00037CD0E94E41A6092980432CDE0
:1013DC00AEE0B0E0E4EFF9E00C94581C4C016B016A
:1013EC001A8219828FEF9FEF9C838B831E821D8242
:1013FC0058874F833A872987A12CB12CD6016D9041
:10140C007C90F301EA0DFB1D808181110FC0D60188
:10141C00ED93FC938081853209F0D3C13F01BFEF7E
:10142C006B1A7B0AF6017182608219C0853279F3DE
:10143C00B401082E000C990B0E94D4184FEFA41A7B
:10144C00B40ADCCF8C32ACF08D32F9F489819A81FC
:10145C0081609A8389833196D601ED93FC93D601F2
:10146C00ED91FC9180818B3269F789819A8184603E
:10147C00F0CF803221F489819A818860EACF83325F
:10148C0051F489819A818061E4CF803321F4898180
:10149C009A818260DECFB701C6010E94B61A9E8384
:1014AC008D8397FF0BC029813A81B1E02B273A83BA
:1014BC0029839195819591099E838D8389819A8148
:1014CC0080FF03C08D7F9A838983D601ED91FC91B7
:1014DC00119780818E3249F43196ED93FC93B701CC
:1014EC00C6010E94B61A9C838B83C6010E94A11B65
:1014FC00582ED601ED91FC918081082E000C990B91
:10150C000E94FA1E893609F443C084F4833609F428
:10151C0002C134F4853209F427C18136E1F030C1BF
:10152C008436B1F188360CF4D9C02AC1803709F45D
:10153C009AC03CF48E3609F4BCC08F3609F461C0F5
:10154C001FC1853709F440C0883709F476C083374A
:10155C0009F016C1F3C0652D70E0A701CE010B9602
:10156C000E940000892B09F426C1D601ED91FC9153
:10157C001197CF0101968D939C932081AE01455F0D
:10158C005F4FBE016F5F7F4FC4010E94000010C10E
:10159C00652D70E0970141E050E0CE010B960E9462
:1015AC004115892B09F407C1F601808191810196BF
:1015BC0091838083AE01455F5F4FBE016F5F7F4FAC
:1015CC00C4010E94F613F4C0652D70E0970140E051
:1015DC0050E0CE010B960E944115892B09F4EBC00B
:1015EC00D6018D919C91119701968D939C93AE0190
:1015FC00455F5F4FBE016F5F7F4FC4010E94201992
:10160C00D7C0652D70E0970140E050E0CE010B96FD
:10161C000E944115892B09F4CEC0F601808191817D
:10162C00019691838083AE01455F5F4FBE016F5F72
:10163C007F4FC4010E94DB17BBC0652D70E0970182
:10164C0040E050E0CE010B960E944115892B09F425
:10165C00B2C0D601ED91FC911197CF0101968D93FB
:10166C009C9320811CC0970140E050E060EF70E03B
:10167C00CE010B960E944115892B09F49CC0F601F2
:10168C00808191810196918380838B859C85892BA8
:10169C0029F420E030E042E754E084C028E7AE01B2
:1016AC00455F5F4FBE016F5F7F4FC4010E94BF114A
:1016BC007FC0A501400F511F652D70E09701CE0131
:1016CC000B960E940000892B09F475C0D6018D91F0
:1016DC009C91119701968D939C9373C0652D70E02E
:1016EC00A701CE010B960E940000892B09F463C060
:1016FC00D601ED91FC911197CF0101968D939C939E
:10170C002081AE01455F5F4FBE016F5F7F4FC4010B
:10171C000E9400004DC0B0E85B124DC0F601808104
:10172C009181019691838083D701ED91FC91119762
:10173C00CF0102968D939C93808120C0B0E85B1200
:10174C003AC0F60180819181019691838083D70103
:10175C00ED91FC911197CF0102968D939C93408152
:10176C00518120E030E01EC0B0E85B1224C0F601CD
:10177C00208131812F5F3F4F318320838B870DC0B8
:10178C0085E28B87D6016D927C921A8219821E8219
:10179C001D828FEF9FEF9C838B8321E030E0AE01A5
:1017AC00455F5F4FBE016F5F7F4FC4010E940F1BEF
:1017BC008A0D9B1D07C0F601808191810196918352
:0C17CC008083C5012E96EFE00C94741C85
:1017D8003F924F925F926F927F928F929F92AF92B9
:1017E800BF92CF92DF92EF92FF920F931F93CF9306
:1017F800DF93CDB7DEB764970FB6F894DEBF0FBEA0
:10180800CDBF633008F0ABC129013A0194E0491A11
:10181800510861087108EDEF4E16E7E05E066104B5
:10182800710408F09CC125013601F1E04F1A5108F6
:10183800610871089FEF491659069FE0690671040F
:1018480008F08DC1E114F104E0E10E07110508F07C
:1018580086C1250136014701580169017A01162F11
:10186800082F81149104A104B10431F5F4E0CF1AD2
:10187800D108E108FEEFFF0ACC0CDD1CEE1CFF1CB2
:10188800CC0CDD1CEE1CFF1CCC0CDD1CEE1CFF1C64
:10189800CC0CDD1CEE1CFF1CCC0CDD1CEE1CFF1C54
:1018A800CC0CDD1CEE1CFF1CCC0CDD1CEE1CFF1C44
:1018B80040E050E0BA01DBC021E042165104610467
:1018C800710409F048C0D501C4010497A109BE4FAD
:1018D800C80ED91EEA1EFB1ECC0CDD1CEE1CFF1C1C
:1018E800CC0CDD1CEE1CFF1CCC0CDD1CEE1CFF1C04
:1018F800CC0CDD1CEE1CFF1CCC0CDD1CEE1CFF1CF4
:10190800CC0CDD1CEE1CFF1CCC0CDD1CEE1CFF1CE3
:10191800B501A4014150510961097E4F440F551F7B
:10192800661F771F440F551F661F771F440F551FEB
:10193800661F771F440F551F661F771F440F551FDB
:10194800661F771F440F551F661F771F440F551FCB
:10195800661F771F8CC0C301B2010E94671969878F
:101968007A878B879C87C501B4010E9467192985EE
:101978003A854B855C850E944F1F20E030E040E0AF
:1019880053E40E94531F0E9483136D877E878F87BD
:10199800988BD701C601880F991FAA1FBB1F880FF4
:1019A800991FAA1FBB1F880F991FAA1FBB1F880F4B
:1019B800991FAA1FBB1F880F991FAA1FBB1F880F3B
:1019C800991FAA1FBB1FBC01CD01660F771F881F77
:1019D800991F0E9467192D853E854F8558890E9459
:1019E8000A1F20E030E040E054E40E94091F0E94F2
:1019F800871A6B017C01D501C401880F991FAA1FA2
:101A0800BB1F880F991FAA1FBB1F880F991FAA1FEA
:101A1800BB1F880F991FAA1FBB1F880F991FAA1FDA
:101A2800BB1F880F991FAA1FBB1FBC01CD01660FE2
:101A3800771F881F991F0E946719698B7A8B8B8B78
:101A48009C8B2D853E854F85588969857A858B8540
:101A58009C850E94531F9B01AC0169897A898B89F7
:101A68009C890E94091F0E94871AAB01BC01113092
:101A780049F018F0123059F00FC00F2EFAE23F2E3D
:101A8800F02D0BC00F2EF2E33F2EF02D06C00F2EC7
:101A9800FAE33F2EF02D01C0312C59824A82D7013A
:101AA800C60188279927A370BB2724E0129FF0015D
:101AB8001124E95BFB4F2081822F8A2B8B83DC82E8
:101AC800CD82D301C20188279927AF70BB27072E83
:101AD8007CE0B695A795979587957A95D1F7702D5F
:101AE8006A017B01CC24DD24EFE0EE22FF248E295D
:101AF8008E835F8348870E941A1D80E60E94DF1D3F
:101B0800832D0E94911ECE0101967C016E0199E001
:101B1800C90ED11CF70181917F010E94911EEC141E
:101B2800FD04C1F70E944B1F013011F46FE201C0A0
:101B38006FE089288A288B2809F46064113041F005
:101B480018F0123049F00BC080E10E942F1D07C029
:101B580081E10E942F1D03C082E10E942F1D64961F
:101B68000FB6F894DEBF0FBECDBFDF91CF911F91A6
:101B78000F91FF90EF90DF90CF90BF90AF909F9024
:0E1B88008F907F906F905F904F903F900895E8
:101B9600CF92DF92EF92FF920F931F93CF93DF9333
:101BA600CDB7DEB7E2970FB6F894DEBF0FBECDBF56
:101BB6008C0142E050E062E071E00E94E01B892B5C
:101BC60089F5F80101900020E9F73197E01BF10B48
:101BD600339718F1F8018281813361F482E090E055
:101BE60090937B0480937A045B9A85E091E00E944F
:101BF600201E8CC1803361F483E090E090937B04D7
:101C060080937A045B9882E191E00E94201E7EC157
:101C160080E291E00E94201E79C187E391E00E9454
:101C2600201E74C142E050E066E571E0C8010E94E2
:101C3600E01B892B09F052C081E090E090937B0471
:101C460080937A04F80101900020E9F73197E01BB0
:101C5600F10B3397F0F1C80102960E948418062F03
:101C6600172FE82EF92E9F938F937F936F9389E515
:101C760091E09F938F93CE0101966C019F938F9372
:101C86000E94CD1DC6010E94201E602F712F8E2D31
:101C96009F2D20E432E44FE050E00E94EE1C30938A
:101CA6007F0420937E0428EE33E040E050E00E945B
:101CB600EE1C30937D0420937C04802F912F90930B
:101CC6007904809378040FB6F894DEBF0FBECDBFBB
:101CD6001DC18FE691E00E94201E18C142E050E02F
:101CE6006EE871E0C8010E94E01B892B51F5F801EE
:101CF60001900020E9F73197E01BF10B3397E0F0F4
:101D0600C80102960E9484189F938F937F936F93C6
:101D160081E991E09F938F938E010F5F1F4F1F9371
:101D26000F930E94CD1DC8010E94201E0FB6F89485
:101D3600DEBF0FBECDBFEAC087EA91E00E94201E3B
:101D4600E5C042E050E066EC71E0C8010E94E01B8D
:101D5600892B19F5F80101900020E9F73197E01B6E
:101D6600F10B3497A8F0F8018281803329F489ECCD
:101D760091E00E94201ECAC0813329F48EEC91E0C6
:101D86000E94201EC3C083ED91E00E94201EBEC0AB
:101D960089EC91E00E94201EB9C042E050E06AEE54
:101DA60071E0C8010E94E01B892B19F5F80101902A
:101DB6000020E9F73197E01BF10B3497A8F0F80102
:101DC6008281803329F48DEE91E00E94201E9EC010
:101DD600813329F482EF91E00E94201E97C087EF9D
:101DE60091E00E94201E92C08DEE91E00E94201E7E
:101DF6008DC042E050E06EE072E0C8010E94E01B38
:101E0600892B29F481E192E00E94201E7FC043E0E5
:101E160050E069E172E0C8010E94E01B892B29F4B9
:101E26008DE192E00E94201E71C043E050E063E223
:101E360072E0C8010E94E01B892B29F487E292E038
:101E46000E94201E63C043E050E06FE272E0C801CA
:101E56000E94E01B892B29F483E392E00E94201E56
:101E660055C042E050E069E372E0C8010E94E01B01
:101E7600892BC1F56CE372E0C8010E945B1E892BB9
:101E860031F5809179048F93809178048F9380E463
:101E960092E09F938F938E01075D1F4F1F930F93C1
:101EA6000E94CD1D1F930F9386E492E09F938F931C
:101EB600085211091F930F930E94CD1DC8010E945D
:101EC600201E0FB6F894DEBF0FBECDBF1FC084E044
:101ED60090E090937B0480937A048CE592E00E94D4
:101EE600201E14C042E050E063E772E0C8010E9481
:101EF600E01B892B39F485E090E090937B04809376
:101F06007A0404C086E792E00E94201EE2960FB68D
:101F1600F894DEBF0FBECDBFDF91CF911F910F9119
:0A1F2600FF90EF90DF90CF90089538
:101F30004F925F926F927F928F929F92AF92BF92D9
:101F4000CF92DF92EF92FF920F931F93CF93DF9385
:101F5000CDB7DEB72A970FB6F894DEBF0FBECDBF60
:101F600089876A8729013A0147015801862F8F50D6
:101F70008C3408F0E3C0D801C7010197A109B10969
:101F80008F3F9F4FAF40B10508F0D8C041145104B6
:101F900080E16806710408F0D1C041145104610465
:101FA000710479F4C62ED12C24E0C21AD108D6943B
:101FB000DC2CCC24D794C7940D2C000CEE08FF0821
:101FC00071C0C801B7010E94671969837A838B8346
:101FD0009C83C301B2010E94671929813A814B8118
:101FE0005C810E944F1F20E030E040E053E40E94FB
:101FF000531F0E9483136D837E838F8398879A85F6
:1020000080E8989FB0011124072E000C880B990BD3
:102010000E9469192D813E814F8158850E940A1FB7
:1020200020E030E040E054E40E94091F0E94871A3B
:102030006B017C01D301C201880F991FAA1FBB1F2E
:10204000880F991FAA1FBB1F880F991FAA1FBB1FAC
:10205000880F991FAA1FBB1F880F991FAA1FBB1F9C
:10206000880F991FAA1FBB1FBC01CD01660F771FE8
:10207000881F991F0E9467192B013C012D813E8109
:102080004F81588569817A818B819C810E94531F81
:102090009B01AC01C301B2010E94091F0E94871A73
:1020A0002B013C012985222319F082E2898302C099
:1020B0009AE19983692D89810E942F1D682D89815C
:1020C0008F5F0E942F1DD701C60188279927A37013
:1020D000BB27BD018827992789818E5F0E942F1D0C
:1020E0006D2D89818D5F0E942F1D6C2D89818C5FE4
:1020F0000E942F1D882499242FE0A222BB24072EA2
:102100007CE0B694A794979487947A95D1F7702D34
:10211000D301C20188279927AF70BB27682D6A2B8E
:1021200089818B5F0E942F1D652D89818A5F0E94A6
:102130002F1D642D8981895F0E942F1D2A960FB65D
:10214000F894DEBF0FBECDBFDF91CF911F910F91ED
:10215000FF90EF90DF90CF90BF90AF909F908F90C7
:0A2160007F906F905F904F900895FC
:10216A0080917A0490917B048130910509F091C0A5
:10217A0040918C0450918D0461E081E00E94BE1C64
:10218A0040917E0450917F0423E061E082E00E9446
:10219A00341840918A0450918B0464E082E00E94D2
:1021AA00BE1C40919A0467E082E00E94BF1E4091E3
:1021BA007C0450917D0423E068E082E00E94341898
:1021CA0040918804509189046BE082E00E94BE1C11
:1021DA0048EA52E060E181E00E944D1E20917E04AF
:1021EA0030917F04309393042093920480917C046D
:1021FA0090917D049093910480939004220F331F51
:10220A00B901660F771F660F771F260F371F64E61F
:10221A0070E00E94A71D620F731F70938F04609372
:10222A008E044AEA52E061E081E00E94BE1C4091BD
:10223A007E0450917F0423E061E082E00E9434181A
:10224A0040918A0450918B0464E082E00E94BE1C93
:10225A0040919A0467E082E00E94BF1E40917C048C
:10226A0050917D0423E068E082E00E943418409196
:10227A008804509189046BE082E00E94BE1C48EAFF
:10228A0052E060E181E00E944D1E85E0809398044F
:10229A0008958230910599F44AEB52E061E081E0B9
:1022AA000E94BE1C4AEC52E061E082E00E944D1E90
:1022BA00109299045B9886E080939804089583307D
:1022CA009105A1F44AEB52E061E081E00E94BE1C54
:1022DA0042ED52E061E082E00E944D1E81E080936F
:1022EA0099045B9A86E08093980408958430910556
:1022FA00C1F50E94471F4AED52E061E081E00E9469
:10230A00BE1C23E041E050E064E081E00E94341802
:10231A00409192045091930423E067E081E00E9487
:10232A003418409190045091910423E06AE081E0CE
:10233A000E94341823E040E050E06DE081E00E9402
:10234A0034184EED52E061E082E00E94BE1C48EA79
:10235A0052E060E182E00E944D1E86E0809398047C
:10236A0008958530910509F0FFCE109298040E94D5
:04237A00471F08955C
:10237E00AFE0B0E0E5ECF1E10C94551C1C016B01F3
:10238E005A8349832B83FB018281938184809580BC
:10239E0000811181A680B78097FD02C00D7F02C01B
:1023AE0081E090E0E981FA81408051806280738003
:1023BE009801207133273D832C83740104FF08C0DC
:1023CE00411451046104710419F032E0E31AF1086A
:1023DE00F801E870FF27FF83EE8303FF03C0F1E0EF
:1023EE00EF1AF108F6010084F185E02D3197FF8791
:1023FE00EE87EA0DFB1D10829C012E193F093987CD
:10240E002887C801827099279B878A87EB818E2F38
:10241E00EE0F990B9C01215431093D872C872E8597
:10242E003F852230310530F48C819D81892B09F056
:10243E0042C05CC0411451046104710461F18E8587
:10244E009F8501979F878E87C2018F7099278A304B
:10245E00910514F4C09602C0895A9F4FEC85FD85F4
:10246E007A9748F49C012062215631092A313105B0
:10247E0010F40E94D11EEE85FF85EA0DFB1D8083B0
:10248E00F1E0EF1AF10884E076946794579447943C
:10249E008A95D1F7C4CF888599858E0D9F1D181604
:1024AE0019066CF21E141F040CF0BECFEA85FB85D4
:1024BE00EF2B29F6B9CFE981FA8180819181A28132
:1024CE00B381892B8A2B8B2B89F0EE85FF85EA0D44
:1024DE00FB1D31972B8120838E859F8502979F87C9
:1024EE008E87FC01EA0DFB1D80E38083EE81FF8168
:1024FE00EF2B59F02E853F85215031093F872E87CE
:10250E00F901EA0DFB1D80E28083F60140855185BD
:10251E00415051092E853F85421B530BB9016A0D5F
:10252E007B1D9401C1010E941A1A9C01F101808148
:10253E00918190FF06C0F6018281938182179307E5
:0C254E000CF4C9012F96E2E10C94711C02
:10255A00A4E0B0E0E3EBF2E10C94571C8B019C0180
:10256A00AC0140785F776B017C0140385F4761F4CA
:10257A00E894E7F8FF24C114D104E104F10409F056
:10258A00ACC097FDAAC0AEC0E894F7F8C114D10454
:10259A00E104F10409F4A6C097FF07C081E290E0C4
:1025AA00909301018093000198C0DC01CB0167E19F
:1025BA00B595A795979587956A95D1F70097A1053F
:1025CA00B105B9F480E090E0DC0127FD08C0000FF6
:1025DA00111F221F331F0196A11DB11DF6CF0197AE
:1025EA00A109B109B095A095909581959F4FAF4FDC
:1025FA00BF4F8F579109A109B1092F773327206857
:10260A0080FF04C0000F111F221F331FAC01BD0140
:10261A00759567955795479549835A836B837C834C
:10262A00000F111F221F331F49E150E0812C912C0A
:10263A005401B394C12CD12C760180E090E0DC01E6
:10264A002C013D01480C591C6A1C7B1C04151505FC
:10265A002605370574F0D301C201880D991DAA1DFC
:10266A00BB1D0419150926093709C80CD91CEA1C0F
:10267A00FB1C000F111F221F331FB694A7949794B7
:10268A00879441505109E1F60115110521053105DB
:10269A0051F0970186010170112722273327C00EB6
:1026AA00D11EE21EF31EF594E794D794C79451EC19
:1026BA00F51A89819A81AB81BC8127E1880F991F1C
:1026CA00AA1FBB1F2A95D1F78C0D9D1DAE1DBF1DDC
:1026DA00482F392F2A2F5B2F09C040E030E020EC29
:1026EA005FE704C0462F372F282F592F642F732FE7
:0C26FA00822F952F2496E0E10C94731CB5
:102706008F929F92AF92BF92CF92DF92EF92FF92FB
:102716000F931F938B019C0157E1369527951795CB
:1027260007955A95D1F71127A8014F5751094731F7
:1027360051050CF045C057FD2DC00FEF1FEF2FE7D9
:1027460030E004C035952795179507954A95D2F739
:102756004801590186229722A822B92289288A2867
:102766008B2871F197FF07C0DC01CB01800F911F09
:10277600A21FB31F02C0DC01CB0100951095209566
:10278600309580239123A223B323482F392F2A2F54
:102796005B2F1AC097FF0FC08B019C01000F111F02
:1027A600221F331F012B022B032B51F040E030E098
:1027B60020E85FEB09C040E030E020E050E004C0D4
:1027C600462F372F282F592F642F732F822F952F9F
:1027D6001F910F91FF90EF90DF90CF90BF90AF9039
:0627E6009F908F90089502
:1027EC00A2E0B0E0ECEFF3E10C94551C3C016B0162
:1027FC00FB0122813381A480B580808191819A83F1
:10280C00898386809780FA012080318042805380B2
:10281C00B201A10157FE07C044275527BA0142193E
:10282C0053096409750937FD03C08D7F9A83898329
:10283C00950157FC05C0898182FD02C083FF02C04F
:10284C0021503109CE0101967C010AE010E0C6014D
:10285C000E94101657FC03C0298122FF0AC0019761
:10286C00F401E80FF91F57FC02C02BE209C02DE25E
:10287C0007C023FF06C00197F401E80FF91F20E2FF
:10288C00208309811A81F6014085518541505109F7
:10289C00481B590BB401680F791F9501C3010E94A5
:1028AC001A1A9C01F3018081918190FF06C0F601F8
:1028BC0082819381821793070CF4C9012296E2E17D
:0428CC000C94711CDB
:1028D00010C00E94171F58F00E94101F40F029F4EA
:1028E0005F3F29F00C942C1F51110C941F1F0C9466
:1028F000571F0E945D1B68F39923B1F3552391F391
:10290000951B550BBB27AA2762177307840738F05E
:102910009F5F5F4F220F331F441FAA1FA9F335D0BB
:102920000E2E3AF0E0E832D091505040E695001C6F
:10293000CAF72BD0FE2F29D0660F771F881FBB1F29
:10294000261737074807AB07B0E809F0BB0B802D07
:10295000BF01FF2793585F4F3AF09E3F510578F033
:102960000C942C1F0C941F1F5F3FE4F3983ED4F38C
:10297000869577956795B795F7959F5FC9F7880F07
:10298000911D9695879597F90895E1E0660F771F59
:10299000881FBB1F621773078407BA0720F0621BEA
:0E29A000730B840BBA0BEE1F88F7E0950895B9
:1029AE000FC00E94101F38F00E94171F20F09523B1
:1029BE0011F00C942C1F0C94571F11240C941F1FF4
:1029CE000E945D1B70F3959FC1F3950F50E0551F4C
:1029DE00629FF001729FBB27F00DB11D639FAA2766
:1029EE00F00DB11DAA1F649F6627B00DA11D661FB5
:1029FE00829F2227B00DA11D621F739FB00DA11DD6
:102A0E00621F839FA00D611D221F749F3327A00D8F
:102A1E00611D231F849F600D211D822F762F6A2F2B
:102A2E0011249F5750409AF0F1F088234AF0EE0F90
:102A3E00FF1FBB1F661F771F881F91505040A9F7BD
:102A4E009E3F510580F00C942C1F0C941F1F5F3F6E
:102A5E00E4F3983ED4F3869577956795B795F795F9
:102A6E00E7959F5FC1F7FE2B880F911D9695879571
:042A7E0097F9089527
:102A8200CF93DF93DC01F90168387105F1F05CF452
:102A92006138710561F164387105A1F16038710521
:102AA20009F051C02FC0603C710509F441C0603F7C
:102AB2007105F1F1603A710509F045C0C081D1811B
:102AC200CE0102969183808325C0C081D181CE013F
:102AD200029691838083452B39F04881042E000CA5
:102AE200550B660B770B1CC0488150E029C0C08192
:102AF200D181CE01049691838083488159816A8174
:102B02007B810EC0C081D181CE01029691838083E8
:102B1200452BA1F048815981052E000C660B770BDD
:102B22004D935D936D937C93139781E090E00DC07C
:102B3200C081D181CE0102969183808348815981DF
:102B420060E070E0EDCF80E090E0DF91CF910895FA
:102B520011C00E94101F38F00E94171F20F039F494
:102B62009F3F19F426F40C94571F0EF4E095E7FBEF
:102B72000C942C1FE92F0E945D1B58F3BA176207B1
:102B820073078407950720F079F4A6F50C941E1FAD
:102B92000EF4E0950B2EBA2FA02D0B01B901900176
:102BA2000C01CA01A0011124FF27591B99F0593FBA
:102BB20050F4503E68F11A16F040A22F232F342F02
:102BC2004427585FF3CF469537952795A795F04050
:102BD2005395C9F77EF41F16BA0B620B730B840B65
:102BE200BAF09150A1F0FF0FBB1F661F771F881F1D
:102BF200C2F70EC0BA0F621F731F841F48F4879575
:102C020077956795B795F7959E3F08F0B0CF939566
:0E2C1200880F08F09927EE0F97958795089583
:102C2000A0E0B0E0E6E1F6E10C94571CDC012801DD
:102C30001696AD90BC901797F701808191811296FE
:102C4000ED91FC9113971896CD91DC9119972197EE
:102C5000F7FF02C0E1E0F0E0CA0DDB1D1882690158
:102C6000A1E0B0E08F01021B130B4C01F2E08F22B8
:102C70009924052C000C66087708CE018A199B0957
:102C8000CA15DB0519F1411551056105710589F07A
:102C9000CB01BA01A30192010E947F1BCA01A62F9A
:102CA000B72F605D6A9341E0C41AD108A901BC0145
:102CB000E4CF98012C0D3D1D121613064CF31C1485
:102CC0001D0434F48114910419F702C080E090E0EF
:102CD000AB2B31F4F701208131812F7E31832083AA
:0A2CE000CDB7DEB7E0E10C94731CE1
:102CEA00E7E4F4E0108211821282138214821582C0
:102CFA0016821782108611861286138662ED87EB7A
:102D0A000E942F1D60E880E10E942F1D60E881E18A
:102D1A000E942F1D60E882E10E942F1D60E883E176
:102D2A000E942F1D60E884E10E942F1D60E885E162
:102D3A000E942F1D60E886E10E942F1D60E887E14E
:102D4A000E942F1D6CE080E10E942F1D6CE081E142
:102D5A000E942F1D6CE082E10E942F1D6CE083E12E
:102D6A000E942F1D6CE084E10E942F1D6CE085E11A
:102D7A000E942F1D6CE086E10E942F1D6CE087E106
:102D8A000E942F1D85E90E94531A682F6F7785E9E3
:062D9A000E942F1D0895A8
:102DA0001F921FB61F9211242F933F938F939F93CF
:102DB00030B120B1832F817090E0880F991F21FBE3
:102DC000992790F9892B90919E0491110DC0813023
:102DD00059F420919604309197042F5F3F4F309320
:102DE00097042093960410C090919E0491110CC0FA
:102DF000823051F42091960430919704215031098A
:102E00003093970420939604209196043091970470
:102E10002E3131053CF02EE130E0309397042093C1
:102E200096040DC02091960430919704243031050A
:102E300034F423E030E03093970420939604809399
:102E40009E049F918F913F912F911F901FBE1F90C5
:022E50001895D3
:102E52001F921FB61F9211242F933F938F939F931C
:102E620036B126B136FB882780F990E0880F991F8A
:102E7200922F991F9927991F892B90919D04911147
:102E82000DC0813059F420919404309195042F5F44
:102E92003F4F309395042093940410C090919D0469
:102EA20091110CC0823051F4209194043091950418
:102EB2002150310930939504209394042091940475
:102EC20030919504273E33403CF027EE33E03093B7
:102ED2009504209394040BC020919404309195049E
:102EE2001216130624F01092950410929404809303
:102EF2009D049F918F913F912F911F901FBE1F9014
:022F0200189520
:102F04000F931F93CF93DF93EA0140385105D4F018
:102F140020E030E040E05FE70E94531F9E012F57FE
:102F24003109203831056CF120E030E040E05FE702
:102F34000E94531FCE5FD109C038D1051CF1CFE7E1
:102F4400D0E020C042385F4FECF420E030E040E8AD
:102F54005CE00E94531F9E012A593F4F22384FEFD5
:102F640034077CF420E030E040E85CE00E94531F2A
:102F7400C453DF4FC2382FEFD20724F4C2E8DFEF87
:102F840001C0E9019E0121583F4F8901330F220BF3
:102F9400330BA9019801E7E1220F331F441F551F8A
:102FA400EA95D1F70E94531FDF91CF911F910F91A2
:022FB40008957E
:102FB600A2E0B0E0E1EEF7E10C94591C4C016B0184
:102FC600FB012281338164807580808191819A839F
:102FD6008983A680B78037FD03C08D7F9A83898356
:102FE600FA014081518162817381CE0101967C0193
:102FF60008E010E09301C6010E941016298124FF03
:1030060006C00197F501E80FF91F20E32083298107
:1030160023FF06C00197F501E80FF91F20E2208380
:1030260009811A81F6014085518541505109481B95
:10303600590BB501680F791F9301C4010E941A1A32
:103046009C01F4018081918190FF06C0F601828186
:103056009381821793070CF4C9012296EEE00C9433
:02306600751CD7
:10306800FF920F931F93CF93DF9300D0CDB7DEB7B6
:103078008A01F22E0E94011EFF20D1F16F2D70E00F
:1030880061507109072E000C880B990B0E94691971
:103098009B01AC0160E070E080E291E40E94B9001D
:1030A8000E94871A7A83698369817A81C8010E949C
:1030B800931DAB019B01ADECBCEC0E943E1E9695A6
:1030C80087959695879596958795880F991F9C0162
:1030D800220F331F220F331F820F931F9A01281BC1
:1030E800390BC901805D0E94A51CFA94F110C6CF66
:1030F8000F900F90DF91CF911F910F91FF9008953E
:10310800A0E0B0E0EAE8F8E10C945F1CAC01FA0139
:1031180090814F5F5F4F9032D1F3292F092E000C19
:10312800330B295031092530310588F39B3271F56D
:1031380000E010E0319602C000E010E020E030E04E
:10314800A901C1910C2E000CDD0BE097CA30D10506
:1031580078F4AAE0B0E00E94B41E6E01DD0FEE081C
:10316800FF089B01AC012C193D094E095F09E9CF05
:103178000115110541F466277727CB01621B730BF4
:10318800840B950B08C0CA01B90105C09D32A1F690
:1031980001E010E0CFCFCDB7DEB7E8E00C947B1CA0
:1031A8000F931F93CF93DF93DB01109719F48FEFE1
:1031B8009FEF3DC02D913C91119730FF25C0169689
:1031C8004D915C91179714962D913C911597421744
:1031D800530778F41296ED91FC9113978083129619
:1031E8002D913C9113972F5F3F4F13963C932E934D
:1031F800129716962D913C9117972F5F3F4F179670
:103208003C932E93169713C01C96ED91FC911D9735
:10321800309769F2EB01092F182F0995892B39F698
:103228008E819F8101969F838E83812F902FDF91BE
:08323800CF911F910F91089541
:10324000A2E0B0E0E6E2F9E10C94591C5C016B01EC
:10325000FB012281338184809580808191819A83D2
:1032600089836680778037FD03C08D7F9A83898349
:10327000FA014081518162817381CE0101967C0106
:103280000AE010E09401C6010E94101609811A811B
:10329000F6014085518541505109481B590BB30136
:1032A000680F791F9401C5010E941A1A9C01F5014B
:1032B0008081918190FF06C0F601828193818217FF
:0E32C00093070CF4C9012296EEE00C94751CE5
:1032CE00E89409C097FB3EF49095809570956195B2
:1032DE007F4F8F4F9F4F9923A9F0F92F96E9BB2768
:1032EE009395F695879577956795B795F111F8CFE4
:1032FE00FAF4BB0F11F460FF1BC06F5F7F4F8F4F4F
:10330E009F4F16C0882311F096E911C0772321F044
:10331E009EE8872F762F05C0662371F096E8862FDC
:10332E0070E060E02AF09A95660F771F881FDAF733
:0A333E00880F9695879597F908957A
:10334800A2E8B0E0EAEAF9E10C945B1C5C014A01EE
:10335800CF57DF4F79836883C158D040C12CD12C17
:10336800CF57DF4FE881F981C158D0408081882349
:10337800E9F07401860120E830E0AE014F5F5F4F4D
:10338800BE016F577F4FC5010E94EE098C0D9D1D30
:103398008C159D054CF48FE490E090930101809387
:1033A80000018FEF9FEF03C06C01DACFC601CE5743
:0833B800DF4FECE00C94771CE0
:1033C000A0E1B0E0E6EEF9E10C94611CFB01BA016A
:1033D000AE014F5F5F4F7A0140E1D7011D924A95E0
:1033E000E9F742E051E05A8349839C838B83F7FFDE
:1033F00009C08FE490E090930101809300018FEF6A
:103400009FEF14C0A9018C013197FE83ED83C701A2
:103410000E94D61C4F8158852D813E81421753074B
:1034200008F49A01F801E20FF31F10826096E6E0BB
:043430000C947D1C5F
:10343400A0E0B0E0E0E2FAE10C945B1C6C015B01FB
:103444007A01E901480181E08822992400FD03C042
:103454004217530750F0A701B501C6010E941C1C76
:10346400EC16FD0610F0C70117C08E010E191F09D6
:103474000115110541F0B60180E290E00E94D418D4
:1034840001501109F5CF8114910429F4A701B50164
:10349400C6010E941C1CCE01CDB7DEB7ECE00C9433
:0234A400771C93
:1034A6001F93CF93DF9300D00F92CDB7DEB7182FBF
:1034B6000E941A1D80E60E94DF1D8983898188315A
:1034C600B9F4812F0E94911E8A838A81883291F4F1
:1034D6000E94C81E80E60E942F1E8B838B8180343B
:1034E60059F40E949E1E89830E944B1F898105C044
:1034F6008FEF03C08FEF01C08FEF0F900F900F90EB
:08350600DF91CF911F910895A0
:10350E000E94651B88F09F5798F0B92F9927B751E5
:10351E00B0F0E1F0660F771F881F991F1AF0BA9569
:10352E00C9F714C0B13091F00E941E1FB1E008958A
:10353E000C941E1F672F782F8827B85F39F0B93F7C
:10354E00CCF3869577956795B395D9F73EF490951C
:0E355E008095709561957F4F8F4F9F4F089518
:10356C00DC01ED91FC91119780818A3221F080E091
:10357C0090E03AE00EC03196ED93FC93DB01ED91B7
:10358C00FC911197CF0102968D939C938081918130
:10359C000895ED91FC911197208120532A3068F405
:1035AC00389FA001399F500D1124CA01820F911D23
:0C35BC0031961196FC93EE93ECCF08952D
:1035C800CF930E94EA1EC82F0E94E21ECB3369F4F3
:1035D800E0919C04F0E0EF50FC4F108281EF93E003
:1035E8000E94CB0D10929C0414C0E0919C04EF3310
:1035F80048F481E08E0F80939C04F0E0EF50FC4F7C
:10360800C083DFCF10929C048CE892E00E94201EB9
:06361800D8CFCF91089508
:10361E00A0E0B0E0E5E1FBE10C945D1C7C01FB0158
:10362E00EA01C901A280B380C480D58000811181D6
:10363E00209711F4CBE6D4E0009719F4CE010E9446
:10364E00691EB7FC04C0A816B90608F4C501960198
:10365E00AC01BE01C7010E941A1ACDB7DEB7EAE06F
:04366E000C94791C23
:10367200990F0008550FAA0BE0E8FEEF1616170681
:10368200E807F907C0F012161306E407F50798F0E9
:10369200621B730B840B950B39F40A2661F0232B02
:1036A200242B252B21F408950A2609F4A140A6957E
:0836B2008FEF811D811D0895B9
:1036BA0057FD9058440F551F59F05F3F71F04795D9
:1036CA00880F97FB991F61F09F3F79F087950895BE
:1036DA00121613061406551FF2CF4695F1DF08C0DD
:1036EA00161617061806991FF1CF869571056105FA
:0436FA000894089593
:1036FE00A1E21A2EAA1BBB1BFD010DC0AA1FBB1FE8
:10370E00EE1FFF1FA217B307E407F50720F0A21B59
:10371E00B30BE40BF50B661F771F881F991F1A94C6
:10372E0069F760957095809590959B01AC01BD01F0
:04373E00CF0108951A
:10374200CF93DF93EC0190E0E92FF0E0EE0FFF1F43
:10375200EF5CFB4F8081811102C081810EC0A88184
:10376200B9812C91821305C091811196B983A883E6
:1037720001C09F5F9B3040F3892FDF91CF91089565
:1037820081B18C7F81B987B18F7387B982B18F6024
:1037920082B9E8E6F0E08081816080838081846084
:1037A2008083EBE6F0E0808183608083EDE6F0E0E9
:0E37B2008081806C8083D89ADA9A789408958A
:1037C000CF93DF9341155105A9F0DC01FB01EF0117
:1037D0008D91882351F09191992339F04130510511
:1037E00021F041505109891791F390E02881821B03
:0E37F000910902C080E090E0DF91CF91089532
:1037FE0050B140B1252F217030E0220F331F41FB15
:10380E00332730F9232B20939E0436B126B136FB95
:10381E00882780F990E0880F991F922F991F99277A
:0A382E00991F892B80939D040895D3
:10383800A0E0B0E0E2E2FCE10C945F1C6C01EB015B
:103848008A017B01E40EF51ECE15DF0541F0899152
:10385800B601082E000C990B0E94D418F5CFC801A8
:0A386800CDB7DEB7E8E00C947B1C3E
:10387200CF92DF92EF92FF926B017C0160E085EACA
:103882000E942F1DC701B6016F77772788279927D6
:1038920086EA0E942F1D60EA81EB0E942F1DFF9095
:0838A200EF90DF90CF90089534
:1038AA002F923F924F925F926F927F928F929F9246
:1038BA00AF92BF92CF92DF92EF92FF920F931F9334
:1038CA00CF93DF93CDB7DEB7CA1BDB0B0FB6F894E5
:0838DA00DEBF0FBECDBF099453
:1038E2002A88398848885F846E847D848C849B848E
:1038F200AA84B984C884DF80EE80FD800C811B819C
:10390200AA81B981CE0FD11D0FB6F894DEBF0FBECA
:06391200CDBFED01089598
:103918005F985E9895B1892B85B95D9A89EF90E09B
:103928000197F1F700C000005D9889EF90E00197DA
:10393800F1F700C0000085B115B88BB18F718BB954
:023948000895E0
:10394A005F9A5E9895B1892B85B95D9A89EF90E067
:10395A000197F1F700C000005D9889EF90E00197A8
:10396A00F1F700C0000085B115B88BB18F718BB922
:02397A000895AE
:10397C000F931F93CF938A010E94011EF80180813F
:10398C00882351F0C0E00E94A51CCF5FF801EC0F1A
:10399C00F11D80818111F7CFCF911F910F91089567
:1039AC00A2E0B0E0ECEDFCE10C94631C8C015A83BA
:1039BC004983AE014F5F5F4F0E94A419F80120812B
:1039CC0024FF02C08FEF9FEF2296E4E00C947F1C43
:1039DC00052E97FB1EF400940E94F21E57FD07D093
:1039EC000E947F1B07FC03D04EF40C94F21E5095E2
:0E39FC004095309521953F4F4F4F5F4F0895F6
:103A0A009CB1892F817090FF0FC087E893E10197DD
:103A1A00F1F700C000006099FECF87E893E10197B3
:0A3A2A00F1F700C0000081E00895EC
:103A3400CF93DF930F92CDB7DEB7198284EA8093D8
:103A4400BC00ECEBF0E080818823ECF78091B900B6
:0A3A540089830F90DF91CF91089550
:103A5E00CF93DF93D82FC62F0E941A1D80E60E94A7
:103A6E00DF1D8D2F0E94911E8C2F0E94911E0E9491
:083A7E004B1FDF91CF91089569
:103A8600069B10C087E893E10197F1F700C000009C
:103A96000699FECF87E893E10197F1F700C0000091
:083AA60081E0089580E008951D
:103AAE00059B10C087E893E10197F1F700C0000075
:103ABE000599FECF87E893E10197F1F700C000006A
:083ACE0081E0089580E00895F5
:103AD600049B10C087E893E10197F1F700C000004E
:103AE6000499FECF87E893E10197F1F700C0000043
:083AF60081E0089580E00895CD
:103AFE00619B10C087E893E10197F1F700C00000C9
:103B0E006199FECF87E893E10197F1F700C00000BD
:083B1E0081E0089580E00895A4
:103B2600AA1BBB1B51E107C0AA1FBB1FA617B707DD
:103B360010F0A61BB70B881F991F5A95A9F78095F9
:083B46009095BC01CD0108952A
:103B4E0097FB072E16F4009407D077FD09D00E943C
:103B5E00931D07FC05D03EF4909581959F4F0895D7
:083B6E00709561957F4F0895E9
:103B760087B1836087B988B18C7F88B987B18C7F1C
:103B860087B98DEF8093B800ECEBF0E0808184601C
:043B9600808308958B
:103B9A00A0E0B0E0E3EDFDE10C94651CAE01475FE7
:103BAA005F4F6F8178858D819E810E94251FE2E09B
:043BBA000C94811CCA
:103BBE00880F8093BB0084E88093BC00ECEBF0E0B0
:103BCE0080818823ECF7E9EBF0E0808180818E7FA5
:023BDE00089548
:103BE000092E0394000C11F4882352F0BB0F40F40B
:103BF000BF2B11F460FF04C06F5F7F4F8F4F9F4F4B
:023C0000089525
:103C0200813031F48FEF860F80680E948C1C0895FA
:103C1200823029F48FE3860F80680E948C1C0895FD
:103C22001092C5008CE08093C40082E08093C000B3
:0E3C320088E18093C10086E08093C20008956F
:103C4000CF93DF93EC018881882331F021960E9485
:0E3C5000E21E89918111FBCFDF91CF91089583
:103C5E00880F81608093BB0084E88093BC00ECEBFE
:0E3C6E00F0E080818823ECF78091B900089582
:103C7C00A29FB001B39FC001A39F700D811D1124A1
:0E3C8C00911DB29F700D811D1124911D089590
:103C9A000E94BE1C2FE78AE196E0215080409040A6
:0C3CAA00E1F700C000000E94471F0895D1
:103CB600DC01FB019D912191921303C09111FACF72
:0C3CC600292F892F90E0821B910908959E
:103CD200FC01AF014F5F5F4F2081222311F0FA01F7
:0C3CE200F8CF9F01281B390BC901089581
:103CEE0081B18F7881B982B18F7882B98DB18C7F95
:0A3CFE008DB98EB18C7F8EB9089548
:103D080088E30E948C1C8CE00E948C1C86E00E9438
:0A3D18008C1C81E00E948C1C0895B1
:103D22008093BB0084E88093BC00ECEBF0E08081E0
:0A3D32008823ECF78091B900089592
:103D3C0084E88093BC00ECEBF0E080818823ECF706
:063D4C008091BB00089508
:103D5200EC010E94611F0E94601FCE010E94621F3F
:063D6200CE010E945E1F6D
:103D68000E943E1EA59F900DB49F900DA49F800DAC
:063D7800911D11240895C5
:103D7E00CF93C42F0E94011E8C2F0E94A51CCF91A1
:023D8E00089596
:103D900084EA8093BC00ECEBF0E080818823ECF7B0
:023DA000089584
:103DA2009C01215631092A31310510F48F7599276A
:023DB200089572
:103DB40061E08627682F619583E00E942F1D089596
:103DC400E0ECF0E0908195FFFDCF8093C60008956C
:103DD400E0ECF0E080818823ECF78091C600089540
:103DE40090958095709561957F4F8F4F9F4F089563
:103DF4009C01215431092A31310508F48062089567
:0E3E040084B18FEF84B98AB1806E8AB90895B7
:0E3E12005058BB27AA270E94A9150C94F01D3A
:0E3E200000240A9416161706180609060895BF
:0E3E2E0000240A9412161306140605060895C1
:0E3E3C00E894BB2766277727CB0197F90895F6
:0E3E4A009A01AB016FEF7FE70E94E019089527
:0C3E580097F99F6780E870E060E0089533
:0C3E6400EE0FFF1F0590F491E02D099473
:0A3E700060EA81EB0E942F1D089507
:0A3E7A000E94391B08F481E008954E
:0A3E84000E94391B08F48FEF089527
:083E8E0081E00E948C1C0895E4
:083E960084E98093BC0008954B
:083E9E000E9468140C94F01D51
:083EA6000E94D7140C94F01DDA
:063EAE009FEF80EC089577
:043EB4000C9400006A
:043EB8009F77089553
:043EBC000E94B700A9
:023EC000089563
:023EC200089561
:023EC40008955F
:103EC600545800545820456E61626C65640D0A00B2
:103ED60054582044697361626C65640D0A00496E2A
:103EE60076616C696420545820706172616D6574E6
:103EF60065720D0A00545820636F6D6D616E642003
:103F06006D697373696E6720706172616D65746542
:103F1600720D0A0046410056464F2D4120736574C6
:103F260020746F20256C6420487A0D0A00464120D3
:103F3600636F6D6D616E64206D697373696E672062
:103F46006672657175656E63790D0A0046420056A4
:103F5600464F2D422073657420746F20256C6420B3
:103F6600487A0D0A00464220636F6D6D616E6420CB
:103F76006D697373696E67206672657175656E63C8
:103F8600790D0A004149004149303B004149313B26
:103F960000496E76616C69642041492070617261E6
:103FA6006D657465720D0A005354005354303B001E
:103FB6005354313B00496E76616C6964205354203A
:103FC600706172616D657465720D0A00494400493D
:103FD60044303635303B004D4430004D4430433B91
:103FE60000534830005348303030303B004E4130AB
:103FF600004E4130303B0049460049463B002530E3
:10400600396C6400494630303125732B30303030FE
:1040160030304330303030303B00494620636F6DDE
:104026006D616E642070726F6365737365640D0AEB
:1040360000455800556E6B6E6F776E2043415420D5
:0A404600636F6D6D616E640D0A007A
:104050000D0A4572726F723A20436F6D6D616E6426
:1040600020746F6F206C6F6E670D0A002000436F25
:104070006E6669726D656420467265713A004D6FB7
:10408000646520436F6E6669726D65643A005458CA
:10409000204D6F6465005258204D6F64650049469D
:1040A0003A00303030303030304330303030300053
:1040B0003E20544F205354415254005055534820F1
:1040C000414E5920425554544F4E003E20434F4DCF
:1040D0005055544552204354524C0050555348209B
:1040E000414E59204B4E4F42005573657220545536
:1040F0005420507265737300434F4E4649524D2011
:10410000746F20736B697000546F70204275747403
:104110006F6E00666F7220545800426F74746F6D3A
:1041200020427574746F6E00666F72205258004D95
:104130006964646C6520427574746F6E00746F20DE
:10414000436F6E6669726D0053656C656374204DD4
:104150006F6465005258204D6F6465206973007369
:10416000656C6563746564005458204D6F64652008
:10417000697300434F4D50204354524C0052580035
:10418000545800506C65617365004B487A004D4887
:104190007A004672657175656E63793A00505553C1
:1041A0004820414E5920425554544F4E544F2053AD
:0541B0005441525400CF
:1041B50068076C094C836A9074A07AC0008068888F
:0641C50000846C82008101
:0841CB0000000000DCCFD1353B
:0841D3000000000000C0153FD0
:0841DB000000803F0000C03F1E
:0741E300286E756C6C2900C9
:0641EA00286E696C29003B
:0241F000B90311
:0241F200BC030C
:0241F400BF0307
:0241F600C603FE
:0241F800CA03F8
:0241FA00CE03F2
:0141FC0020A2
:00000001FF
