:100000000C946F000C94B70D0C94B70D0C94B70DB5
:100010000C94A90A0C94B70D0C94F7090C94B70D25
:100020000C94B70D0C94B70D0C94B70D0C94B70D40
:100030000C94B70D0C94B70D0C94B70D0C94B70D30
:100040000C94B70D0C94B70D0C94B70D0C94B70D20
:100050000C94B70D0C94B70D0C94B70D0C94B70D10
:100060000C94B70D0C94B70D0C94B70D0C94B70D00
:100070000C94B70D0C94B70D0C94B70D0C94B70DF0
:100080000C94B70D0C94B70D0C94B70D0C94B70DE0
:100090000C94B70D0C94B70D0C94B70D0C94B70DD0
:1000A0000C94B70D0C94B70D0C94B70D0C94B70DC0
:1000B0000C94B70D0C94B70D0C94B70D0C94B70DB0
:1000C0000C94B70D0C94B70D0C94B70D0100010200
:1000D00080010201F0001B8001F001F68000112474
:1000E0001FBECFEFD8E0DEBFCDBFECECF0E040E0CC
:1000F00017C0B591A59135912591059107FD0CC0CB
:1001000095918591EF01F92FE82F05900D92A21797
:10011000B307D9F7FE0104C01D92A217B307E1F798
:10012000ED3DF40731F70E94B8060C945A0DF8948F
:02013000FFCFFF
:10013200A2E2B0E0EFE9F0E00C94400C29833A83AC
:100142004B835C8329013A01E89477F84114510406
:100152006104710409F4FFC569877A878B879C87DC
:100162004B015C016115710500E880070FE3900700
:1001720009F4F1C56B017C01E894F7F811E0C116AE
:10018200D10410E8E1061FE7F1060CF0DFC5A1E09B
:100192004A165104A0E86A06AFE77A060CF0D6C503
:1001A20097FF42C041145104B0E86B06BBE47B06E2
:1001B200ECF541145104E0E86E06EFE37E060CF420
:1001C20059C05301420117E1B594A79497948794BB
:1001D2001A95D1F7FFE78F1A9108A108B108E7E154
:1001E200F0E0E819F909530142010E2E04C0B5945A
:1001F200A794979487940A94D2F78D829E82AF82B5
:10020200B88604C0880C991CAA1CBB1CEA95D2F7BC
:10021200481459046A047B0469F5ED81E170B2E087
:100222009B2E9E1A9D8227C01D8202C002E00D8372
:100232004114510410E861061FE77106E1F4C1148C
:10024200D10480E8E8068FE3F80609F484C54CF08F
:1002520089809A80AB80BC80B7FC82C5CA01B90193
:1002620082C5E980FA800B811C8117FF79C5CA011A
:10027200B9017FC01D822D8B3E8B4F8B588F4B0156
:100282005C014114510400E860060FE3700679F442
:10029200E980FA800B811C8117FF65C59B01AC01C7
:1002A20060E070E080E89FE30E94AC0D5CC50981CC
:1002B2001A812B813C8101151105210540E4340787
:1002C20029F49B01AC010E94B00D4DC589819A8130
:1002D200AB81BC810097A105BF4359F409851A85FA
:1002E2002B853C8537FD05C0C501B4010E94E1079D
:1002F2003AC5C501B4010E94B90DC114D104E1048B
:10030200F10449F01FE3B1228114910420E8A2060E
:100312002FE3B20681F589809A80AB80BC80B7FE5C
:1003220008C09B01AC0160E070E080E89FE30E949E
:10033200AC0D89849A84AB84BC84B7FE14C500E8F2
:10034200E01A0FE3F00A1D81C12AC114D104E104AD
:10035200F10459F481E290E090930101809300014D
:100362006FEF7FEF8FEF9FE7FEC40D81013009F041
:10037200FAC49058F8C489849A84AB84BC84B7FECA
:1003820010C09D80992031F3092D013051F4812C48
:10039200912CA12CA0E8BA2E89869A86AB86BC86BF
:1003A20004C019861A861B861C8601E04016510479
:1003B20061040DE470060CF488C018EFC1161FEF3B
:1003C200D1061FE7E1061FE3F1063CF489809A801B
:1003D200AB80BC80B7FE41C317C308E0C016D1048E
:1003E20000E8E0060FE3F0065CF089809A80AB80BB
:1003F200BC80181419041A041B040CF405C32DC381
:1004020020E030E040E85FE30E947C0D6B017C015C
:1004120020E03AEA48EB5FE30E94B00D4B015C0139
:1004220020E735EA4CEE56E3C701B6010E94B00D53
:1004320069837A838B839C8320E030E040E85EE32B
:10044200C701B6010E94B00D9B01AC016BEA7AEACA
:100452008AEA9EE30E947C0DA70196010E94B00DDC
:100462009B01AC0160E070E080E09FE30E947C0DA4
:100472002B013C01A7019601C701B6010E94B00DF4
:100482009B01AC01C301B2010E94B00D2BE33AEA19
:1004920048EB5FE30E94B00D9B01AC0169817A8158
:1004A2008B819C810E947C0D6B017C019B01AC01C4
:1004B200C501B4010E947D0D6627707F6D837E8326
:1004C2008F839887A501940120C2C114D10400E84A
:1004D200E006F1046CF420E030E040E85BE40E94C6
:1004E200B00D6B017C0148EE5FEF6FEF7FEF03C051
:1004F20040E050E0BA01D701C601F7E1B595A795F2
:1005020097958795FA95D1F78F579109A109B10966
:100512004C015D01840E951EA61EB71E898A9A8A19
:10052200AB8ABC8AE894E7F8FF2446015701689435
:10053200A7F80FE3B02A12E7C11614ECD1061CE1AA
:10054200E106F104B4F027EDC21623EBD2062DE545
:10055200E206F1049CF089899A89AB89BC890196EB
:10056200A11DB11D898B9A8BAB8BBC8B90E8A91A0C
:10057200B1081D821E821F82188608C0E12CF12C50
:100582008701E394ED82FE820F8318870D811E811D
:10059200000F111F000F111F1AA309A3F801E85140
:1005A200FE4FE080F18002811381ED86FE860F8787
:1005B200188BA8019701C501B4010E947C0D698FB7
:1005C2007A8F8B8F9C8FA8019701C501B4010E947D
:1005D2007D0D9B01AC0160E070E080E89FE30E942A
:1005E200AC0D6D8F7E8F8F8F98A39B01AC01698DAF
:1005F2007A8D8B8D9C8D0E94B00D69837A838B835B
:100602009C8349805A806B807C80442400EF502276
:1006120075016401F594E794D794C794CC2410EF44
:10062200D122E894F5F86894F5F8D701C601A05CE8
:10063200BF4FCD80DE80EF80F88475E1CC0CDD1CED
:10064200EE1CFF1C7A95D1F7C80ED91EEA1EFB1EBE
:10065200A7019601C301B2010E94B00D9B01AC013A
:10066200698D7A8D8B8D9C8D0E947C0D6D837E832E
:100672008F8398872D853E854F855889C701B6019E
:100682000E947C0D9B01AC01C501B4010E947C0D4E
:10069200A30192010E94B00D9B01AC016D817E818C
:1006A2008F8198850E947C0D2D8D3E8D4F8D58A196
:1006B2000E94B00D6D837E838F83988729813A8152
:1006C2004B815C81CA01B9010E94B00D6B017C01B2
:1006D20022E431EF43E55EE30E94B00D25E532E30B
:1006E2004CE65EE30E947D0DA70196010E94B00DCB
:1006F20025E033EA4BE85EE30E947D0DA7019601F7
:100702000E94B00D2BEA3AEA4AEA5EE30E947D0DAE
:10071200A70196010E94B00D27EB3DE64BED5EE38B
:100722000E947D0DA70196010E94B00D2AE939E9C8
:1007320049E15FE30E947D0D4B015C01A701960137
:10074200C701B6010E94B00D9B01AC01C501B40105
:100752000E94B00D6B017C01A301920169817A8133
:100762008B819C810E947D0D2D813E814F81588518
:100772000E94B00DA70196010E947D0D6B017C01C4
:10078200A3019201C301B2010E94B00D6D877E8761
:100792008F87988B20E030E040E450E40E947D0D8A
:1007A200A70196010E947D0D4B015C01882420EF78
:1007B2009222A5019401C301B2010E94B00D2B0146
:1007C2003C0120E030E040E450E4C501B4010E9465
:1007D2007C0D2D853E854F8558890E947C0D9B019D
:1007E200AC01C701B6010E947C0D29813A814B817F
:1007F2005C810E94B00D6B017C01A50194016D81A9
:100802007E818F8198850E94B00D9B01AC01C7014A
:10081200B6010E947D0D4B015C019B01AC01C3013D
:10082200B2010E947D0D6B017C01CC2430EFD322FA
:1008320020E030E446E75FE3C701B6010E94B00D55
:1008420069837A838B839C83A3019201C701B601DA
:100852000E947C0D9B01AC01C501B4010E947C0D7C
:100862002FE438E346E75FE30E94B00D4B015C01E1
:1008720026EC33E246EF58EBC701B6010E94B00DF9
:100882009B01AC01C501B4010E947D0DE9A1FAA151
:10089200E852FE4F20813181428153810E947D0DB9
:1008A2006B017C0169897A898B899C890E94520B30
:1008B2004B015C0109A11AA100521E4FD8014D90B3
:1008C2005D906D907C90A701960169817A818B8100
:1008D2009C810E947D0DA30192010E947D0DA501C4
:1008E20094010E947D0D6627707F6D837E838F83C6
:1008F2009887A50194010E947C0DA30192010E9498
:100902007C0D29813A814B815C810E947C0D9B0187
:10091200AC01C701B6010E947C0D4B015C01CD8880
:10092200DE88EF88F88CCC24B0EFDB22A701960199
:100932006D897E898F89988D0E947C0D2D813E81E3
:100942004F8158850E94B00D2B013C012D893E89B3
:100952004F89588DC501B4010E94B00D9B01AC01B5
:10096200C301B2010E947D0D69837A838B839C83CC
:10097200A70196016D817E818F8198850E94B00DBD
:10098200962EA72EB82E892E6D87798B182F092FB8
:10099200262F372F482F592F69817A818B819C818D
:1009A2000E947D0D6B017C016D837E838F8398870E
:1009B20081E0C816D104E10483E4F8062CF52D8108
:1009C2003E814F815885211531054105534419F562
:1009D2002CE33AEA48E353E369817A818B819C8173
:1009E2000E947D0D2B013C01292D3A2D4B2D582DB6
:1009F200C701B6010E947C0D9B01AC01C301B2018B
:100A02000E94A30D181674F589859A85AB85BC855D
:100A1200A068BF6798C1D701C601BF770197A641F9
:100A2200B344DCF42D813E814F8158852115310577
:100A32004641534CB9F4292D3A2D4B2D582DC7015F
:100A4200B6010E947C0D9B01AC0169817A818B8188
:100A52009C810E949E0D18162CF069857A858B85E3
:100A62009C8581C1D701C601BF7781309105A1055F
:100A7200EFE3BE070CF46AC037E1B595A7959795E9
:100A820087953A95D1F78E5740E050E060E870E0E4
:100A92008A019B0104C035952795179507958A957C
:100AA200D2F7C00ED11EE21EF31E26013701E894D2
:100AB20077F847E175946794579447944A95D1F72C
:100AC2001FE7411A5108610871088FEF9FEFAFE7E6
:100AD200B0E0042C04C0B595A795979587950A9424
:100AE200D2F780959095A095B0959C01AD012C21EF
:100AF2003D214E215F21E894E7F8FF246894E7F84E
:100B020087E190E0841995092601370104C07594A4
:100B12006794579447948A95D2F7ED80FE800F81AF
:100B2200188517FF08C07094609450944094411C3B
:100B3200511C611C711C692D7A2D8B2D982D0E94E0
:100B42007C0D6D87798B182F092F03C0412C512CF6
:100B5200320129813A814B815C816D857989812FAE
:100B6200902F0E947D0D4B015C01882420E8922287
:100B720020E032E741E35FE3C501B4010E94B00D1A
:100B82006D837E838F8398872D853989412F502FDE
:100B9200C501B4010E947C0D9B01AC0169817A817F
:100BA2008B819C810E947C0D28E132E741E35FE367
:100BB2000E94B00D6B017C012CE83EEB4FEB55E33C
:100BC200C501B4010E94B00D9B01AC01C701B60181
:100BD2000E947D0D4B015C019B01AC016D817E8108
:100BE2008F8198850E947D0D6B017C012D813E8154
:100BF2004F8158850E947C0D9B01AC01C501B40157
:100C02000E947C0D69837A838B839C83A701960162
:100C1200C701B6010E94B00D4B015C012CE43BEB15
:100C220041E353E30E94B00D2EE03AEE4DED55E361
:100C32000E947C0DA50194010E94B00D25E533EBC5
:100C42004AE858E30E947D0DA50194010E94B00D6F
:100C520021E63BE046E35BE30E947C0DA5019401A3
:100C62000E94B00D2BEA3AEA4AE25EE30E947D0D51
:100C7200A50194010E94B00D9B01AC01C701B60110
:100C82000E947C0D4B015C019B01AC01C701B601C6
:100C92000E94B00D6D837E838F83988720E030E0C1
:100CA20040E050E4C501B4010E947C0D9B01AC01FF
:100CB2006D817E818F8198850E94AC0D4B015C0114
:100CC20029813A814B815C81C701B6010E94B00D36
:100CD20029813A814B815C810E947D0D9B01AC018F
:100CE200C501B4010E947C0DA70196010E947C0DF2
:100CF2009B01AC0160E070E080E89FE30E947C0D04
:100D02005301420127E1880C991CAA1CBB1C2A959D
:100D1200D1F7860E971EA81EB91E8114910430E8E1
:100D2200A306B10424F4A2010E94500A02C0C50124
:100D3200B40189849A84AB84BC8486269726A8262B
:100D4200B926D501C401BC01CD010DC060E070E03F
:100D520080EC9FE708C060E070E080E89FE303C09A
:0E0D620060E070E0CB01A296E0E10C945C0C26
:100D7000539A5B980E94750D0E944D0D0E94020CC3
:100D80000E94210C0E946E0DC0E0D0E01D2F42E0B9
:100D900051E061E081E00E94A70C42E151E061E096
:100DA00082E00E94A70C0E94BF0C811108C00E9423
:100DB000D30C811104C00E94E70C882341F30E94E8
:100DC000A80D4BE151E061E081E00E94A70C46E2F2
:100DD00051E061E082E00E943F0D4DE251E061E0B0
:100DE00081E00E94A70C4BE351E061E082E00E94A9
:100DF0003F0D42E451E061E081E00E94A70C40E534
:100E000051E061E082E00E943F0D4BE551E062E07D
:100E100081E00E94A70C4EE551E06BE081E00E946A
:100E2000A70C45E651E066E082E00E94A70C41E78E
:100E300051E062E082E00E94A70C0E94BF0C882370
:100E4000A1F00E94A80D44E751E061E081E00E941A
:100E5000A70C4FE751E061E082E00E943F0D0E9445
:100E6000D30C81119BC0C1E0D0CF0E94E70C882336
:100E7000A1F00E94A80D48E851E061E081E00E94E5
:100E8000A70C4FE751E061E082E00E943F0D0E9415
:100E9000D30C81118DC0C12FB8CF0E94D30C8823F1
:100EA00009F4B3CF0E94A80D43E951E061E081E06D
:100EB0000E94A70CCC2339F043EA51E061E082E0C4
:100EC0000E943F0D07C04BEA51E061E082E00E94C2
:100ED0003F0DCD2F43EB51E061E081E00E94A70C74
:100EE0004EEB51E064E082E00E94A70C42EC51E03E
:100EF0006BE082E00E94A70C40E267E082E00E9483
:100F0000650D4091F2015091F30123E061E082E030
:100F10000E94000B4091F0015091F10123E068E044
:100F200082E00E94000B0E94D30C882399F2C090AB
:100F3000F201D090F301E090F001F090F10146EC65
:100F400051E061E081E00E94A70C4EEB51E064E0CB
:100F500082E00E94A70C42EC51E06BE082E00E942C
:100F6000A70C40E267E082E00E94650D23E0A60145
:100F700061E082E00E94000B23E0A70168E082E0CC
:100F80000E94000B46ED51E060E181E00E943F0DC0
:100F9000CC2311F05B9AFBCE5B98F9CE0E94A80D92
:100FA00043E951E061E081E00E94A70CC1E084CFF9
:100FB0000E94A80D43E951E061E081E00E94A70C86
:020FC00082CFDE
:100FC200A4E0B0E0E7EEF7E00C94400C8B019C014A
:100FD200AC0140785F776B017C0140385F4761F478
:100FE200E894E7F8FF24C114D104E104F10409F004
:100FF200ACC097FDAAC0AEC0E894F7F8C114D10402
:10100200E104F10409F4A6C097FF07C081E290E071
:10101200909301018093000198C0DC01CB0167E14C
:10102200B595A795979587956A95D1F70097A105EC
:10103200B105B9F480E090E0DC0127FD08C0000FA3
:10104200111F221F331F0196A11DB11DF6CF01975B
:10105200A109B109B095A095909581959F4FAF4F89
:10106200BF4F8F579109A109B1092F773327206804
:1010720080FF04C0000F111F221F331FAC01BD01EE
:10108200759567955795479549835A836B837C83FA
:10109200000F111F221F331F49E150E0812C912CB8
:1010A2005401B394C12CD12C760180E090E0DC0194
:1010B2002C013D01480C591C6A1C7B1C04151505AA
:1010C2002605370574F0D301C201880D991DAA1DAA
:1010D200BB1D0419150926093709C80CD91CEA1CBD
:1010E200FB1C000F111F221F331FB694A794979465
:1010F200879441505109E1F6011511052105310589
:1011020051F0970186010170112722273327C00E63
:10111200D11EE21EF31EF594E794D794C79451ECC6
:10112200F51A89819A81AB81BC8127E1880F991FC9
:10113200AA1FBB1F2A95D1F78C0D9D1DAE1DBF1D89
:10114200482F392F2A2F5B2F09C040E030E020ECD6
:101152005FE704C0462F372F282F592F642F732F94
:0C116200822F952F2496E0E10C945C0C89
:10116E0010C00E948A0D58F00E94830D40F029F4A1
:10117E005F3F29F00C94980D51110C94920D0C9424
:10118E00B40D0E94E00B68F39923B1F3552391F34C
:10119E00951B550BBB27AA2762177307840738F0D8
:1011AE009F5F5F4F220F331F441FAA1FA9F335D035
:1011BE000E2E3AF0E0E832D091505040E695001CE9
:1011CE00CAF72BD0FE2F29D0660F771F881FBB1FA3
:1011DE00261737074807AB07B0E809F0BB0B802D81
:1011EE00BF01FF2793585F4F3AF09E3F510578F0AD
:1011FE000C94980D0C94920D5F3FE4F3983ED4F34B
:10120E00869577956795B795F7959F5FC9F7880F80
:10121E00911D9695879597F90895E1E0660F771FD2
:10122E00881FBB1F621773078407BA0720F0621B63
:0E123E00730B840BBA0BEE1F88F7E095089532
:10124C000FC00E94830D38F00E948A0D20F0952368
:10125C0011F00C94980D0C94B40D11240C94920D67
:10126C000E94E00B70F3959FC1F3950F50E0551F52
:10127C00629FF001729FBB27F00DB11D639FAA27DF
:10128C00F00DB11DAA1F649F6627B00DA11D661F2E
:10129C00829F2227B00DA11D621F739FB00DA11D4F
:1012AC00621F839FA00D611D221F749F3327A00D09
:1012BC00611D231F849F600D211D822F762F6A2FA5
:1012CC0011249F5750409AF0F1F088234AF0EE0F0A
:1012DC00FF1FBB1F661F771F881F91505040A9F737
:1012EC009E3F510580F00C94980D0C94920D5F3F2D
:1012FC00E4F3983ED4F3869577956795B795F79573
:10130C00E7959F5FC1F7FE2B880F911D96958795EA
:04131C0097F90895A0
:1013200011C00E94830D38F00E948A0D20F039F41C
:101330009F3F19F426F40C94B40D0EF4E095E7FBEE
:101340000C94980DE92F0E94E00B58F3BA1762072E
:1013500073078407950720F079F4A6F50C94910D96
:101360000EF4E0950B2EBA2FA02D0B01B9019001C0
:101370000C01CA01A0011124FF27591B99F0593F04
:1013800050F4503E68F11A16F040A22F232F342F4C
:101390004427585FF3CF469537952795A795F0409A
:1013A0005395C9F77EF41F16BA0B620B730B840BAF
:1013B000BAF09150A1F0FF0FBB1F661F771F881F67
:1013C000C2F70EC0BA0F621F731F841F48F48795BF
:1013D00077956795B795F7959E3F08F0B0CF9395B1
:0E13E000880F08F09927EE0F979587950895CE
:1013EE001F921FB61F9211242F933F938F939F939B
:1013FE0036B126B136FB882780F990E0880F991F09
:10140E00922F991F9927991F892B9091F401911171
:10141E000DC0813059F42091F0013091F1012F5F10
:10142E003F4F3093F1012093F00110C09091F401E1
:10143E0091110CC0823051F42091F0013091F101E4
:10144E00215031093093F1012093F0012091F001E8
:10145E003091F101273E33403CF027EE33E03093DC
:10146E00F1012093F0010BC02091F0013091F101B8
:10147E001216130624F01092F1011092F0018093CF
:10148E00F4019F918F913F912F911F901FBE1F903E
:02149E0018959F
:1014A0000F931F93CF93DF93EA0140385105D4F097
:1014B00020E030E040E05FE70E94B00D9E012F5732
:1014C0003109203831056CF120E030E040E05FE781
:1014D0000E94B00DCE5FD109C038D1051CF1CFE715
:1014E000D0E020C042385F4FECF420E030E040E82C
:1014F0005CE00E94B00D9E012A593F4F22384FEF09
:1015000034077CF420E030E040E85CE00E94B00D5D
:10151000C453DF4FC2382FEFD20724F4C2E8DFEF05
:1015200001C0E9019E0121583F4F8901330F220B71
:10153000330BA9019801E7E1220F331F441F551F08
:10154000EA95D1F70E94B00DDF91CF911F910F91D5
:021550000895FC
:101552001F921FB61F9211242F933F938F939F9335
:1015620030B120B1832F817090E0880F991F21FB49
:10157200992790F9892B9091F50191110DC0813035
:1015820059F42091F2013091F3012F5F3F4F3093D4
:10159200F3012093F20110C09091F50191110CC05A
:1015A200823051F42091F2013091F301215031093E
:1015B2003093F3012093F2012091F2013091F30173
:1015C2002E3131053CF02EE130E03093F3012093CF
:1015D200F2010BC02091F2013091F30112161306B1
:1015E20024F01092F3011092F2018093F5019F9181
:0E15F2008F913F912F911F901FBE1F90189553
:10160000FF920F931F93CF93DF9300D0CDB7DEB738
:101610008A01F22E0E94200DFF20D1F16F2D70E083
:1016200061507109072E000C880B990B0E94520B18
:101630009B01AC0160E070E080E291E40E949900BF
:101640000E948D0B7A83698369817A81C8010E9427
:10165000FB0CAB019B01ADECBCEC0E94300D9695F0
:1016600087959695879596958795880F991F9C01E4
:10167000220F331F220F331F820F931F9A01281B43
:10168000390BC901805D0E948E0CFA94F110C6CF0F
:101690000F900F90DF91CF911F910F91FF900895C0
:1016A000E89409C097FB3EF49095809570956195FC
:1016B0007F4F8F4F9F4F9923A9F0F92F96E9BB27B2
:1016C0009395F695879577956795B795F111F8CF2E
:1016D000FAF4BB0F11F460FF1BC06F5F7F4F8F4F99
:1016E0009F4F16C0882311F096E911C0772321F08F
:1016F0009EE8872F762F05C0662371F096E8862F27
:1017000070E060E02AF09A95660F771F881FDAF77D
:0A171000880F9695879597F90895C4
:10171A000E94E80B88F09F5798F0B92F9927B75184
:10172A00B0F0E1F0660F771F881F991F1AF0BA957B
:10173A00C9F714C0B13091F00E94910DB1E008953B
:10174A000C94910D672F782F8827B85F39F0B93F2D
:10175A00CCF3869577956795B395D9F73EF490952E
:0E176A008095709561957F4F8F4F9F4F08952A
:10177800990F0008550FAA0BE0E8FEEF161617069A
:10178800E807F907C0F012161306E407F50798F002
:10179800621B730B840B950B39F40A2661F0232B1B
:1017A800242B252B21F408950A2609F4A140A69597
:0817B8008FEF811D811D0895D2
:1017C00057FD9058440F551F59F05F3F71F04795F2
:1017D000880F97FB991F61F09F3F79F087950895D7
:1017E000121613061406551FF2CF4695F1DF08C0F6
:1017F000161617061806991FF1CF86957105610513
:0418000008940895AB
:1018040081B18C7F81B987B18F7387B982B18F60C1
:1018140082B9E8E6F0E08081816080838081846021
:101824008083EBE6F0E0808183608083EDE6F0E086
:0E1834008081806C8083D89ADA9A7894089527
:1018420050B140B1252F217030E0220F331F41FBF0
:10185200332730F9232B2093F50136B126B136FB1D
:10186200882780F990E0880F991F922F991F992756
:0A187200991F892B8093F40108955B
:10187C002F923F924F925F926F927F928F929F9294
:10188C00AF92BF92CF92DF92EF92FF920F931F9382
:10189C00CF93DF93CDB7DEB7CA1BDB0B0FB6F89433
:0818AC00DEBF0FBECDBF0994A1
:1018B4002A88398848885F846E847D848C849B84DC
:1018C400AA84B984C884DF80EE80FD800C811B81EA
:1018D400AA81B981CE0FD11D0FB6F894DEBF0FBE19
:0618E400CDBFED010895E7
:1018EA005F985E9895B1892B85B95D9A89EF90E0EA
:1018FA000197F1F700C000005D9889EF90E0019729
:10190A00F1F700C0000085B115B88BB18F718BB9A2
:02191A0008952E
:10191C005F9A5E9895B1892B85B95D9A89EF90E0B5
:10192C000197F1F700C000005D9889EF90E00197F6
:10193C00F1F700C0000085B115B88BB18F718BB970
:02194C000895FC
:10194E000F931F93CF938A010E94200DF80180817F
:10195E00882351F0C0E00E948E0CCF5FF801EC0F8F
:10196E00F11D80818111F7CFCF911F910F910895B5
:10197E00069B10C087E893E10197F1F700C00000C5
:10198E000699FECF87E893E10197F1F700C00000BA
:08199E0081E0089580E0089546
:1019A600059B10C087E893E10197F1F700C000009E
:1019B6000599FECF87E893E10197F1F700C0000093
:0819C60081E0089580E008951E
:1019CE00049B10C087E893E10197F1F700C0000077
:1019DE000499FECF87E893E10197F1F700C000006C
:0819EE0081E0089580E00895F6
:1019F600AA1BBB1B51E107C0AA1FBB1FA617B7072F
:101A060010F0A61BB70B881F991F5A95A9F780954A
:081A16009095BC01CD0108957B
:101A1E00092E0394000C11F4882352F0BB0F40F4EE
:101A2E00BF2B11F460FF04C06F5F7F4F8F4F9F4F2E
:021A3E00089509
:101A4000813031F48FEF860F80680E94750C089505
:101A5000823029F48FE3860F80680E94750C089508
:101A6000A29FB001B39FC001A39F700D811D1124DF
:0E1A7000911DB29F700D811D1124911D0895CE
:101A7E000E94A70C2FE78AE196E02150804090400B
:0C1A8E00E1F700C000000E94A80D0895C0
:101A9A0088E30E94750C8CE00E94750C86E00E9417
:0A1AAA00750C81E00E94750C089590
:101AB400EC010E94BE0D0E94BD0DCE010E94BF0D1F
:061AC400CE010E94BB0DE3
:101ACA00CF93C42F0E94200D8C2F0E948E0CCF9191
:021ADA0008956D
:0E1ADC0081B18F7881B982B18F7882B9089577
:0E1AEA0084B18FEF84B98AB1806E8AB90895F5
:0E1AF8005058BB27AA270E9490090C940F0D8E
:0E1B060000240A9416161706180609060895FC
:0E1B140000240A9412161306140605060895FE
:0E1B2200E894BB2766277727CB0197F9089533
:0C1B300097F99F6780E870E060E008957E
:0A1B3C000E94BC0B08F481E008953C
:0A1B46000E94BC0B08F48FEF089515
:081B500081E00E94750C08956C
:081B58000E94B7080C940F0D68
:081B60000E9426090C940F0DF0
:061B68009FEF80EC0895E0
:041B6E000C940000D3
:041B72009F770895BC
:041B76000E94970032
:021B7A000895CC
:021B7C000895CA
:021B7E000895C8
:101B80005055534820414E5920425554544F4E0011
:101B9000544F20535441525400546F702042757476
:101BA000746F6E00666F7220545800426F74746FC9
:101BB0006D20427574746F6E00666F72205258000B
:101BC0004D6964646C6520427574746F6E00746F47
:101BD00020436F6E6669726D00545800506C6561E9
:101BE00073650053656C656374204D6F64650052C6
:101BF00058005258204D6F64652069730073656CFE
:101C00006563746564005458204D6F646520697382
:101C1000004D6F646520436F6E6669726D65643A4E
:101C2000005258204D6F6465005458204D6F646514
:101C3000004672657175656E63793A004D487A00A9
:101C40004B487A00436F6E6669726D656420467218
:061C500065713A0020005E
:081C560000000000DCCFD135D5
:081C5E000000000000C0153F6A
:081C66000000803F0000C03FB8
:00000001FF
