:100000000C947B000C9427130C9427130C94271347
:100010000C94470E0C9427130C94A00E0C942713E9
:100020000C9427130C9427130C9427130C94271368
:100030000C9427130C9427130C9427130C94271358
:100040000C9427130C9427130C9427130C94271348
:100050000C9427130C9427130C9427130C94271338
:100060000C9427130C9427130C9427130C94271328
:100070000C9427130C9427130C9427130C94271318
:100080000C9427130C9427130C9427130C94271308
:100090000C9427130C9427130C9427130C942713F8
:1000A0000C9427130C9427130C9427130C942713E8
:1000B0000C9427130C9427130C9427130C942713D8
:1000C0000C9427130C9427130C942713010001029E
:1000D00080010201C800266001C801D48001D4015A
:1000E000EC00272601EC01EE8001EE01F000273E36
:1000F00001F001F2800011241FBECFEFD8E0DEBF77
:10010000CDBFECECF0E040E017C0B591A591359182
:100110002591059107FD0CC095918591EF01F92F6F
:10012000E82F05900D92A217B307D9F7FE0104C07E
:100130001D92A217B307E1F7E53FF40731F70E94DC
:0A014000A3080C94A812F894FFCF56
:10014A00A2E2B0E0EBEAF0E00C94041129833A83CE
:10015A004B835C8329013A01E89477F841145104EE
:10016A006104710409F4FFC569877A878B879C87C4
:10017A004B015C016115710500E880070FE39007E8
:10018A0009F4F1C56B017C01E894F7F811E0C11696
:10019A00D10410E8E1061FE7F1060CF0DFC5A1E083
:1001AA004A165104A0E86A06AFE77A060CF0D6C5EB
:1001BA0097FF42C041145104B0E86B06BBE47B06CA
:1001CA00ECF541145104E0E86E06EFE37E060CF408
:1001DA0059C05301420117E1B594A79497948794A3
:1001EA001A95D1F7FFE78F1A9108A108B108E7E13C
:1001FA00F0E0E819F909530142010E2E04C0B59442
:10020A00A794979487940A94D2F78D829E82AF829C
:10021A00B88604C0880C991CAA1CBB1CEA95D2F7A4
:10022A00481459046A047B0469F5ED81E170B2E06F
:10023A009B2E9E1A9D8227C01D8202C002E00D835A
:10024A004114510410E861061FE77106E1F4C11474
:10025A00D10480E8E8068FE3F80609F484C54CF077
:10026A0089809A80AB80BC80B7FC82C5CA01B9017B
:10027A0082C5E980FA800B811C8117FF79C5CA0102
:10028A00B9017FC01D822D8B3E8B4F8B588F4B013E
:10029A005C014114510400E860060FE3700679F42A
:1002AA00E980FA800B811C8117FF65C59B01AC01AF
:1002BA0060E070E080E89FE30E941C135CC509813E
:1002CA001A812B813C8101151105210540E434076F
:1002DA0029F49B01AC010E9420134DC589819A81A2
:1002EA00AB81BC810097A105BF4359F409851A85E2
:1002FA002B853C8537FD05C0C501B4010E94630BFF
:10030A003AC5C501B4010E942913C114D104E104FC
:10031A00F10449F01FE3B1228114910420E8A206F6
:10032A002FE3B20681F589809A80AB80BC80B7FE44
:10033A0008C09B01AC0160E070E080E89FE30E9486
:10034A001C1389849A84AB84BC84B7FE14C500E864
:10035A00E01A0FE3F00A1D81C12AC114D104E10495
:10036A00F10459F481E290E0909301018093000135
:10037A006FEF7FEF8FEF9FE7FEC40D81013009F029
:10038A00FAC49058F8C489849A84AB84BC84B7FEB2
:10039A0010C09D80992031F3092D013051F4812C30
:1003AA00912CA12CA0E8BA2E89869A86AB86BC86A7
:1003BA0004C019861A861B861C8601E04016510461
:1003CA0061040DE470060CF488C018EFC1161FEF23
:1003DA00D1061FE7E1061FE3F1063CF489809A8003
:1003EA00AB80BC80B7FE41C317C308E0C016D10476
:1003FA0000E8E0060FE3F0065CF089809A80AB80A3
:10040A00BC80181419041A041B040CF405C32DC368
:10041A0020E030E040E85FE30E94E3126B017C01D8
:10042A0020E03AEA48EB5FE30E9420134B015C01AB
:10043A0020E735EA4CEE56E3C701B6010E942013C5
:10044A0069837A838B839C8320E030E040E85EE313
:10045A00C701B6010E9420139B01AC016BEA7AEA3C
:10046A008AEA9EE30E94E312A70196010E942013E2
:10047A009B01AC0160E070E080E09FE30E94E31220
:10048A002B013C01A7019601C701B6010E94201366
:10049A009B01AC01C301B2010E9420132BE33AEA8B
:1004AA0048EB5FE30E9420139B01AC0169817A81CA
:1004BA008B819C810E94E3126B017C019B01AC0140
:1004CA00C501B4010E94E4126627707F6D837E83A2
:1004DA008F839887A501940120C2C114D10400E832
:1004EA00E006F1046CF420E030E040E85BE40E94AE
:1004FA0020136B017C0148EE5FEF6FEF7FEF03C0C3
:10050A0040E050E0BA01D701C601F7E1B595A795D9
:10051A0097958795FA95D1F78F579109A109B1094E
:10052A004C015D01840E951EA61EB71E898A9A8A01
:10053A00AB8ABC8AE894E7F8FF244601570168941D
:10054A00A7F80FE3B02A12E7C11614ECD1061CE192
:10055A00E106F104B4F027EDC21623EBD2062DE52D
:10056A00E206F1049CF089899A89AB89BC890196D3
:10057A00A11DB11D898B9A8BAB8BBC8B90E8A91AF4
:10058A00B1081D821E821F82188608C0E12CF12C38
:10059A008701E394ED82FE820F8318870D811E8105
:1005AA00000F111F000F111F1AA309A3F801EC5124
:1005BA00FE4FE080F18002811381ED86FE860F876F
:1005CA00188BA8019701C501B4010E94E312698F33
:1005DA007A8F8B8F9C8FA8019701C501B4010E9465
:1005EA00E4129B01AC0160E070E080E89FE30E94A6
:1005FA001C136D8F7E8F8F8F98A39B01AC01698D21
:10060A007A8D8B8D9C8D0E94201369837A838B83CC
:10061A009C8349805A806B807C80442400EF50225E
:10062A0075016401F594E794D794C794CC2410EF2C
:10063A00D122E894F5F86894F5F8D701C601A05CD0
:10064A00BF4FCD80DE80EF80F88475E1CC0CDD1CD5
:10065A00EE1CFF1C7A95D1F7C80ED91EEA1EFB1EA6
:10066A00A7019601C301B2010E9420139B01AC01AC
:10067A00698D7A8D8B8D9C8D0E94E3126D837E83AA
:10068A008F8398872D853E854F855889C701B60186
:10069A000E94E3129B01AC01C501B4010E94E3125E
:1006AA00A30192010E9420139B01AC016D817E81FE
:1006BA008F8198850E94E3122D8D3E8D4F8D58A112
:1006CA000E9420136D837E838F83988729813A81C4
:1006DA004B815C81CA01B9010E9420136B017C0124
:1006EA0022E431EF43E55EE30E94201325E532E37D
:1006FA004CE65EE30E94E412A70196010E942013D1
:10070A0025E033EA4BE85EE30E94E412A701960172
:10071A000E9420132BEA3AEA4AEA5EE30E94E412B4
:10072A00A70196010E94201327EB3DE64BED5EE3FD
:10073A000E94E412A70196010E9420132AE939E9CE
:10074A0049E15FE30E94E4124B015C01A7019601B3
:10075A00C701B6010E9420139B01AC01C501B40177
:10076A000E9420136B017C01A301920169817A81A5
:10077A008B819C810E94E4122D813E814F81588594
:10078A000E942013A70196010E94E4126B017C01CA
:10079A00A3019201C301B2010E9420136D877E87D3
:1007AA008F87988B20E030E040E450E40E94E41206
:1007BA00A70196010E94E4124B015C01882420EFF4
:1007CA009222A5019401C301B2010E9420132B01B8
:1007DA003C0120E030E040E450E4C501B4010E944D
:1007EA00E3122D853E854F8558890E94E3129B01AD
:1007FA00AC01C701B6010E94E31229813A814B81FB
:10080A005C810E9420136B017C01A50194016D811A
:10081A007E818F8198850E9420139B01AC01C701BC
:10082A00B6010E94E4124B015C019B01AC01C301B9
:10083A00B2010E94E4126B017C01CC2430EFD32276
:10084A0020E030E446E75FE3C701B6010E942013C7
:10085A0069837A838B839C83A3019201C701B601C2
:10086A000E94E3129B01AC01C501B4010E94E3128C
:10087A002FE438E346E75FE30E9420134B015C0153
:10088A0026EC33E246EF58EBC701B6010E9420136B
:10089A009B01AC01C501B4010E94E412E9A1FAA1CD
:1008AA00EC52FE4F20813181428153810E94E41231
:1008BA006B017C0169897A898B899C890E94A40FC2
:1008CA004B015C0109A11AA104521E4FD8014D9097
:1008DA005D906D907C90A701960169817A818B81E8
:1008EA009C810E94E412A30192010E94E412A501D4
:1008FA0094010E94E4126627707F6D837E838F8342
:10090A009887A50194010E94E312A30192010E9413
:10091A00E31229813A814B815C810E94E3129B0197
:10092A00AC01C701B6010E94E3124B015C01CD88FC
:10093A00DE88EF88F88CCC24B0EFDB22A701960181
:10094A006D897E898F89988D0E94E3122D813E815F
:10095A004F8158850E9420132B013C012D893E8925
:10096A004F89588DC501B4010E9420139B01AC0127
:10097A00C301B2010E94E41269837A838B839C8348
:10098A00A70196016D817E818F8198850E9420132F
:10099A00962EA72EB82E892E6D87798B182F092FA0
:1009AA00262F372F482F592F69817A818B819C8175
:1009BA000E94E4126B017C016D837E838F8398878A
:1009CA0081E0C816D104E10483E4F8062CF52D81F0
:1009DA003E814F815885211531054105534419F54A
:1009EA002CE33AEA48E353E369817A818B819C815B
:1009FA000E94E4122B013C01292D3A2D4B2D582D32
:100A0A00C701B6010E94E3129B01AC01C301B20106
:100A1A000E940F13181674F589859A85AB85BC85D3
:100A2A00A068BF6798C1D701C601BF770197A641E1
:100A3A00B344DCF42D813E814F815885211531055F
:100A4A004641534CB9F4292D3A2D4B2D582DC70147
:100A5A00B6010E94E3129B01AC0169817A818B8104
:100A6A009C810E940A1318162CF069857A858B8559
:100A7A009C8581C1D701C601BF7781309105A10547
:100A8A00EFE3BE070CF46AC037E1B595A7959795D1
:100A9A0087953A95D1F78E5740E050E060E870E0CC
:100AAA008A019B0104C035952795179507958A9564
:100ABA00D2F7C00ED11EE21EF31E26013701E894BA
:100ACA0077F847E175946794579447944A95D1F714
:100ADA001FE7411A5108610871088FEF9FEFAFE7CE
:100AEA00B0E0042C04C0B595A795979587950A940C
:100AFA00D2F780959095A095B0959C01AD012C21D7
:100B0A003D214E215F21E894E7F8FF246894E7F835
:100B1A0087E190E0841995092601370104C075948C
:100B2A006794579447948A95D2F7ED80FE800F8197
:100B3A00188517FF08C07094609450944094411C23
:100B4A00511C611C711C692D7A2D8B2D982D0E94C8
:100B5A00E3126D87798B182F092F03C0412C512C72
:100B6A00320129813A814B815C816D857989812F96
:100B7A00902F0E94E4124B015C01882420E8922203
:100B8A0020E032E741E35FE3C501B4010E9420138C
:100B9A006D837E838F8398872D853989412F502FC6
:100BAA00C501B4010E94E3129B01AC0169817A81FB
:100BBA008B819C810E94E31228E132E741E35FE3E3
:100BCA000E9420136B017C012CE83EEB4FEB55E3AE
:100BDA00C501B4010E9420139B01AC01C701B601F3
:100BEA000E94E4124B015C019B01AC016D817E8184
:100BFA008F8198850E94E4126B017C012D813E81D0
:100C0A004F8158850E94E3129B01AC01C501B401D2
:100C1A000E94E31269837A838B839C83A7019601DE
:100C2A00C701B6010E9420134B015C012CE43BEB87
:100C3A0041E353E30E9420132EE03AEE4DED55E3D3
:100C4A000E94E312A50194010E94201325E533EBCB
:100C5A004AE858E30E94E412A50194010E94201375
:100C6A0021E63BE046E35BE30E94E312A50194011F
:100C7A000E9420132BEA3AEA4AE25EE30E94E41257
:100C8A00A50194010E9420139B01AC01C701B60182
:100C9A000E94E3124B015C019B01AC01C701B60142
:100CAA000E9420136D837E838F83988720E030E033
:100CBA0040E050E4C501B4010E94E3129B01AC017B
:100CCA006D817E818F8198850E941C134B015C0186
:100CDA0029813A814B815C81C701B6010E942013A8
:100CEA0029813A814B815C810E94E4129B01AC010B
:100CFA00C501B4010E94E312A70196010E94E31202
:100D0A009B01AC0160E070E080E89FE30E94E3127F
:100D1A005301420127E1880C991CAA1CBB1C2A9585
:100D2A00D1F7860E971EA81EB91E8114910430E8C9
:100D3A00A306B10424F4A2010E94F90E02C0C5015F
:100D4A00B40189849A84AB84BC8486269726A82613
:100D5A00B926D501C401BC01CD010DC060E070E027
:100D6A0080EC9FE708C060E070E080E89FE303C082
:0E0D7A0060E070E0CB01A296E0E10C94201145
:100D88003F924F925F926F927F928F929F92AF9213
:100D9800BF92CF92DF92EF92FF920F931F93CF9360
:100DA800DF93CDB7DEB764970FB6F894DEBF0FBEFA
:100DB800CDBF633008F0ABC129013A0194E0491A6C
:100DC800510861087108EDEF4E16E7E05E06610410
:100DD800710408F09CC125013601F1E04F1A510851
:100DE800610871089FEF491659069FE0690671046A
:100DF80008F08DC1E114F104E0E10E07110508F0D7
:100E080086C1250136014701580169017A01162F6B
:100E1800082F81149104A104B10431F5F4E0CF1A2C
:100E2800D108E108FEEFFF0ACC0CDD1CEE1CFF1C0C
:100E3800CC0CDD1CEE1CFF1CCC0CDD1CEE1CFF1CBE
:100E4800CC0CDD1CEE1CFF1CCC0CDD1CEE1CFF1CAE
:100E5800CC0CDD1CEE1CFF1CCC0CDD1CEE1CFF1C9E
:100E680040E050E0BA01DBC021E0421651046104C1
:100E7800710409F048C0D501C4010497A109BE4F07
:100E8800C80ED91EEA1EFB1ECC0CDD1CEE1CFF1C76
:100E9800CC0CDD1CEE1CFF1CCC0CDD1CEE1CFF1C5E
:100EA800CC0CDD1CEE1CFF1CCC0CDD1CEE1CFF1C4E
:100EB800CC0CDD1CEE1CFF1CCC0CDD1CEE1CFF1C3E
:100EC800B501A4014150510961097E4F440F551FD6
:100ED800661F771F440F551F661F771F440F551F46
:100EE800661F771F440F551F661F771F440F551F36
:100EF800661F771F440F551F661F771F440F551F26
:100F0800661F771F8CC0C301B2010E94A20F6987B8
:100F18007A878B879C87C501B4010E94A20F298517
:100F28003A854B855C850E941C1320E030E040E048
:100F380053E40E9420130E94390C6D877E878F87A7
:100F4800988BD701C601880F991FAA1FBB1F880F4E
:100F5800991FAA1FBB1F880F991FAA1FBB1F880FA5
:100F6800991FAA1FBB1F880F991FAA1FBB1F880F95
:100F7800991FAA1FBB1FBC01CD01660F771F881FD1
:100F8800991F0E94A20F2D853E854F8558890E9482
:100F9800E41220E030E040E054E40E94E3120E94B2
:100FA80013106B017C01D501C401880F991FAA1F7A
:100FB800BB1F880F991FAA1FBB1F880F991FAA1F45
:100FC800BB1F880F991FAA1FBB1F880F991FAA1F35
:100FD800BB1F880F991FAA1FBB1FBC01CD01660F3D
:100FE800771F881F991F0E94A20F698B7A8B8B8BA2
:100FF8009C8B2D853E854F85588969857A858B859B
:101008009C850E9420139B01AC0169897A898B8990
:101018009C890E94E3120E941310AB01BC0111309D
:1010280049F018F0123059F00FC00F2EFAE23F2E97
:10103800F02D0BC00F2EF2E33F2EF02D06C00F2E21
:10104800FAE33F2EF02D01C0312C59824A82D70194
:10105800C60188279927A370BB2724E0129FF001B7
:101068001124E853FE4F2081822F8A2B8B83DC8248
:10107800CD82D301C20188279927AF70BB27072EDD
:101088007CE0B695A795979587957A95D1F7702DB9
:101098006A017B01CC24DD24EFE0EE22FF248E29B7
:1010A8008E835F8348870E949A1180E60E942512EA
:1010B800832D0E949012CE0101967C016E0199E069
:1010C800C90ED11CF70181917F010E949012EC1486
:1010D800FD04C1F70E941813013011F46FE201C03A
:1010E8006FE089288A288B2809F46064113041F060
:1010F80018F0123049F00BC080E10E94AF1107C010
:1011080081E10E94AF1103C082E10E94AF11649691
:101118000FB6F894DEBF0FBECDBFDF91CF911F9100
:101128000F91FF90EF90DF90CF90BF90AF909F907E
:0E1138008F907F906F905F904F903F90089542
:10114600CF93DF9300D000D00F92CDB7DEB7539A7E
:101156005B980E94DC120E9483120E94AA100E94D1
:10116600C9100E94D5120E9413120E94EC0D0E9413
:101176000513E12CF12C8701E39420E030E0A9016E
:1011860060E280E00E94460A6AE570E080E090E056
:101196000E94E61081E00E94C5120F2EFAE02F2E63
:1011A60033243394F02D0F2EF0E48F2EF2E49F2E8D
:1011B600F02D0F2EF8EE4F2EF3E05F2EF02D712C52
:1011C60080E08D8342E051E061E082E00E946B1195
:1011D60025E0A10161E081E00E94520F6AE570E01E
:1011E60080E090E00E94E610C101A0E0B0E0A12CF2
:1011F600B12C6501A394E12CF12C870189839A8394
:10120600AB83BC839C01AD0160E080E00E94C40614
:1012160029813A814B815C8161E080E00E94C406AD
:1012260081E00E94C5120E94C311811108C00E946C
:10123600D711811104C00E94EB11882319F20E9474
:1012460014134BE051E061E081E00E946B1146E12E
:1012560051E061E082E00E9475124DE151E061E0EB
:1012660081E00E946B114BE251E061E082E00E9456
:10127600751242E351E061E081E00E946B1140E4A7
:1012860051E061E082E00E9475124BE451E062E0B9
:1012960081E00E946B114EE451E06BE081E00E9418
:1012A6006B1145E551E066E082E00E946B1141E674
:1012B60051E062E082E00E946B110E94C311882314
:1012C600A9F00E94141344E651E061E081E00E9417
:1012D6006B114FE651E061E082E00E9475120E94B8
:1012E600D7118111BCC081E08D83CFCF0E94EB1155
:1012F6008823A1F00E94141348E751E061E081E0E1
:101306000E946B114FE651E061E082E00E94751287
:101316000E94D7118111AEC07D82B7CF0E94D7112E
:10132600882309F4B2CF0E94141343E851E061E028
:1013360081E00E946B118D81882339F043E951E0E9
:1013460061E082E00E94751208C04BE951E061E05D
:1013560082E00E94751280E08D8343EA51E061E0ED
:1013660081E00E946B114EEA51E064E082E00E9447
:101376006B1142EB51E06BE082E00E946B1140E2A0
:1013860067E082E00E94B3124091EE015091EF01B6
:1013960023E061E082E00E94520F4091EC015091FF
:1013A600ED0123E068E082E00E94520F0E94D7110F
:1013B600882399F2C090EE01D090EF01E090EC0105
:1013C600F090ED01C89C9001C99C300DD89C300D61
:1013D6001124E49CC001E59C900DF49C900D112411
:1013E6008901080F191F46EB51E061E081E00E9478
:1013F6006B114EEA51E064E082E00E946B1142EB11
:1014060051E06BE082E00E946B1140E267E082E00F
:101416000E94B31223E0A60161E082E00E94520F0F
:1014260023E0A70168E082E00E94520F46EC51E0FB
:1014360060E181E00E9475120E940513980140E068
:1014460050E060E078E08FEA9FE20E948311190184
:101456008D81882311F05B9AB5CE5B98B3CE0E943E
:10146600141343E851E061E081E00E946B1181E0D2
:101476008D8364CF0E94141343E851E061E081E05C
:061486000E946B1162CF11
:10148C004F925F926F927F928F929F92AF92BF9288
:10149C00CF92DF92EF92FF920F931F93CF93DF9334
:1014AC00CDB7DEB72A970FB6F894DEBF0FBECDBF0F
:1014BC0089876A8729013A0147015801862F8F5085
:1014CC008C3408F0E3C0D801C7010197A109B10918
:1014DC008F3F9F4FAF40B10508F0D8C04114510465
:1014EC0080E16806710408F0D1C041145104610414
:1014FC00710479F4C62ED12C24E0C21AD108D694EA
:10150C00DC2CCC24D794C7940D2C000CEE08FF08CF
:10151C0071C0C801B7010E94A20F69837A838B83C3
:10152C009C83C301B2010E94A20F29813A814B8195
:10153C005C810E941C1320E030E040E053E40E94E8
:10154C0020130E94390C6D837E838F8398879A8534
:10155C0080E8989FB0011124072E000C880B990B82
:10156C000E94A40F2D813E814F8158850E94E41268
:10157C0020E030E040E054E40E94E3120E9413109B
:10158C006B017C01D301C201880F991FAA1FBB1FDD
:10159C00880F991FAA1FBB1F880F991FAA1FBB1F5B
:1015AC00880F991FAA1FBB1F880F991FAA1FBB1F4B
:1015BC00880F991FAA1FBB1FBC01CD01660F771F97
:1015CC00881F991F0E94A20F2B013C012D813E8187
:1015DC004F81588569817A818B819C810E9420136F
:1015EC009B01AC01C301B2010E94E3120E941310D3
:1015FC002B013C012985222319F082E2898302C048
:10160C009AE19983692D89810E94AF11682D898196
:10161C008F5F0E94AF11D701C60188279927A3704D
:10162C00BB27BD018827992789818E5F0E94AF1146
:10163C006D2D89818D5F0E94AF116C2D89818C5F1E
:10164C000E94AF11882499242FE0A222BB24072EDC
:10165C007CE0B694A794979487947A95D1F7702DE3
:10166C00D301C20188279927AF70BB27682D6A2B3D
:10167C0089818B5F0E94AF11652D89818A5F0E94E1
:10168C00AF11642D8981895F0E94AF112A960FB624
:10169C00F894DEBF0FBECDBFDF91CF911F910F919C
:1016AC00FF90EF90DF90CF90BF90AF909F908F9076
:0A16BC007F906F905F904F900895AB
:1016C600A4E0B0E0E9E6FBE00C9404118B019C0178
:1016D600AC0140785F776B017C0140385F4761F46D
:1016E600E894E7F8FF24C114D104E104F10409F0F9
:1016F600ACC097FDAAC0AEC0E894F7F8C114D104F7
:10170600E104F10409F4A6C097FF07C081E290E066
:10171600909301018093000198C0DC01CB0167E141
:10172600B595A795979587956A95D1F70097A105E1
:10173600B105B9F480E090E0DC0127FD08C0000F98
:10174600111F221F331F0196A11DB11DF6CF019750
:10175600A109B109B095A095909581959F4FAF4F7E
:10176600BF4F8F579109A109B1092F7733272068F9
:1017760080FF04C0000F111F221F331FAC01BD01E3
:10178600759567955795479549835A836B837C83EF
:10179600000F111F221F331F49E150E0812C912CAD
:1017A6005401B394C12CD12C760180E090E0DC0189
:1017B6002C013D01480C591C6A1C7B1C041515059F
:1017C6002605370574F0D301C201880D991DAA1D9F
:1017D600BB1D0419150926093709C80CD91CEA1CB2
:1017E600FB1C000F111F221F331FB694A79497945A
:1017F600879441505109E1F601151105210531057E
:1018060051F0970186010170112722273327C00E58
:10181600D11EE21EF31EF594E794D794C79451ECBB
:10182600F51A89819A81AB81BC8127E1880F991FBE
:10183600AA1FBB1F2A95D1F78C0D9D1DAE1DBF1D7E
:10184600482F392F2A2F5B2F09C040E030E020ECCB
:101856005FE704C0462F372F282F592F642F732F89
:0C186600822F952F2496E0E10C942011B5
:101872008F929F92AF92BF92CF92DF92EF92FF929E
:101882000F931F938B019C0157E13695279517956E
:1018920007955A95D1F71127A8014F57510947319A
:1018A20051050CF045C057FD2DC00FEF1FEF2FE77C
:1018B20030E004C035952795179507954A95D2F7DC
:1018C2004801590186229722A822B92289288A280A
:1018D2008B2871F197FF07C0DC01CB01800F911FAC
:1018E200A21FB31F02C0DC01CB0100951095209509
:1018F200309580239123A223B323482F392F2A2FF7
:101902005B2F1AC097FF0FC08B019C01000F111FA4
:10191200221F331F012B022B032B51F040E030E03A
:1019220020E85FEB09C040E030E020E050E004C076
:10193200462F372F282F592F642F732F822F952F41
:101942001F910F91FF90EF90DF90CF90BF90AF90DB
:061952009F908F900895A4
:1019580010C00E94F11258F00E94EA1240F029F4D7
:101968005F3F29F00C94FF1251110C94F9120C945A
:1019780024130E94661068F39923B1F3552391F359
:10198800951B550BBB27AA2762177307840738F0E6
:101998009F5F5F4F220F331F441FAA1FA9F335D043
:1019A8000E2E3AF0E0E832D091505040E695001CF7
:1019B800CAF72BD0FE2F29D0660F771F881FBB1FB1
:1019C800261737074807AB07B0E809F0BB0B802D8F
:1019D800BF01FF2793585F4F3AF09E3F510578F0BB
:1019E8000C94FF120C94F9125F3FE4F3983ED4F381
:1019F800869577956795B795F7959F5FC9F7880F8F
:101A0800911D9695879597F90895E1E0660F771FE0
:101A1800881FBB1F621773078407BA0720F0621B71
:0E1A2800730B840BBA0BEE1F88F7E095089540
:101A36000FC00E94EA1238F00E94F11220F095239E
:101A460011F00C94FF120C94241311240C94F91227
:101A56000E94661070F3959FC1F3950F50E0551FD5
:101A6600629FF001729FBB27F00DB11D639FAA27ED
:101A7600F00DB11DAA1F649F6627B00DA11D661F3C
:101A8600829F2227B00DA11D621F739FB00DA11D5D
:101A9600621F839FA00D611D221F749F3327A00D17
:101AA600611D231F849F600D211D822F762F6A2FB3
:101AB60011249F5750409AF0F1F088234AF0EE0F18
:101AC600FF1FBB1F661F771F881F91505040A9F745
:101AD6009E3F510580F00C94FF120C94F9125F3F63
:101AE600E4F3983ED4F3869577956795B795F79581
:101AF600E7959F5FC1F7FE2B880F911D96958795F9
:041B060097F90895AE
:101B0A0011C00E94EA1238F00E94F11220F039F452
:101B1A009F3F19F426F40C9424130EF4E095E7FB86
:101B2A000C94FF12E92F0E94661058F3BA17620745
:101B3A0073078407950720F079F4A6F50C94F81238
:101B4A000EF4E0950B2EBA2FA02D0B01B9019001CE
:101B5A000C01CA01A0011124FF27591B99F0593F12
:101B6A0050F4503E68F11A16F040A22F232F342F5A
:101B7A004427585FF3CF469537952795A795F040A8
:101B8A005395C9F77EF41F16BA0B620B730B840BBD
:101B9A00BAF09150A1F0FF0FBB1F661F771F881F75
:101BAA00C2F70EC0BA0F621F731F841F48F48795CD
:101BBA0077956795B795F7959E3F08F0B0CF9395BF
:0E1BCA00880F08F09927EE0F979587950895DC
:101BD800E8ECF1E0108211821282138214821582DD
:101BE80016821782108611861286138662ED87EB9D
:101BF8000E94AF1160E880E10E94AF1160E881E1C6
:101C08000E94AF1160E882E10E94AF1160E883E1B1
:101C18000E94AF1160E884E10E94AF1160E885E19D
:101C28000E94AF1160E886E10E94AF1160E887E189
:101C38000E94AF116CE080E10E94AF116CE081E17D
:101C48000E94AF116CE082E10E94AF116CE083E169
:101C58000E94AF116CE084E10E94AF116CE085E155
:101C68000E94AF116CE086E10E94AF116CE087E141
:101C78000E94AF1185E90E94DF0F682F6F7785E911
:061C88000E94AF11089557
:101C8E001F921FB61F9211242F933F938F939F93F2
:101C9E0030B120B1832F817090E0880F991F21FB06
:101CAE00992790F9892B9091F10191110DC08130F6
:101CBE0059F42091EE013091EF012F5F3F4F309399
:101CCE00EF012093EE0110C09091F10191110CC023
:101CDE00823051F42091EE013091EF012150310903
:101CEE003093EF012093EE012091EE013091EF0140
:101CFE002E3131053CF02EE130E03093EF01209390
:101D0E00EE010DC02091EE013091EF01243031052E
:101D1E0034F423E030E03093EF012093EE01809312
:101D2E00F1019F918F913F912F911F901FBE1F9098
:021D3E001895F6
:101D40001F921FB61F9211242F933F938F939F933F
:101D500036B126B136FB882780F990E0880F991FAD
:101D6000922F991F9927991F892B9091F00191111A
:101D70000DC0813059F42091EC013091ED012F5FBD
:101D80003F4F3093ED012093EC0110C09091F00192
:101D900091110CC0823051F42091EC013091ED0191
:101DA000215031093093ED012093EC012091EC0199
:101DB0003091ED01273E33403CF027EE33E0309385
:101DC000ED012093EC010BC02091EC013091ED016D
:101DD0001216130624F01092ED011092EC0180937C
:101DE000F0019F918F913F912F911F901FBE1F90E7
:021DF000189544
:101DF2000F931F93CF93DF93EA0140385105D4F03C
:101E020020E030E040E05FE70E9420139E012F5760
:101E12003109203831056CF120E030E040E05FE725
:101E22000E942013CE5FD109C038D1051CF1CFE743
:101E3200D0E020C042385F4FECF420E030E040E8D0
:101E42005CE00E9420139E012A593F4F22384FEF37
:101E520034077CF420E030E040E85CE00E9420138C
:101E6200C453DF4FC2382FEFD20724F4C2E8DFEFAA
:101E720001C0E9019E0121583F4F8901330F220B16
:101E8200330BA9019801E7E1220F331F441F551FAD
:101E9200EA95D1F70E942013DF91CF911F910F9104
:021EA2000895A1
:101EA400FF920F931F93CF93DF9300D0CDB7DEB78C
:101EB4008A01F22E0E944712FF20D1F16F2D70E0AB
:101EC40061507109072E000C880B990B0E94A40F16
:101ED4009B01AC0160E070E080E291E40E94A50007
:101EE4000E9413107A83698369817A81C8010E94F0
:101EF400FF11AB019B01ADECBCEC0E946612969500
:101F040087959695879596958795880F991F9C0137
:101F1400220F331F220F331F820F931F9A01281B96
:101F2400390BC901805D0E945211FA94F110C6CF99
:101F34000F900F90DF91CF911F910F91FF90089513
:101F4400E89409C097FB3EF490958095709561954F
:101F54007F4F8F4F9F4F9923A9F0F92F96E9BB2705
:101F64009395F695879577956795B795F111F8CF81
:101F7400FAF4BB0F11F460FF1BC06F5F7F4F8F4FEC
:101F84009F4F16C0882311F096E911C0772321F0E2
:101F94009EE8872F762F05C0662371F096E8862F7A
:101FA40070E060E02AF09A95660F771F881FDAF7D1
:0A1FB400880F9695879597F9089518
:101FBE001F93CF93DF9300D00F92CDB7DEB7182FBC
:101FCE000E949A1180E60E942512898389818831A8
:101FDE00B9F4812F0E9490128A838A81883291F4FB
:101FEE000E94BC1280E60E9457128B838B81803434
:101FFE0059F40E949D1289830E941813898105C08D
:10200E008FEF03C08FEF01C08FEF0F900F900F90E7
:08201E00DF91CF911F9108959D
:102026000E946E1088F09F5798F0B92F9927B751E4
:10203600B0F0E1F0660F771F881F991F1AF0BA9566
:10204600C9F714C0B13091F00E94F812B1E00895BA
:102056000C94F812672F782F8827B85F39F0B93FAC
:10206600CCF3869577956795B395D9F73EF4909519
:0E2076008095709561957F4F8F4F9F4F089515
:10208400990F0008550FAA0BE0E8FEEF1616170685
:10209400E807F907C0F012161306E407F50798F0ED
:1020A400621B730B840B950B39F40A2661F0232B06
:1020B400242B252B21F408950A2609F4A140A69582
:0820C4008FEF811D811D0895BD
:1020CC0057FD9058440F551F59F05F3F71F04795DD
:1020DC00880F97FB991F61F09F3F79F087950895C2
:1020EC00121613061406551FF2CF4695F1DF08C0E1
:1020FC00161617061806991FF1CF869571056105FE
:04210C000894089596
:10211000A1E21A2EAA1BBB1BFD010DC0AA1FBB1FEB
:10212000EE1FFF1FA217B307E407F50720F0A21B5D
:10213000B30BE40BF50B661F771F881F991F1A94CA
:1021400069F760957095809590959B01AC01BD01F4
:04215000CF0108951E
:1021540081B18C7F81B987B18F7387B982B18F6068
:1021640082B9E8E6F0E080818160808380818460C8
:102174008083EBE6F0E0808183608083EDE6F0E02D
:0E2184008081806C8083D89ADA9A78940895CE
:1021920050B140B1252F217030E0220F331F41FB97
:1021A200332730F9232B2093F10136B126B136FBC8
:1021B200882780F990E0880F991F922F991F9927FD
:0A21C200991F892B8093F001089506
:1021CC00CF92DF92EF92FF926B017C0160E085EA87
:1021DC000E94AF11C701B6016F777727882799271F
:1021EC0086EA0E94AF1160EA81EB0E94AF11FF906A
:0821FC00EF90DF90CF900895F1
:102204002F923F924F925F926F927F928F929F9202
:10221400AF92BF92CF92DF92EF92FF920F931F93F0
:10222400CF93DF93CDB7DEB7CA1BDB0B0FB6F894A1
:08223400DEBF0FBECDBF09940F
:10223C002A88398848885F846E847D848C849B844A
:10224C00AA84B984C884DF80EE80FD800C811B8158
:10225C00AA81B981CE0FD11D0FB6F894DEBF0FBE87
:06226C00CDBFED01089555
:102272005F985E9895B1892B85B95D9A89EF90E058
:102282000197F1F700C000005D9889EF90E0019797
:10229200F1F700C0000085B115B88BB18F718BB911
:0222A20008959D
:1022A4005F9A5E9895B1892B85B95D9A89EF90E024
:1022B4000197F1F700C000005D9889EF90E0019765
:1022C400F1F700C0000085B115B88BB18F718BB9DF
:0222D40008956B
:1022D6000F931F93CF938A010E944712F8018081C2
:1022E600882351F0C0E00E945211CF5FF801EC0F35
:1022F600F11D80818111F7CFCF911F910F91089524
:10230600052E97FB1EF400940E94CD1257FD07D0B0
:102316000E94881007FC03D04EF40C94CD12509501
:0E2326004095309521953F4F4F4F5F4F0895E2
:10233400CF93DF930F92CDB7DEB7198284EA8093EF
:10234400BC00ECEBF0E080818823ECF78091B900CD
:0A23540089830F90DF91CF91089567
:10235E00CF93DF93D82FC62F0E949A1180E60E944A
:10236E0025128D2F0E9490128C2F0E9490120E9487
:08237E001813DF91CF910895BF
:10238600069B10C087E893E10197F1F700C00000B3
:102396000699FECF87E893E10197F1F700C00000A8
:0823A60081E0089580E0089534
:1023AE00059B10C087E893E10197F1F700C000008C
:1023BE000599FECF87E893E10197F1F700C0000081
:0823CE0081E0089580E008950C
:1023D600049B10C087E893E10197F1F700C0000065
:1023E6000499FECF87E893E10197F1F700C000005A
:0823F60081E0089580E00895E4
:1023FE00AA1BBB1B51E107C0AA1FBB1FA617B7071D
:10240E0010F0A61BB70B881F991F5A95A9F7809538
:08241E009095BC01CD01089569
:1024260087B1836087B988B18C7F88B987B18C7F83
:1024360087B98DEF8093B800ECEBF0E08081846083
:0424460080830895F2
:10244A00880F8093BB0084E88093BC00ECEBF0E03B
:10245A0080818823ECF7E9EBF0E0808180818E7F30
:02246A000895D3
:10246C00092E0394000C11F4882352F0BB0F40F496
:10247C00BF2B11F460FF04C06F5F7F4F8F4F9F4FD6
:02248C000895B1
:10248E00813031F48FEF860F80680E9439110895E4
:10249E00823029F48FE3860F80680E9439110895E7
:1024AE00880F81608093BB0084E88093BC00ECEBC6
:0E24BE00F0E080818823ECF78091B90008954A
:1024CC00A29FB001B39FC001A39F700D811D112469
:0E24DC00911DB29F700D811D1124911D089558
:1024EA000E946B112FE78AE196E0215080409040CC
:0C24FA00E1F700C000000E9414130895D8
:1025060088E30E9439118CE00E94391186E00E940E
:0A251600391181E00E943911089587
:102520008093BB0084E88093BC00ECEBF0E08081FA
:0A2530008823ECF78091B9000895AC
:10253A0084E88093BC00ECEBF0E080818823ECF720
:06254A008091BB00089522
:10255000EC010E942E130E942D13CE010E942F1316
:06256000CE010E942B13C6
:10256600CF93C42F0E9447128C2F0E945211CF91F5
:022576000895C6
:1025780084EA8093BC00ECEBF0E080818823ECF7E0
:022588000895B4
:10258A0061E08627682F619583E00E94AF11089564
:10259A0090958095709561957F4F8F4F9F4F0895C5
:0E25AA0081B18F7881B982B18F7882B908959E
:0E25B80084B18FEF84B98AB1806E8AB908951C
:0E25C6005058BB27AA270E94850D0C94361290
:0E25D40000240A941616170618060906089524
:0E25E20000240A941216130614060506089526
:0E25F000E894BB2766277727CB0197F908955B
:0C25FE0097F99F6780E870E060E00895A6
:0A260A0060EA81EB0E94AF11089511
:0A2614000E94421008F481E00895CE
:0A261E000E94421008F48FEF0895A7
:0826280081E00E9439110895C0
:0826300084E98093BC000895C9
:082638000E94AC0C0C94361258
:082640000E941B0D0C943612E0
:062648009FEF80EC0895F5
:04264E000C940000E8
:042652009F770895D1
:042656000E94A3003B
:02265A000895E1
:02265C000895DF
:02265E000895DD
:10266000544F20535441525400546F70204275749B
:10267000746F6E00666F7220545800426F74746FEE
:102680006D20427574746F6E00666F722052580030
:102690004D6964646C6520427574746F6E00746F6C
:1026A00020436F6E6669726D00545800506C65610E
:1026B00073650053656C656374204D6F64650052EB
:1026C00058005258204D6F64652069730073656C23
:1026D0006563746564005458204D6F6465206973A8
:1026E000004D6F646520436F6E6669726D65643A74
:1026F000005258204D6F6465005458204D6F64653A
:10270000004672657175656E63793A004D487A00CE
:102710004B487A00436F6E6669726D65642046723D
:0627200065713A00200083
:0827260000000000DCCFD135FA
:08272E000000000000C0153F8F
:082736000000803F0000C03FDD
:02273E00030096
:00000001FF
